:100000000EC100003DC100003BC1000039C100002D
:1000100037C1000035C1000033C1000031C100000C
:100020002FC100002DC100002BC1000029C100001C
:1000300027C1000025C1000023C1000021C100002C
:100040001FC100001DC100001BC1000019C100003C
:1000500017C1000015C1000013C100003BC700001C
:100060000FC1000052C50000ECC5000009C100002E
:1000700007C1000005C1000003C1000001C100006C
:10008000FFC00000FDC00000FBC00000F9C0000080
:1000900013C50000ADC50000F3C0000065C7000037
:1000A000EFC00000EDC00000EBC00000E9C00000A0
:1000B000E7C00000E5C00000E3C00000E1C00000B0
:1000C000DFC00000DDC00000DBC00000CCC40000C9
:1000D00066C50000D5C000000C940D0D0C94E40C16
:1000E000CFC00000E006E306D206D606DA061A07FD
:1000F000E706EB06F106F506F906FF060307070714
:100100001A070D071107150700002100240027001A
:100110002A002D0030003300010100000401070116
:100120000A0100000A0B02090C0D0E080703040166
:1001300000000000000000000000000000000000BF
:10014000000000000000000000000000000012118C
:10015000100000000000000000000000000000008F
:10016000000000000000000001021020200808101C
:100170002040102040800201020108040201010217
:1001800004081020408080402010080402018004F0
:10019000020180402010080402010804020101024B
:1001A0000408102040800102040810204080000054
:1001B0002200250028002B002E003100340002010F
:1001C0000000050108010B010505050507050808E4
:1001D0000808020202020A0A0808040404040101D1
:1001E00001010101010103030303030303030407E6
:1001F00007070C0C0C0C0C0C0C0C0202020206067D
:100200000606060606060B0B0B0B0B0B0B0B6364AB
:10021000696E6F70737578585B008F113D141124EF
:100220001FBECFEFD1E2DEBFCDBF00E00CBF13E0B9
:10023000A0E0B2E0EAE4F5E300E00BBF02C0079003
:100240000D92A631B107D9F727E0A6E1B3E001C0CE
:100250001D92A931B207E1F711E0CEE0D1E000E054
:1002600006C021970109802FFE010E945C14CD3049
:10027000D10780E00807A9F70E94520E0C94941A47
:10028000BFCEFC01918D828D981761F0828DDF01C8
:10029000A80FB11D5D968C91928D9F5F9F73928F79
:1002A00090E008958FEF9FEF0895FC01918D828D6E
:1002B000981731F0828DE80FF11D858D90E008953B
:1002C0008FEF9FEF0895FC01918D228D892F90E093
:1002D000805C9F4F821B91098F73992708958FEE41
:1002E00094E0F1DF21E0892B09F420E0822F0895CA
:1002F00088E496E0E8DF21E0892B09F420E0822FF2
:10030000089580E090E0892B19F0F2DF811118C088
:1003100080E090E0892B19F0E2DF811114C080E0C9
:1003200090E0892B21F00E948C0B81110FC080E09E
:1003300090E0892B81F00E94820B81110AC0089500
:100340000E940000E5CF0E940000E9CF0E9400005B
:10035000EECF0C94000008953FB7F8948091A1036C
:100360009091A203A091A303B091A40326B5A89BEA
:1003700005C02F3F19F00196A11DB11D3FBFBA2F37
:10038000A92F982F8827820F911DA11DB11DBC0197
:10039000CD0142E0660F771F881F991F4A95D1F75C
:1003A000089585ED8093BC008091BC0084FDFCCF56
:1003B00010927A03089540915603262F30E0240FBF
:1003C000311D21323105DCF420917A032430C9F447
:1003D000FC0180E090E0861758F43091560321919B
:1003E000DC01AA5CBC4FA30FB11D2C930196F3CF87
:1003F00080915603680F6093560380E0089581E072
:10040000089582E00895E091AF03F091B003309732
:1004100029F01092B2031092B10319940895CF936A
:10042000DF93AC01E091AD03F091AE033097F1F0B2
:100430009091B4038091B3039817C0F090E0292FF6
:1004400030E02617370754F4D901AA5EBC4FEA0101
:10045000C20FD31F88818C939F5FF1CF1092B4039A
:100460006093B303CB01DF91CF911994DF91CF91CA
:1004700008950895E091B4038091B303E81730F430
:10048000F0E0EA5EFC4F808190E008958FEF9FEFEF
:1004900008959091B4038091B303981750F4E92F15
:1004A000F0E0EA5EFC4F208130E09F5F9093B40360
:1004B00002C02FEF3FEFC90108958091B30390E090
:1004C0002091B403821B91090895CF93DF931F926B
:1004D0001F92CDB7DEB7CB01642F49835A836BDF00
:1004E0004981842F5A81952F0F900F90DF91CF91E2
:1004F0000895CF93DF931F92CDB7DEB7698361E094
:10050000CE01019658DF81E090E00F90DF91CF910E
:100510000895CB0108957F928F929F92AF92BF92E0
:10052000CF92DF92EF92FF920F931F93CF93DF93BF
:10053000EC0149015A018B01C12CD12C7601C81460
:10054000D904EA04FB0484F5F80171908F018F85CA
:1005500080FF0BC0E881F9810084F185E02D20E166
:1005600044E060E070E0CE011995EB85FC858D8557
:100570009E85E817F90738F470828B859C85019673
:100580009C878B870BC0E881F981672D70E0028C16
:10059000F38DE02DCE011995019649F02FEFC21A87
:1005A000D20AE20AF20ACBCFB401C50102C0B601F9
:1005B000C701DF91CF911F910F91FF90EF90DF90D6
:1005C000CF90BF90AF909F908F907F900895CF93E2
:1005D000DF93EC01E881F9810288F389E02D199518
:1005E0008F3F2FEF920731F02D813E812F5F3F4FDC
:1005F0003E832D83DF91CF9108958FEF9FEF089574
:1006000060E070E0CB01089580E090E00895CB01B8
:100610000895CF93DF93EC0188899989DC01ED91EE
:10062000FC910480F581E02D1995892BA9F3888927
:100630009989DC01ED91FC910680F781E02DDF9135
:10064000CF911994CF93DF93EC0188899989DC01CC
:10065000ED91FC910480F581E02D1995892BA9F38A
:1006600088899989DC01ED91FC910084F185E02D68
:10067000DF91CF911994AF92BF92CF92DF92EF9218
:10068000FF920F931F93CF93DF9300D01F92CDB7AC
:10069000DEB78C015B01C12CD12C7601F801808979
:1006A0009189DC01ED91FC910680F781E02D298391
:1006B0003A834B835C83199529813A814B815C8114
:1006C0008F3F71F0C216D306E406F5064CF4D5014F
:1006D0008D935D01BFEFCB1ADB0AEB0AFB0ADECF7D
:1006E000C701B6010F900F900F900F90DF91CF913F
:1006F0001F910F91FF90EF90DF90CF90BF90AF9040
:100700000895DC0150968D919C915197DC01ED91FB
:10071000FC910480F581E02D199480E090E008952B
:1007200080E090E0089580E090E0089580E090E01F
:1007300008950895CF93DF93C0911806D0911906BC
:10074000E881F9810480F581E02DCE011995892B8E
:10075000B9F3E881F9810680F781E02DCE01DF91C0
:10076000CF9119941F93CF93DF93182FC091180640
:10077000D09119068A3041F4E881F9810190F08125
:10078000E02D6DE0CE011995E881F9810190F081AD
:10079000E02D612FCE01199521E030E0019711F491
:1007A00020E030E0C901DF91CF911F9108950C94B2
:1007B000DA19089508950C94DA19DC01ED91FC9191
:1007C000369720813181820F931FF5CFFB01208165
:1007D0003181FC0131832083FB0142815381F90186
:1007E000369720813181FC01E20FF31F5183408352
:1007F000089528E632E0FC013183208322E732E0CD
:10080000318F208F68E772E0E1CFDC01ED91FC9140
:10081000369720813181820F931FEBCFCF93DF93E7
:10082000EC01E7DFCE01DF91CF910C94DA19DC0106
:10083000ED91FC91369720813181820F931FEECF8D
:100840000C94DA19089508950C94DA19DC01ED91ED
:10085000FC91369720813181820F931FF5CFFB01E8
:1008600020813181FC0131832083FB01428153814E
:10087000F901369720813181FC01E20FF31F51838A
:100880004083089520EE32E0FC01318320832AEE7C
:1008900032E0358B248B60EF72E0E1CFDC01ED912B
:1008A000FC91369720813181820F931FEBCFCF933C
:1008B000DF93EC01E7DFCE01DF91CF910C94DA19E1
:1008C000DC01ED91FC91369720813181820F931FDD
:1008D000EECF0C94DA190F931F93CF93DF938C0113
:1008E000EB016F3F8FEF780719F480E090E00FC0C5
:1008F0006A3031F46DE0F801808991890E94DD0C45
:100900006C2FF801808991890E94DD0CCE01DF9166
:10091000CF911F910F9108958F929F92BF92CF9286
:10092000DF92EF92FF920F931F93CF93DF9300D04C
:100930001F92CDB7DEB78C014B01C12CD12C7601B3
:10094000C216D306E406F50644F5F401B1904F0152
:10095000FAE0BF120EC06DE0F80180899189298309
:100960003A834B835C830E94DD0C5C814B813A812E
:1009700029816B2DF8018089918929833A834B83E2
:100980005C830E94DD0CFFEFCF1ADF0AEF0AFF0A3B
:100990005C814B813A812981D3CFCA01B9010F9083
:1009A0000F900F900F90DF91CF911F910F91FF90BB
:1009B000EF90DF90CF90BF909F908F9008951F93FE
:1009C000CF93DF9311E0CAE9D5E09091B303809112
:1009D000B403981759F18CE895E05BDD82309105FE
:1009E00029F4109298051092990515C0E091980588
:1009F0008330910539F4F0E0E856FA4F12821093F3
:100A0000990509C0AE2FB0E0A856BA4F12968C9344
:100A1000EF5FE0939805809198058034B1F6FE0170
:100A200011928A95E9F710929805CFCFDF91CF9177
:100A30001F910895FC01A089B1898C91A689B7897D
:100A400082FD0FC09C91818D8F5F8F73228D8217E5
:100A500049F0218DDF01A20FB11D5D969C93818F1E
:100A600008958C9108951F920F920FB60F92112442
:100A70000BB60F922F933F934F935F936F937F9398
:100A80008F939F93AF93BF93EF93FF9382E594E08F
:100A9000D1DFFF91EF91BF91AF919F918F917F91A6
:100AA0006F915F914F913F912F910F900BBE0F90DF
:100AB0000FBE0F901F9018951F920F920FB60F92B6
:100AC00011240BB60F922F933F934F935F936F9325
:100AD0007F938F939F93AF93BF93EF93FF938FEE8B
:100AE00094E0A8DFFF91EF91BF91AF919F918F911B
:100AF0007F916F915F914F913F912F910F900BBE1E
:100B00000F900FBE0F901F9018951F920F920FB667
:100B10000F9211240BB60F922F933F934F935F9335
:100B20006F937F938F939F93AF93BF93EF93FF93B5
:100B300088E496E07FDFFF91EF91BF91AF919F91A5
:100B40008F917F916F915F914F913F912F910F9076
:100B50000BBE0F900FBE0F901F901895FC01848D57
:100B6000DF01A80FB11DA35ABF4F2C91848D90E0D7
:100B700001968F739927848FA689B7892C93A089B2
:100B8000B1898C9180648C93938D848D981306C069
:100B90000288F389E02D80818F7D808308951F92E4
:100BA0000F920FB60F9211240BB60F922F933F9313
:100BB0004F935F936F937F938F939F93AF93BF9365
:100BC000EF93FF9382E594E0C9DFFF91EF91BF912E
:100BD000AF919F918F917F916F915F914F913F91D5
:100BE0002F910F900BBE0F900FBE0F901F90189576
:100BF0001F920F920FB60F9211240BB60F922F93E4
:100C00003F934F935F936F937F938F939F93AF9394
:100C1000BF93EF93FF938FEE94E0A0DFFF91EF91EE
:100C2000BF91AF919F918F917F916F915F914F9104
:100C30003F912F910F900BBE0F900FBE0F901F9002
:100C400018951F920F920FB60F9211240BB60F92A8
:100C50002F933F934F935F936F937F938F939F93C4
:100C6000AF93BF93EF93FF9388E496E077DFFF9114
:100C7000EF91BF91AF919F918F917F916F915F9114
:100C80004F913F912F910F900BBE0F900FBE0F9081
:100C90001F901895EF92FF920F931F93CF93DF93BE
:100CA000EC0181E0888F9B8D8C8D981305C0E889BD
:100CB000F989808185FD23C0F62E0B8D10E00F5F32
:100CC0001F4F0F731127E02E8C8DE8120BC00FB64B
:100CD00007FCFACFE889F989808185FFF5CFCE013D
:100CE0003DDFF2CF8B8DFE01E80FF11DE35AFF4F80
:100CF000F0820B8FEA89FB898081806207C0EE89D0
:100D0000FF896083E889F98980818064808381E03C
:100D100090E0DF91CF911F910F91FF90EF90089598
:100D2000CF93DF93EC01888D8823C1F0EA89FB899A
:100D3000808185FD05C0A889B9898C9186FD0EC08A
:100D40000FB607FCF5CF808185FFF2CFA889B9895E
:100D50008C9185FFEDCFCE0101DFE8CFDF91CF9100
:100D60000895362F90E0FC01EE5DFE4F4491FC01AA
:100D7000E859FE4F2491FC01E853FE4F94919923CA
:100D800009F46BC0442309F455C050E0FA013197CF
:100D9000E231F10508F04EC08827EE58FF4F8F4F23
:100DA0000C945C14809180008F7707C08091800044
:100DB0008F7D03C080918000877F809380003AC040
:100DC00084B58F7702C084B58F7D84BD33C0809198
:100DD000B0008F7703C08091B0008F7D8093B0000A
:100DE00029C0809190008F7707C0809190008F7DFF
:100DF00003C080919000877F809390001BC08091FA
:100E0000A0008F7707C08091A0008F7D03C08091E4
:100E1000A000877F8093A0000DC0809120018F7774
:100E200007C0809120018F7D03C080912001877FC2
:100E300080932001E92FF0E0EE0FFF1FE255FE4FF7
:100E4000A591B4918FB7F894EC91311103C020951E
:100E50002E2301C02E2B2C938FBF0895CF93DF93A9
:100E600090E0FC01E859FE4F2491FC01E853FE4F4D
:100E70008491882361F190E0880F991FFC01E85F5D
:100E8000FE4FC591D491FC01E255FE4FA591B4915E
:100E9000611109C09FB7F8948881209582238883C7
:100EA000EC912E230BC0623061F49FB7F894388127
:100EB000822F809583238883EC912E2B2C939FBFC8
:100EC00006C08FB7F894E8812E2B28838FBFDF915F
:100ED000CF9108951F920F920FB60F9211242F9366
:100EE0003F938F939F93AF93BF938091A50390916E
:100EF000A603A091A703B091A8033091A00323E01B
:100F0000230F2D3720F40196A11DB11D05C026E841
:100F1000230F0296A11DB11D2093A0038093A5036A
:100F20009093A603A093A703B093A8038091A10375
:100F30009091A203A091A303B091A4030196A11DD7
:100F4000B11D8093A1039093A203A093A303B09338
:100F5000A403BF91AF919F918F913F912F910F90DB
:100F60000FBE0F901F9018951F920F920FB60F9201
:100F700011240BB60F922F933F934F935F936F9370
:100F80007F938F939F93AF93BF93EF93FF93809142
:100F9000B900887F803609F49CC068F5883209F46E
:100FA0005BC090F4803109F454C038F4882309F40C
:100FB000F6C0883009F44DC0F5C0883109F44CC042
:100FC000803209F45DC0EEC0803409F468C048F492
:100FD000803309F455C0883309F0E4C08093790365
:100FE000D8C0803509F44FC0883509F45DC0883415
:100FF00009F0D8C0D6C0883909F4C7C0A8F488372A
:1010000009F467C038F4883609F463C0803709F4FE
:1010100060C0C8C0883809F4B8C0803909F45FC01E
:10102000803809F0BFC05BC0803B09F486C038F44B
:10103000803A09F466C0883A09F47FC0B3C0803CA6
:1010400009F4A7C0883C09F4A4C0883B09F48AC00D
:10105000A9C080919F0310C090919E0380919D0331
:10106000981770F5E0919E0381E08E0F80939E03A8
:10107000F0E0E358FC4F80818093BB0085EC86C094
:10108000809379038EC0E0919E0381E08E0F809360
:101090009E038091BB00F0E0E358FC4F8083909169
:1010A0009E0380919D036EC0E0919E0381E08E0FB0
:1010B00080939E038091BB00F0E0E358FC4F808357
:1010C00080917C0381116DC081E080937B0384EA71
:1010D00061C083E080937A0310927803CFCF809130
:1010E0007803803208F051C0E091780381E08E0FE0
:1010F000809378038091BB00F0E0E85AFC4F808336
:10110000BDCF85EC8093BC0010927A038091780368
:10111000803230F4E0917803F0E0E85AFC4F10821E
:101120006091780370E0E091A903F091AA0388E54B
:1011300093E019951092780335C084E080937A0388
:101140001092570310925603E091AB03F091AC0359
:10115000199580915603811105C081E08093560353
:1011600010923603E091570381E08E0F809357036E
:10117000F0E0EA5CFC4F80818093BB0090915703C4
:1011800080915603981708F479CF85E88093BC00C6
:1011900009C085EC8093BC0010927A0303C01092C2
:1011A0007903FFD8FF91EF91BF91AF919F918F91FC
:1011B0007F916F915F914F913F912F910F900BBE57
:1011C0000F900FBE0F901F90189510927A0381E038
:1011D00080937C0310927B0361E084E1C2DD61E0D7
:1011E00085E1BFDDE9EBF0E080818E7F8083808147
:1011F0008D7F808388E48093B80085E48093BC0071
:101200000895CF92DF92EF92FF920F931F93CF93A7
:10121000DF93CDB7DEB729970FB6F894DEBF0FBEC8
:10122000CDBF8C0199D8D8011E96CD90DD90ED9060
:10123000FC905197DC01CB018C199D09AE09BF09C7
:101240008C329140A105B10568F3F894D801149649
:101250008D919C9115979A8389831896ED91FC91B5
:1012600019977F01BFEFEB1AFB0A80818B83F8018E
:1012700090810288F389E02DD80154968C919923AE
:1012800009F430C09081982B9C83908180958923AC
:101290008D838D818E8388E08F835C816D814B810E
:1012A0003F812E8189819A81D701508347FD252F67
:1012B0003A952083262F39F0441F00C00000608338
:1012C000000000C0F2CF38E04D916083000001972C
:1012D00061F7D8015396FC93EE9352974B833F836B
:1012E0002E833AC09081982B9C839081809589238E
:1012F0008D838D81888788E089875C816D814B81B2
:101300003985288589819A81D701508347FD252F0A
:1013100000C000C0208300C000C000C000C000C0EA
:1013200060830000262F3A9541F0441F000000C062
:1013300000C000C000C000C0E8CF38E04D9100C040
:10134000608300C0019709F7D8015396FC93EE9390
:1013500052974B83398728879A83898378940E9490
:10136000AC01F80166877787808B918B29960FB641
:10137000F894DEBF0FBECDBFDF91CF911F910F91CB
:10138000FF90EF90DF90CF900895CF93DF93EC0123
:1013900088859985009711F00E94DA198E8187FD62
:1013A00004C060E0DF91CF9159CDDF91CF910895D6
:1013B000089508950895AF92BF92CF92DF92EF9271
:1013C000FF920F931F93CF93DF93FC01248135810C
:1013D0006217730700F56B01EC0186E0869F5001F0
:1013E000879FB00C11248B01E12CF12C8C819D8105
:1013F0000817190770F4C7018A0D9B1D28813981D0
:10140000820F931F92D20F5F1F4FF6E0EF0EF11C79
:10141000EDCFDD82CC82DF91CF911F910F91FF90B4
:10142000EF90DF90CF90BF90AF9008956F927F9232
:101430008F929F92AF92BF92CF92DF92EF92FF92E4
:101440000F931F93CF93DF93FC01248135812617DF
:10145000370708F06CC07A018B01EC0122813381DF
:1014600026173707A0F5CB0108962817390778F516
:10147000808091809383828326E0AC01249FC00109
:10148000259F900D11240E94451999838883C12CB2
:10149000D12CA12CB12C8C819D81A816B906A0F469
:1014A00034016C0C7D1C888199818C0D9D1D0097E9
:1014B00011F0B3013FD2C30138D25FEFA51AB50ACC
:1014C00086E0C80ED11CE7CFC4010E94DA19CC8097
:1014D000DD8086E08C9D50018D9DB00C1124812C07
:1014E000912CC016D10690F428813981C4018A0D4F
:1014F0009B1D820F931F009711F0B7011BD2EFEFD6
:10150000CE1ADE0AF6E08F0E911CEBCF1D830C8302
:10151000DF91CF911F910F91FF90EF90DF90CF90CF
:10152000BF90AF909F908F907F906F900895DF91C4
:10153000CF911F910F91FF90EF90DF90CF90BF90D0
:10154000AF909F908F907F906F9035CF0F931F93A8
:10155000CF93DF938091E5059091E605892B39F4CF
:1015600086EF92E0DF91CF911F910F913DC3E09103
:10157000E105F091E2058081918136D3C6E0D0E0AB
:1015800000E010E06091E5057091E6056150710999
:101590000617170788F48091E1059091E2050F5F27
:1015A0001F4FBC016C0F7D1F9E0126503109820F19
:1015B000931F6FD12696E6CF81EE95E0DF91CF9114
:1015C0001F910F91F8CEAB01FC0124813581B90147
:1015D0006F5F7F4F2BCFEF92FF920F931F93CF93AD
:1015E000DF937C0100E010E0C0E0D0E0F70124814F
:1015F000358180819181C217D30738F4800F911F04
:1016000094D121960A5F1F4FF1CFDF91CF911F91A7
:101610000F91FF90EF900C94DA19CF93DF93EC01C8
:101620002FB7F8948091A5039091A603A091A703EA
:10163000B091A8032FBF88879987AA87BB87E881C5
:10164000F9810680F781E02DCE01199597FF1EC024
:101650002FB7F8948091A5039091A603A091A703BA
:10166000B091A8032FBF488559856A857B85841B67
:10167000950BA60BB70B4C815D816E817F81841722
:101680009507A607B707D8F28FEF9FEFDF91CF91AD
:101690000895DC01ED91FC91DB0114964D915C9174
:1016A00015976D917C910280F381E02D1994CF9272
:1016B000DF92EF92FF920F931F93CF93DF936C0112
:1016C0007A018B01C0E0D0E0CE15DF0589F0D801AA
:1016D0006D918D01D601ED91FC910190F081E02D8D
:1016E000C6011995892B11F47E0102C02196ECCF19
:1016F000C701DF91CF911F910F91FF90EF90DF9085
:10170000CF90089585EB93E00E94630121E0892B3F
:1017100009F420E0822F089582E594E00E9463019D
:1017200021E0892B09F420E0822F08950E944815BA
:10173000FB0144815581FC01248135812417350743
:1017400078F080819181009759F0FB01608171816F
:101750006115710529F00E945C1521E0892B09F0C3
:1017600020E0822F08950F931F93CF93DF93EC0116
:1017700088819981009729F02A813B8126173707B4
:1017800088F48B016F5F7F4F0E946414009761F0B3
:10179000998388831B830A832C813D81232B11F439
:1017A000FC01108281E001C080E0DF91CF911F91A8
:1017B0000F910895EF92FF920F931F93CF93DF93B2
:1017C000FC01248135816115710511F480E018C098
:1017D00041155105A1F07B01EC018A01020F131F95
:1017E000B801C1DF882391F3288139818C819D81E3
:1017F000B701820F931F0E9455151D830C8381E052
:10180000DF91CF911F910F91FF90EF900895CF93AB
:10181000DF93EC0188819981009711F00E94DA1919
:10182000198218821D821C821B821A82DF91CF913D
:101830000895CF93DF93EC01FB01448155816081D2
:101840007181B8DF811102C0CE01E1DFCE01DF91ED
:10185000CF910895EF92FF920F931F93CF93DF9351
:10186000EC017B018A01BA017EDF811103C0CE0148
:10187000CEDF07C01D830C83B701888199810E9448
:101880005515CE01DF91CF911F910F91FF90EF90F1
:101890000895CF93DF93EC01FB018617970751F072
:1018A000608171816115710521F044815581D2DF1C
:1018B00001C0ADDFCE01DF91CF910895EF92FF928D
:1018C0000F931F93CF93DF93CDB7DEB762970FB619
:1018D000F894DEBF0FBECDBF8C01CB01F8011182A1
:1018E0001082138212821582148250E09E012F5FB3
:1018F0003F4F7901B9010E94B418F701019000200F
:10190000E9F73197AF014E195F09B701C801A2DFAE
:1019100062960FB6F894DEBF0FBECDBFDF91CF91B8
:101920001F910F91FF90EF900895FC0180819181AC
:101930000C94DA19FC011182108213821282158232
:101940001482A7CFFC0111821082138212821582A9
:1019500014826115710549F0FB0101900020E9F73F
:101960003197AF01461B570B75CF0895EF92FF9249
:101970000F931F93CF93DF931F921F92CDB7DEB7C4
:101980008C017B0163E073E0DDDFC70146DE97FD7C
:101990000AC089831A8241E050E0BE016F5F7F4F29
:1019A000C80108DFF2CFC8010F900F90DF91CF91EF
:1019B0001F910F91FF90EF900895DC01ED91FC9144
:1019C0000190F081E02D19941F920F920FB60F92A3
:1019D00011240BB60F922F933F934F935F936F9306
:1019E0007F938F939F93AF93BF93EF93FF9385EB79
:1019F00093E0B4D8FF91EF91BF91AF919F918F91F8
:101A00007F916F915F914F913F912F910F900BBEFE
:101A10000F900FBE0F901F9018951F920F920FB648
:101A20000F9211240BB60F922F933F934F935F9316
:101A30006F937F938F939F93AF93BF93EF93FF9396
:101A400085EB93E00E941A05FF91EF91BF91AF9152
:101A50009F918F917F916F915F914F913F912F91C6
:101A60000F900BBE0F900FBE0F901F9018958F9286
:101A70009F92AF92BF92CF92DF92EF92FF920F931D
:101A80001F93CF93DF9390910B0680910E069813CE
:101A90000DC090910C0680910F06981307C090918D
:101AA0000D0680911006981709F491C060E070E06F
:101AB00040E050E020E030E08091F8059091F90599
:101AC0002817390708F05AC0E0910B0680910D06DF
:101AD00090E0A0E0B0E0BA2FA92F982F8827AE2B76
:101AE000E0910C068E2B4D01AA24BB24C92EDA2EC0
:101AF000EB2EFF24CC2DF82FE091FD05EE2391F085
:101B00000E2F10E0089DE001099DD00D189DD00D0D
:101B100011248D2ECE9E60011124CD2D8E9FC001EB
:101B20001124F92FE0910306A09100068091FE0593
:101B30009091FF05EA1303C0840F951F06C0860F1E
:101B4000971FDC01AE0FB11D1C92E0910006DC0175
:101B5000AE0FB11D8C92E0910106DC01AE0FB11DFC
:101B6000CC93E0910206DC01AE0FB11DFC932F5F18
:101B70003F4F4D5F5F4F6C5F7F4F9ECF8091BC00AA
:101B80008A7B8093BC0060E084E1EBD860E085E173
:101B9000E8D88091FE059091FF05892B19F086EF1A
:101BA00095E02FDB1092B4031092B3031092B203AE
:101BB0001092B1030ADB80910B0690910C06A09164
:101BC0000D0680930E0690930F06A0931006DF91EA
:101BD000CF911F910F91FF90EF90DF90CF90BF902A
:101BE000AF909F908F900895BC01009791F0FC01F9
:101BF00001900020E9F73197AF01481B590BE091A4
:101C00008C05F0918D050280F381E02D8CE895E044
:101C1000199480E090E00895FC01A089B18982E0E8
:101C20008C93A485B5851C92A685B7858FEC8C9383
:101C3000108EA489B58986E08C93A289B3898C9192
:101C400080618C93A289B3898C9188608C93A289DE
:101C5000B3898C9180688C930288F389E02D808110
:101C60008F7D808308950F931F93CF93DF931F92EF
:101C70001F92CDB7DEB78C018BE389831A8241E0D6
:101C800050E0BE016F5F7F4FC80194DD811102C03B
:101C9000C801BDDDC8010F900F90DF91CF911F915A
:101CA0000F910895CF93DF93CDB7DEB76D970FB641
:101CB000F894DEBF0FBECDBF789484B5826084BD3A
:101CC00084B5816084BD85B5826085BD85B5816040
:101CD00085BD80916E00816080936E0010928100BE
:101CE0008091810082608093810080918100816079
:101CF000809381008091800081608093800080913A
:101D0000B10084608093B1008091B00081608093C5
:101D1000B000809191008260809391008091910049
:101D20008160809391008091900081608093900009
:101D30008091A10082608093A1008091A1008160C8
:101D40008093A1008091A00081608093A000809189
:101D50002101826080932101809121018160809323
:101D600021018091200181608093200180917A007F
:101D7000846080937A0080917A00826080937A00F8
:101D800080917A00816080937A0080917A008068E7
:101D900080937A001092C1008091FC0587FD07C0F6
:101DA00061E05CD860E08091FC050E94B10681E0B2
:101DB0008093F7058091FE059091FF05892B19F01E
:101DC00086EF95E01EDA88E496E026DF8FEE94E059
:101DD00023DF82E594E020DF85EB93E01DDF84E2E2
:101DE0008093BA0083E092E09093AC038093AB03BE
:101DF0008FE092E09093AA038093A9031092B4031A
:101E00001092B3031092B2031092B103DED98FED9A
:101E100094E09093AE038093AD0386EA9AE09093AA
:101E2000B0038093AF038AE780930B068CE0809326
:101E30000C0680E580930D061ADE36E0332E8E0107
:101E4000085F1F4F7E012EE0E20EF11C6E0134E1AF
:101E5000C30ED11C22242A9480919905882381F0F5
:101E60006AE975E0CE0101966DDDBE016F5F7F4FBF
:101E70008AED95E0A8DBCE01019657DD1092990519
:101E8000A12CB12C812C912C8091DE059091DF0545
:101E90008816990608F05CC06CEF72E0CE010196DE
:101EA00051DD8091DA059091DB05BE016F5F7F4FB8
:101EB0008A0D9B1D3DDC782ECE01019636DD772004
:101EC00069F06091DA057091DB056A0D7B1D8FEE7C
:101ED00095E0DFDC41E04093F50533C060E073E05E
:101EE000CE0101962FDD8091DA059091DB05BE01D0
:101EF0006F5F7F4F8A0D9B1D1BDC782ECE010196F4
:101F000014DD711015C064E073E0CE0101961ADD96
:101F10008091DA059091DB05BE016F5F7F4F8A0DDE
:101F20009B1D06DC782ECE010196FFDC772049F060
:101F30006091DA057091DB056A0D7B1D88EE95E0F6
:101F400042DB5FEF851A950A86E0A80EB11C9CCF94
:101F500060E070E08AED95E02EDA809115069091B0
:101F600016069E838D8308969C838B83DC013A9EA4
:101F7000C0013B9E900D11240E9445199A838983CC
:101F8000A12CB12C812C912C8D819E8188169906D3
:101F9000A0F460911106709112066A0D7B1D898173
:101FA0009A818A0D9B1D009709F0C4DCBFEF8B1A44
:101FB0009B0A26E0A20EB11CE7CF60E070E081E151
:101FC00096E0F9D989809A802D813E81329EC001A8
:101FD000339E900D11249401280F391F3B8F2A8FB7
:101FE0002091E5053091E605329EC001339E900DAB
:101FF0001124A090E105B090E205A80EB91E63E09F
:1020000073E0C8019FDC2A8D3B8D8216930609F48C
:1020100054C0B401C8013DDC8091E1059091E20516
:10202000A81AB90AC501959587954BEA5AEA849F83
:102030009001859F300D949F300D11243D8F2C8F82
:102040006091E5057091E6056F5F7F4FA80181EE15
:1020500095E0ECD96090E5057090E605369CB001FE
:10206000379C700D112451E0651A71082B0186E030
:10207000481A51088091E1059091E2052C8D3D8D23
:102080002615370548F46C507109680F791F840DC7
:10209000951DFFDBB201E7CFB8018A0D9B1DF9DB6F
:1020A0008091E1059091E20536E0A30EB11CA80EE7
:1020B000B91E46E0840E911CA6CFC80136DCCE01C5
:1020C000019689DA8090E8059090E9058091EC0509
:1020D0009091ED05389E5001399EB00C1124A80C4A
:1020E000B91C8A149B0441F1B401C80123DCB80176
:1020F000CE0101961FDCBE016F5F7F4F88E496E042
:10210000C8DABE016F5F7F4F8FEE94E0C2DABE0186
:102110006F5F7F4F82E594E0BCDABE016F5F7F4F57
:1021200085EB93E0B6DACE010196FFDBC801FDDB5B
:1021300036E0830E911CD5CF60E070E088EE95E02C
:102140003AD98091F505882309F442C06FEE75E015
:10215000CE010196EFDB89819A81DC01FD010190BE
:102160000020E9F73197EA1BFB0B709738F02092BB
:102170000B0610920C0610920D0624C01F930F93AD
:10218000FF92EF92DF92CF92A8E0B3E0BF93AF93BC
:102190009F938F939FD40FB6F894DEBF0FBECDBF31
:1021A000039739F010920B0610920C0620920D0640
:1021B00009C088859E852C8920930B0690930C0678
:1021C00080930D0654DCCE010196AFDB1092F5052D
:1021D00088E496E00E946301892B19F168E476E0B7
:1021E000C601C4DB4AE060E070E0C80167DBB6010D
:1021F000C701A0DBC70137DDB8011BDBBC01CE0185
:10220000019698DBBE016F5F7F4F81E196E0DBD9DD
:10221000CE0101968ADBC70188DBC80186DBC601D7
:1022200084DB8FEE94E00E946301892B19F16FEE3D
:1022300074E0C6019BDB4AE061E070E0C8013EDB70
:10224000B601C70177DBC7010EDDB801F2DABC01C8
:10225000CE0101966FDBBE016F5F7F4F81E196E09B
:10226000B2D9CE01019661DBC7015FDBC8015DDB3E
:10227000C6015BDB82E594E00E946301892B19F1C2
:1022800062E574E0C60172DB4AE062E070E0C8011A
:1022900015DBB601C7014EDBC701E5DCB801C9DAC1
:1022A000BC01CE01019646DBBE016F5F7F4F81E12D
:1022B00096E089D9CE01019638DBC70136DBC8012B
:1022C00034DBC60132DB85EB93E00E946301892B8E
:1022D00019F165EB73E0C60149DB4AE063E070E0A9
:1022E000C801ECDAB601C70125DBC701BCDCB801C7
:1022F000A0DABC01CE0101961DDBBE016F5F7F4FEE
:1023000081E196E060D9CE0101960FDBC7010DDBBC
:10231000C8010BDBC60109DB0E9481019DCDCF9274
:10232000DF92EF92FF920F931F93CF93DF93CDB77E
:10233000DEB765970FB6F894DEBF0FBECDBF109223
:10234000B8031092B70388EE93E0A0E0B0E080936A
:10235000B9039093BA03A093BB03B093BC0322E3E9
:1023600032E03093B6032093B50345E351E0509338
:10237000C2034093C10344E351E05093C40340932C
:10238000C30340E351E05093C6034093C50341E3C8
:1023900051E05093C8034093C70342E351E0509388
:1023A000CA034093C90346E351E05093CC034093E2
:1023B000CB031092CE031092CF031092D003109251
:1023C000D1031092550410925404809356049093B4
:1023D0005704A0935804B0935904309353042093A6
:1023E000520445ED50E050935F0440935E0444ED89
:1023F00050E0509361044093600440ED50E05093EE
:1024000063044093620441ED50E0509365044093AF
:10241000640442ED50E0509367044093660446ED37
:1024200050E0509369044093680410926B0410923A
:102430006C0410926D0410926E041092F2041092CB
:10244000F1048093F3049093F404A093F504B09303
:10245000F6043093F0042093EF044DEC50E05093D9
:10246000FC044093FB044CEC50E05093FE0440937A
:10247000FD0448EC50E0509300054093FF0449EC04
:1024800050E050930205409301054AEC50E0509310
:102490000405409303054EEC50E05093060540932D
:1024A0000505109208051092090510920A05109270
:1024B0000B0548E456E010924B0610924A068093B2
:1024C0004C0690934D06A0934E06B0934F06309362
:1024D00049062093480625EC30E0309355062093BA
:1024E000540624EC30E0309357062093560620EC37
:1024F00030E0309359062093580621EC30E03093B9
:102500005B0620935A0622EC30E030935D06209360
:102510005C0626EC30E030935F0620935E06109256
:102520006106109262061092630610926406109281
:102530008F0510928E058093900590939105A0933E
:102540009205B093930582E492E090938D05809379
:102550008C0561E270E07093FD066093FC061092BA
:10256000FE061092FF061092000796E0C92ED12CAD
:10257000E12CF12CC0920107D0920207E0920307F0
:10258000F0920407109205071092060710920707B1
:102590001092080720E22093090710920B0710926F
:1025A0000A0710920E0787EE96E090930D0780932E
:1025B0000C0780EE92E09093E6068093E5068AEEA3
:1025C00092E09093FA068093F9061092EB0610922F
:1025D000EA061092ED061092EC061092EF061092A9
:1025E000EE061092F1061092F0061092F306109289
:1025F000F2061092F5061092F4068EEB92E090939C
:10260000E8068093E7065093F8064093F70630E11A
:102610003093F606709336066093350610923706AF
:102620001092380610923906C0923A06D0923B06B4
:10263000E0923C06F0923D0610923E0610923F0654
:1026400010924006109241062093420610924406D2
:10265000109243061092470610921C0610921D0617
:1026600010921E0610921F0620E236E030934606B6
:102670002093450628E632E030931B0620931A0685
:1026800022E732E03093330620933206109224067C
:102690001092230610922606109225061092280604
:1026A0001092270610922A061092290610922C06E4
:1026B00010922B0610922E0610922D069093210652
:1026C00080932006509331064093300688E0809333
:1026D0002F0650931906409318066AE973E082EBBF
:1026E00093E06FD5109216061092150688E090E0E0
:1026F000909314068093130680E390E0C6D59093E0
:1027000012068093110681E08093F6051092F7057A
:102710001092F9051092F8051092FB051092FA0537
:102720009FEF9093FC051092FD051092FF0510920B
:10273000FE05809300061092010692E09093020637
:102740008093030610920406109205061092060666
:10275000109207061A8218861F86188A198A1A8A02
:102760008E878B871C869D87898380EF90E09E8370
:102770008D838BD59A878987009751F020EFDC01F4
:102780001D922A95E9F780E590E09C838B8304C035
:102790001E821D821C821B8289E08F838A8188238E
:1027A00041F061E089E00E942E0760E089E00E942C
:1027B000B106E1EDF1E0E491F0E0EE0FFF1FE2552C
:1027C000FE4F859194919C8B8B8BE1E7F1E0E49136
:1027D000ED8B85E1FE013196A6EFB5E001900D92FB
:1027E0008A95E1F7CE0101960E94C5098FEF80938B
:1027F0000B0680930C0680930D06E8E9F5E08EE564
:10280000DF011D928A95E9F708E010E01093DD05DD
:102810000093DC0580E390E038D59093DB0580934E
:10282000DA051093E4050093E30580E390E02DD5ED
:102830009093E2058093E1051093EB050093EA0580
:1028400080E390E022D59093E9058093E80563E06A
:1028500073E08FEE95E076D81092F50565960FB689
:10286000F894DEBF0FBECDBFDF91CF911F910F91C6
:10287000FF90EF90DF90CF9008958FEE95E055D8C0
:1028800088EE95E00E94EB0A81EE95E00E94EB0A4B
:102890008AED95E00E94EB0A86EF95E00E94C5095B
:1028A00081E196E00E94EB0A8AE196E00E94F9033A
:1028B00085EE96E00C944204EE0FFF1F881F8BBF3D
:1028C0000790F691E02D19946F927F928F929F92CC
:1028D000AF92BF92CF92DF92EF92FF920F931F932E
:1028E000CF93DF93EC01009781F4CB01DF91CF917F
:1028F0001F910F91FF90EF90DF90CF90BF90AF901E
:102900009F908F907F906F90C0C4FC01E60FF71FDF
:102910009C0122503109E217F30708F4A8C0D9013D
:102920000D911C91119706171707A8F00530110596
:1029300008F49BC0C80104978617970708F495C050
:1029400002501109061B170B019311936D937C9391
:10295000CF0130D58AC05B01A01AB10A4C01800EAC
:10296000911EA0911707B091180740E050E0E12CAC
:10297000F12C109709F44AC0A815B905D1F56D904E
:102980007C901197630182E0C80ED11CCA14DB044D
:1029900080F1A3014A195B096A0182E0C80ED11CCB
:1029A0001296BC9012971396AC91B5E0CB16D10459
:1029B00040F0B282A38351834083D9016D937C930D
:1029C0000AC00E5F1F4FC301800F911FF901918351
:1029D0008083EB2DFA2FE114F10431F0D701139627
:1029E000FC93EE93129741C0F0931807E0931707FA
:1029F0003CC08D919C9111974817590708F4AC0180
:102A00007D0112960D90BC91A02DB3CF809115073A
:102A10009091160788159905E1F446175707C8F4F1
:102A20008091000290910102009741F48DB79EB70A
:102A30004091040250910502841B950BE817F90799
:102A4000B0F4F0931607E0931507F90171836083E2
:102A50000CC0CB011AD47C01009749F0A801BE013B
:102A60001BD0CE01A7D4C70104C0CE0102C080E0B4
:102A700090E0DF91CF911F910F91FF90EF90DF9049
:102A8000CF90BF90AF909F908F907F906F90089560
:102A900081E090E0F89448C5FB01DC0102C00190A0
:102AA0000D9241505040D8F70895FB01DC01019090
:102AB0000D920020E1F70895FB01DC0141505040E8
:102AC00030F08D910190801919F40020B9F7881B1E
:102AD000990B0895CF93DF93CDB7DEB72E970FB63E
:102AE000F894DEBF0FBECDBF85E08C838C899D89B5
:102AF0009A838983AE01485E5F4F6E897F89CE01DC
:102B00000196B0D12E960FB6F894DEBF0FBECDBFA2
:102B1000DF91CF91089520FD09C0FC0123FD05C080
:102B200022FF02C07383628351834083089544FD72
:102B300010C046FD10C0DB01FC01AA0FBB1FEE1F39
:102B4000FF1F1094D1F76A0F7B1F8E1F9F1F31E06C
:102B500003C033E001C034E0660F771F881F991F60
:102B60003150D1F7620F711D811D911D08950F9392
:102B70001F93CF93DF938C01C8019FD2EC0197FD87
:102B800006C0B0D4892BC1F7B801CE01D4D2CE0192
:102B9000DF91CF911F910F9108958F929F92AF92E5
:102BA000BF92CF92DF92EF92FF920F931F93CF933A
:102BB000DF931F92CDB7DEB78C01C62E7A01298331
:102BC0007CD2AC01552729814B32510521F04D3281
:102BD000510561F42068CA94C11002C080E06FC042
:102BE000C80129836AD2298197FDF8CF322F3D7F12
:102BF000D32E322F307339F5803329F5BB24BA94A4
:102C0000BC0C09F449C0C801298357D2298197FD1A
:102C100043C0382F3F7D383561F48D2D8264D82E26
:102C2000CA94CA94CC20C1F1C80147D297FF0BC007
:102C300033C026FF04C02D2D2260D22E03C03D2DAF
:102C40003261D32ECB2C812C912C540120ED280FF6
:102C5000283078F0D4FE03C0B8016DD21AC02A30F3
:102C600040F0D6FEF9CF2F7D3FEE320F3630A0F781
:102C700027504D2DC501B4015ADF4B015C018D2D4C
:102C80008260D82ECA94CC2051F0C80116D297FF8A
:102C9000DDCFD1FC04C0A2CF812C912C5401D7FEF2
:102CA00008C0B094A09490948094811C911CA11CA5
:102CB000B11C2D2DB501A401C7012DDF81E00F90BE
:102CC000DF91CF911F910F91FF90EF90DF90CF9008
:102CD000BF90AF909F908F9008956F927F928F9248
:102CE0009F92AF92BF92CF92DF92EF92FF920F939B
:102CF0001F93CF93DF93CDB7DEB7A1970FB6F894AC
:102D0000DEBF0FBECDBF5C017A01CE0101966C0122
:102D100080E2F60111928A95E9F7F501838040E09F
:102D200050E0912C712C70E0A1E0B0E0F90183FC3F
:102D3000859183FE81918F01982F9F01811103C09E
:102D400080E090E07AC08E3519F44115510549F1C3
:102D5000E72FF0E0E417F5073CF48D3559F18D329B
:102D600019F4772001F103C0711001C0982E892F4A
:102D70008695869586958601080F111D892F877087
:102D80003D0101C0660C8A95EAF7F8018081862929
:102D90008083991559F0991510F49F5FE8CF9150F1
:102DA000E6CF71E004C07724739401C0712C4F5FAB
:102DB0005F4FBCCF772019F08E8180628E837111B6
:102DC00003C09924939416C0F6019E012F5D3F4FD6
:102DD000808180958193E217F307D1F7F2CFE11458
:102DE000F10429F0F7018083C70101967C0161504D
:102DF000912CE9F0C50169A360D169A197FD15C0C7
:102E0000282F269526952695F601E20FF11D2081A3
:102E100030E0AC014770552702C0359527954A959B
:102E2000E2F720FDDCCFB50186D1911089CFE11406
:102E3000F10411F0F7011082C801A1960FB6F894C1
:102E4000DEBF0FBECDBFDF91CF911F910F91FF90DD
:102E5000EF90DF90CF90BF90AF909F908F907F903A
:102E60006F9008954F925F927F928F929F92AF9250
:102E7000BF92CF92DF92EF92FF920F931F93CF9367
:102E8000DF931F92CDB7DEB76C012B015A01FC0115
:102E900017821682712CF601F380F201F3FC859102
:102EA000F3FE8191382F2F01882309F4E5C090E0CB
:102EB000398318D33981892B19F0C60158DEEBCF3D
:102EC000353241F4F201F3FC3591F3FE31912F01DB
:102ED000353259F4C6013983F0D0398197FDCAC023
:102EE0003817C9F2B60127D1C7C03A3239F4F3FC1A
:102EF0003591F3FE31912F0151E001C050E04201C4
:102F000010E020ED230F2A3088F45260612F70E02A
:102F100080E090E040E259830ADE162FF401F3FCD2
:102F20003591F3FE31914F015981EBCF052F232FBE
:102F3000240151FF03C0111102C09EC01FEF38369B
:102F400019F03C3659F011C0F401F3FC2591F3FE61
:102F500021912F01283649F4052F08600460F20101
:102F6000F3FC2591F3FE21912F01222309F484C063
:102F7000622F70E08EE092E0298394D02981892B22
:102F800009F47AC000FD07C0F501E080F180C501B9
:102F900002965C0102C0E12CF12C2E3649F4F601B8
:102FA0004681578160E070E0202FC701B4DD73CF08
:102FB000233689F401FF11E0C6017FD097FD5AC086
:102FC000E114F10429F0F7018083C70101967C0127
:102FD000115091F74BC02B3551F49201A701612F8D
:102FE000C6017BDE2C01892B09F040C03AC0C60126
:102FF0002983BDDD298197FD3DC02F3641F128F49D
:10300000243619F1293631F124C0233769F02537E8
:10301000E1F01FC0E114F10429F0F7018082C7013B
:1030200001967C01115059F0C60147D04C0197FD23
:1030300006C058D2892B71F3B601C4017CD0E114CB
:10304000F104A1F0F701108211C0006203C0006119
:1030500001C00064202FA701612FC6019EDD8111F0
:1030600005C0F6018381807329F406C000FD13CFEB
:10307000739411CF772019F0872D90E002C08FEF65
:103080009FEF0F90DF91CF911F910F91FF90EF90E5
:10309000DF90CF90BF90AF909F908F907F905F9088
:1030A0004F900895FC010590061621F00020D9F7F5
:1030B000C00108953197CF010895CF93DF93EC01BC
:1030C0002B8120FF33C026FF0AC02F7B2B838E81EC
:1030D0009F8101969F838E838A8190E029C022FF81
:1030E0000FC0E881F9818081082E000C990B0097B0
:1030F00019F420622B831AC03196F983E8830EC03D
:10310000EA85FB85199597FF09C02B81019611F07F
:1031100080E201C080E1822B8B8308C02E813F8139
:103120002F5F3F4F3F832E83992702C08FEF9FEF82
:10313000DF91CF910895FB01238120FF12C026FD6E
:1031400010C08F3F3FEF930761F082832F7D206493
:10315000238326813781215031093783268399279C
:1031600008958FEF9FEF08954532510518F44230CE
:1031700008F004C0FB011082CB010895BB274A3040
:1031800031F4992322F4BDE2909581959F4F01C0BF
:10319000BB27FB015527AA27880F991FAA1FA41731
:1031A00010F0A41B83955051B9F7A05DAA3308F025
:1031B000A95DA193009779F7B111B1931192CB0159
:1031C000A0C10F931F93CF93DF93009731F4611544
:1031D000710519F480E090E039C08B01EC016EE0DC
:1031E00070E081E090E037D0FC01892B99F380E812
:1031F00083830115110571F01387028781E88383AA
:1032000080910F0790911007892B21F4F0931007FC
:10321000E0930F072097C9F0D187C0878381826030
:1032200083838091110790911207892B71F4F09399
:103230001207E09311078091130790911407892BCF
:1032400021F4F0931407E0931307CF01DF91CF919E
:103250001F910F9108950F931F93CF93DF93869F34
:103260008001879F100D969F100D1124C8010DD06D
:10327000EC01009721F0A80160E070E03BD1CE01A5
:10328000DF91CF911F910F910895CF93DF938230FB
:10329000910510F482E090E0E0911707F091180793
:1032A00020E030E0C0E0D0E0309711F14081518162
:1032B00048175907C0F04817590761F48281938174
:1032C000209719F09B838A832BC0909318078093D3
:1032D000170726C02115310519F04217530718F4B6
:1032E0009A01BE01DF01EF010280F381E02DDCCF06
:1032F0002115310509F1281B390B2430310590F4D3
:1033000012968D919C9113976115710521F0FB0127
:103310009383828304C09093180780931707FD015D
:10332000329644C0FD01E20FF31F81939193225026
:1033300031092D933C933AC020911507309116071F
:10334000232B41F42091020230910302309316079F
:1033500020931507209100023091010221153105BB
:1033600041F42DB73EB74091040250910502241B51
:10337000350BE0911507F0911607E217F307A0F45B
:103380002E1B3F0B2817390778F0AC014E5F5F4FBB
:103390002417350748F04E0F5F1F509316074093D0
:1033A00015078193919302C0E0E0F0E0CF01DF9137
:1033B000CF9108950F931F93CF93DF93009709F454
:1033C0008CC0FC0132971382128200911707109172
:1033D00018070115110581F420813181820F931F97
:1033E00020911507309116072817390779F5F093C2
:1033F0001607E093150771C0D80140E050E0AE1702
:10340000BF0750F412962D913C911397AD012115F1
:10341000310509F1D901F3CF9D01DA01338322830C
:1034200060817181860F971F8217930769F4EC0101
:1034300028813981260F371F2E5F3F4F318320832C
:103440008A819B8193838283452B29F4F09318070B
:10345000E093170742C01396FC93EE931297ED0189
:10346000499159919E01240F351FE217F30771F41A
:1034700080819181840F951F029611969C938E9363
:103480008281938113969C938E931297E0E0F0E0F3
:10349000D80112968D919C911397009719F0F8011D
:1034A0008C01F6CF8D919C9198012E5F3F4F820F3A
:1034B000931F20911507309116072817390769F4D3
:1034C000309729F4109218071092170702C0138240
:1034D00012821093160700931507DF91CF911F9169
:1034E0000F91089591111DC0803219F089508550B7
:1034F000D0F70895DC0101C06D9341505040E0F7D2
:103500000895DC01FC01672F71917723E1F7329771
:1035100004C07C916D9370836291AE17BF07C8F3AE
:10352000089599278827089511E0CEE0D1E000E0C2
:1035300005C0802FFE01C0D92196011DCF30D107D3
:0A35400080E00807B1F7F894FFCF10
:10354A0000001907800018000000000000000000B9
:10355A00E8FFE8FF0000000000001400000000007F
:10356A0000000000ECFFECFF00000000000000007B
:10357A0000004A06570B63014101550190060000FD
:10358A000000790265025D0249023A023902060028
:10359A0000000000D903DB03FAFFFAFF0000DA0398
:1035AA00DD03180000000000F9030E04E8FFE8FF3D
:1035BA0000000504170468020C02160272020000D9
:1035CA000000D809D70399039603930390038D0348
:1035DA0004030003FD02E70207038B0289020200CB
:1035EA000000000022042404FEFFFEFF0000230462
:1035FA00260400000000DA09690400000000D90965
:10360A00200499039603930390038D0381033B03DC
:10361A002203090307038C046B0414000000000052
:10362A0042045704ECFFECFF00004E046004E00281
:10363A0020022A02EA02454D505459004C454400E2
:10364A004C4F4300434F4D004C45443A25642C25CA
:06365A00642C2564000051
:00000001FF
