:100000000EC100003DC100003BC1000039C100002D
:1000100037C1000035C1000033C1000031C100000C
:100020002FC100002DC100002BC1000029C100001C
:1000300027C1000025C1000023C1000021C100002C
:100040001FC100001DC100001BC1000019C100003C
:1000500017C1000015C1000013C100009BC60000BD
:100060000FC10000DBC400004CC5000009C1000046
:1000700007C1000005C1000003C1000001C100006C
:10008000FFC00000FDC00000FBC00000F9C0000080
:100090009CC400000DC50000F3C00000C5C60000F0
:1000A000EFC00000EDC00000EBC00000E9C00000A0
:1000B000E7C00000E5C00000E3C00000E1C00000B0
:1000C000DFC00000DDC00000DBC0000055C4000040
:1000D0000C942B0ED5C000000C94010E0C94D70D7F
:1000E000CFC0000040064306320636063A067A06BE
:1000F00047064B065106550659065F066306670616
:100100007A066D067106750600002100240027009E
:100110002A002D0030003300010100000401070116
:100120000A0100000A0B02090C0D0E080703040166
:1001300000000000000000000000000000000000BF
:10014000000000000000000000000000000012118C
:10015000100000000000000000000000000000008F
:10016000000000000000000001021020200808101C
:100170002040102040800201020108040201010217
:1001800004081020408080402010080402018004F0
:10019000020180402010080402010804020101024B
:1001A0000408102040800102040810204080000054
:1001B0002200250028002B002E003100340002010F
:1001C0000000050108010B010505050507050808E4
:1001D0000808020202020A0A0808040404040101D1
:1001E00001010101010103030303030303030407E6
:1001F00007070C0C0C0C0C0C0C0C0202020206067D
:100200000606060606060B0B0B0B0B0B0B0B6364AB
:10021000696E6F70737578585B001611D2131124D4
:100220001FBECFEFD1E2DEBFCDBF00E00CBF13E0B9
:10023000A0E0B2E0ECE7F4E300E00BBF02C00790FF
:100240000D92A631B107D9F726E0A6E1B3E001C0CF
:100250001D92AC3FB207E1F711E0CEE0D1E000E043
:1002600006C021970109802FFE010E94F513CD30B1
:10027000D10780E00807A9F70E94550E0C942D1AAB
:10028000BFCEFC01918D828D981761F0828DDF01C8
:10029000A80FB11D5D968C91928D9F5F9F73928F79
:1002A00090E008958FEF9FEF0895FC01918D828D6E
:1002B000981731F0828DE80FF11D858D90E008953B
:1002C0008FEF9FEF0895FC01918D228D892F90E093
:1002D000805C9F4F821B91098F73992708958BEC47
:1002E00094E0F1DF21E0892B09F420E0822F0895CA
:1002F0008BE296E0E8DF21E0892B09F420E0822FF1
:10030000089580E090E0892B19F0F2DF811118C088
:1003100080E090E0892B19F0E2DF811114C080E0C9
:1003200090E0892B21F00E94620C81110FC080E0C7
:1003300090E0892B81F00E94580C81110AC0089529
:100340000E940000E5CF0E940000E9CF0E9400005B
:10035000EECF0C94000008953FB7F894809182038B
:1003600090918303A0918403B091850326B5A89B47
:1003700005C02F3F19F00196A11DB11D3FBFBA2F37
:10038000A92F982F8827820F911DA11DB11DBC0197
:10039000CD0142E0660F771F881F991F4A95D1F75C
:1003A000089585ED8093BC008091BC0084FDFCCF56
:1003B00010928C03089540913803262F30E0240FCB
:1003C000311D21323105DCF420918C032430C9F435
:1003D000FC0180E090E0861758F4309138032191B9
:1003E000DC01AA5EBC4FA30FB11D2C930196F3CF85
:1003F00080913803680F6093380380E0089581E0AE
:10040000089582E00895089581E090E0309190038E
:1004100020918F03321710F480E090E09195819540
:10042000910908958091900390918F03891730F47A
:100430008F5F8093900380E090E008958FEF9FEFAF
:10044000089580918F0390E020919003821B910981
:100450000895CF93DF931F921F92CDB7DEB7CB01E4
:10046000642F49835A83A7DF4981842F5A81952FAE
:100470000F900F90DF91CF910895CF93DF931F924C
:10048000CDB7DEB7698361E0CE01019694DF81E0EC
:1004900090E00F90DF91CF910895CB0108957F9266
:1004A0008F929F92AF92BF92CF92DF92EF92FF9284
:1004B0000F931F93CF93DF93EC0149015A018B01F6
:1004C000C12CD12C7601C814D904EA04FB0484F5AC
:1004D000F80171908F018F8580FF0BC0E881F98151
:1004E0000084F185E02D20E144E060E070E0CE0181
:1004F0001995EB85FC858D859E85E817F90738F4FD
:1005000070828B859C8501969C878B870BC0E881C8
:10051000F981672D70E0028CF38DE02DCE011995E5
:10052000019649F02FEFC21AD20AE20AF20ACBCFA3
:10053000B401C50102C0B601C701DF91CF911F917F
:100540000F91FF90EF90DF90CF90BF90AF909F9072
:100550008F907F900895CF93DF93EC01E881F9812C
:100560000288F389E02D19958F3F2FEF920731F024
:100570002D813E812F5F3F4F3E832D83DF91CF91B1
:1005800008958FEF9FEF089560E070E0CB0108952C
:1005900080E090E00895CB010895CF93DF93EC01C4
:1005A00088899989DC01ED91FC910480F581E02D29
:1005B0001995892BA9F388899989DC01ED91FC9122
:1005C0000680F781E02DDF91CF911994CF93DF93CF
:1005D000EC0188899989DC01ED91FC910480F58119
:1005E000E02D1995892BA9F388899989DC01ED9172
:1005F000FC910084F185E02DDF91CF911994AF92A9
:10060000BF92CF92DF92EF92FF920F931F93CF93FF
:10061000DF9300D01F92CDB7DEB78C015B01C12CF8
:10062000D12C7601F80180899189DC01ED91FC9152
:100630000680F781E02D29833A834B835C831995EB
:1006400029813A814B815C818F3F71F0C216D306BC
:10065000E406F5064CF4D5018D935D01BFEFCB1A8E
:10066000DB0AEB0AFB0ADECFC701B6010F900F9041
:100670000F900F90DF91CF911F910F91FF90EF900E
:10068000DF90CF90BF90AF900895DC0150968D9190
:100690009C915197DC01ED91FC910480F581E02D56
:1006A000199480E090E0089580E090E0089580E063
:1006B00090E0089580E090E008950895CF93DF934F
:1006C000C091FB05D091FC05E881F9810480F5819A
:1006D000E02DCE011995892BB9F3E881F9810680C7
:1006E000F781E02DCE01DF91CF9119941F93CF9325
:1006F000DF93182FC091FB05D091FC058A3041F49F
:10070000E881F9810190F081E02D6DE0CE0119952D
:10071000E881F9810190F081E02D612FCE011995DA
:1007200021E030E0019711F420E030E0C901DF91D1
:10073000CF911F9108950C947319089508950C9406
:100740007319DC01ED91FC91369720813181820F84
:10075000931FF5CFFB0120813181FC013183208380
:10076000FB0142815381F901369720813181FC01DF
:10077000E20FF31F51834083089528E632E0FC0125
:100780003183208322E732E0318F208F68E772E0E7
:10079000E1CFDC01ED91FC91369720813181820F10
:1007A000931FEBCFCF93DF93EC01E7DFCE01DF9117
:1007B000CF910C947319DC01ED91FC913697208157
:1007C0003181820F931FEECF0C9473190895089511
:1007D0000C947319DC01ED91FC91369720813181E5
:1007E000820F931FF5CFFB0120813181FC01318302
:1007F0002083FB0142815381F901369720813181A9
:10080000FC01E20FF31F51834083089520EE32E094
:10081000FC01318320832AEE32E0358B248B60EF9C
:1008200072E0E1CFDC01ED91FC91369720813181BE
:10083000820F931FEBCFCF93DF93EC01E7DFCE0165
:10084000DF91CF910C947319DC01ED91FC913697F7
:1008500020813181820F931FEECF0C9473190F9377
:100860001F93CF93DF938C01EB016F3F8FEF7807DE
:1008700019F480E090E00FC06A3031F46DE0F801C7
:10088000808991890E94D00D6C2FF801808991890F
:100890000E94D00DCE01DF91CF911F910F9108954D
:1008A0008F929F92BF92CF92DF92EF92FF920F931F
:1008B0001F93CF93DF9300D01F92CDB7DEB78C018B
:1008C0004B01C12CD12C7601C216D306E406F506E5
:1008D00044F5F401B1904F01FAE0BF120EC06DE093
:1008E000F8018089918929833A834B835C830E9434
:1008F000D00D5C814B813A8129816B2DF801808973
:10090000918929833A834B835C830E94D00DFFEF4A
:10091000CF1ADF0AEF0AFF0A5C814B813A812981F5
:10092000D3CFCA01B9010F900F900F900F90DF91B4
:10093000CF911F910F91FF90EF90DF90CF90BF90DC
:100940009F908F900895FC01A089B1898C91A68910
:10095000B78982FD0FC09C91818D8F5F8F73228D2F
:10096000821749F0218DDF01A20FB11D5D969C9386
:10097000818F08958C9108951F920F920FB60F9258
:1009800011240BB60F922F933F934F935F936F9366
:100990007F938F939F93AF93BF93EF93FF938EE2D9
:1009A00094E0D1DFFF91EF91BF91AF919F918F9133
:1009B0007F916F915F914F913F912F910F900BBE5F
:1009C0000F900FBE0F901F9018951F920F920FB6A9
:1009D0000F9211240BB60F922F933F934F935F9377
:1009E0006F937F938F939F93AF93BF93EF93FF93F7
:1009F0008BEC94E0A8DFFF91EF91BF91AF919F91B5
:100A00008F917F916F915F914F913F912F910F90B7
:100A10000BBE0F900FBE0F901F9018951F920F9254
:100A20000FB60F9211240BB60F922F933F934F9353
:100A30005F936F937F938F939F93AF93BF93EF9346
:100A4000FF938BE296E07FDFFF91EF91BF91AF9133
:100A50009F918F917F916F915F914F913F912F91D6
:100A60000F900BBE0F900FBE0F901F901895FC01BA
:100A7000848DDF01A80FB11DA35ABF4F2C91848D27
:100A800090E001968F739927848FA689B7892C935C
:100A9000A089B1898C9180648C93938D848D9813F7
:100AA00006C00288F389E02D80818F7D80830895C0
:100AB0001F920F920FB60F9211240BB60F922F9325
:100AC0003F934F935F936F937F938F939F93AF93D6
:100AD000BF93EF93FF938BEC94E0C9DFFF91EF910D
:100AE000BF91AF919F918F917F916F915F914F9146
:100AF0003F912F910F900BBE0F900FBE0F901F9044
:100B000018951F920F920FB60F9211240BB60F92E9
:100B10002F933F934F935F936F937F938F939F9305
:100B2000AF93BF93EF93FF938BE296E0A0DFFF912B
:100B3000EF91BF91AF919F918F917F916F915F9155
:100B40004F913F912F910F900BBE0F900FBE0F90C2
:100B50001F901895EF92FF920F931F93CF93DF93FF
:100B6000EC0181E0888F9B8D8C8D981305C0E889FE
:100B7000F989808185FD23C0F62E0B8D10E00F5F73
:100B80001F4F0F731127E02E8C8DE8120BC00FB68C
:100B900007FCFACFE889F989808185FFF5CFCE017E
:100BA00066DFF2CF8B8DFE01E80FF11DE35AFF4F98
:100BB000F0820B8FEA89FB898081806207C0EE8911
:100BC000FF896083E889F98980818064808381E07E
:100BD00090E0DF91CF911F910F91FF90EF900895DA
:100BE000CF93DF93EC01888D8823C1F0EA89FB89DC
:100BF000808185FD05C0A889B9898C9186FD0EC0CC
:100C00000FB607FCF5CF808185FFF2CFA889B9899F
:100C10008C9185FFEDCFCE012ADFE8CFDF91CF9118
:100C20000895362F90E0FC01EE5DFE4F4491FC01EB
:100C3000E859FE4F2491FC01E853FE4F949199230B
:100C400009F46BC0442309F455C050E0FA01319710
:100C5000E231F10508F04EC08827EE58FF4F8F4F64
:100C60000C94F513809180008F7707C080918000ED
:100C70008F7D03C080918000877F809380003AC081
:100C800084B58F7702C084B58F7D84BD33C08091D9
:100C9000B0008F7703C08091B0008F7D8093B0004B
:100CA00029C0809190008F7707C0809190008F7D40
:100CB00003C080919000877F809390001BC080913B
:100CC000A0008F7707C08091A0008F7D03C0809126
:100CD000A000877F8093A0000DC0809120018F77B6
:100CE00007C0809120018F7D03C080912001877F04
:100CF00080932001E92FF0E0EE0FFF1FE255FE4F39
:100D0000A591B4918FB7F894EC91311103C020955F
:100D10002E2301C02E2B2C938FBF0895CF93DF93EA
:100D200090E0FC01E859FE4F2491FC01E853FE4F8E
:100D30008491882361F190E0880F991FFC01E85F9E
:100D4000FE4FC591D491FC01E255FE4FA591B4919F
:100D5000611109C09FB7F894888120958223888308
:100D6000EC912E230BC0623061F49FB7F894388168
:100D7000822F809583238883EC912E2B2C939FBF09
:100D800006C08FB7F894E8812E2B28838FBFDF91A0
:100D9000CF9108951F920F920FB60F9211242F93A7
:100DA0003F938F939F93AF93BF93809186039091CE
:100DB0008703A0918803B09189033091810323E0D8
:100DC000230F2D3720F40196A11DB11D05C026E883
:100DD000230F0296A11DB11D2093810380938603EA
:100DE00090938703A0938803B09389038091820333
:100DF00090918303A0918403B09185030196A11D76
:100E0000B11D8093820390938303A0938403B093D6
:100E10008503BF91AF919F918F913F912F910F903B
:100E20000FBE0F901F9018951F920F920FB60F9242
:100E300011240BB60F922F933F934F935F936F93B1
:100E40007F938F939F93AF93BF93EF93FF93809183
:100E5000B900887F803609F49CC068F5883209F4AF
:100E60005BC090F4803109F454C038F4882309F44D
:100E7000F6C0883009F44DC0F5C0883109F44CC083
:100E8000803209F45DC0EEC0803409F468C048F4D3
:100E9000803309F455C0883309F0E4C080935D03C2
:100EA000D8C0803509F44FC0883509F45DC0883456
:100EB00009F0D8C0D6C0883909F4C7C0A8F488376B
:100EC00009F467C038F4883609F463C0803709F440
:100ED00060C0C8C0883809F4B8C0803909F45FC060
:100EE000803809F0BFC05BC0803B09F486C038F48D
:100EF000803A09F466C0883A09F47FC0B3C0803CE8
:100F000009F4A7C0883C09F4A4C0883B09F48AC04E
:100F1000A9C08091800310C090917F0380917E03CF
:100F2000981770F5E0917F0381E08E0F80937F0327
:100F3000F0E0E25AFC4F80818093BB0085EC86C0D4
:100F400080935D038EC0E0917F0381E08E0F8093DC
:100F50007F038091BB00F0E0E25AFC4F80839091C8
:100F60007F0380917E036EC0E0917F0381E08E0F4E
:100F700080937F038091BB00F0E0E25AFC4F8083B6
:100F800080918B0381116DC081E080938A0384EA94
:100F900061C083E080938C0310925C03CFCF80917B
:100FA0005C03803208F051C0E0915C0381E08E0F59
:100FB00080935C038091BB00F0E0E45CFC4F808395
:100FC000BDCF85EC8093BC0010928C0380915C03B4
:100FD000803230F4E0915C03F0E0E45CFC4F10827E
:100FE00060915C0370E0E0913A03F0913B038CE385
:100FF00093E0199510925C0335C084E080938C03D4
:101000001092390310923803E0913603F0913703C0
:10101000199580913803811105C081E080933803D0
:1010200010921603E091390381E08E0F809339030B
:10103000F0E0EA5EFC4F80818093BB009091390321
:1010400080913803981708F479CF85E88093BC0025
:1010500009C085EC8093BC0010928C0303C01092F1
:101060005D039FD9FF91EF91BF91AF919F918F91B8
:101070007F916F915F914F913F912F910F900BBE98
:101080000F900FBE0F901F901895CF92DF92EF92A6
:10109000FF920F931F93CF93DF93CDB7DEB72997BE
:1010A0000FB6F894DEBF0FBECDBF8C0155D9D80165
:1010B0001E96CD90DD90ED90FC905197DC01CB0118
:1010C0008C199D09AE09BF098C329140A105B1056B
:1010D00068F3F894D80114968D919C9115979A8392
:1010E00089831896ED91FC9119977F01BFEFEB1A58
:1010F000FB0A80818B83F80190810288F389E02DBF
:10110000D80154968C91992309F430C09081982B82
:101110009C839081809589238D838D818E8388E047
:101120008F835C816D814B813F812E8189819A8182
:10113000D701508347FD252F3A952083262F39F07C
:10114000441F00C000006083000000C0F2CF38E000
:101150004D9160830000019761F7D8015396FC938D
:10116000EE9352974B833F832E833AC09081982B06
:101170009C839081809589238D838D81888788E0E9
:1011800089875C816D814B813985288589819A8128
:10119000D701508347FD252F00C000C0208300C029
:1011A00000C000C000C000C060830000262F3A9538
:1011B00041F0441F000000C000C000C000C000C0DB
:1011C000E8CF38E04D9100C0608300C0019709F777
:1011D000D8015396FC93EE9352974B833987288717
:1011E0009A8389837894B8D8F80166877787808B4B
:1011F000918B29960FB6F894DEBF0FBECDBFDF915D
:10120000CF911F910F91FF90EF90DF90CF900895B5
:10121000CF93DF93EC0188859985009711F00E94A8
:1012200073198E8187FD04C060E0DF91CF9176CD88
:10123000DF91CF910895089508950895AF92BF92D8
:10124000CF92DF92EF92FF920F931F93CF93DF9392
:10125000FC01248135816217730700F56B01EC01F5
:1012600086E0869F5001879FB00C11248B01E12CF2
:10127000F12C8C819D810817190770F4C7018A0D24
:101280009B1D28813981820F931F42D40F5F1F4F0E
:10129000F6E0EF0EF11CEDCFDD82CC82DF91CF9135
:1012A0001F910F91FF90EF90DF90CF90BF90AF9084
:1012B00008956F927F928F929F92AF92BF92CF923A
:1012C000DF92EF92FF920F931F93CF93DF93FC0176
:1012D000248135812617370708F06CC07A018B010D
:1012E000EC012281338126173707A0F5CB01089640
:1012F0002817390778F5808091809383828326E0D0
:10130000AC01249FC001259F900D11240E94DE187E
:1013100099838883C12CD12CA12CB12C8C819D81E7
:10132000A816B906A0F434016C0C7D1C8881998143
:101330008C0D9D1D009711F0B301EFD3C301E8D3CD
:101340005FEFA51AB50A86E0C80ED11CE7CFC4012D
:101350000E947319CC80DD8086E08C9D50018D9DAC
:10136000B00C1124812C912CC016D10690F4288148
:101370003981C4018A0D9B1D820F931F009711F0C4
:10138000B701CBD3EFEFCE1ADE0AF6E08F0E911C39
:10139000EBCF1D830C83DF91CF911F910F91FF90B5
:1013A000EF90DF90CF90BF90AF909F908F907F9005
:1013B0006F900895DF91CF911F910F91FF90EF9063
:1013C000DF90CF90BF90AF909F908F907F906F9065
:1013D00035CF2F923F924F925F926F927F928F9272
:1013E0009F92AF92BF92CF92DF92EF92FF920F93B4
:1013F0001F93CF93DF9300D000D0CDB7DEB77C0131
:101400008B016A0119016DEF72E0CE0101968DD357
:101410003BEAA32E3AEAB32EC214D30409F44CC01B
:10142000B601CE0101965FD3F70180819181081B3F
:10143000190BC801959587958A9D40018B9D900C4D
:101440009A9D900C1124648175816F5F7F4FAE016E
:101450004F5F5F4FC7012DDFF70164807580F6E0B5
:10146000F69DB001F79D700D112481E0681A710896
:101470002B01E6E04E1A5108F70180819181861414
:10148000970448F46C507109680F791F840D951DFD
:101490002AD3B201EACFBE016F5F7F4F800F911F49
:1014A00022D3F701808191810A5F1F4F080F191F16
:1014B000F6E0CF0ED11CB0CFCE01019629D32696EF
:1014C0000FB6F894DEBF0FBECDBFDF91CF911F9155
:1014D0000F91FF90EF90DF90CF90BF90AF909F90D3
:1014E0008F907F906F905F904F903F902F900895D6
:1014F000AB01FC0124813581B9016F5F7F4FD9CEEB
:10150000CF92DF92EF92FF920F931F93CF93DF93CF
:10151000EC017B01FB01848195819D838C8308967E
:101520009B838A8326E0AC01249FC001259F900DF8
:1015300011240E94DE189983888300E010E0C12CFA
:10154000D12C8C819D81C816D90690F4F701608159
:101550007181600F711F88819981800F911F0097A1
:1015600009F0DBD2FFEFCF1ADF0A0A5F1F4FE9CF86
:10157000DF91CF911F910F91FF90EF90DF90CF906F
:101580000895EF92FF920F931F93CF93DF937C0107
:1015900000E010E0C0E0D0E0F701248135818081D7
:1015A0009181C217D30738F4800F911FB1D22196D1
:1015B0000A5F1F4FF1CFDF91CF911F910F91FF90E5
:1015C000EF900C947319FC01A089B18982E08C938F
:1015D000A485B5851C92A685B7858FEC8C93108E5B
:1015E000A489B58986E08C93A289B3898C918061A6
:1015F0008C93A289B3898C9188608C93A289B389DA
:101600008C9180688C930288F389E02D80818F7D96
:1016100080830895CF93DF93EC012FB7F8948091E6
:10162000860390918703A0918803B09189032FBF0F
:1016300088879987AA87BB87E881F9810680F78127
:10164000E02DCE01199597FF1EC02FB7F894809119
:10165000860390918703A0918803B09189032FBFDF
:10166000488559856A857B85841B950BA60BB70B2E
:101670004C815D816E817F8184179507A607B7072E
:10168000D8F28FEF9FEFDF91CF910895DC01ED91BC
:10169000FC91DB0114964D915C9115976D917C91B5
:1016A0000280F381E02D1994CF92DF92EF92FF92A6
:1016B0000F931F93CF93DF936C017A018B01C0E0EE
:1016C000D0E0CE15DF0589F0D8016D918D01D601EE
:1016D000ED91FC910190F081E02DC6011995892BC7
:1016E00011F47E0102C02196ECCFC701DF91CF91AA
:1016F0001F910F91FF90EF90DF90CF9008958F9200
:101700009F92AF92BF92CF92DF92EF92FF920F9390
:101710001F93CF93DF939091E7058091EA0598138B
:101720000DC09091E8058091EB05981307C090914A
:10173000E9058091EC05981709F4ADC060E070E010
:1017400040E050E020E030E08091D4059091D50554
:101750002817390708F05AC0E091E7058091E9059C
:1017600090E0A0E0B0E0BA2FA92F982F8827AE2BE9
:10177000E091E8058E2B4D01AA24BB24C92EDA2E58
:10178000EB2EFF24CC2DF82FE091D905EE2391F01C
:101790000E2F10E0089DE001099DD00D189DD00D81
:1017A00011248D2ECE9E60011124CD2D8E9FC0015F
:1017B0001124F92FE091DF05A091DC058091DA0575
:1017C0009091DB05EA1303C0840F951F06C0860FB6
:1017D000971FDC01AE0FB11D1C92E091DC05DC010E
:1017E000AE0FB11D8C92E091DD05DC01AE0FB11D95
:1017F000CC93E091DE05DC01AE0FB11DFC932F5FB1
:101800003F4F4D5F5F4F6C5F7F4F9ECF8091BC001D
:101810008A7B8093BC0060E084E103DA60E085E1CC
:1018200000DA8091DA059091DB05892B19F082EDC1
:1018300095E02BDC1092900310928F0310928E0390
:1018400010928D0310928C0381E080938B03109291
:101850008A0361E084E1E5D961E085E1E2D9809124
:10186000B9008E7F8093B9008091B9008D7F8093FD
:10187000B90088E48093B80085E48093BC0080912F
:10188000E7059091E805A091E9058093EA0590931A
:10189000EB05A093EC05DF91CF911F910F91FF9085
:1018A000EF90DF90CF90BF90AF909F908F90089572
:1018B00081E993E00E94630121E0892B09F420E093
:1018C000822F08958EE294E00E94630121E0892B2B
:1018D00009F420E0822F08950E94E114FB01448165
:1018E0005581FC01248135812417350778F08081EA
:1018F0009181009759F0FB0160817181611571053B
:1019000029F00E94F51421E0892B09F020E0822FB4
:1019100008950F931F93CF93DF93EC0188819981F2
:10192000009729F02A813B812617370780F48B0125
:101930006F5F7F4F62D7009761F0998388831B8325
:101940000A832C813D81232B11F4FC01108281E05C
:1019500001C080E0DF91CF911F910F910895EF9228
:10196000FF920F931F93CF93DF93FC012481358166
:101970006115710511F480E018C041155105A1F001
:101980007B01EC018A01020F131FB801C2DF88231B
:1019900091F3288139818C819D81B701820F931F3A
:1019A0000E94EE141D830C8381E0DF91CF911F9183
:1019B0000F91FF90EF900895CF93DF93EC01888112
:1019C0009981009711F00E947319198218821D8263
:1019D0001C821B821A82DF91CF9108950F931F936F
:1019E000CF93DF931F921F92CDB7DEB78C018BE3AD
:1019F00089831A8241E050E0BE016F5F7F4FC801CA
:101A0000AEDF811102C0C801D7DFC8010F900F906F
:101A1000DF91CF911F910F910895CF93DF93EC0148
:101A2000FB01448155816081718199DF811102C080
:101A3000CE01C2DFCE01DF91CF910895EF92FF92E8
:101A40000F931F93CF93DF93EC017B018A01BA01BF
:101A500060DF811103C0CE01AFDF06C01D830C83A0
:101A6000B70188819981BAD7CE01DF91CF911F91BB
:101A70000F91FF90EF900895EF92FF920F931F93B5
:101A8000CF93DF93CDB7DEB762970FB6F894DEBF82
:101A90000FBECDBF8C01CB01F801118210821382E1
:101AA00012821582148250E09E012F5F3F4F790110
:101AB000B9010E944D18F70101900020E9F7319714
:101AC000AF014E195F09B701C801B8DF62960FB6C2
:101AD000F894DEBF0FBECDBFDF91CF911F910F9164
:101AE000FF90EF900895CF93DF93EC01FB018617F1
:101AF000970751F0608171816115710521F0448172
:101B000055819CDF01C058DFCE01DF91CF91089550
:101B1000FC01808191810C947319FC011182108267
:101B20001382128215821482DECFFC011182108290
:101B300013821282158214826115710549F0FB012E
:101B400001900020E9F73197AF01461B570B76CF84
:101B50000895EF92FF920F931F93CF93DF931F92FD
:101B60001F92CDB7DEB78C017B016DEF72E0DDDF38
:101B7000C70150DD97FD0AC089831A8241E050E019
:101B8000BE016F5F7F4FC801EADEF2CFC8010F9040
:101B90000F90DF91CF911F910F91FF90EF900895DB
:101BA000DC01ED91FC910190F081E02D19941F92E0
:101BB0000F920FB60F9211240BB60F922F933F93F3
:101BC0004F935F936F937F938F939F93AF93BF9345
:101BD000EF93FF9381E993E00E943705FF91EF9126
:101BE000BF91AF919F918F917F916F915F914F9135
:101BF0003F912F910F900BBE0F900FBE0F901F9033
:101C000018951F920F920FB60F9211240BB60F92D8
:101C10002F933F934F935F936F937F938F939F93F4
:101C2000AF93BF93EF93FF9381E993E00E94A304E6
:101C3000FF91EF91BF91AF919F918F917F916F91A4
:101C40005F914F913F912F910F900BBE0F900FBE60
:101C50000F901F9018951F920F920FB60F9211249C
:101C60000BB60F922F933F934F935F936F937F9396
:101C70008F939F93AF93BF93EF93FF938EE294E084
:101C80000E943705FF91EF91BF91AF919F918F9186
:101C90007F916F915F914F913F912F910F900BBE6C
:101CA0000F900FBE0F901F901895CF93DF93CDB775
:101CB000DEB769970FB6F894DEBF0FBECDBF78943C
:101CC00084B5826084BD84B5816084BD85B5826041
:101CD00085BD85B5816085BD80916E0081608093F2
:101CE0006E0010928100809181008260809381005B
:101CF000809181008160809381008091800081606B
:101D0000809380008091B10084608093B1008091C5
:101D1000B00081608093B0008091910082608093D8
:101D2000910080919100816080939100809190005A
:101D30008160809390008091A10082608093A100D7
:101D40008091A10081608093A1008091A0008160BA
:101D50008093A00080912101826080932101809175
:101D60002101816080932101809120018160809315
:101D7000200180917A00846080937A0080917A00BB
:101D8000826080937A0080917A00816080937A00EB
:101D900080917A00806880937A001092C1008091CF
:101DA000D80587FD08C061E00E948E0660E0809142
:101DB000D8050E94110681E08093D3058091DA0551
:101DC0009091DB05892B19F082ED95E05ED98BE2CD
:101DD00096E0F9DB8BEC94E0F6DB8EE294E0F3DB4B
:101DE00081E993E0F0DB8AE78093E7058CE080935C
:101DF000E80580E58093E90582DC3324339486E0AE
:101E0000582E8E01085F1F4F7E012EE0E20EF11C5E
:101E10006E0134E1C30ED11C92E0692E93E0792E5D
:101E200044244A9480917505882381F066E775E023
:101E3000CE0101967ADEBE016F5F7F4F86EB95E0A3
:101E400057DBCE01019664DE10927505A12CB12CF2
:101E5000812C912C8091BA059091BB05881699062A
:101E600008F05BC066EF72E0CE0101965EDE809105
:101E7000B6059091B705BE016F5F7F4F8A0D9B1D20
:101E80002DDD282ECE01019643DE222061F06091E7
:101E9000B6057091B7056A0D7B1D8BEC95E023DECE
:101EA0003092D10533C06AEF72E0CE0101963DDE7B
:101EB0008091B6059091B705BE016F5F7F4F8A0D87
:101EC0009B1D0CDD282ECE01019622DE211015C0AF
:101ED0006EEF72E0CE01019628DE8091B6059091FA
:101EE000B705BE016F5F7F4F8A0D9B1DF7DC282E63
:101EF000CE0101960DDE222049F06091B605709169
:101F0000B7056A0D7B1D84EC95E0F2DA8FEF881A35
:101F1000980A26E0A20EB11C9DCF60E070E086EB2F
:101F200095E08CD96DEE75E0CE010196E9DA60E0BE
:101F300070E08DEE95E082D949815A818D819E8134
:101F4000589E9001599E300D1124240F351F609129
:101F5000C1057091C205569EC001579E900D112477
:101F60006091BD057091BE05680F791F8DEB95E0FE
:101F700030DACE01019605DB64EC75E0CE01019606
:101F8000BFDA49815A818D819E81589E9001599E68
:101F9000300D1124240F351F6091F8057091F9055B
:101FA000569EC001579E900D11246091F4057091CA
:101FB000F505680F791F84EF95E00BDACE010196E5
:101FC000E0DA8091D105882309F440C06BEC75E01C
:101FD000CE010196A2DD89819A81DC01FD0101908B
:101FE0000020E9F73197EA1BFB0B709738F040921D
:101FF000E7051092E8051092E90522C01F930F93A0
:10200000FF92EF92DF92CF927F926F929F938F9386
:10201000FAD40FB6F894DEBF0FBECDBF039739F0E8
:102020001092E7051092E8054092E90509C08885FD
:102030009E852C892093E7059093E8058093E90518
:102040005EDBCE01019664DD1092D1058BE296E055
:102050000E946301892B19F16BE276E0C60179DDFC
:102060004AE060E070E0C80107DDB601C70155DD58
:10207000C701B4DCB801D1DCBC01CE0101964DDD55
:10208000BE016F5F7F4F8DEE95E032DACE01019693
:102090003FDDC7013DDDC8013BDDC60139DD8BEC0D
:1020A00094E00E946301892B19F16BEC74E0C60186
:1020B00050DD4AE061E070E0C801DEDCB601C70136
:1020C0002CDDC7018BDCB801A8DCBC01CE01019678
:1020D00024DDBE016F5F7F4F8DEE95E009DACE0102
:1020E000019616DDC70114DDC80112DDC60110DD41
:1020F0008EE294E00E946301892B19F16EE274E094
:10210000C60127DD4AE062E070E0C801B5DCB60137
:10211000C70103DDC70162DCB8017FDCBC01CE0171
:102120000196FBDCBE016F5F7F4F8DEE95E0E0D93D
:10213000CE010196EDDCC701EBDCC801E9DCC6018C
:10214000E7DC81E993E00E946301892B19F161E9E1
:1021500073E0C601FEDC4AE063E070E0C8018CDC9D
:10216000B601C701DADCC70139DCB80156DCBC01B5
:10217000CE010196D2DCBE016F5F7F4F8DEE95E000
:10218000B7D9CE010196C4DCC701C2DCC801C0DCEE
:10219000C601BEDC812C912CA12CB12C8091F805BC
:1021A0009091F905A816B90658F56091F40570915B
:1021B000F505680D791DCE010196AFDCBE016F5F9C
:1021C0007F4F8BE296E062DABE016F5F7F4F8BEC50
:1021D00094E05CDABE016F5F7F4F8EE294E056DAE6
:1021E000BE016F5F7F4F81E993E050DACE01019627
:1021F0008FDC3FEFA31AB30A86E0880E911CCECF86
:1022000060E070E084EF95E019D86FE073E0CE01F4
:1022100001968BDCBE016F5F7F4F84EF95E068D93C
:10222000CE01019675DC0E948101FCCDCF92DF9238
:10223000EF92FF920F931F93CF93DF93CDB7DEB74B
:1022400065970FB6F894DEBF0FBECDBF1092940312
:102250001092930388EE93E0A0E0B0E080939503A2
:1022600090939603A0939703B093980322E332E0F0
:10227000309392032093910345E351E050939E03E2
:1022800040939D0344E351E05093A00340939F0388
:1022900040E351E05093A2034093A10341E351E096
:1022A0005093A4034093A30342E351E05093A60349
:1022B0004093A50346E351E05093A8034093A7033E
:1022C0001092AA031092AB031092AC031092AD03CC
:1022D00010923104109230048093320490933304AE
:1022E000A0933404B093350430932F0420932E042C
:1022F00045ED50E050933B0440933A0444ED50E0E8
:1023000050933D0440933C0440ED50E050933F0413
:1023100040933E0441ED50E050934104409340040B
:1023200042ED50E0509343044093420446ED50E0A8
:10233000509345044093440410924704109248047B
:102340001092490410924A041092CE041092CD04C7
:102350008093CF049093D004A093D104B093D2047F
:102360003093CC042093CB044DEC50E05093D80430
:102370004093D7044CEC50E05093DA044093D904D6
:1023800048EC50E05093DC044093DB0449EC50E00F
:102390005093DE044093DD044AEC50E05093E00497
:1023A0004093DF044EEC50E05093E2044093E1048C
:1023B0001092E4041092E5041092E6041092E704EF
:1023C0004BE256E010922E0610922D0680932F06B7
:1023D00090933006A0933106B093320630932C06CA
:1023E00020932B0625EC30E03093380620933706F7
:1023F00024EC30E030933A062093390620EC30E0AC
:1024000030933C0620933B0621EC30E030933E06AF
:1024100020933D0622EC30E03093400620933F06A7
:1024200026EC30E030934206209341061092440699
:1024300010924506109246061092470610926B05C0
:1024400010926A0580936C0590936D05A0936E05BC
:10245000B0936F0582E492E09093690580936805DC
:1024600061E270E07093E0066093DF061092E1068F
:102470001092E2061092E30696E0C92ED12CE12CD0
:10248000F12CC092E406D092E506E092E606F092C6
:10249000E7061092E8061092E9061092EA061092FA
:1024A000EB0620E22093EC061092EE061092ED0669
:1024B0001092F1068AEC96E09093F0068093EF0676
:1024C00080EE92E09093C9068093C8068AEE92E06F
:1024D0009093DD068093DC061092CE061092CD0616
:1024E0001092D0061092CF061092D2061092D1060A
:1024F0001092D4061092D3061092D6061092D506EA
:102500001092D8061092D7068EEB92E09093CB06ED
:102510008093CA065093DB064093DA0630E130938D
:10252000D906709319066093180610921A06109235
:102530001B0610921C06C0921D06D0921E06E09249
:102540001F06F09220061092210610922206109289
:102550002306109224062093250610922706109237
:10256000260610922A061092FF051092000610927D
:1025700001061092020623E036E0309329062093EC
:10258000280628E632E03093FE052093FD0522E779
:1025900032E030931606209315061092070610922B
:1025A0000606109209061092080610920B06109269
:1025B0000A0610920D0610920C0610920F06109249
:1025C0000E06109211061092100690930406809346
:1025D0000306509314064093130688E08093120676
:1025E0005093FC054093FB056EE573E086E793E0AE
:1025F00081D5EDEEF5E08EE0DF011D928A95E9F7D9
:1026000008E010E01093F0050093EF0580E390E000
:10261000D5D59093EE058093ED051093F7050093C3
:10262000F60580E390E0CAD59093F5058093F40514
:1026300081E08093D2051092D3051092D5051092B7
:10264000D4051092D7051092D6059FEF9093D80528
:102650001092D9051092DB051092DA058093DC0503
:102660001092DD0592E09093DE058093DF051092D5
:10267000E0051092E1051092E2051092E3051A823E
:1026800018861F86188A198A1A8A8E878B871C8655
:102690009D87898389E690E09E838D838FD59A8775
:1026A0008987009751F029E6FC0111922A95E9F7F4
:1026B00083E290E09C838B8304C01E821D821C8277
:1026C0001B8289E08F838A81882341F061E089E061
:1026D0000E948E0660E089E00E941106E1EDF1E0C3
:1026E000E491F0E0EE0FFF1FE255FE4F85919491CB
:1026F0009C8B8B8BE1E7F1E0E491ED8B85E1FE01B2
:102700003196A2EDB5E001900D928A95E1F7CE01E8
:1027100001960E9408098FEF8093E7058093E805F2
:102720008093E905E4E7F5E08EE5DF011D928A95E7
:10273000E9F708E010E01093B9050093B80580E3CD
:1027400090E03CD59093B7058093B6051093C005F3
:102750000093BF0580E390E031D59093BE05809350
:10276000BD051093C7050093C60580E390E026D50C
:102770009093C5058093C4056DEF72E08BEC95E0F6
:10278000D4D91092D10565960FB6F894DEBF0FBE6E
:10279000CDBFDF91CF911F910F91FF90EF90DF9010
:1027A000CF9008958BEC95E0B3D984EC95E00E942E
:1027B000C10A8DEB95E00E94C10A86EB95E00E946C
:1027C000C10A82ED95E00E94080984EF95E00E941D
:1027D000C10A8DEE95E00E94C10A8DEF95E00E943E
:1027E000BD0388EC96E00C940604EE0FFF1F881FD3
:1027F0008BBF0790F691E02D19946F927F928F9284
:102800009F92AF92BF92CF92DF92EF92FF920F937F
:102810001F93CF93DF93EC01009781F4CB01DF91FD
:10282000CF911F910F91FF90EF90DF90CF90BF90CD
:10283000AF909F908F907F906F90C0C4FC01E60F87
:10284000F71F9C0122503109E217F30708F4A8C0D2
:10285000D9010D911C91119706171707A8F00530A3
:10286000110508F49BC0C80104978617970708F460
:1028700095C002501109061B170B019311936D931C
:102880007C93CF0130D58AC05B01A01AB10A4C01FC
:10289000800E911EA091FA06B091FB0640E050E038
:1028A000E12CF12C109709F44AC0A815B905D1F50F
:1028B0006D907C901197630182E0C80ED11CCA1400
:1028C000DB0480F1A3014A195B096A0182E0C80EAA
:1028D000D11C1296BC9012971396AC91B5E0CB1612
:1028E000D10440F0B282A38351834083D9016D9318
:1028F0007C930AC00E5F1F4FC301800F911FF90127
:1029000091838083EB2DFA2FE114F10431F0D7018C
:102910001396FC93EE93129741C0F093FB06E0935D
:10292000FA063CC08D919C9111974817590708F4FD
:10293000AC017D0112960D90BC91A02DB3CF80917A
:10294000F8069091F90688159905E1F4461757079E
:10295000C8F48091000290910102009741F48DB774
:102960009EB74091040250910502841B950BE81715
:10297000F907B0F4F093F906E093F806F9017183D2
:1029800060830CC0CB011AD47C01009749F0A801E8
:10299000BE011BD0CE01A7D4C70104C0CE0102C026
:1029A00080E090E0DF91CF911F910F91FF90EF9029
:1029B000DF90CF90BF90AF909F908F907F906F905F
:1029C000089581E090E0F89448C5FB01DC0102C065
:1029D00001900D9241505040D8F70895FB01DC0161
:1029E00001900D920020E1F70895FB01DC014150B8
:1029F000504030F08D910190801919F40020B9F702
:102A0000881B990B0895CF93DF93CDB7DEB72E9730
:102A10000FB6F894DEBF0FBECDBF85E08C838C89E6
:102A20009D899A838983AE01485E5F4F6E897F8955
:102A3000CE010196B0D12E960FB6F894DEBF0FBE30
:102A4000CDBFDF91CF91089520FD09C0FC0123FD8A
:102A500005C022FF02C073836283518340830895BF
:102A600044FD10C046FD10C0DB01FC01AA0FBB1FD6
:102A7000EE1FFF1F1094D1F76A0F7B1F8E1F9F1F41
:102A800031E003C033E001C034E0660F771F881FD8
:102A9000991F3150D1F7620F711D811D911D08954D
:102AA0000F931F93CF93DF938C01C8019FD2EC014A
:102AB00097FD06C0B0D4892BC1F7B801CE01D4D29E
:102AC000CE01DF91CF911F910F9108958F929F9228
:102AD000AF92BF92CF92DF92EF92FF920F931F932C
:102AE000CF93DF931F92CDB7DEB78C01C62E7A014C
:102AF00029837CD2AC01552729814B32510521F025
:102B00004D32510561F42068CA94C11002C080E0C2
:102B10006FC0C80129836AD2298197FDF8CF322F6F
:102B20003D7FD32E322F307339F5803329F5BB2406
:102B3000BA94BC0C09F449C0C801298357D2298131
:102B400097FD43C0382F3F7D383561F48D2D826469
:102B5000D82ECA94CA94CC20C1F1C80147D297FF9D
:102B60000BC033C026FF04C02D2D2260D22E03C01F
:102B70003D2D3261D32ECB2C812C912C540120ED94
:102B8000280F283078F0D4FE03C0B8016DD21AC0E7
:102B90002A3040F0D6FEF9CF2F7D3FEE320F36308F
:102BA000A0F727504D2DC501B4015ADF4B015C0140
:102BB0008D2D8260D82ECA94CC2051F0C80116D237
:102BC00097FFDDCFD1FC04C0A2CF812C912C540102
:102BD000D7FE08C0B094A09490948094811C911C5E
:102BE000A11CB11C2D2DB501A401C7012DDF81E071
:102BF0000F90DF91CF911F910F91FF90EF90DF9099
:102C0000CF90BF90AF909F908F9008956F927F92DA
:102C10008F929F92AF92BF92CF92DF92EF92FF92EC
:102C20000F931F93CF93DF93CDB7DEB7A1970FB666
:102C3000F894DEBF0FBECDBF5C017A01CE010196D4
:102C40006C0180E2F60111928A95E9F7F501838023
:102C500040E050E0912C712C70E0A1E0B0E0F9016F
:102C600083FC859183FE81918F01982F9F018111B3
:102C700003C080E090E07AC08E3519F4411551050B
:102C800049F1E72FF0E0E417F5073CF48D3559F1F1
:102C90008D3219F4772001F103C0711001C0982E14
:102CA000892F8695869586958601080F111D892F97
:102CB00087703D0101C0660C8A95EAF7F8018081B2
:102CC00086298083991559F0991510F49F5FE8CFF4
:102CD0009150E6CF71E004C07724739401C0712C49
:102CE0004F5F5F4FBCCF772019F08E8180628E835B
:102CF000711103C09924939416C0F6019E012F5DB3
:102D00003F4F808180958193E217F307D1F7F2CF8F
:102D1000E114F10429F0F7018083C70101967C01D9
:102D20006150912CE9F0C50169A360D169A197FDBB
:102D300015C0282F269526952695F601E20FF11D40
:102D4000208130E0AC014770552702C035952795AA
:102D50004A95E2F720FDDCCFB50186D1911089CFED
:102D6000E114F10411F0F7011082C801A1960FB629
:102D7000F894DEBF0FBECDBFDF91CF911F910F91B1
:102D8000FF90EF90DF90CF90BF90AF909F908F908B
:102D90007F906F9008954F925F927F928F929F9253
:102DA000AF92BF92CF92DF92EF92FF920F931F9359
:102DB000CF93DF931F92CDB7DEB76C012B015A0181
:102DC000FC0117821682712CF601F380F201F3FCEC
:102DD0008591F3FE8191382F2F01882309F4E5C0F6
:102DE00090E0398318D33981892B19F0C60158DE58
:102DF000EBCF353241F4F201F3FC3591F3FE319122
:102E00002F01353259F4C6013983F0D0398197FD4D
:102E1000CAC03817C9F2B60127D1C7C03A3239F44F
:102E2000F3FC3591F3FE31912F0151E001C050E0E8
:102E3000420110E020ED230F2A3088F45260612F08
:102E400070E080E090E040E259830ADE162FF40142
:102E5000F3FC3591F3FE31914F015981EBCF052FF2
:102E6000232F240151FF03C0111102C09EC01FEF88
:102E7000383619F03C3659F011C0F401F3FC2591B5
:102E8000F3FE21912F01283649F4052F08600460D4
:102E9000F201F3FC2591F3FE21912F01222309F485
:102EA00084C0622F70E08EE092E0298394D0298163
:102EB000892B09F47AC000FD07C0F501E080F1809C
:102EC000C50102965C0102C0E12CF12C2E3649F4BA
:102ED000F6014681578160E070E0202FC701B4DD24
:102EE00073CF233689F401FF11E0C6017FD097FD2F
:102EF0005AC0E114F10429F0F7018083C70101965B
:102F00007C01115091F74BC02B3551F49201A70170
:102F1000612FC6017BDE2C01892B09F040C03AC02D
:102F2000C6012983BDDD298197FD3DC02F3641F1C2
:102F300028F4243619F1293631F124C0233769F0F9
:102F40002537E1F01FC0E114F10429F0F701808278
:102F5000C70101967C01115059F0C60147D04C01C0
:102F600097FD06C058D2892B71F3B601C4017CD0FD
:102F7000E114F104A1F0F701108211C0006203C056
:102F8000006101C00064202FA701612FC6019EDDF2
:102F9000811105C0F6018381807329F406C000FD0C
:102FA00013CF739411CF772019F0872D90E002C0D2
:102FB0008FEF9FEF0F90DF91CF911F910F91FF90B7
:102FC000EF90DF90CF90BF90AF909F908F907F90C9
:102FD0005F904F900895FC010590061621F00020A7
:102FE000D9F7C00108953197CF010895CF93DF93AA
:102FF000EC012B8120FF33C026FF0AC02F7B2B83DF
:103000008E819F8101969F838E838A8190E029C063
:1030100022FF0FC0E881F9818081082E000C990BF6
:10302000009719F420622B831AC03196F983E88344
:103030000EC0EA85FB85199597FF09C02B81019683
:1030400011F080E201C080E1822B8B8308C02E81C9
:103050003F812F5F3F4F3F832E83992702C08FEF21
:103060009FEFDF91CF910895FB01238120FF12C0D4
:1030700026FD10C08F3F3FEF930761F082832F7DC5
:1030800020642383268137812150310937832683A9
:10309000992708958FEF9FEF08954532510518F451
:1030A000423008F004C0FB011082CB010895BB2719
:1030B0004A3031F4992322F4BDE2909581959F4FD7
:1030C00001C0BB27FB015527AA27880F991FAA1FFC
:1030D000A41710F0A41B83955051B9F7A05DAA3333
:1030E00008F0A95DA193009779F7B111B1931192FE
:1030F000CB01A0C10F931F93CF93DF93009731F4BF
:103100006115710519F480E090E039C08B01EC0184
:103110006EE070E081E090E037D0FC01892B99F3FC
:1031200080E883830115110571F01387028781E818
:1031300083838091F2069091F306892B21F4F0931A
:10314000F306E093F2062097C9F0D187C087838108
:10315000826083838091F4069091F506892B71F447
:10316000F093F506E093F4068091F6069091F70649
:10317000892B21F4F093F706E093F606CF01DF9157
:10318000CF911F910F9108950F931F93CF93DF93CA
:10319000869F8001879F100D969F100D1124C801F6
:1031A0000DD0EC01009721F0A80160E070E03BD168
:1031B000CE01DF91CF911F910F910895CF93DF93AF
:1031C0008230910510F482E090E0E091FA06F091EF
:1031D000FB0620E030E0C0E0D0E0309711F1408104
:1031E000518148175907C0F04817590761F4828187
:1031F0009381209719F09B838A832BC09093FB06C1
:103200008093FA0626C02115310519F0421753079D
:1032100018F49A01BE01DF01EF010280F381E02D75
:10322000DCCF2115310509F1281B390B243031057C
:1032300090F412968D919C9113976115710521F070
:10324000FB019383828304C09093FB068093FA066C
:10325000FD01329644C0FD01E20FF31F819391936B
:10326000225031092D933C933AC02091F8063091B9
:10327000F906232B41F4209102023091030230938E
:10328000F9062093F80620910002309101022115E1
:10329000310541F42DB73EB740910402509105022B
:1032A000241B350BE091F806F091F906E217F307BD
:1032B000A0F42E1B3F0B2817390778F0AC014E5FA6
:1032C0005F4F2417350748F04E0F5F1F5093F906E4
:1032D0004093F8068193919302C0E0E0F0E0CF01C3
:1032E000DF91CF9108950F931F93CF93DF930097B2
:1032F00009F48CC0FC013297138212820091FA0605
:103300001091FB060115110581F420813181820F96
:10331000931F2091F8063091F9062817390779F59F
:10332000F093F906E093F80671C0D80140E050E050
:10333000AE17BF0750F412962D913C911397AD0133
:103340002115310509F1D901F3CF9D01DA0133834C
:10335000228360817181860F971F8217930769F41A
:10336000EC0128813981260F371F2E5F3F4F3183B3
:1033700020838A819B8193838283452B29F4F09358
:10338000FB06E093FA0642C01396FC93EE93129765
:10339000ED01499159919E01240F351FE217F30762
:1033A00071F480819181840F951F029611969C93F0
:1033B0008E938281938113969C938E931297E0E073
:1033C000F0E0D80112968D919C911397009719F017
:1033D000F8018C01F6CF8D919C9198012E5F3F4FA3
:1033E000820F931F2091F8063091F90628173907AC
:1033F00069F4309729F41092FB061092FA0602C085
:10340000138212821093F9060093F806DF91CF9190
:103410001F910F91089591111DC0803219F08950AC
:103420008550D0F70895DC0101C06D9341505040A4
:10343000E0F70895DC01FC01672F71917723E1F734
:10344000329704C07C916D9370836291AE17BF0771
:10345000C8F3089599278827089511E0CEE0D1E0B8
:1034600000E005C0802FFE01C0D92196011DCF309C
:0C347000D10780E00807B1F7F894FFCF07
:10347C000000FC06800018000000000000000000A6
:10348C00E8FFE8FF0000000000001400000000004E
:10349C0000000000ECFFECFF00000000000000004A
:1034AC000000AA05540B630141015501F005000011
:1034BC0000003D022902210212020402030206004E
:1034CC00000000009D039F03FAFFFAFF00009E031B
:1034DC00A103180000000000BD03D203E8FFE8FFC1
:1034EC000000C903DB0368020C0216027202000022
:1034FC0000001B099B035D035A035703540351033C
:10350C00C802C402C102AB02CB024F024D02020040
:10351C0000000000E603E803FEFFFEFF0000E703E7
:10352C00EA03000000001D092D04000000001C0926
:10353C00E4035D035A035703540351034503FF028D
:10354C00E602CD02CB0250042F0414000000000050
:10355C0006041B04ECFFECFF000012042404E00240
:10356C0020022A02EA024C4544004C4F4300434FD0
:10357C004D004C45443A25642C25642C25640048A8
:06358C00454C4C4F00000D
:00000001FF
