:100000000EC100003DC100003BC1000039C100002D
:1000100037C1000035C1000033C1000031C100000C
:100020002FC100002DC100002BC1000029C100001C
:1000300027C1000025C1000023C1000021C100002C
:100040001FC100001DC100001BC1000019C100003C
:1000500017C1000015C1000013C1000012C7000045
:100060000FC1000052C50000C3C5000009C1000057
:1000700007C1000005C1000003C1000001C100006C
:10008000FFC00000FDC00000FBC00000F9C0000080
:1000900013C5000084C50000F3C000003CC7000089
:1000A000EFC00000EDC00000EBC00000E9C00000A0
:1000B000E7C00000E5C00000E3C00000E1C00000B0
:1000C000DFC00000DDC00000DBC00000CCC40000C9
:1000D0000C94F70ED5C000000C94CD0E0C94A30E1A
:1000E000CFC00000B706BA06A906AD06B106F106F4
:1000F000BE06C206C806CC06D006D606DA06DE065E
:10010000F106E406E806EC060000210024002700C2
:100110002A002D0030003300010100000401070116
:100120000A0100000A0B02090C0D0E080703040166
:1001300000000000000000000000000000000000BF
:10014000000000000000000000000000000012118C
:10015000100000000000000000000000000000008F
:10016000000000000000000001021020200808101C
:100170002040102040800201020108040201010217
:1001800004081020408080402010080402018004F0
:10019000020180402010080402010804020101024B
:1001A0000408102040800102040810204080000054
:1001B0002200250028002B002E003100340002010F
:1001C0000000050108010B010505050507050808E4
:1001D0000808020202020A0A0808040404040101D1
:1001E00001010101010103030303030303030407E6
:1001F00007070C0C0C0C0C0C0C0C0202020206067D
:100200000606060606060B0B0B0B0B0B0B0B6364AB
:10021000696E6F70737578585B000712C3141124F0
:100220001FBECFEFD1E2DEBFCDBF00E00CBF13E0B9
:10023000A0E0B2E0EEE5F6E300E00BBF02C00790FD
:100240000D92AC31B107D9F727E0ACE1B3E001C0C2
:100250001D92A632B207E1F711E0CEE0D1E000E056
:1002600006C021970109802FFE010E94E614CD30BF
:10027000D10780E00807A9F70E94210F0C941E1BEC
:10028000BFCEFC01918D828D981761F0828DDF01C8
:10029000A80FB11D5D968C91928D9F5F9F73928F79
:1002A00090E008958FEF9FEF0895FC01918D828D6E
:1002B000981731F0828DE80FF11D858D90E008953B
:1002C0008FEF9FEF0895FC01918D228D892F90E093
:1002D000805C9F4F821B91098F739927089585EF4A
:1002E00094E0F1DF21E0892B09F420E0822F0895CA
:1002F00085E596E0E8DF21E0892B09F420E0822FF4
:10030000089580E090E0892B19F0F2DF811118C088
:1003100080E090E0892B19F0E2DF811114C080E0C9
:1003200090E0892B21F00E94160D81110FC080E012
:1003300090E0892B81F00E940C0D81110AC0089574
:100340000E940000E5CF0E940000E9CF0E9400005B
:10035000EECF0C94000008953FB7F8948091A70366
:100360009091A803A091A903B091AA0326B5A89BD8
:1003700005C02F3F19F00196A11DB11D3FBFBA2F37
:10038000A92F982F8827820F911DA11DB11DBC0197
:10039000CD0142E0660F771F881F991F4A95D1F75C
:1003A000089585ED8093BC008091BC0084FDFCCF56
:1003B00010928003089540915C03262F30E0240FB3
:1003C000311D21323105DCF4209180032430C9F441
:1003D000FC0180E090E0861758F430915C03219195
:1003E000DC01A45CBC4FA30FB11D2C930196F3CF8D
:1003F00080915C03680F60935C0380E0089581E066
:10040000089582E00895E091B503F091B603309726
:1004100029F01092B8031092B70319940895CF935E
:10042000DF93AC01E091B303F091B4033097F1F0A6
:100430009091BA038091B9039817C0F090E0292FEA
:1004400030E02617370754F4D901A45EBC4FEA0107
:10045000C20FD31F88818C939F5FF1CF1092BA0394
:100460006093B903CB01DF91CF911994DF91CF91C4
:1004700008950895E091BA038091B903E81730F424
:10048000F0E0E45EFC4F808190E008958FEF9FEFF5
:1004900008959091BA038091B903981750F4E92F09
:1004A000F0E0E45EFC4F208130E09F5F9093BA0360
:1004B00002C02FEF3FEFC90108958091B90390E08A
:1004C0002091BA03821B91090895CF93DF931F9265
:1004D0001F92CDB7DEB7CB01642F49835A836BDF00
:1004E0004981842F5A81952F0F900F90DF91CF91E2
:1004F0000895CF93DF931F92CDB7DEB7698361E094
:10050000CE01019658DF81E090E00F90DF91CF910E
:100510000895CB0108957F928F929F92AF92BF92E0
:10052000CF92DF92EF92FF920F931F93CF93DF93BF
:10053000EC0149015A018B01C12CD12C7601C81460
:10054000D904EA04FB0484F5F80171908F018F85CA
:1005500080FF0BC0E881F9810084F185E02D20E166
:1005600044E060E070E0CE011995EB85FC858D8557
:100570009E85E817F90738F470828B859C85019673
:100580009C878B870BC0E881F981672D70E0028C16
:10059000F38DE02DCE011995019649F02FEFC21A87
:1005A000D20AE20AF20ACBCFB401C50102C0B601F9
:1005B000C701DF91CF911F910F91FF90EF90DF90D6
:1005C000CF90BF90AF909F908F907F900895CF93E2
:1005D000DF93EC01E881F9810288F389E02D199518
:1005E0008F3F2FEF920731F02D813E812F5F3F4FDC
:1005F0003E832D83DF91CF9108958FEF9FEF089574
:1006000060E070E0CB01089580E090E00895CB01B8
:100610000895CF93DF93EC0188899989DC01ED91EE
:10062000FC910480F581E02D1995892BA9F3888927
:100630009989DC01ED91FC910680F781E02DDF9135
:10064000CF911994CF93DF93EC0188899989DC01CC
:10065000ED91FC910480F581E02D1995892BA9F38A
:1006600088899989DC01ED91FC910084F185E02D68
:10067000DF91CF911994AF92BF92CF92DF92EF9218
:10068000FF920F931F93CF93DF9300D01F92CDB7AC
:10069000DEB78C015B01C12CD12C7601F801808979
:1006A0009189DC01ED91FC910680F781E02D298391
:1006B0003A834B835C83199529813A814B815C8114
:1006C0008F3F71F0C216D306E406F5064CF4D5014F
:1006D0008D935D01BFEFCB1ADB0AEB0AFB0ADECF7D
:1006E000C701B6010F900F900F900F90DF91CF913F
:1006F0001F910F91FF90EF90DF90CF90BF90AF9040
:100700000895DC0150968D919C915197DC01ED91FB
:10071000FC910480F581E02D199480E090E008952B
:1007200080E090E0089580E090E0089580E090E01F
:1007300008950895CF93DF93C0912506D0912606A2
:10074000E881F9810480F581E02DCE011995892B8E
:10075000B9F3E881F9810680F781E02DCE01DF91C0
:10076000CF9119941F93CF93DF93182FC091250633
:10077000D09126068A3041F4E881F9810190F08118
:10078000E02D6DE0CE011995E881F9810190F081AD
:10079000E02D612FCE01199521E030E0019711F491
:1007A00020E030E0C901DF91CF911F9108950C94B2
:1007B000641A089508950C94641ADC01ED91FC917B
:1007C000369720813181820F931FF5CFFB01208165
:1007D0003181FC0131832083FB0142815381F90186
:1007E000369720813181FC01E20FF31F5183408352
:1007F000089528E632E0FC013183208322E732E0CD
:10080000318F208F68E772E0E1CFDC01ED91FC9140
:10081000369720813181820F931FEBCFCF93DF93E7
:10082000EC01E7DFCE01DF91CF910C94641ADC017B
:10083000ED91FC91369720813181820F931FEECF8D
:100840000C94641A089508950C94641ADC01ED91D7
:10085000FC91369720813181820F931FF5CFFB01E8
:1008600020813181FC0131832083FB01428153814E
:10087000F901369720813181FC01E20FF31F51838A
:100880004083089520EE32E0FC01318320832AEE7C
:1008900032E0358B248B60EF72E0E1CFDC01ED912B
:1008A000FC91369720813181820F931FEBCFCF933C
:1008B000DF93EC01E7DFCE01DF91CF910C94641A56
:1008C000DC01ED91FC91369720813181820F931FDD
:1008D000EECF0C94641A0F931F93CF93DF938C0188
:1008E000EB016F3F8FEF780719F480E090E00FC0C5
:1008F0006A3031F46DE0F801808991890E949C0E84
:100900006C2FF801808991890E949C0ECE01DF91A5
:10091000CF911F910F9108958F929F92BF92CF9286
:10092000DF92EF92FF920F931F93CF93DF9300D04C
:100930001F92CDB7DEB78C014B01C12CD12C7601B3
:10094000C216D306E406F50644F5F401B1904F0152
:10095000FAE0BF120EC06DE0F80180899189298309
:100960003A834B835C830E949C0E5C814B813A816D
:1009700029816B2DF8018089918929833A834B83E2
:100980005C830E949C0EFFEFCF1ADF0AEF0AFF0A7A
:100990005C814B813A812981D3CFCA01B9010F9083
:1009A0000F900F900F90DF91CF911F910F91FF90BB
:1009B000EF90DF90CF90BF909F908F9008951F93FE
:1009C000CF93DF9311E0C0EAD5E09091B903809115
:1009D000BA03981759F182E995E05BDD8230910501
:1009E00029F410929E0510929F0515C0E0919E0576
:1009F0008330910539F4F0E0E256FA4F12821093F9
:100A00009F0509C0AE2FB0E0A256BA4F12968C9344
:100A1000EF5FE0939E0580919E058034B1F6FE0164
:100A200011928A95E9F710929E05CFCFDF91CF9171
:100A30001F910895FC01A089B1898C91A689B7897D
:100A400082FD0FC09C91818D8F5F8F73228D8217E5
:100A500049F0218DDF01A20FB11D5D969C93818F1E
:100A600008958C9108951F920F920FB60F92112442
:100A70000BB60F922F933F934F935F936F937F9398
:100A80008F939F93AF93BF93EF93FF9388E594E089
:100A9000D1DFFF91EF91BF91AF919F918F917F91A6
:100AA0006F915F914F913F912F910F900BBE0F90DF
:100AB0000FBE0F901F9018951F920F920FB60F92B6
:100AC00011240BB60F922F933F934F935F936F9325
:100AD0007F938F939F93AF93BF93EF93FF9385EF94
:100AE00094E0A8DFFF91EF91BF91AF919F918F911B
:100AF0007F916F915F914F913F912F910F900BBE1E
:100B00000F900FBE0F901F9018951F920F920FB667
:100B10000F9211240BB60F922F933F934F935F9335
:100B20006F937F938F939F93AF93BF93EF93FF93B5
:100B300085E596E07FDFFF91EF91BF91AF919F91A7
:100B40008F917F916F915F914F913F912F910F9076
:100B50000BBE0F900FBE0F901F901895FC01848D57
:100B6000DF01A80FB11DA35ABF4F2C91848D90E0D7
:100B700001968F739927848FA689B7892C93A089B2
:100B8000B1898C9180648C93938D848D981306C069
:100B90000288F389E02D80818F7D808308951F92E4
:100BA0000F920FB60F9211240BB60F922F933F9313
:100BB0004F935F936F937F938F939F93AF93BF9365
:100BC000EF93FF9385EF94E0C9DFFF91EF91BF9121
:100BD000AF919F918F917F916F915F914F913F91D5
:100BE0002F910F900BBE0F900FBE0F901F90189576
:100BF0001F920F920FB60F9211240BB60F922F93E4
:100C00003F934F935F936F937F938F939F93AF9394
:100C1000BF93EF93FF9385E596E0A0DFFF91EF91FF
:100C2000BF91AF919F918F917F916F915F914F9104
:100C30003F912F910F900BBE0F900FBE0F901F9002
:100C40001895EF92FF920F931F93CF93DF93EC01D0
:100C500081E0888F9B8D8C8D981305C0E889F98978
:100C6000808185FD23C0F62E0B8D10E00F5F1F4F96
:100C70000F731127E02E8C8DE8120BC00FB607FC06
:100C8000FACFE889F989808185FFF5CFCE0166DF4B
:100C9000F2CF8B8DFE01E80FF11DE35AFF4FF0827A
:100CA0000B8FEA89FB898081806207C0EE89FF890A
:100CB0006083E889F98980818064808381E090E0A5
:100CC000DF91CF911F910F91FF90EF900895CF93F7
:100CD000DF93EC01888D8823C1F0EA89FB8980814C
:100CE00085FD05C0A889B9898C9186FD0EC00FB617
:100CF00007FCF5CF808185FFF2CFA889B9898C9157
:100D000085FFEDCFCE012ADFE8CFDF91CF910895A7
:100D1000362F90E0FC01EE5DFE4F4491FC01E85956
:100D2000FE4F2491FC01E853FE4F9491992309F45E
:100D30006BC0442309F455C050E0FA013197E23109
:100D4000F10508F04EC08827EE58FF4F8F4F0C94E6
:100D5000E614809180008F7707C0809180008F7D9E
:100D600003C080918000877F809380003AC084B563
:100D70008F7702C084B58F7D84BD33C08091B00071
:100D80008F7703C08091B0008F7D8093B00029C021
:100D9000809190008F7707C0809190008F7D03C075
:100DA00080919000877F809390001BC08091A0006D
:100DB0008F7707C08091A0008F7D03C08091A00035
:100DC000877F8093A0000DC0809120018F7707C09E
:100DD000809120018F7D03C080912001877F8093C7
:100DE0002001E92FF0E0EE0FFF1FE255FE4FA59125
:100DF000B4918FB7F894EC91311103C020952E2354
:100E000001C02E2B2C938FBF0895CF93DF9390E0DA
:100E1000FC01E859FE4F2491FC01E853FE4F8491F8
:100E2000882361F190E0880F991FFC01E85FFE4F75
:100E3000C591D491FC01E255FE4FA591B491611189
:100E400009C09FB7F8948881209582238883EC910C
:100E50002E230BC0623061F49FB7F8943881822F43
:100E6000809583238883EC912E2B2C939FBF06C003
:100E70008FB7F894E8812E2B28838FBFDF91CF9115
:100E800008951F920F920FB60F9211242F933F9344
:100E90008F939F93AF93BF938091AB039091AC03DB
:100EA000A091AD03B091AE033091A60323E0230FD0
:100EB0002D3720F40196A11DB11D05C026E8230F92
:100EC0000296A11DB11D2093A6038093AB039093BE
:100ED000AC03A093AD03B093AE038091A7039091B0
:100EE000A803A091A903B091AA030196A11DB11D69
:100EF0008093A7039093A803A093A903B093AA0398
:100F0000BF91AF919F918F913F912F910F900FBE05
:100F10000F901F9018951F920F920FB60F921124E9
:100F20000BB60F922F933F934F935F936F937F93E3
:100F30008F939F93AF93BF93EF93FF938091B900EB
:100F4000887F803609F49CC068F5883209F45BC05C
:100F500090F4803109F454C038F4882309F4F6C0C1
:100F6000883009F44DC0F5C0883109F44CC0803296
:100F700009F45DC0EEC0803409F468C048F48033E1
:100F800009F455C0883309F0E4C080937F03D8C0CA
:100F9000803509F44FC0883509F45DC0883409F004
:100FA000D8C0D6C0883909F4C7C0A8F4883709F476
:100FB00067C038F4883609F463C0803709F460C02C
:100FC000C8C0883809F4B8C0803909F45FC08038D7
:100FD00009F0BFC05BC0803B09F486C038F4803A9A
:100FE00009F466C0883A09F47FC0B3C0803C09F4B4
:100FF000A7C0883C09F4A4C0883B09F48AC0A9C0F2
:101000008091A50310C09091A4038091A303981729
:1010100070F5E091A40381E08E0F8093A403F0E0CB
:10102000ED57FC4F80818093BB0085EC86C0809398
:101030007F038EC0E091A40381E08E0F8093A40310
:101040008091BB00F0E0ED57FC4F80839091A403AA
:101050008091A3036EC0E091A40381E08E0F809382
:10106000A4038091BB00F0E0ED57FC4F808380919A
:10107000820381116DC081E08093810384EA61C0A5
:1010800083E08093800310927E03CFCF80917E0314
:10109000803208F051C0E0917E0381E08E0F809392
:1010A0007E038091BB00F0E0E25AFC4F8083BDCF0D
:1010B00085EC8093BC001092800380917E03803287
:1010C00030F4E0917E03F0E0E25AFC4F1082609130
:1010D0007E0370E0E091AF03F091B0038EE593E002
:1010E000199510927E0335C084E08093800310929E
:1010F0005D0310925C03E091B103F091B203199586
:1011000080915C03811105C081E080935C031092A3
:101110003C03E0915D0381E08E0F80935D03F0E07E
:10112000E45CFC4F80818093BB0090915D038091D3
:101130005C03981708F479CF85E88093BC0009C058
:1011400085EC8093BC001092800303C010927F0353
:1011500028D9FF91EF91BF91AF919F918F917F918E
:101160006F915F914F913F912F910F900BBE0F9018
:101170000FBE0F901F9018951092800381E080930E
:1011800082031092810361E084E1C2DD61E085E1C8
:10119000BFDDE9EBF0E080818E7F808380818D7FF1
:1011A000808388E48093B80085E48093BC00089530
:1011B000CF92DF92EF92FF920F931F93CF93DF9323
:1011C000CDB7DEB729970FB6F894DEBF0FBECDBFFF
:1011D0008C01C2D8D8011E96CD90DD90ED90FC9088
:1011E0005197DC01CB018C199D09AE09BF098C32E6
:1011F0009140A105B10568F3F894D80114968D913A
:101200009C9115979A8389831896ED91FC91199773
:101210007F01BFEFEB1AFB0A80818B83F80190817D
:101220000288F389E02DD80154968C91992309F412
:1012300030C09081982B9C839081809589238D83E9
:101240008D818E8388E08F835C816D814B813F81AE
:101250002E8189819A81D701508347FD252F3A95A8
:101260002083262F39F0441F00C000006083000057
:1012700000C0F2CF38E04D9160830000019761F724
:10128000D8015396FC93EE9352974B833F832E8362
:101290003AC09081982B9C839081809589238D837F
:1012A0008D81888788E089875C816D814B81398554
:1012B000288589819A81D701508347FD252F00C059
:1012C00000C0208300C000C000C000C000C0608318
:1012D0000000262F3A9541F0441F000000C000C0D6
:1012E00000C000C000C0E8CF38E04D9100C060836E
:1012F00000C0019709F7D8015396FC93EE935297DB
:101300004B83398728879A838983789425D8F80175
:1013100066877787808B918B29960FB6F894DEBF0E
:101320000FBECDBFDF91CF911F910F91FF90EF9036
:10133000DF90CF900895CF93DF93EC018885998556
:10134000009711F00E94641A8E8187FD04C060E04E
:10135000DF91CF915ACDDF91CF91089508950895EF
:101360000895AF92BF92CF92DF92EF92FF920F93C8
:101370001F93CF93DF93FC0124813581621773079C
:1013800000F56B01EC0186E0869F5001879FB00C51
:1013900011248B01E12CF12C8C819D8108171907F8
:1013A00070F4C7018A0D9B1D28813981820F931F1C
:1013B0007BD40F5F1F4FF6E0EF0EF11CEDCFDD8207
:1013C000CC82DF91CF911F910F91FF90EF90DF9032
:1013D000CF90BF90AF9008956F927F928F929F921F
:1013E000AF92BF92CF92DF92EF92FF920F931F9333
:1013F000CF93DF93FC01248135812617370708F04E
:101400006CC07A018B01EC012281338126173707EA
:10141000A0F5CB0108962817390778F580809180D0
:101420009383828326E0AC01249FC001259F900D09
:1014300011240E94CF1999838883C12CD12CA12C0F
:10144000B12C8C819D81A816B906A0F434016C0CD6
:101450007D1C888199818C0D9D1D009711F0B30131
:1014600028D4C30121D45FEFA51AB50A86E0C80EBF
:10147000D11CE7CFC4010E94641ACC80DD8086E0D5
:101480008C9D50018D9DB00C1124812C912CC01687
:10149000D10690F428813981C4018A0D9B1D820FE9
:1014A000931F009711F0B70104D4EFEFCE1ADE0AB4
:1014B000F6E08F0E911CEBCF1D830C83DF91CF9153
:1014C0001F910F91FF90EF90DF90CF90BF90AF9062
:1014D0009F908F907F906F900895DF91CF911F9193
:1014E0000F91FF90EF90DF90CF90BF90AF909F90C3
:1014F0008F907F906F9035CF2F923F924F925F9257
:101500006F927F928F929F92AF92BF92CF92DF9213
:10151000EF92FF920F931F93CF93DF9300D000D0F1
:10152000CDB7DEB77C018B016A01190163E073E07E
:10153000CE010196C6D33BEAA32E3AEAB32EC214DB
:10154000D30409F44CC0B601CE01019698D3F7013B
:1015500080819181081B190BC801959587958A9DFB
:1015600040018B9D900C9A9D900C11246481758193
:101570006F5F7F4FAE014F5F5F4FC7012DDFF701F8
:1015800064807580F6E0F69DB001F79D700D112422
:1015900081E0681A71082B01E6E04E1A5108F70144
:1015A000808191818614970448F46C507109680F0A
:1015B000791F840D951D63D3B201EACFBE016F5F21
:1015C0007F4F800F911F5BD3F701808191810A5F6C
:1015D0001F4F080F191FF6E0CF0ED11CB0CFCE0160
:1015E000019662D326960FB6F894DEBF0FBECDBF2C
:1015F000DF91CF911F910F91FF90EF90DF90CF90EF
:10160000BF90AF909F908F907F906F905F904F9022
:101610003F902F9008950F931F93CF93DF93809166
:10162000EB059091EC05892B39F486EF92E0DF9180
:10163000CF911F910F910BC3E091E705F091E80561
:101640008081918104D3C6E0D0E000E010E0609199
:10165000EB057091EC05615071090617170788F4C6
:101660008091E7059091E8050F5F1F4FBC016C0F5B
:101670007D1F9E0126503109820F931F00D32696AD
:10168000E6CF87EE95E0DF91CF911F910F9169CE64
:10169000AB01FC0124813581B9016F5F7F4F9CCE86
:1016A000CF92DF92EF92FF920F931F93CF93DF932E
:1016B000EC017B01FB01848195819D838C830896DD
:1016C0009B838A8326E0AC01249FC001259F900D57
:1016D00011240E94CF199983888300E010E0C12C67
:1016E000D12C8C819D81C816D90690F4F7016081B8
:1016F0007181600F711F88819981800F911F009700
:1017000009F0D7D2FFEFCF1ADF0A0A5F1F4FE9CFE8
:10171000DF91CF911F910F91FF90EF90DF90CF90CD
:101720000895EF92FF920F931F93CF93DF937C0165
:1017300000E010E0C0E0D0E0F70124813581808135
:101740009181C217D30738F4800F911FADD2219633
:101750000A5F1F4FF1CFDF91CF911F910F91FF9043
:10176000EF900C94641AFC01A089B18982E08C93FB
:10177000A485B5851C92A685B7858FEC8C93108EB9
:10178000A489B58986E08C93A289B3898C91806104
:101790008C93A289B3898C9188608C93A289B38938
:1017A0008C9180688C930288F389E02D80818F7DF5
:1017B00080830895CF93DF93EC012FB7F894809145
:1017C000AB039091AC03A091AD03B091AE032FBFDA
:1017D00088879987AA87BB87E881F9810680F78186
:1017E000E02DCE01199597FF1EC02FB7F894809178
:1017F000AB039091AC03A091AD03B091AE032FBFAA
:10180000488559856A857B85841B950BA60BB70B8C
:101810004C815D816E817F8184179507A607B7078C
:10182000D8F28FEF9FEFDF91CF910895DC01ED911A
:10183000FC91DB0114964D915C9115976D917C9113
:101840000280F381E02D1994CF92DF92EF92FF9204
:101850000F931F93CF93DF936C017A018B01C0E04C
:10186000D0E0CE15DF0589F0D8016D918D01D6014C
:10187000ED91FC910190F081E02DC6011995892B25
:1018800011F47E0102C02196ECCFC701DF91CF9108
:101890001F910F91FF90EF90DF90CF9008958F925E
:1018A0009F92AF92BF92CF92DF92EF92FF920F93EF
:1018B0001F93CF93DF939091110680911406981394
:1018C0000DC09091120680911506981307C0909153
:1018D000130680911606981709F491C060E070E035
:1018E00040E050E020E030E08091FE059091FF055F
:1018F0002817390708F05AC0E091110680911306A5
:1019000090E0A0E0B0E0BA2FA92F982F8827AE2B47
:10191000E09112068E2B4D01AA24BB24C92EDA2E8B
:10192000EB2EFF24CC2DF82FE0910306EE2391F04F
:101930000E2F10E0089DE001099DD00D189DD00DDF
:1019400011248D2ECE9E60011124CD2D8E9FC001BD
:101950001124F92FE0910906A09106068091040652
:1019600090910506EA1303C0840F951F06C0860FE9
:10197000971FDC01AE0FB11D1C92E0910606DC0141
:10198000AE0FB11D8C92E0910706DC01AE0FB11DC8
:10199000CC93E0910806DC01AE0FB11DFC932F5FE4
:1019A0003F4F4D5F5F4F6C5F7F4F9ECF8091BC007C
:1019B0008A7B8093BC0060E084E1AAD960E085E185
:1019C000A7D98091040690910506892B19F08CEF18
:1019D00095E0EEDB1092BA031092B9031092B803AF
:1019E0001092B703C9DB8091110690911206A09165
:1019F00013068093140690931506A0931606DF91A4
:101A0000CF911F910F91FF90EF90DF90CF90BF90FB
:101A1000AF909F908F9008958BEB93E00E946301AD
:101A200021E0892B09F420E0822F089588E594E0D5
:101A30000E94630121E0892B09F420E0822F0895A0
:101A40000E94D215FB0144815581FC01248135811E
:101A50002417350778F080819181009759F0FB01B8
:101A6000608171816115710529F00E94E61521E000
:101A7000892B09F020E0822F08950F931F93CF93B5
:101A8000DF93EC0188819981009729F02A813B81BD
:101A90002617370780F48B016F5F7F4F9FD7009722
:101AA00061F0998388831B830A832C813D81232BDA
:101AB00011F4FC01108281E001C080E0DF91CF9140
:101AC0001F910F910895EF92FF920F931F93CF9361
:101AD000DF93FC01248135816115710511F480E0EB
:101AE00018C041155105A1F07B01EC018A01020FDC
:101AF000131FB801C2DF882391F3288139818C81BB
:101B00009D81B701820F931F0E94DF151D830C83F7
:101B100081E0DF91CF911F910F91FF90EF90089599
:101B2000CF93DF93EC0188819981009711F00E9497
:101B3000641A198218821D821C821B821A82DF910C
:101B4000CF9108950F931F93CF93DF931F921F920E
:101B5000CDB7DEB78C018BE389831A8241E050E078
:101B6000BE016F5F7F4FC801AEDF811102C0C801A7
:101B7000D7DFC8010F900F90DF91CF911F910F9188
:101B80000895CF93DF93EC01FB014481558160817F
:101B9000718199DF811102C0CE01C2DFCE01DF91D8
:101BA000CF910895EF92FF920F931F93CF93DF93FE
:101BB000EC017B018A01BA0160DF811103C0CE0113
:101BC000AFDF06C01D830C83B70188819981F7D7E9
:101BD000CE01DF91CF911F910F91FF90EF9008956B
:101BE000EF92FF920F931F93CF93DF93CDB7DEB7A2
:101BF00062970FB6F894DEBF0FBECDBF8C01CB014C
:101C0000F80111821082138212821582148250E030
:101C10009E012F5F3F4F7901B9010E943E19F701E4
:101C200001900020E9F73197AF014E195F09B70124
:101C3000C801B8DF62960FB6F894DEBF0FBECDBF05
:101C4000DF91CF911F910F91FF90EF900895BC010C
:101C5000009791F0FC0101900020E9F73197AF0166
:101C6000481B590BE0919205F09193050280F38196
:101C7000E02D82E995E0199480E090E00895CF93FB
:101C8000DF93EC01FB018617970751F060817181AA
:101C90006115710521F04481558184DF01C040DF69
:101CA000CE01DF91CF910895FC01808191810C9448
:101CB000641AFC011182108213821282158214822E
:101CC000DECFFC01118210821382128215821482EF
:101CD0006115710549F0FB0101900020E9F731978A
:101CE000AF01461B570B5ECF0895EF92FF920F9303
:101CF0001F93CF93DF931F921F92CDB7DEB78C0156
:101D00007B0163E073E0DDDFC70154DD97FD0AC0AE
:101D100089831A8241E050E0BE016F5F7F4FC801A6
:101D2000D2DEF2CFC8010F900F90DF91CF911F91BB
:101D30000F91FF90EF900895DC01ED91FC910190DF
:101D4000F081E02D19941F920F920FB60F9211247B
:101D50000BB60F922F933F934F935F936F937F93A5
:101D60008F939F93AF93BF93EF93FF938BEB93E08E
:101D70000E94AE05FF91EF91BF91AF919F918F911E
:101D80007F916F915F914F913F912F910F900BBE7B
:101D90000F900FBE0F901F9018951F920F920FB6C5
:101DA0000F9211240BB60F922F933F934F935F9393
:101DB0006F937F938F939F93AF93BF93EF93FF9313
:101DC0008BEB93E00E941A05FF91EF91BF91AF91C9
:101DD0009F918F917F916F915F914F913F912F9143
:101DE0000F900BBE0F900FBE0F901F9018951F9273
:101DF0000F920FB60F9211240BB60F922F933F93B1
:101E00004F935F936F937F938F939F93AF93BF9302
:101E1000EF93FF9388E594E00E94AE05FF91EF9168
:101E2000BF91AF919F918F917F916F915F914F91F2
:101E30003F912F910F900BBE0F900FBE0F901F90F0
:101E40001895CF93DF93CDB7DEB769970FB6F894A7
:101E5000DEBF0FBECDBF789484B5826084BD84B5EB
:101E6000816084BD85B5826085BD85B5816085BD95
:101E700080916E00816080936E001092810080914D
:101E800081008260809381008091810081608093D5
:101E90008100809180008160809380008091B100FA
:101EA00084608093B1008091B00081608093B00025
:101EB0008091910082608093910080919100816077
:101EC0008093910080919000816080939000809138
:101ED000A10082608093A1008091A1008160809325
:101EE000A1008091A00081608093A00080912101D9
:101EF0008260809321018091210181608093210182
:101F00008091200181608093200180917A0084601B
:101F100080937A0080917A00826080937A00809129
:101F20007A00816080937A0080917A008068809343
:101F30007A001092C1008091020687FD08C061E01E
:101F40000E94050760E0809102060E94880681E0F9
:101F50008093FD058091040690910506892B19F068
:101F60008CEF95E025D985E596E0FDDB85EF94E0E3
:101F7000FADB88E594E0F7DB8BEB93E0F4DB84E2BB
:101F80008093BA0083E092E09093B2038093B10310
:101F90008FE092E09093B0038093AF031092BA0366
:101FA0001092B9031092B8031092B703E5D88FEDE1
:101FB00094E09093B4038093B3038BE09BE0909301
:101FC000B6038093B5038AE7809311068CE0809373
:101FD000120680E58093130662DC3324339486E096
:101FE000582E8E01085F1F4F7E012EE0E20EF11C7D
:101FF0006E0134E1C30ED11C98E0692E93E0792E76
:1020000044244A9480919F05882381F060EA75E01A
:10201000CE01019656DEBE016F5F7F4F80EE95E0E8
:1020200037DBCE01019640DE10929F05A12CB12C2A
:10203000812C912C8091E4059091E50588169906F4
:1020400008F05BC06CEF72E0CE0101963ADE809141
:10205000E0059091E105BE016F5F7F4F8A0D9B1DEA
:10206000F1DC282ECE0101961FDE222061F0609166
:10207000E0057091E1056A0D7B1D85EF95E0FFDDC0
:102080003092FB0533C060E073E0CE01019619DEAB
:102090008091E0059091E105BE016F5F7F4F8A0D51
:1020A0009B1DD0DC282ECE010196FEDD211015C02F
:1020B00064E073E0CE01019604DE8091E00590912A
:1020C000E105BE016F5F7F4F8A0D9B1DBBDC282E93
:1020D000CE010196E9DD222049F06091E005709182
:1020E000E1056A0D7B1D8EEE95E0D2DA8FEF881A3E
:1020F000980A26E0A20EB11C9DCF60E070E080EE51
:1021000095E02FD967E176E0CE010196C9DA60E06B
:1021100070E087E196E025D949815A818D819E81C1
:10212000589E9001599E300D1124240F351F609147
:10213000EB057091EC05569EC001579E900D112441
:102140006091E7057091E805680F791F87EE95E0CB
:10215000D3D9CE010196E5DA6EEE75E0CE01019697
:102160009FDA49815A818D819E81589E9001599EA6
:10217000300D1124240F351F609122067091230623
:10218000569EC001579E900D112460911E067091BD
:102190001F06680F791F8EE196E0AED9CE01019639
:1021A000C0DA8091FB05882309F440C065EF75E033
:1021B000CE0101967EDD89819A81DC01FD010190CD
:1021C0000020E9F73197EA1BFB0B709738F040923B
:1021D0001106109212061092130622C01F930F933D
:1021E000FF92EF92DF92CF927F926F929F938F93A5
:1021F000FBD40FB6F894DEBF0FBECDBF039739F006
:1022000010921106109212064092130609C088859A
:102210009E852C89209311069093120680931306B5
:102220003EDBCE01019640DD1092FB0585E596E090
:102230000E946301892B19F165E576E0C60155DD41
:102240004AE060E070E0C801CBDCB601C70131DDD7
:10225000C70178DCB80195DCBC01CE01019629DD0F
:10226000BE016F5F7F4F87E196E012DACE010196E3
:102270001BDDC70119DDC80117DDC60115DD85EFBE
:1022800094E00E946301892B19F165EF74E0C601A7
:102290002CDD4AE061E070E0C801A2DCB601C701B4
:1022A00008DDC7014FDCB8016CDCBC01CE01019632
:1022B00000DDBE016F5F7F4F87E196E0E9D9CE0177
:1022C0000196F2DCC701F0DCC801EEDCC601ECDCF3
:1022D00088E594E00E946301892B19F168E574E0B8
:1022E000C60103DD4AE062E070E0C80179DCB601B6
:1022F000C701DFDCC70126DCB80143DCBC01CE012D
:102300000196D7DCBE016F5F7F4F87E196E0C0D9B1
:10231000CE010196C9DCC701C7DCC801C5DCC60116
:10232000C3DC8BEB93E00E946301892B19F16BEB0B
:1023300073E0C601DADC4AE063E070E0C80150DC1B
:10234000B601C701B6DCC701FDDBB8011ADCBC0170
:10235000CE010196AEDCBE016F5F7F4F87E196E054
:1023600097D9CE010196A0DCC7019EDCC8019CDC98
:10237000C6019ADC812C912CA12CB12C80912206D3
:1023800090912306A816B90658F560911E06709123
:102390001F06680D791DCE0101968BDCBE016F5FB3
:1023A0007F4F85E596E042DABE016F5F7F4F85EF94
:1023B00094E03CDABE016F5F7F4F88E594E036DA47
:1023C000BE016F5F7F4F8BEB93E030DACE01019659
:1023D0006BDC3FEFA31AB30A86E0880E911CCECFC8
:1023E00060E070E08EE196E00E94B10965E173E083
:1023F000CE01019666DCBE016F5F7F4F8EE196E0F5
:1024000047D9CE01019650DC0E948101FBCDCF92CD
:10241000DF92EF92FF920F931F93CF93DF93CDB78D
:10242000DEB765970FB6F894DEBF0FBECDBF109232
:10243000BE031092BD0388EE93E0A0E0B0E080936D
:10244000BF039093C003A093C103B093C20322E3E0
:1024500032E03093BC032093BB0345E351E050933B
:10246000C8034093C70344E351E05093CA03409329
:10247000C90340E351E05093CC034093CB0341E3C5
:1024800051E05093CE034093CD0342E351E050938B
:10249000D0034093CF0346E351E05093D2034093DF
:1024A000D1031092D4031092D5031092D603109248
:1024B000D70310925B0410925A0480935C049093AB
:1024C0005D04A0935E04B0935F043093590420939D
:1024D000580445ED50E0509365044093640444ED86
:1024E00050E0509367044093660440ED50E05093F1
:1024F00069044093680441ED50E050936B044093AD
:102500006A0442ED50E050936D0440936C0446ED34
:1025100050E050936F0440936E0410927104109237
:10252000720410927304109274041092F8041092C2
:10253000F7048093F9049093FA04A093FB04B093FA
:10254000FC043093F6042093F5044DEC50E05093D6
:102550000205409301054CEC50E050930405409374
:10256000030548EC50E0509306054093050549ECFF
:1025700050E050930805409307054AEC50E0509313
:102580000A05409309054EEC50E050930C0540932A
:102590000B0510920E0510920F0510921005109267
:1025A000110545E556E010925806109257068093A3
:1025B000590690935A06A0935B06B0935C0630933D
:1025C00056062093550625EC30E0309362062093A2
:1025D000610624EC30E0309364062093630620EC1F
:1025E00030E0309366062093650621EC30E03093AE
:1025F00068062093670622EC30E030936A06209349
:10260000690626EC30E030936C0620936B0610923E
:102610006E0610926F06109270061092710610925C
:102620009505109294058093960590939705A09335
:102630009805B093990582E492E090939305809376
:10264000920561E270E070930A07609309071092A7
:102650000B0710920C0710920D0796E0C92ED12C93
:10266000E12CF12CC0920E07D0920F07E0921007D8
:10267000F09211071092120710921307109214078C
:102680001092150720E22093160710921807109257
:10269000170710921B0784EF96E090931A07809318
:1026A000190780EE92E09093F3068093F2068AEE8B
:1026B00092E090930707809306071092F806109215
:1026C000F7061092FA061092F9061092FC06109284
:1026D000FB061092FE061092FD0610920007109263
:1026E000FF0610920207109201078EEB92E0909382
:1026F000F5068093F406509305074093040730E1F4
:102700003093030770934306609342061092440689
:102710001092450610924606C0924706D09248068F
:10272000E0924906F0924A0610924B0610924C062F
:1027300010924D0610924E0620934F0610925106AD
:1027400010925006109254061092290610922A06F2
:1027500010922B0610922C062DE236E03093530691
:102760002093520628E632E030932806209327066D
:1027700022E732E03093400620933F061092310664
:1027800010923006109233061092320610923506DF
:1027900010923406109237061092360610923906BF
:1027A0001092380610923B0610923A0690932E062D
:1027B00080932D0650933E0640933D0688E080931B
:1027C0003C0650932606409325066AE973E082EBA7
:1027D00093E081D5E7E1F6E08EE0DF011D928A9576
:1027E000E9F708E010E010931A060093190680E359
:1027F00090E0D5D590931806809317061093210684
:102800000093200680E390E0CAD590931F06809342
:102810001E0681E08093FC051092FD051092FF05D5
:102820001092FE0510920106109200069FEF909301
:102830000206109203061092050610920406809379
:1028400006061092070692E0909308068093090608
:1028500010920A0610920B0610920C0610920D06AA
:102860001A8218861F86188A198A1A8A8E878B8779
:102870001C869D87898389E690E09E838D838FD512
:102880009A878987009751F029E6FC0111922A95D1
:10289000E9F783E290E09C838B8304C01E821D8253
:1028A0001C821B8289E08F838A81882341F061E04A
:1028B00089E00E94050760E089E00E948806E1ED5A
:1028C000F1E0E491F0E0EE0FFF1FE255FE4F85913D
:1028D00094919C8B8B8BE1E7F1E0E491ED8B85E1AA
:1028E000FE013196ACEFB5E001900D928A95E1F7CB
:1028F000CE0101960E949B098FEF80931106809371
:10290000120680931306EEE9F5E08EE5DF011D92D5
:102910008A95E9F708E010E01093E3050093E205DB
:1029200080E390E03CD59093E1058093E00510931F
:10293000EA050093E90580E390E031D59093E8053E
:102940008093E7051093F1050093F00580E390E094
:1029500026D59093EF058093EE0563E073E085EF55
:1029600095E0AFD91092FB0565960FB6F894DEBFDF
:102970000FBECDBFDF91CF911F910F91FF90EF90D0
:10298000DF90CF90089585EF95E08ED98EEE95E09B
:102990000E94910B87EE95E00E94910B80EE95E0EE
:1029A0000E94910B8CEF95E00E949B098EE196E0CE
:1029B0000E94910B87E196E00E94910B87E296E0DE
:1029C0000E94F90382EF96E00C944204EE0FFF1F81
:1029D000881F8BBF0790F691E02D19946F927F921C
:1029E0008F929F92AF92BF92CF92DF92EF92FF921F
:1029F0000F931F93CF93DF93EC01009781F4CB01EA
:102A0000DF91CF911F910F91FF90EF90DF90CF90CA
:102A1000BF90AF909F908F907F906F90C0C4FC014B
:102A2000E60FF71F9C0122503109E217F30708F463
:102A3000A8C0D9010D911C91119706171707A8F08E
:102A40000530110508F49BC0C80104978617970745
:102A500008F495C002501109061B170B019311933E
:102A60006D937C93CF0130D58AC05B01A01AB10A67
:102A70004C01800E911EA0912407B091250740E0E3
:102A800050E0E12CF12C109709F44AC0A815B905C3
:102A9000D1F56D907C901197630182E0C80ED11C36
:102AA000CA14DB0480F1A3014A195B096A0182E0C0
:102AB000C80ED11C1296BC9012971396AC91B5E03B
:102AC000CB16D10440F0B282A38351834083D90155
:102AD0006D937C930AC00E5F1F4FC301800F911F3F
:102AE000F90191838083EB2DFA2FE114F10431F089
:102AF000D7011396FC93EE93129741C0F0932507EC
:102B0000E09324073CC08D919C9111974817590779
:102B100008F4AC017D0112960D90BC91A02DB3CFAD
:102B2000809122079091230788159905E1F44617B3
:102B30005707C8F48091000290910102009741F478
:102B40008DB79EB74091040250910502841B950BEE
:102B5000E817F907B0F4F0932307E0932207F9018F
:102B6000718360830CC0CB011AD47C01009749F0BB
:102B7000A801BE011BD0CE01A7D4C70104C0CE015D
:102B800002C080E090E0DF91CF911F910F91FF9004
:102B9000EF90DF90CF90BF90AF909F908F907F90FD
:102BA0006F90089581E090E0F89448C5FB01DC0146
:102BB00002C001900D9241505040D8F70895FB019A
:102BC000DC0101900D920020E1F70895FB01DC018A
:102BD0004150504030F08D910190801919F400203F
:102BE000B9F7881B990B0895CF93DF93CDB7DEB764
:102BF0002E970FB6F894DEBF0FBECDBF85E08C8355
:102C00008C899D899A838983AE01485E5F4F6E8966
:102C10007F89CE010196B0D12E960FB6F894DEBF13
:102C20000FBECDBFDF91CF91089520FD09C0FC01FB
:102C300023FD05C022FF02C073836283518340835A
:102C4000089544FD10C046FD10C0DB01FC01AA0F31
:102C5000BB1FEE1FFF1F1094D1F76A0F7B1F8E1F43
:102C60009F1F31E003C033E001C034E0660F771FDF
:102C7000881F991F3150D1F7620F711D811D911D61
:102C800008950F931F93CF93DF938C01C8019FD2B8
:102C9000EC0197FD06C0B0D4892BC1F7B801CE0175
:102CA000D4D2CE01DF91CF911F910F9108958F92D1
:102CB0009F92AF92BF92CF92DF92EF92FF920F93CB
:102CC0001F93CF93DF931F92CDB7DEB78C01C62E33
:102CD0007A0129837CD2AC01552729814B325105D9
:102CE00021F04D32510561F42068CA94C11002C030
:102CF00080E06FC0C80129836AD2298197FDF8CF8F
:102D0000322F3D7FD32E322F307339F5803329F5A2
:102D1000BB24BA94BC0C09F449C0C801298357D21A
:102D2000298197FD43C0382F3F7D383561F48D2DC3
:102D30008264D82ECA94CA94CC20C1F1C80147D26B
:102D400097FF0BC033C026FF04C02D2D2260D22E6A
:102D500003C03D2D3261D32ECB2C812C912C5401FC
:102D600020ED280F283078F0D4FE03C0B8016DD2D2
:102D70001AC02A3040F0D6FEF9CF2F7D3FEE320F39
:102D80003630A0F727504D2DC501B4015ADF4B0155
:102D90005C018D2D8260D82ECA94CC2051F0C801E0
:102DA00016D297FFDDCFD1FC04C0A2CF812C912C8D
:102DB0005401D7FE08C0B094A09490948094811CD4
:102DC000911CA11CB11C2D2DB501A401C7012DDF43
:102DD00081E00F90DF91CF911F910F91FF90EF90C5
:102DE000DF90CF90BF90AF909F908F9008956F929B
:102DF0007F928F929F92AF92BF92CF92DF92EF928B
:102E0000FF920F931F93CF93DF93CDB7DEB7A197B8
:102E10000FB6F894DEBF0FBECDBF5C017A01CE01C4
:102E200001966C0180E2F60111928A95E9F7F501AD
:102E3000838040E050E0912C712C70E0A1E0B0E084
:102E4000F90183FC859183FE81918F01982F9F0169
:102E5000811103C080E090E07AC08E3519F44115ED
:102E6000510549F1E72FF0E0E417F5073CF48D3503
:102E700059F18D3219F4772001F103C0711001C0AE
:102E8000982E892F8695869586958601080F111DA7
:102E9000892F87703D0101C0660C8A95EAF7F80119
:102EA000808186298083991559F0991510F49F5FC8
:102EB000E8CF9150E6CF71E004C07724739401C04D
:102EC000712C4F5F5F4FBCCF772019F08E818062ED
:102ED0008E83711103C09924939416C0F6019E014C
:102EE0002F5D3F4F808180958193E217F307D1F7E3
:102EF000F2CFE114F10429F0F7018083C7010196B4
:102F00007C016150912CE9F0C50169A360D169A1F0
:102F100097FD15C0282F269526952695F601E20FD8
:102F2000F11D208130E0AC014770552702C0359576
:102F300027954A95E2F720FDDCCFB50186D19110A7
:102F400089CFE114F10411F0F7011082C801A196B4
:102F50000FB6F894DEBF0FBECDBFDF91CF911F91AA
:102F60000F91FF90EF90DF90CF90BF90AF909F9028
:102F70008F907F906F9008954F925F927F928F9283
:102F80009F92AF92BF92CF92DF92EF92FF920F93F8
:102F90001F93CF93DF931F92CDB7DEB76C012B0148
:102FA0005A01FC0117821682712CF601F380F2019E
:102FB000F3FC8591F3FE8191382F2F01882309F4CA
:102FC000E5C090E0398318D33981892B19F0C60107
:102FD00058DEEBCF353241F4F201F3FC3591F3FECC
:102FE00031912F01353259F4C6013983F0D039813E
:102FF00097FDCAC03817C9F2B60127D1C7C03A3207
:1030000039F4F3FC3591F3FE31912F0151E001C009
:1030100050E0420110E020ED230F2A3088F4526086
:10302000612F70E080E090E040E259830ADE162FC5
:10303000F401F3FC3591F3FE31914F015981EBCF4F
:10304000052F232F240151FF03C0111102C09EC080
:103050001FEF383619F03C3659F011C0F401F3FC7B
:103060002591F3FE21912F01283649F4052F0860A0
:103070000460F201F3FC2591F3FE21912F0122233C
:1030800009F484C0622F70E08EE092E0298394D02E
:103090002981892B09F47AC000FD07C0F501E08081
:1030A000F180C50102965C0102C0E12CF12C2E36A4
:1030B00049F4F6014681578160E070E0202FC70196
:1030C000B4DD73CF233689F401FF11E0C6017FD050
:1030D00097FD5AC0E114F10429F0F7018083C7017C
:1030E00001967C01115091F74BC02B3551F49201A0
:1030F000A701612FC6017BDE2C01892B09F040C09E
:103100003AC0C6012983BDDD298197FD3DC02F3618
:1031100041F128F4243619F1293631F124C023373E
:1031200069F02537E1F01FC0E114F10429F0F7013F
:103130008082C70101967C01115059F0C60147D029
:103140004C0197FD06C058D2892B71F3B601C4011A
:103150007CD0E114F104A1F0F701108211C00062EB
:1031600003C0006101C00064202FA701612FC601C8
:103170009EDD811105C0F6018381807329F406C0AC
:1031800000FD13CF739411CF772019F0872D90E0B5
:1031900002C08FEF9FEF0F90DF91CF911F910F91A2
:1031A000FF90EF90DF90CF90BF90AF909F908F9067
:1031B0007F905F904F900895FC010590061621F0D6
:1031C0000020D9F7C00108953197CF010895CF931A
:1031D000DF93EC012B8120FF33C026FF0AC02F7B39
:1031E0002B838E819F8101969F838E838A8190E0BD
:1031F00029C022FF0FC0E881F9818081082E000CD0
:10320000990B009719F420622B831AC03196F98329
:10321000E8830EC0EA85FB85199597FF09C02B81CD
:10322000019611F080E201C080E1822B8B8308C0FF
:103230002E813F812F5F3F4F3F832E83992702C00E
:103240008FEF9FEFDF91CF910895FB01238120FF46
:1032500012C026FD10C08F3F3FEF930761F08283BD
:103260002F7D2064238326813781215031093783C4
:103270002683992708958FEF9FEF089545325105D2
:1032800018F4423008F004C0FB011082CB0108950D
:10329000BB274A3031F4992322F4BDE29095819501
:1032A0009F4F01C0BB27FB015527AA27880F991FF5
:1032B000AA1FA41710F0A41B83955051B9F7A05D65
:1032C000AA3308F0A95DA193009779F7B111B193E2
:1032D0001192CB01A0C10F931F93CF93DF9300975F
:1032E00031F46115710519F480E090E039C08B016B
:1032F000EC016EE070E081E090E037D0FC01892BBA
:1033000099F380E883830115110571F01387028713
:1033100081E8838380911C0790911D07892B21F4FC
:10332000F0931D07E0931C072097C9F0D187C08751
:1033300083818260838380911E0790911F07892B70
:1033400071F4F0931F07E0931E078091200790917E
:103350002107892B21F4F0932107E0932007CF0167
:10336000DF91CF911F910F9108950F931F93CF93EA
:10337000DF93869F8001879F100D969F100D11246B
:10338000C8010DD0EC01009721F0A80160E070E0C9
:103390003BD1CE01DF91CF911F910F910895CF9333
:1033A000DF938230910510F482E090E0E0912407F1
:1033B000F091250720E030E0C0E0D0E0309711F137
:1033C0004081518148175907C0F04817590761F4E7
:1033D00082819381209719F09B838A832BC09093DD
:1033E00025078093240726C02115310519F04217BF
:1033F000530718F49A01BE01DF01EF010280F38147
:10340000E02DDCCF2115310509F1281B390B2430C3
:10341000310590F412968D919C9113976115710569
:1034200021F0FB019383828304C09093250780934E
:103430002407FD01329644C0FD01E20FF31F819382
:103440009193225031092D933C933AC02091220749
:1034500030912307232B41F4209102023091030283
:10346000309323072093220720910002309101021C
:103470002115310541F42DB73EB74091040250911A
:103480000502241B350BE0912207F0912307E21778
:10349000F307A0F42E1B3F0B2817390778F0AC0177
:1034A0004E5F5F4F2417350748F04E0F5F1F509354
:1034B0002307409322078193919302C0E0E0F0E05C
:1034C000CF01DF91CF9108950F931F93CF93DF9397
:1034D000009709F48CC0FC0132971382128200918C
:1034E0002407109125070115110581F420813181F0
:1034F000820F931F20912207309123072817390745
:1035000079F5F0932307E093220771C0D80140E0DA
:1035100050E0AE17BF0750F412962D913C911397CF
:10352000AD012115310509F1D901F3CF9D01DA0172
:103530003383228360817181860F971F82179307DF
:1035400069F4EC0128813981260F371F2E5F3F4F28
:10355000318320838A819B8193838283452B29F445
:10356000F0932507E093240742C01396FC93EE9353
:103570001297ED01499159919E01240F351FE217D1
:10358000F30771F480819181840F951F0296119643
:103590009C938E938281938113969C938E93129722
:1035A000E0E0F0E0D80112968D919C91139700977E
:1035B00019F0F8018C01F6CF8D919C9198012E5F46
:1035C0003F4F820F931F2091220730912307281726
:1035D000390769F4309729F41092250710922407CF
:1035E00002C0138212821093230700932207DF91F7
:1035F000CF911F910F91089591111DC0803219F044
:1036000089508550D0F70895DC0101C06D93415079
:103610005040E0F70895DC01FC01672F719177239A
:10362000E1F7329704C07C916D9370836291AE177D
:10363000BF07C8F3089599278827089511E0CEE0C1
:10364000D1E000E005C0802FFE01C0D92196011D08
:0E365000CF30D10780E00807B1F7F894FFCF24
:10365E000000260780001800000000000000000097
:10366E00E8FFE8FF0000000000001400000000006A
:10367E0000000000ECFFECFF000000000000000066
:10368E0000002106240C630141015501670600006C
:10369E000000790265025D0249023A023902060013
:1036AE0000000000D903DB03FAFFFAFF0000DA0383
:1036BE00DD03180000000000F9030E04E8FFE8FF28
:1036CE0000000504170468020C02160272020000C4
:1036DE000000AE09D70399039603930390038D035D
:1036EE0004030003FD02E70207038B0289020200B6
:1036FE000000000022042404FEFFFEFF000023044D
:10370E00260400000000B009690400000000AF09A3
:10371E00200499039603930390038D0381033B03C7
:10372E002203090307038C046B041400000000003D
:10373E0042045704ECFFECFF00004E046004E0026C
:10374E0020022A02EA02454D505459004C454400CD
:10375E004C4F4300434F4D004C45443A25642C25B5
:0C376E00642C25640048454C4C4F0000C2
:00000001FF
