:1000000008C1000037C1000035C1000033C1000045
:1000100031C100002FC100002DC100002BC1000024
:1000200029C1000027C1000025C1000023C1000034
:1000300021C100001FC100001DC100001BC1000044
:1000400019C1000017C1000015C1000013C1000054
:1000500011C100000FC100000DC10000B8C40000B4
:1000600009C100000C94AB0B0C94820B03C100007F
:1000700001C10000FFC00000FDC00000FBC0000087
:10008000F9C00000F7C00000F5C00000F3C0000098
:100090000C94590B0C94300BEDC00000E2C400002E
:1000A000E9C00000E7C00000E5C00000E3C00000B8
:1000B000E1C00000DFC00000DDC00000DBC00000C8
:1000C000D9C00000D7C00000D5C000000C94070BB9
:1000D0000C94DE0ACFC000000C94B50A0C948C0A74
:1000E000C9C000005D0460044F0453045704970422
:1000F000640468046E04720476047C04800484043E
:1001000097048A048E049204000021002400270032
:100110002A002D0030003300010100000401070116
:100120000A0100000A0B02090C0D0E080703040166
:1001300000000000000000000000000000000000BF
:10014000000000000000000000000000000012118C
:10015000100000000000000000000000000000008F
:10016000000000000000000001021020200808101C
:100170002040102040800201020108040201010217
:1001800004081020408080402010080402018004F0
:10019000020180402010080402010804020101024B
:1001A0000408102040800102040810204080000054
:1001B0002200250028002B002E003100340002010F
:1001C0000000050108010B010505050507050808E4
:1001D0000808020202020A0A0808040404040101D1
:1001E00001010101010103030303030303030407E6
:1001F00007070C0C0C0C0C0C0C0C0202020206067D
:100200000606060606060B0B0B0B0B0B0B0BFC0E68
:10021000B81111241FBECFEFD1E2DEBFCDBF00E089
:100220000CBF12E0A0E0B2E0E2E8F9E200E00BBFB0
:1002300002C007900D92AC3FB107D9F726E0ACEFB2
:10024000B2E001C01D92A23EB207E1F711E0C8E0A2
:10025000D1E000E006C021970109802FFE010E9435
:10026000DB11C730D10780E00807A9F70E949B0C7B
:100270000C94B014C5CE3FB7F89480916803909168
:100280006903A0916A03B0916B0326B5A89B05C0D2
:100290002F3F19F00196A11DB11D3FBFBA2FA92F05
:1002A000982F8827820F911DA11DB11DBC01CD0182
:1002B00042E0660F771F881F991F4A95D1F708956E
:1002C00085ED8093BC008091BC0084FDFCCF109232
:1002D0007203089540911E03262F30E0240F311D34
:1002E00021323105DCF4209172032430C9F4FC0181
:1002F00080E090E0861758F430911E032191DC01D4
:10030000A450BD4FA30FB11D2C930196F3CF809144
:100310001E03680F60931E0380E0089581E0089536
:1003200082E00895089581E090E030917603209175
:100330007503321710F480E090E091958195910952
:1003400008958091760390917503891730F48F5F3B
:100350008093760380E090E008958FEF9FEF0895FB
:100360008091750390E020917603821B9109089596
:10037000CF93DF931F921F92CDB7DEB7CB01642FCF
:1003800049835A83A7DF4981842F5A81952F0F9083
:100390000F90DF91CF910895CF93DF931F92CDB748
:1003A000DEB7698361E0CE01019694DF81E090E0E1
:1003B0000F90DF91CF910895CB0108957F928F9296
:1003C0009F92AF92BF92CF92DF92EF92FF920F93E4
:1003D0001F93CF93DF93EC0149015A018B01C12C8C
:1003E000D12C7601C814D904EA04FB0484F5F80181
:1003F00071908F018F8580FF0BC0E881F9810084A7
:10040000F185E02D20E144E060E070E0CE01199537
:10041000EB85FC858D859E85E817F90738F4708299
:100420008B859C8501969C878B870BC0E881F98121
:10043000672D70E0028CF38DE02DCE0119950196A9
:1004400049F02FEFC21AD20AE20AF20ACBCFB40166
:10045000C50102C0B601C701DF91CF911F910F9175
:10046000FF90EF90DF90CF90BF90AF909F908F90D4
:100470007F900895CF93DF93EC01E881F9810288A2
:10048000F389E02D19958F3F2FEF920731F02D81E1
:100490003E812F5F3F4F3E832D83DF91CF910895A3
:1004A0008FEF9FEF089560E070E0CB01089580E04A
:1004B00090E00895CB010895CF93DF93EC018889F4
:1004C0009989DC01ED91FC910480F581E02D19956D
:1004D000892BA9F388899989DC01ED91FC9106802B
:1004E000F781E02DDF91CF911994CF93DF93EC0149
:1004F00088899989DC01ED91FC910480F581E02DDA
:100500001995892BA9F388899989DC01ED91FC91D2
:100510000084F185E02DDF91CF911994AF92BF92C5
:10052000CF92DF92EF92FF920F931F93CF93DF93BF
:1005300000D01F92CDB7DEB78C015B01C12CD12C4E
:100540007601F80180899189DC01ED91FC910680AA
:10055000F781E02D29833A834B835C8319952981A8
:100560003A814B815C818F3F71F0C216D306E4065D
:10057000F5064CF4D5018D935D01BFEFCB1ADB0A74
:10058000EB0AFB0ADECFC701B6010F900F900F9068
:100590000F90DF91CF911F910F91FF90EF90DF901F
:1005A000CF90BF90AF900895DC0150968D919C91B3
:1005B0005197DC01ED91FC910480F581E02D1994B7
:1005C00080E090E0089580E090E0089580E090E081
:1005D000089580E090E008950895CF93DF93C0914F
:1005E000E105D091E205E881F9810480F581E02DF3
:1005F000CE011995892BB9F3E881F9810680F7813D
:10060000E02DCE01DF91CF9119941F93CF93DF930B
:10061000182FC091E105D091E2058A3041F4E881BC
:10062000F9810190F081E02D6DE0CE011995E8810E
:10063000F9810190F081E02D612FCE01199521E023
:1006400030E0019711F420E030E0C901DF91CF9153
:100650001F9108950C940114089508950C940114A9
:10066000DC01ED91FC91369720813181820F931F3F
:10067000F5CFFB0120813181FC0131832083FB0117
:1006800042815381F901369720813181FC01E20FCB
:10069000F31F51834083089528E632E0FC01318343
:1006A000208322E732E0318F208F68E772E0E1CFCC
:1006B000DC01ED91FC91369720813181820F931FEF
:1006C000EBCFCF93DF93EC01E7DFCE01DF91CF914A
:1006D0000C940114DC01ED91FC913697208131815D
:1006E000820F931FEECF0C940114089508950C947B
:1006F0000114DC01ED91FC91369720813181820F4C
:10070000931FF5CFFB0120813181FC0131832083D0
:10071000FB0142815381F901369720813181FC012F
:10072000E20FF31F51834083089520EE32E0FC0175
:10073000318320832AEE32E0358B248B60EF72E028
:10074000E1CFDC01ED91FC91369720813181820F60
:10075000931FEBCFCF93DF93EC01E7DFCE01DF9167
:10076000CF910C940114DC01ED91FC91369720811E
:100770003181820F931FEECF0C9401140F931F93BE
:10078000CF93DF938C01EB016F3F8FEF780719F464
:1007900080E090E00DC06A3029F46DE0F8018089B6
:1007A0009189A5D66C2FF80180899189A0D6CE01B8
:1007B000DF91CF911F910F9108958F929F92BF92D9
:1007C000CF92DF92EF92FF920F931F93CF93DF931D
:1007D00000D01F92CDB7DEB78C014B01C12CD12CBC
:1007E0007601C216D306E406F50634F5F401B1909D
:1007F0004F01FAE0BF120DC06DE0F80180899189C8
:1008000029833A834B835C8372D65C814B813A8126
:1008100029816B2DF8018089918929833A834B8343
:100820005C8365D6FFEFCF1ADF0AEF0AFF0A5C810F
:100830004B813A812981D5CFCA01B9010F900F9020
:100840000F900F90DF91CF911F910F91FF90EF903C
:10085000DF90CF90BF909F908F900895362F90E0BB
:10086000FC01EE5DFE4F4491FC01E859FE4F2491DE
:10087000FC01E853FE4F9491992309F46BC0442383
:1008800009F455C050E0FA013197E231F10508F062
:100890004EC08827EE58FF4F8F4F0C94DB1180918C
:1008A00080008F7707C0809180008F7D03C080918A
:1008B0008000877F809380003AC084B58F7702C024
:1008C00084B58F7D84BD33C08091B0008F7703C025
:1008D0008091B0008F7D8093B00029C080919000FE
:1008E0008F7707C0809190008F7D03C0809190002A
:1008F000877F809390001BC08091A0008F7707C0F6
:100900008091A0008F7D03C08091A000877F80939D
:10091000A0000DC0809120018F7707C08091200139
:100920008F7D03C080912001877F80932001E92F74
:10093000F0E0EE0FFF1FE255FE4FA591B4918FB787
:10094000F894EC91311103C020952E2301C02E2B79
:100950002C938FBF0895CF93DF9390E0FC01E8596B
:10096000FE4F2491FC01E853FE4F8491882361F1EE
:1009700090E0880F991FFC01E85FFE4FC591D4916C
:10098000FC01E255FE4FA591B491611109C09FB7DA
:10099000F8948881209582238883EC912E230BC0C4
:1009A000623061F49FB7F8943881822F8095832359
:1009B0008883EC912E2B2C939FBF06C08FB7F894A1
:1009C000E8812E2B28838FBFDF91CF9108951F924E
:1009D0000F920FB60F9211242F933F938F939F93F3
:1009E000AF93BF9380916C0390916D03A0916E03C0
:1009F000B0916F033091670323E0230F2D3720F46C
:100A00000196A11DB11D05C026E8230F0296A11D68
:100A1000B11D2093670380936C0390936D03A093A3
:100A20006E03B0936F038091680390916903A09166
:100A30006A03B0916B030196A11DB11D80936803F9
:100A400090936903A0936A03B0936B03BF91AF9136
:100A50009F918F913F912F910F900FBE0F901F90FC
:100A600018951F920F920FB60F9211240BB60F928A
:100A70002F933F934F935F936F937F938F939F93A6
:100A8000AF93BF93EF93FF938091B900887F803637
:100A900009F49CC068F5883209F45BC090F4803199
:100AA00009F454C038F4882309F4F6C0883009F4F6
:100AB0004DC0F5C0883109F44CC0803209F45DC0E6
:100AC000EEC0803409F468C048F4803309F455C09E
:100AD000883309F0E4C080934303D8C0803509F41B
:100AE0004FC0883509F45DC0883409F0D8C0D6C03D
:100AF000883909F4C7C0A8F4883709F467C038F406
:100B0000883609F463C0803709F460C0C8C08838EB
:100B100009F4B8C0803909F45FC0803809F0BFC05B
:100B20005BC0803B09F486C038F4803A09F466C0A3
:100B3000883A09F47FC0B3C0803C09F4A7C0883C60
:100B400009F4A4C0883B09F48AC0A9C08091660357
:100B500010C09091650380916403981770F5E0913F
:100B6000650381E08E0F80936503F0E0EC5BFC4F42
:100B700080818093BB0085EC86C0809343038EC048
:100B8000E091650381E08E0F809365038091BB0047
:100B9000F0E0EC5BFC4F80839091650380916403EF
:100BA0006EC0E091650381E08E0F809365038091B4
:100BB000BB00F0E0EC5BFC4F8083809171038111FE
:100BC0006DC081E08093700384EA61C083E080930C
:100BD000720310924203CFCF80914203803208F01B
:100BE00051C0E091420381E08E0F809342038091D7
:100BF000BB00F0E0EE5DFC4F8083BDCF85EC8093C1
:100C0000BC001092720380914203803230F4E09174
:100C10004203F0E0EE5DFC4F10826091420370E011
:100C2000E0912003F091210382E293E01995109264
:100C3000420335C084E08093720310921F03109228
:100C40001E03E0911C03F0911D03199580911E0372
:100C5000811105C081E080931E031092FC02E09197
:100C60001F0381E08E0F80931F03F0E0E450FD4FDF
:100C700080818093BB0090911F0380911E03981781
:100C800008F479CF85E88093BC0009C085EC809397
:100C9000BC001092720303C01092430311DBFF915A
:100CA000EF91BF91AF919F918F917F916F915F91E4
:100CB0004F913F912F910F900BBE0F900FBE0F9051
:100CC0001F901895CF92DF92EF92FF920F931F9390
:100CD000CF93DF93CDB7DEB729970FB6F894DEBF79
:100CE0000FBECDBF8C01C7DAD8011E96CD90DD9026
:100CF000ED90FC905197DC01CB018C199D09AE0958
:100D0000BF098C329140A105B10568F3F894D80170
:100D100014968D919C9115979A8389831896ED91DD
:100D2000FC9119977F01BFEFEB1AFB0A80818B833F
:100D3000F80190810288F389E02DD80154968C91B6
:100D4000992309F430C09081982B9C8390818095E1
:100D500089238D838D818E8388E08F835C816D8173
:100D60004B813F812E8189819A81D701508347FD34
:100D7000252F3A952083262F39F0441F00C000000C
:100D80006083000000C0F2CF38E04D916083000026
:100D9000019761F7D8015396FC93EE9352974B83DA
:100DA0003F832E833AC09081982B9C8390818095BD
:100DB00089238D838D81888788E089875C816D8117
:100DC0004B813985288589819A81D701508347FDD8
:100DD000252F00C000C0208300C000C000C000C09C
:100DE00000C060830000262F3A9541F0441F0000A8
:100DF00000C000C000C000C000C0E8CF38E04D9186
:100E000000C0608300C0019709F7D8015396FC9396
:100E1000EE9352974B83398728879A8389837894F6
:100E20002ADAF80166877787808B918B29960FB62F
:100E3000F894DEBF0FBECDBFDF91CF911F910F9110
:100E4000FF90EF90DF90CF900895CF93DF93EC0168
:100E500088859985009711F00E9401148E8187FD85
:100E600004C060E0DF91CF9176CDDF91CF910895FE
:100E7000089508950895AF92BF92CF92DF92EF92B6
:100E8000FF920F931F93CF93DF93FC012481358151
:100E90006217730700F56B01EC0186E0869F500135
:100EA000879FB00C11248B01E12CF12C8C819D814A
:100EB0000817190770F4C7018A0D9B1D2881398115
:100EC000820F931FBBD20F5F1F4FF6E0EF0EF11C96
:100ED000EDCFDD82CC82DF91CF911F910F91FF90FA
:100EE000EF90DF90CF90BF90AF900895EF92FF9278
:100EF0000F931F93CF93DF937C0100E010E0C0E0DD
:100F0000D0E0F7012481358180819181C217D30718
:100F100038F4800F911F92D221960A5F1F4FF1CFB4
:100F2000DF91CF911F910F91FF90EF900C940114DE
:100F3000CF93DF93EC01BC0181E196E0DFD2BE01EB
:100F400081EB94E0DBD2BE0184E194E0D7D2BE0114
:100F500087E793E0DF91CF91D1C2CF93DF93EC018C
:100F60002FB7F89480916C0390916D03A0916E035C
:100F7000B0916F032FBF88879987AA87BB87E881C5
:100F8000F9810680F781E02DCE01199597FF1EC0EB
:100F90002FB7F89480916C0390916D03A0916E032C
:100FA000B0916F032FBF488559856A857B85841B67
:100FB000950BA60BB70B4C815D816E817F818417E9
:100FC0009507A607B707D8F28FEF9FEFDF91CF9174
:100FD0000895CF92DF92EF92FF920F931F93CF93DA
:100FE000DF936C017A018B01C0E0D0E0CE15DF0504
:100FF00089F0D8016D918D01D601ED91FC910190A0
:10100000F081E02DC6011995892B11F47E0102C0F3
:101010002196ECCFC701DF91CF911F910F91FF90E7
:10102000EF90DF90CF900895FC01A089B1898C9159
:10103000A689B78982FD0FC09C91818D8F5F8F73C8
:10104000228D821749F0218DDF01A20FB11D5D961F
:101050009C93818F08958C910895FC01918D828DD0
:10106000981761F0828DDF01A80FB11D5D968C91FC
:10107000928D9F5F9F73928F90E008958FEF9FEF07
:101080000895FC01918D828D981731F0828DE80FC3
:10109000F11D858D90E008958FEF9FEF0895FC017D
:1010A000918D228D892F90E0805C9F4F821B91094A
:1010B0008F739927089587E793E0F1DF21E0892B6B
:1010C00009F420E0822F089584E194E0E8DF21E034
:1010D000892B09F420E0822F089581EB94E0DFDF73
:1010E00021E0892B09F420E0822F089581E196E028
:1010F000D6DF21E0892B09F420E0822F0895FC013E
:10110000848DDF01A80FB11DA35ABF4F2C91848D90
:1011100090E001968F739927848FA689B7892C93C5
:10112000A089B1898C9180648C93938D848D981360
:1011300006C00288F389E02D80818F7D8083089529
:10114000EF92FF920F931F93CF93DF93EC0181E017
:10115000888F9B8D8C8D981305C0E889F9898081D3
:1011600085FD23C0F62E0B8D10E00F5F1F4F0F7310
:101170001127E02E8C8DE8120BC00FB607FCFACFBA
:10118000E889F989808185FFF5CFCE01B8DFF2CFFC
:101190008B8DFE01E80FF11DE35AFF4FF0820B8F9C
:1011A000EA89FB898081806207C0EE89FF896083BC
:1011B000E889F98980818064808381E090E0DF9113
:1011C000CF911F910F91FF90EF900895CF93DF93F0
:1011D000EC01888D8823C1F0EA89FB89808185FD37
:1011E00005C0A889B9898C9186FD0EC00FB607FC91
:1011F000F5CF808185FFF2CFA889B9898C9185FFD1
:10120000EDCFCE017CDFE8CFDF91CF91089580E074
:1012100090E0892B19F06ADF811116C080E090E020
:10122000892B19F05ADF811112C080E090E0892BE0
:1012300019F04ADF81110EC080E090E0892B79F02F
:101240003ADF81110AC008950E940000E7CF0E9492
:101250000000EBCF0E940000EFCF0C940000089537
:101260000E94C7120F931F93CF93DF93EC018881E5
:101270009981009729F02A813B812617370788F446
:101280008B016F5F7F4F0E94E311009761F099839C
:1012900088831B830A832C813D81232B11F4FC015D
:1012A000108281E001C080E0DF91CF911F910F910A
:1012B0000895EF92FF920F931F93CF93DF93FC015A
:1012C000248135816115710511F480E018C0411544
:1012D0005105A1F07B01EC018A01020F131FB80137
:1012E000C1DF882391F3288139818C819D81B701E9
:1012F000820F931F0E94D4121D830C8381E0DF9123
:10130000CF911F910F91FF90EF900895CF93DF93AE
:10131000EC0188819981009711F00E9401141982D3
:1013200018821D821C821B821A82DF91CF91089540
:101330000F931F93CF93DF931F921F92CDB7DEB70A
:101340008C018BE389831A8241E050E0BE016F5F1C
:101350007F4FC801AEDF811102C0C801D7DFC801CD
:101360000F900F90DF91CF911F910F910895CF9320
:10137000DF93EC01FB01448155816081718199DF2C
:10138000811102C0CE01C2DFCE01DF91CF9108955D
:10139000EF92FF920F931F93CF93DF93EC017B01AA
:1013A0008A01BA015FDF811103C0CE01AFDF07C040
:1013B0001D830C83B701888199810E94D412CE01CC
:1013C000DF91CF911F910F91FF90EF900895EF92D1
:1013D000FF920F931F93CF93DF93CDB7DEB7629742
:1013E0000FB6F894DEBF0FBECDBF8C01CB01F80164
:1013F00011821082138212821582148250E09E01A3
:101400002F5F3F4F7901B9010E94DB12F701019074
:101410000020E9F73197AF014E195F09B701C80104
:10142000B7DF62960FB6F894DEBF0FBECDBFDF9177
:10143000CF911F910F91FF90EF900895FC01808153
:1014400091810C940114FB01DC0111961C921E92F7
:1014500013961C921E92129715961C921E92149728
:101460008617970741F0608171816115710519F048
:10147000448155818DCF0895FC0111821082138221
:101480001282158214826115710549F0FB010190E9
:101490000020E9F73197AF01461B570B79CF08952C
:1014A000EF92FF920F931F93CF93DF931F921F92A0
:1014B000CDB7DEB78C017B016BEF72E0DDDFC701DA
:1014C0004CDD97FD0AC089831A8241E050E0BE01DD
:1014D0006F5F7F4FC801EDDEF2CFC8010F900F9014
:1014E000DF91CF911F910F91FF90EF900895DC0154
:1014F000ED91FC910190F081E02D1994DC01ED91CA
:10150000FC91DB0114964D915C9115976D917C9146
:101510000280F381E02D19941F920F920FB60F9263
:1015200011240BB60F922F933F934F935F936F93BA
:101530007F938F939F93AF93BF93EF93FF9387E72F
:1015400093E0DDDDFF91EF91BF91AF919F918F917E
:101550007F916F915F914F913F912F910F900BBEB3
:101560000F900FBE0F901F9018951F920F920FB6FD
:101570000F9211240BB60F922F933F934F935F93CB
:101580006F937F938F939F93AF93BF93EF93FF934B
:1015900087E793E049DDFF91EF91BF91AF919F9174
:1015A0008F917F916F915F914F913F912F910F900C
:1015B0000BBE0F900FBE0F901F9018951F920F92A9
:1015C0000FB60F9211240BB60F922F933F934F93A8
:1015D0005F936F937F938F939F93AF93BF93EF939B
:1015E000FF9384E194E08BDDFF91EF91BF91AF9188
:1015F0009F918F917F916F915F914F913F912F912B
:101600000F900BBE0F900FBE0F901F9018951F925A
:101610000F920FB60F9211240BB60F922F933F9398
:101620004F935F936F937F938F939F93AF93BF93EA
:10163000EF93FF9384E194E0F7DCFF91EF91BF918A
:10164000AF919F918F917F916F915F914F913F915A
:101650002F910F900BBE0F900FBE0F901F901895FB
:101660001F920F920FB60F9211240BB60F922F9369
:101670003F934F935F936F937F938F939F93AF931A
:10168000BF93EF93FF9381EB94E039DDFF91EF91EE
:10169000BF91AF919F918F917F916F915F914F918A
:1016A0003F912F910F900BBE0F900FBE0F901F9088
:1016B00018951F920F920FB60F9211240BB60F922E
:1016C0002F933F934F935F936F937F938F939F934A
:1016D000AF93BF93EF93FF9381EB94E0A5DCFF9171
:1016E000EF91BF91AF919F918F917F916F915F919A
:1016F0004F913F912F910F900BBE0F900FBE0F9007
:101700001F9018951F920F920FB60F9211240BB6CF
:101710000F922F933F934F935F936F937F938F938A
:101720009F93AF93BF93EF93FF9381E196E0E7DC44
:10173000FF91EF91BF91AF919F918F917F916F91A9
:101740005F914F913F912F910F900BBE0F900FBE65
:101750000F901F9018951F920F920FB60F921124A1
:101760000BB60F922F933F934F935F936F937F939B
:101770008F939F93AF93BF93EF93FF9381E196E095
:1017800053DCFF91EF91BF91AF919F918F917F912A
:101790006F915F914F913F912F910F900BBE0F90E2
:1017A0000FBE0F901F901895FC01A089B18982E0AF
:1017B0008C93A485B5851C92A685B7858FEC8C93F8
:1017C000108EA489B58986E08C93A289B3898C9107
:1017D00080618C93A289B3898C9188608C93A28953
:1017E000B3898C9180688C930288F389E02D808185
:1017F0008F7D808308958F929F92AF92BF92CF92F8
:10180000DF92EF92FF920F931F93CF93DF9320917C
:10181000D7053091D805E90121962C173D0708F02E
:101820007AC08C018091D5059091D6058C179D07C3
:1018300008F03DC0275F3F4F82179307C0F5C09067
:10184000D305D090D4053093D6052093D50586E0F6
:10185000482F429FC001439F900D11243DD7909384
:10186000D4058093D305E12CF12CA12CB12C8091CF
:10187000D7059091D805A816B906B8F446018E0C84
:101880009F1C2091D3053091D405C9018E0D9F1D59
:10189000009711F0B401D7DDC401D0DD8FEFA81A95
:1018A000B80A46E0E40EF11CE2CFC601AAD7E090E8
:1018B000D705F090D80586E08E9D60018F9DD00CF5
:1018C0001124A12CB12CEC16FD06A0F48091D305B7
:1018D0009091D40595012C0D3D1D820F931F00970B
:1018E00011F0B801B0DD8FEFE81AF80A46E0A40E57
:1018F000B11CE9CFD093D805C093D705DF91CF9124
:101900001F910F91FF90EF90DF90CF90BF90AF901D
:101910009F908F900895BE0183ED95E0DF91CF9168
:101920001F910F91FF90EF90DF90CF90BF90AF90FD
:101930009F908F90A0CACF93DF93CDB7DEB7689703
:101940000FB6F894DEBF0FBECDBF789484B5826029
:1019500084BD84B5816084BD85B5826085BD85B553
:10196000816085BD80916E00816080936E001092D1
:10197000810080918100826080938100809181004C
:1019800081608093810080918000816080938000DD
:101990008091B10084608093B1008091B00081603B
:1019A0008093B0008091910082608093910080913B
:1019B000910081608093910080919000816080937C
:1019C00090008091A10082608093A1008091A1008D
:1019D00081608093A1008091A00081608093A0002D
:1019E0008091210182608093210180912101816099
:1019F000809321018091200181608093200180915A
:101A00007A00846080937A0080917A00826080936B
:101A10007A0080917A00816080937A0080917A00C8
:101A2000806880937A001092C1008091BE0587FD86
:101A300008C061E00E94AB0460E08091BE050E9496
:101A40002E0481E08093B9058091C0059091C10575
:101A5000892B19F088EB95E035D981E196E0A4DE79
:101A600081EB94E0A1DE84E194E09EDE87E793E0E1
:101A70009BDE8AE78093CD058CE08093CE0580E5E0
:101A80008093CF058091D0058A3749F48091D105A4
:101A90008C3029F48091D205803509F4B2C040E041
:101AA00050E060E070E020E030E08091BA05909175
:101AB000BB052817390708F05BC0E091CD05809180
:101AC000CF0590E0A0E0B0E0BA2FA92F982F88278B
:101AD000AE2BE091CE058E2B2D0166247724042DAC
:101AE000892E9A2EAB2EBB24182DF82FE091BF051E
:101AF000EE2391F0EE2EF12CE49C8001E59C100D7C
:101B0000F49C100D1124012F8E9E40011124192DDB
:101B10008E9FC0011124F92FE091C505A091C20547
:101B20008091C0059091C105EA1303C0860F971FED
:101B300006C0840F951FDC01AE0FB11D1C92E09111
:101B4000C205DC01AE0FB11D0C93E091C305DC01B1
:101B5000AE0FB11D1C93E091C405DC01AE0FB11DA9
:101B6000FC932F5F3F4F6D5F7F4F4C5F5F4F9DCF6B
:101B70008091BC008A7B8093BC0060E084E10E947D
:101B80002E0460E085E10E942E048091C0059091B2
:101B9000C105892B19F088EB95E094D81092760353
:101BA00010927503109274031092730310927203D3
:101BB00081E0809371031092700361E084E10E94E0
:101BC0002E0461E085E10E942E048091B9008E7F91
:101BD0008093B9008091B9008D7F8093B90088E42B
:101BE0008093B80085E48093BC008091CD059091EE
:101BF000CE05A091CF058093D0059093D105A093F9
:101C0000D20581E196E04BDA892B59F161E176E06A
:101C1000CE01439645DC4AE060E070E0CE010796D5
:101C2000D6DBBE016D5E7F4FCE010D960CDCCE0182
:101C30000D967EDBBE01695F7F4F99DBBC01CE0153
:101C4000019601DCCE010196D6DDCE010196F6DBD0
:101C5000CE010D96F3DBCE010796F0DBCE01439665
:101C6000EDDB81EB94E01BDA892B59F161EB74E039
:101C7000CE01439615DC4AE061E070E0CE010796A4
:101C8000A6DBBE016D5E7F4FCE010D96DCDBCE0183
:101C90000D964EDBBE01695F7F4F69DBBC01CE0153
:101CA0000196D1DBCE010196A6DDCE010196C6DB01
:101CB000CE010D96C3DBCE010796C0DBCE01439665
:101CC000BDDB84E194E0EBD9892B59F164E174E048
:101CD000CE014396E5DB4AE062E070E0CE01079674
:101CE00076DBBE016D5E7F4FCE010D96ACDBCE0183
:101CF0000D961EDBBE01695F7F4F39DBBC01CE0153
:101D00000196A1DBCE01019676DDCE01019696DB30
:101D1000CE010D9693DBCE01079690DBCE01439664
:101D20008DDB87E793E0BBD9892B59F167E773E037
:101D3000CE014396B5DB4AE063E070E0CE01079642
:101D400046DBBE016D5E7F4FCE010D967CDBCE0182
:101D50000D96EEDABE01695F7F4F09DBBC01CE0153
:101D6000019671DBCE01019646DDCE01019666DB60
:101D7000CE010D9663DBCE01079660DBCE01439664
:101D80005DDBE12CF12C00E010E08091DE0590910C
:101D9000DF0508171907A8F46091DA057091DB05D3
:101DA0006E0D7F1DCE0101964EDBCE010196C0D88F
:101DB000CE01019643DB0F5F1F4F86E0E80EF11C5A
:101DC000E4CF60E070E08AED95E055D866EF72E010
:101DD000CE01079651DBBE01695F7F4FCE010196B0
:101DE00032DBCE010196A4D8CE01019627DBCE01CD
:101DF000079624DB0CDA05CFCF92DF92EF92FF92A9
:101E00000F931F93CF93DF93CDB7DEB765970FB6D0
:101E1000F894DEBF0FBECDBF10927A031092790303
:101E200088EE93E0A0E0B0E080937B0390937C0386
:101E3000A0937D03B0937E0322E332E030937803D6
:101E40002093770345E351E0509384034093830349
:101E500044E351E0509386034093850340E351E00F
:101E6000509388034093870341E351E050938A03E2
:101E70004093890342E351E050938C0340938B03DA
:101E800046E351E050938E0340938D0310929003EC
:101E900010929103109292031092930310921704E0
:101EA000109216048093180490931904A0931A04B6
:101EB000B0931B04309315042093140445ED50E0B7
:101EC000509321044093200444ED50E050932304A8
:101ED0004093220440ED50E05093250440932404A5
:101EE00041ED50E0509327044093260442ED50E02A
:101EF000509329044093280446ED50E050932B045E
:101F000040932A0410922D0410922E0410922F0454
:101F1000109230041092B4041092B3048093B5046C
:101F20009093B604A093B704B093B8043093B2046E
:101F30002093B1044DEC50E05093BE044093BD0497
:101F40004CEC50E05093C0044093BF0448EC50E088
:101F50005093C2044093C10449EC50E05093C40430
:101F60004093C3044AEC50E05093C6044093C50428
:101F70004EEC50E05093C8044093C7041092CA043A
:101F80001092CB041092CC041092CD0441E156E0A3
:101F9000109214061092130680931506909316065D
:101FA000A0931706B09318063093120620931106DB
:101FB00025EC30E030931E0620931D0624EC30E023
:101FC0003093200620931F0620EC30E03093220649
:101FD0002093210621EC30E0309324062093230641
:101FE00022EC30E0309326062093250626EC30E0E4
:101FF000309328062093270610922A0610922B066B
:1020000010922C0610922D06109251051092500538
:102010008093520590935305A0935405B0935505B2
:1020200082E492E090934F0580934E0561E270E068
:102030007093C6066093C5061092C7061092C80634
:102040001092C90696E0C92ED12CE12CF12CC09239
:10205000CA06D092CB06E092CC06F092CD06109242
:10206000CE061092CF061092D0061092D10620E232
:102070002093D2061092D4061092D3061092D7065F
:1020800080EB96E09093D6068093D50680EE92E0A2
:102090009093AF068093AE068AEE92E09093C306CB
:1020A0008093C2061092B4061092B3061092B60640
:1020B0001092B5061092B8061092B7061092BA06A2
:1020C0001092B9061092BC061092BB061092BE0682
:1020D0001092BD068EEB92E09093B1068093B0060D
:1020E0005093C1064093C00630E13093BF06709311
:1020F000FF056093FE0510920006109201061092F3
:102100000206C0920306D0920406E0920506F09201
:102110000606109207061092080610920906109201
:102120000A0620930B0610920D0610920C061092D0
:1021300010061092E5051092E6051092E705109240
:10214000E80529EE35E030930F0620930E0628E6C9
:1021500032E03093E4052093E30522E732E0309348
:10216000FC052093FB051092ED051092EC051092F2
:10217000EF051092EE051092F1051092F005109205
:10218000F3051092F2051092F5051092F4051092E5
:10219000F7051092F6059093EA058093E9055093B0
:1021A000FA054093F90588E08093F8055093E2051D
:1021B0004093E1056DEE72E085E093E029D2E3ED16
:1021C000F5E08EE0DF011D928A95E9F708E010E066
:1021D0001093D6050093D50580E390E07DD29093CF
:1021E000D4058093D3051093DD050093DC0580E3CF
:1021F00090E072D29093DB058093DA0581E08093C2
:10220000B8051092B9051092BB051092BA0510924C
:10221000BD051092BC059FEF9093BE051092BF05BF
:102220001092C1051092C0058093C2051092C3059B
:1022300092E09093C4058093C5051092C605109254
:10224000C7051092C8051092C9051A8218861F8604
:10225000188A198A1A8A8E878B871C869D8789839C
:1022600089E690E09E838D8337D29A87898700978D
:1022700051F029E6FC0111922A95E9F783E290E0FA
:102280009C838B8304C01E821D821C821B8289E07A
:102290008F838A81882341F061E089E00E94AB044A
:1022A00060E089E00E942E04E1EDF1E0E491F0E0CD
:1022B000EE0FFF1FE255FE4F859194919C8B8B8B07
:1022C000E1E7F1E0E491ED8B85E1FE013196A8EBC9
:1022D000B5E001900D928A95E1F7CE0101960E943A
:1022E00025078FEF8093CD058093CE058093CF0592
:1022F000EAE5F5E08EE5DF011D928A95E9F708E051
:1023000010E010939F0500939E0580E390E0E4D1D8
:1023100090939D0580939C051093A6050093A505B9
:1023200080E390E0D9D19093A4058093A305109306
:10233000AD050093AC0580E390E0CED19093AB0562
:102340008093AA056BEF72E081EB95E095D810922F
:10235000B70565960FB6F894DEBF0FBECDBFDF910F
:10236000CF911F910F91FF90EF90DF90CF90089544
:1023700081EB95E063D88AEA95E00E94760783EACC
:1023800095E00E9476078CE995E00E94760788EB3D
:1023900095E00E9425078AED95E00E94760783ED7F
:1023A00095E00E94760783EE95E00E944C038EEA4A
:1023B00096E00C949503EE0FFF1F881F8BBF0790CC
:1023C000F691E02D19946F927F928F929F92AF9227
:1023D000BF92CF92DF92EF92FF920F931F93CF9312
:1023E000DF93EC01009781F4CB01DF91CF911F9136
:1023F0000F91FF90EF90DF90CF90BF90AF909F90A4
:102400008F907F906F9068C1FC01E60FF71F9C01D1
:1024100022503109E217F30708F4A8C0D9010D9141
:102420001C91119706171707A8F00530110508F43D
:102430009BC0C80104978617970708F495C00250FF
:102440001109061B170B019311936D937C93CF0118
:10245000D8D18AC05B01A01AB10A4C01800E911E2E
:10246000A091E006B091E10640E050E0E12CF12CB3
:10247000109709F44AC0A815B905D1F56D907C9064
:102480001197630182E0C80ED11CCA14DB0480F1ED
:10249000A3014A195B096A0182E0C80ED11C129699
:1024A000BC9012971396AC91B5E0CB16D10440F0D6
:1024B000B282A38351834083D9016D937C930AC078
:1024C0000E5F1F4FC301800F911FF901918380831D
:1024D000EB2DFA2FE114F10431F0D7011396FC93A0
:1024E000EE93129741C0F093E106E093E0063CC002
:1024F0008D919C9111974817590708F4AC017D0103
:1025000012960D90BC91A02DB3CF8091DE069091D4
:10251000DF0688159905E1F446175707C8F480913E
:10252000000290910102009741F48DB79EB740914F
:10253000040250910502841B950BE817F907B0F4CB
:10254000F093DF06E093DE06F901718360830CC02F
:10255000CB01C2D07C01009749F0A801BE011BD07D
:10256000CE014FD1C70104C0CE0102C080E090E08F
:10257000DF91CF911F910F91FF90EF90DF90CF905F
:10258000BF90AF909F908F907F906F90089581E063
:1025900090E0F894E5C1FB01DC0102C001900D92CE
:1025A00041505040D8F70895FB01DC0101900D9295
:1025B0000020E1F708954532510518F4423008F043
:1025C00004C0FB011082CB010895BB274A3031F4CF
:1025D000992322F4BDE2909581959F4F01C0BB27BE
:1025E000FB015527AA27880F991FAA1FA41710F0CF
:1025F000A41B83955051B9F7A05DAA3308F0A95DDB
:10260000A193009779F7B111B1931192CB0198C1C1
:102610000F931F93CF93DF93009731F461157105EA
:1026200019F480E090E039C08B01EC016EE070E0BD
:1026300081E090E037D0FC01892B99F380E8838317
:102640000115110571F01387028781E8838380915A
:10265000D8069091D906892B21F4F093D906E093FE
:10266000D8062097C9F0D187C08783818260838391
:102670008091DA069091DB06892B71F4F093DB06EA
:10268000E093DA068091DC069091DD06892B21F437
:10269000F093DD06E093DC06CF01DF91CF911F912F
:1026A0000F9108950F931F93CF93DF93869F80011F
:1026B000879F100D969F100D1124C8010DD0EC01BD
:1026C000009721F0A80160E070E033D1CE01DF91E6
:1026D000CF911F910F910895CF93DF938230910591
:1026E00010F482E090E0E091E006F091E10620E055
:1026F00030E0C0E0D0E0309711F1408151814817BF
:102700005907C0F04817590761F4828193812097D7
:1027100019F09B838A832BC09093E1068093E00697
:1027200026C02115310519F04217530718F49A01F4
:10273000BE01DF01EF010280F381E02DDCCF211526
:10274000310509F1281B390B2430310590F412961C
:102750008D919C9113976115710521F0FB01938375
:10276000828304C09093E1068093E006FD013296D7
:1027700044C0FD01E20FF31F819391932250310970
:102780002D933C933AC02091DE063091DF06232B37
:1027900041F420910202309103023093DF0620932E
:1027A000DE0620910002309101022115310541F42D
:1027B0002DB73EB74091040250910502241B350B02
:1027C000E091DE06F091DF06E217F307A0F42E1B7E
:1027D0003F0B2817390778F0AC014E5F5F4F241785
:1027E000350748F04E0F5F1F5093DF064093DE061B
:1027F0008193919302C0E0E0F0E0CF01DF91CF91AF
:1028000008950F931F93CF93DF93009709F48CC023
:10281000FC013297138212820091E0061091E106CA
:102820000115110581F420813181820F931F2091C0
:10283000DE063091DF062817390779F5F093DF06B9
:10284000E093DE0671C0D80140E050E0AE17BF074C
:1028500050F412962D913C911397AD01211531053D
:1028600009F1D901F3CF9D01DA013383228360811D
:102870007181860F971F8217930769F4EC012881F5
:102880003981260F371F2E5F3F4F318320838A8186
:102890009B8193838283452B29F4F093E106E09397
:1028A000E00642C01396FC93EE931297ED01499116
:1028B00059919E01240F351FE217F30771F48081AF
:1028C0009181840F951F029611969C938E9382811D
:1028D000938113969C938E931297E0E0F0E0D801D9
:1028E00012968D919C911397009719F0F8018C0125
:1028F000F6CF8D919C9198012E5F3F4F820F931FD1
:102900002091DE063091DF062817390769F43097E9
:1029100029F41092E1061092E00602C0138212829E
:102920001093DF060093DE06DF91CF911F910F9188
:102930000895DC0101C06D9341505040E0F70895C7
:10294000DC01FC01672F71917723E1F7329704C016
:102950007C916D9370836291AE17BF07C8F30895A1
:1029600011E0C8E0D1E000E005C0802FFE0123DDCA
:102970002196011DC930D10780E00807B1F7F8940E
:02298000FFCF87
:102982000000E206800018000000000000000000C5
:10299200E8FFE8FF00000000000014000000000053
:1029A20000000000ECFFECFF00000000000000004F
:1029B2000000A008E9074F082D084108E6080000BA
:1029C2000000CC01B801B001A101930192010600FF
:1029D200000000002C032E03FAFFFAFF00002D0373
:1029E20030031800000000004C036103E8FFE8FF19
:1029F200000058036A0368020C0216027202000009
:102A0200000038072A03EC02E902E602E302E002D0
:102A12005702530250023A025A02DE01DC0102005E
:102A22000000000075037703FEFFFEFF000076033F
:102A32007903000000003A07BC03000000003907D8
:102A42007303EC02E902E602E302E002D4028E0220
:102A520075025C025A02DD03BE031400000000008E
:102A62009503AA03ECFFECFF0000A103B303E0020D
:0C2A720020022A02EA0248454C4C4F00AA
:00000001FF
