:100000000EC100003DC100003BC1000039C100002D
:1000100037C1000035C1000033C1000031C100000C
:100020002FC100002DC100002BC1000029C100001C
:1000300027C1000025C1000023C1000021C100002C
:100040001FC100001DC100001BC1000019C100003C
:1000500017C1000015C1000013C100000C9400106E
:100060000FC100000C940B0B0C94E20A09C10000B4
:1000700007C1000005C1000003C1000001C100006C
:10008000FFC00000FDC00000FBC00000F9C0000080
:100090000C94B90A0C94900AF3C000000C944A1016
:1000A000EFC00000EDC00000EBC00000E9C00000A0
:1000B000E7C00000E5C00000E3C00000E1C00000B0
:1000C000DFC00000DDC00000DBC000000C94670A48
:1000D0000C943E0AD5C000000C94150A0C94EC094F
:1000E000CFC00000630B660B550B590B5D0B9D0BCE
:1000F0006A0B6E0B740B780B7C0B820B860B8A0BD6
:100100009D0B900B940B980B0000210024002700FE
:100110002A002D0030003300010100000401070116
:100120000A0100000A0B02090C0D0E080703040166
:1001300000000000000000000000000000000000BF
:10014000000000000000000000000000000012118C
:10015000100000000000000000000000000000008F
:10016000000000000000000001021020200808101C
:100170002040102040800201020108040201010217
:1001800004081020408080402010080402018004F0
:10019000020180402010080402010804020101024B
:1001A0000408102040800102040810204080000054
:1001B0002200250028002B002E003100340002010F
:1001C0000000050108010B010505050507050808E4
:1001D0000808020202020A0A0808040404040101D1
:1001E00001010101010103030303030303030407E6
:1001F00007070C0C0C0C0C0C0C0C0202020206067D
:100200000606060606060B0B0B0B0B0B0B0B6364AB
:10021000696E6F70737578585B00AD1344171124C5
:100220001FBECFEFD1E2DEBFCDBF00E00CBF13E0B9
:10023000A0E0B2E0ECE5FBE300E00BBF02C00790FA
:100240000D92AA32B107D9F727E0AAE2B3E001C0C4
:100250001D92A03AB207E1F711E0CEE0D1E000E054
:1002600006C021970109802FFE010E946517CD303D
:10027000D10780E00807A9F70E946E120C949D1D1B
:10028000BFCECF93DF93C0919F06D091A006E881A7
:10029000F9810480F581E02DCE011995892BB9F300
:1002A000E881F9810680F781E02DCE01DF91CF91C1
:1002B00019941F93CF93DF93182FC0919F06D0916D
:1002C000A0068A3041F4E881F9810190F081E02DA7
:1002D0006DE0CE011995E881F9810190F081E02D62
:1002E000612FCE01199521E030E0019711F420E053
:1002F00030E0C901DF91CF911F9108950F931F93B3
:10030000FC010285138524853585401B510B620B4A
:10031000730B77FD02C0808901C080E01F910F91AF
:100320000895FC014283538364837583868197819A
:10033000A085B185480F591F6A1F7B1F42875387CD
:1003400064877587089508950C94E31C08950895B3
:100350000C94E31CDC01ED91FC91369720813181F6
:10036000820F931FF5CF0C94E31C0F931F93CF9331
:10037000DF93EC01EE85FF85309709F019950E9417
:10038000F40F6E837F83888799870A811B812C8174
:100390003D81DC01CB01800F911FA21FB31F8A8713
:1003A0009B87AC87BD87DF91CF911F910F910895F7
:1003B0008F929F92AF92BF92CF92DF92EF92FF9275
:1003C0000F931F93CF93DF93EC01EE85FF8530975A
:1003D00009F019950E94F40F4B015C018E016E012A
:1003E0002EE1C20ED11CE12CF12C89A99AA98E15FF
:1003F0009F0524F1D80153968D919C9154970097B5
:10040000C1F0BFEFEB1AFB0ADC01ED91FC91028019
:10041000F381E02DB501A4011995882351F0F8016D
:1004200083899489DC01ED91FC910480F581E02DB4
:1004300019950E5F1F4F0C151D05B9F60E94F40F9C
:100440006E837F83888799870A811B812C813D81F8
:10045000DC01CB01800F911FA21FB31F8A879B87EE
:10046000AC87BD87DF91CF911F910F91FF90EF90E7
:10047000DF90CF90BF90AF909F908F900895AF92F4
:10048000BF92CF92DF92EF92FF920F931F93CF9381
:10049000DF93FC01248135816217730700F56B013E
:1004A000EC0186E0869F5001879FB00C11248B01E0
:1004B000E12CF12C8C819D810817190770F4C7017C
:1004C0008A0D9B1D28813981820F931FF1D60F5F02
:1004D0001F4FF6E0EF0EF11CEDCFDD82CC82DF91F5
:1004E000CF911F910F91FF90EF90DF90CF90BF9031
:1004F000AF9008950F931F93CF93DF93809165067C
:1005000090916606E0911105F0911205892B71F426
:100510000280F381E02D45E050E06AE073E081E184
:1005200095E0DF91CF911F910F911994A0916106F1
:10053000B091620614964D915C9115976D917C91E6
:100540000280F381E02D81E195E01995C6E0D0E0CD
:1005500000E010E0609165067091660661507109D7
:100560000617170788F480916106909162060F5F65
:100570001F4FBC016C0F7D1F9E0126503109820F59
:10058000931F81D62696E6CF81E696E0DF91CF9144
:100590001F910F9174CF6F927F928F929F92AF9223
:1005A000BF92CF92DF92EF92FF920F931F93CF9360
:1005B000DF93FC01248135812617370708F06CC0D2
:1005C0007A018B01EC012281338126173707A0F5D0
:1005D000CB0108962817390778F58080918093839E
:1005E000828326E0AC01249FC001259F900D112439
:1005F0000E944E1C99838883C12CD12CA12CB12C34
:100600008C819D81A816B906A0F434016C0C7D1C68
:10061000888199818C0D9D1D009711F0B30184D6BE
:10062000C30146D65FEFA51AB50A86E0C80ED11CF5
:10063000E7CFC4010E94E31CCC80DD8086E08C9D66
:1006400050018D9DB00C1124812C912CC016D10627
:1006500090F428813981C4018A0D9B1D820F931F5C
:10066000009711F0B70160D6EFEFCE1ADE0AF6E080
:100670008F0E911CEBCF1D830C83DF91CF911F91C7
:100680000F91FF90EF90DF90CF90BF90AF909F9031
:100690008F907F906F900895DF91CF911F910F9170
:1006A000FF90EF90DF90CF90BF90AF909F908F9092
:1006B0007F906F90E4CE2F923F924F925F926F9215
:1006C0007F928F929F92AF92BF92CF92DF92EF92E2
:1006D000FF920F931F93CF93DF9300D000D0CDB73D
:1006E000DEB77C018B016A01190167E173E0CE017D
:1006F000019622D63BEAA32E3AEAB32EC214D304C3
:1007000009F44CC0B601CE010196BDD5F701808138
:100710009181081B190BC801959587958A9D400109
:100720008B9D900C9A9D900C1124648175816F5F54
:100730007F4FAE014F5F5F4FC7012DDFF701648030
:100740007580F6E0F69DB001F79D700D112481E0F3
:10075000681A71082B01E6E04E1A5108F7018081F2
:1007600091818614970448F46C507109680F791FC1
:10077000840D951D88D5B201EACFBE016F5F7F4F12
:10078000800F911F80D5F701808191810A5F1F4FF3
:10079000080F191FF6E0CF0ED11CB0CFCE01019685
:1007A00087D526960FB6F894DEBF0FBECDBFDF917A
:1007B000CF911F910F91FF90EF90DF90CF90BF905E
:1007C000AF909F908F907F906F905F904F903F90F1
:1007D0002F900895AB01FC0124813581B9016F5F31
:1007E0007F4FD9CECF92DF92EF92FF920F931F935C
:1007F000CF93DF93EC017B01FB01848195819D8385
:100800008C8308969B838A8326E0AC01249FC001D9
:10081000259F900D11240E944E1C9983888300E02F
:1008200010E0C12CD12C8C819D81C816D90690F482
:10083000F70160817181600F711F88819981800F3C
:10084000911F009709F070D5FFEFCF1ADF0A0A5FFA
:100850001F4FE9CFDF91CF911F910F91FF90EF9044
:10086000DF90CF9008951F93CF93DF9311E0CAE1FB
:10087000D6E09091380380913903981761F181E1B6
:1008800095E00E94C40D8230910529F4109218065B
:100890001092190615C0E09118068330910539F4BD
:1008A000F0E0E85EF94F12821093190609C0AE2FEE
:1008B000B0E0A85EB94F12968C93EF5FE0931806F4
:1008C000809118068034A9F6FE0111928A95E9F705
:1008D00010921806CECFDF91CF911F910895A2C735
:1008E000EF92FF920F931F93CF93DF93CDB7DEB7B5
:1008F00068970FB6F894DEBF0FBECDBF8FEC96E0C1
:1009000000D3892B79F16FEC76E0CE01019628D5E2
:100910004AE060E070E0CE010D96CFD4BE016F5F7B
:100920007F4FCE01079600D5CE0107960E94F60CA8
:10093000BE01635F7F4F77D4BC01CE014396F4D4F0
:10094000BE016D5E7F4F81E996E044DFCE014396A4
:10095000AFD4CE010796ACD4CE010D96A9D4CE016A
:100960000196A6D484E794E0CCD2892B79F164E790
:1009700074E0CE010196F4D44AE061E070E0CE016B
:100980000D969BD4BE016F5F7F4FCE010796CCD4EE
:10099000CE0107960E94F60CBE01635F7F4F43D4E1
:1009A000BC01CE014396C0D4BE016D5E7F4F81E98C
:1009B00096E010DFCE0143967BD4CE01079678D423
:1009C000CE010D9675D4CE01019672D487ED93E0D9
:1009D00098D2892B71F167ED73E0CE010196C0D4F6
:1009E0004AE062E070E0CE010D9667D4BE016F5F11
:1009F0007F4FCE01079698D4CE010796F7D7BE0158
:100A0000635F7F4F10D4BC01CE0143968DD4BE01ED
:100A10006D5E7F4F81E996E0DDDECE01439648D4DE
:100A2000CE01079645D4CE010D9642D4CE01019653
:100A30003FD48AE393E065D2892B71F16AE373E0D6
:100A4000CE0101968DD44AE063E070E0CE010D96B0
:100A500034D4BE016F5F7F4FCE01079665D4CE01BF
:100A60000796C4D7BE01635F7F4FDDD3BC01CE01C3
:100A700043965AD4BE016D5E7F4F81E996E0AADEAF
:100A8000CE01439615D4CE01079612D4CE010D9611
:100A90000FD4CE0101960CD40091980610919906BE
:100AA00080919C0690919D0626E0289F7001299FC9
:100AB000F00C1124E00EF11E0E151F0511F1B80106
:100AC000CE01019631D4BE016F5F7F4F8FEC96E06F
:100AD00075D4BE016F5F7F4F84E794E06FD4BE0191
:100AE0006F5F7F4F87ED93E069D4BE016F5F7F4FEB
:100AF0008AE393E063D4CE010196DAD30A5F1F4FF5
:100B0000DBCF60E070E088E996E0B9DC68960FB66C
:100B1000F894DEBF0FBECDBFDF91CF911F910F9133
:100B2000FF90EF900895FB0120813181FC0131831A
:100B30002083FB0142815381F90136972081318165
:100B4000FC01E20FF31F5183408308950895FB01D8
:100B500020813181FC0131832083FB01428153815B
:100B6000F901369720813181FC01E20FF31F518397
:100B7000408308950895EF92FF920F931F93CF93B0
:100B8000DF937C0100E010E0C0E0D0E0F7012481B9
:100B9000358180819181C217D30738F4800F911F6E
:100BA00087D321960A5F1F4FF1CFDF91CF911F911D
:100BB0000F91FF90EF900C94E31CCF92DF92EF9295
:100BC000FF920F931F93CF93DF93CDB7DEB72D978F
:100BD0000FB6F894DEBF0FBECDBF809119068823F3
:100BE00081F06AE176E0CE010196A6D3BE016F5F87
:100BF0007F4F8AE596E0EEDDCE01019659D3109243
:100C0000190600E010E0E12CF12CDD24D394809152
:100C10005E0690915F06E816F90608F05AC060E19A
:100C200073E0CE01019688D380915A0690915B06BD
:100C3000BE016F5F7F4F800F911F9BD2C82ECE01E8
:100C4000019636D3CC2061F060915A0670915B0614
:100C5000600F711F8FE696E016D3D092750633C0F1
:100C600064E173E0CE01019667D380915A069091BA
:100C70005B06BE016F5F7F4F800F911F7AD2C82E37
:100C8000CE01019615D3C11015C068E173E0CE0105
:100C9000019652D380915A0690915B06BE016F5F18
:100CA0007F4F800F911F65D2C82ECE01019600D3D1
:100CB000CC2049F060915A0670915B06600F711F5D
:100CC00088E696E087DD2FEFE21AF20A0A5F1F4FEF
:100CD0009ECF60E070E08AE596E0D1DB61E976E0E6
:100CE000CE0101967FDD60E070E081E996E0C7DB30
:100CF00049815A818D819E8116E0189F9001199F2C
:100D0000300D1124240F351F609165067091660621
:100D1000169FC001179F900D11246091610670917C
:100D20006206680F791F81E696E0C5DCCE01019668
:100D300022DF68E676E0CE01019654DD49815A81D2
:100D40008D819E81189F9001199F300D1124240FD1
:100D5000351F60919C0670919D06169FC001179FDC
:100D6000900D11246091980670919906680F791F73
:100D700088E996E0A0DCCE010196FDDE8091750643
:100D8000882309F449C06FE676E0CE010196CCD203
:100D900089819A81DC01FD0101900020E9F73197FA
:100DA000EA1BFB0B709740F08FEF80938B0610923D
:100DB0008C0610928D062BC09E01285F3F4F3F93FB
:100DC0002F932E5F3F4F3F932F932E5F3F4F3F93C5
:100DD0002F932CE133E03F932F939F938F930E94A7
:100DE00073180FB6F894DEBF0FBECDBF039731F076
:100DF00010928B0610928C068FEF07C088859A851B
:100E00002C8520938B0690938C0680938D06CE01C3
:100E100001964ED2109275062D960FB6F894DEBF4D
:100E20000FBECDBFDF91CF911F910F91FF90EF903B
:100E3000DF90CF900895CF92DF92EF92FF920F93C1
:100E40001F93CF93DF936C017A018B01C0E0D0E058
:100E5000CE15DF0589F0D8016D918D01D601ED9198
:100E6000FC910190F081E02DC6011995892B11F4B8
:100E70007E0102C02196ECCFC701DF91CF911F9177
:100E80000F91FF90EF90DF90CF900895FC01A08923
:100E9000B1898C91A689B78982FD0FC09C91818D03
:100EA0008F5F8F73228D821749F0218DDF01A20F92
:100EB000B11D5D969C93818F08958C910895FC01DE
:100EC000918D828D981761F0828DDF01A80FB11D81
:100ED0005D968C91928D9F5F9F73928F90E00895A5
:100EE0008FEF9FEF0895FC01918D828D981731F05F
:100EF000828DE80FF11D858D90E008958FEF9FEFB3
:100F00000895FC01918D228D892F90E0805C9F4F88
:100F1000821B91098F73992708958AE393E0F1DF8B
:100F200021E0892B09F420E0822F089587ED93E0DA
:100F3000E8DF21E0892B09F420E0822F089584E77F
:100F400094E0DFDF21E0892B09F420E0822F08956F
:100F50008FEC96E0D6DF21E0892B09F420E0822F88
:100F60000895FC01848DDF01A80FB11DA35ABF4F66
:100F70002C91848D90E001968F739927848FA68998
:100F8000B7892C93A089B1898C9180648C93938DBF
:100F9000848D981306C00288F389E02D80818F7DAF
:100FA00080830895EF92FF920F931F93CF93DF9367
:100FB000EC0181E0888F9B8D8C8D981305C0E889AA
:100FC000F989808185FD23C0F62E0B8D10E00F5F1F
:100FD0001F4F0F731127E02E8C8DE8120BC00FB638
:100FE00007FCFACFE889F989808185FFF5CFCE012A
:100FF000B8DFF2CF8B8DFE01E80FF11DE35AFF4FF2
:10100000F0820B8FEA89FB898081806207C0EE89BC
:10101000FF896083E889F98980818064808381E029
:1010200090E0DF91CF911F910F91FF90EF90089585
:10103000CF93DF93EC01888D8823C1F0EA89FB8987
:10104000808185FD05C0A889B9898C9186FD0EC077
:101050000FB607FCF5CF808185FFF2CFA889B9894B
:101060008C9185FFEDCFCE017CDFE8CFDF91CF9172
:10107000089580E090E0892B19F06ADF811116C095
:1010800080E090E0892B19F05ADF811112C080E0D6
:1010900090E0892B19F04ADF81110EC080E090E0CA
:1010A000892B79F03ADF81110AC008950E9400006F
:1010B000E7CF0E940000EBCF0E940000EFCF0C941E
:1010C000000008950E9451180F931F93CF93DF9350
:1010D000EC0188819981009729F02A813B812617AC
:1010E000370788F48B016F5F7F4F0E946D17009761
:1010F00061F0998388831B830A832C813D81232B94
:1011000011F4FC01108281E001C080E0DF91CF91F9
:101110001F910F9108950F931F93CF93DF93EC01CD
:1011200063D7688779878A879B87E881F9810680FA
:10113000F781E02DCE01199597FF16C055D7088588
:1011400019852A853B85DC01CB01801B910BA20B05
:10115000B30B0C811D812E813F8180179107A2075F
:10116000B30718F38FEF9FEFDF91CF911F910F918E
:101170000895FB0144815581FC01248135812417A8
:10118000350778F080819181009759F0FB016081EB
:1011900071816115710529F00E94651821E0892B84
:1011A00009F020E0822F0895EF92FF920F931F9392
:1011B000CF93DF93FC01248135816115710511F412
:1011C00080E018C041155105A1F07B01EC018A01B6
:1011D000020F131FB80178DF882391F3288139812A
:1011E0008C819D81B701820F931F0E945E181D8321
:1011F0000C8381E0DF91CF911F910F91FF90EF90D1
:101200000895CF93DF93EC0188819981009711F0C5
:101210000E94E31C198218821D821C821B821A8282
:10122000DF91CF910895CF93DF93EC01FB014481CF
:10123000558160817181B8DF811102C0CE01E1DF8B
:10124000CE01DF91CF910895EF92FF920F931F93FC
:10125000CF93DF93EC017B018A01BA0135DF811165
:1012600003C0CE01CEDF07C01D830C83B701888188
:1012700099810E945E18CE01DF91CF911F910F914D
:10128000FF90EF900895CF93DF93EC01FB01861759
:10129000970751F0608171816115710521F04481DA
:1012A0005581D2DF01C0ADDFCE01DF91CF9108952E
:1012B000FC01808191810C94E31CEF92FF920F93CB
:1012C0001F93CF93DF93CDB7DEB762970FB6F89435
:1012D000DEBF0FBECDBF8C01CB01F80111821082A1
:1012E000138212821582148250E09E012F5F3F4FBD
:1012F0007901B9010E94BD1BF70101900020E9F7B7
:101300003197AF014E195F09B701C8019DDF6296A1
:101310000FB6F894DEBF0FBECDBFDF91CF911F9106
:101320000F91FF90EF900895FC01118210821382BB
:10133000128215821482A7CFFC01118210821382BF
:101340001282158214826115710549F0FB0101902A
:101350000020E9F73197AF01461B570B75CF089571
:10136000EF92FF920F931F93CF93DF931F921F92E1
:10137000CDB7DEB78C017B0167E173E0DDDFC7012C
:10138000CADE97FD0AC089831A8241E050E0BE019F
:101390006F5F7F4FC80108DFF2CFC8010F900F9039
:1013A000DF91CF911F910F91FF90EF900895DC0195
:1013B000ED91FC910190F081E02D1994DC01ED910B
:1013C000FC91DB0114964D915C9115976D917C9188
:1013D0000280F381E02D19941F920F920FB60F92A5
:1013E00011240BB60F922F933F934F935F936F93FC
:1013F0007F938F939F93AF93BF93EF93FF938AE372
:1014000093E0AFDDFF91EF91BF91AF919F918F91ED
:101410007F916F915F914F913F912F910F900BBEF4
:101420000F900FBE0F901F9018951F920F920FB63E
:101430000F9211240BB60F922F933F934F935F930C
:101440006F937F938F939F93AF93BF93EF93FF938C
:101450008AE393E01BDDFF91EF91BF91AF919F91E4
:101460008F917F916F915F914F913F912F910F904D
:101470000BBE0F900FBE0F901F9018951F920F92EA
:101480000FB60F9211240BB60F922F933F934F93E9
:101490005F936F937F938F939F93AF93BF93EF93DC
:1014A000FF9387ED93E05DDDFF91EF91BF91AF91E9
:1014B0009F918F917F916F915F914F913F912F916C
:1014C0000F900BBE0F900FBE0F901F9018951F929C
:1014D0000F920FB60F9211240BB60F922F933F93DA
:1014E0004F935F936F937F938F939F93AF93BF932C
:1014F000EF93FF9387ED93E0C9DCFF91EF91BF91EC
:10150000AF919F918F917F916F915F914F913F919B
:101510002F910F900BBE0F900FBE0F901F9018953C
:101520001F920F920FB60F9211240BB60F922F93AA
:101530003F934F935F936F937F938F939F93AF935B
:10154000BF93EF93FF9384E794E00BDDFF91EF915E
:10155000BF91AF919F918F917F916F915F914F91CB
:101560003F912F910F900BBE0F900FBE0F901F90C9
:1015700018951F920F920FB60F9211240BB60F926F
:101580002F933F934F935F936F937F938F939F938B
:10159000AF93BF93EF93FF9384E794E077DCFF91E1
:1015A000EF91BF91AF919F918F917F916F915F91DB
:1015B0004F913F912F910F900BBE0F900FBE0F9048
:1015C0001F9018951F920F920FB60F9211240BB611
:1015D0000F922F933F934F935F936F937F938F93CC
:1015E0009F93AF93BF93EF93FF938FEC96E0B9DC9B
:1015F000FF91EF91BF91AF919F918F917F916F91EB
:101600005F914F913F912F910F900BBE0F900FBEA6
:101610000F901F9018951F920F920FB60F921124E2
:101620000BB60F922F933F934F935F936F937F93DC
:101630008F939F93AF93BF93EF93FF938FEC96E0BD
:1016400025DCFF91EF91BF91AF919F918F917F9199
:101650006F915F914F913F912F910F900BBE0F9023
:101660000FBE0F901F901895362F90E0FC01EE5D95
:10167000FE4F4491FC01E859FE4F2491FC01E853D0
:10168000FE4F9491992309F46BC0442309F455C08B
:1016900050E0FA013197E231F10508F04EC0882799
:1016A000EE58FF4F8F4F0C946517809180008F7715
:1016B00007C0809180008F7D03C080918000877F6C
:1016C000809380003AC084B58F7702C084B58F7D47
:1016D00084BD33C08091B0008F7703C08091B0008B
:1016E0008F7D8093B00029C0809190008F7707C0D4
:1016F000809190008F7D03C080919000877F8093C0
:1017000090001BC08091A0008F7707C08091A0003F
:101710008F7D03C08091A000877F8093A0000DC0C3
:10172000809120018F7707C0809120018F7D03C0B9
:1017300080912001877F80932001E92FF0E0EE0F58
:10174000FF1FE255FE4FA591B4918FB7F894EC912D
:10175000311103C020952E2301C02E2B2C938FBF57
:101760000895CF93DF9390E0FC01E859FE4F249158
:10177000FC01E853FE4F8491882361F190E0880FCB
:10178000991FFC01E85FFE4FC591D491FC01E25521
:10179000FE4FA591B491611109C09FB7F89488815B
:1017A000209582238883EC912E230BC0623061F454
:1017B0009FB7F8943881822F809583238883EC919A
:1017C0002E2B2C939FBF06C08FB7F894E8812E2B49
:1017D00028838FBFDF91CF9108953FB7F894809110
:1017E0002A0390912B03A0912C03B0912D0326B5D1
:1017F000A89B05C02F3F19F00196A11DB11D3FBF49
:10180000BA2FA92F982F8827820F911DA11DB11DD6
:10181000BC01CD0142E0660F771F881F991F4A95D2
:10182000D1F708958F929F92AF92BF92CF92DF929D
:10183000EF92FF920F931F93CF93DF9390918B06BC
:1018400080918E0698130DC090918C0680918F0622
:10185000981307C090918D0680919006981709F40F
:1018600091C060E070E040E050E020E030E0809126
:101870007806909179062817390708F05AC0E09148
:101880008B0680918D0690E0A0E0B0E0BA2FA92FE2
:10189000982F8827AE2BE0918C068E2B4D01AA2421
:1018A000BB24C92EDA2EEB2EFF24CC2DF82FE0918D
:1018B0007D06EE2391F00E2F10E0089DE001099DBA
:1018C000D00D189DD00D11248D2ECE9E60011124B7
:1018D000CD2D8E9FC0011124F92FE0918306A09198
:1018E000800680917E0690917F06EA1303C0840FE4
:1018F000951F06C0860F971FDC01AE0FB11D1C920D
:10190000E0918006DC01AE0FB11D8C92E091810662
:10191000DC01AE0FB11DCC93E0918206DC01AE0F6D
:10192000B11DFC932F5F3F4F4D5F5F4F6C5F7F4F4B
:101930009ECF8091BC008A7B8093BC0060E084E1F4
:1019400093DE60E085E190DE80917E0690917F06D7
:10195000892B19F086E796E0EAD4109239031092A9
:1019600038031092370310923603C5D480918B064A
:1019700090918C06A0918D0680938E0690938F0691
:10198000A0939006DF91CF911F910F91FF90EF9060
:10199000DF90CF90BF90AF909F908F900895FC0103
:1019A000A089B18982E08C93A485B5851C92A68517
:1019B000B7858FEC8C93108EA489B58986E08C93C3
:1019C000A289B3898C9180618C93A289B3898C910F
:1019D00088608C93A289B3898C9180688C930288EB
:1019E000F389E02D80818F7D808308950F931F936D
:1019F000CF93DF931F921F92CDB7DEB78C018BE39D
:101A000089831A8241E050E0BE016F5F7F4FC801B9
:101A1000CBDB811102C0C801F4DBC8010F900F902D
:101A2000DF91CF911F910F910895CF93DF93AFEB8B
:101A3000B5E0FD01C191D191209741F049895A89C2
:101A4000EC0129893A894217530711F1D5E0ED3DA0
:101A5000FD0781F720E030E04D915D91452B89F441
:101A6000220F331FF901E455FA4F948B838B809139
:101A7000DD059091DE0501969093DE058093DD05EE
:101A800007C02F5F3F4F2F30310531F780E001C095
:101A900081E0DF91CF91089585ED8093BC00809126
:101AA000BC0084FDFCCF10928105089540915D0536
:101AB000262F30E0240F311D21323105DCF4209136
:101AC00081052430C9F4FC0180E090E0861758F4C9
:101AD00030915D052191DC01A35CBA4FA30FB11DCC
:101AE0002C930196F3CF80915D05680F60935D059F
:101AF00080E0089581E0089582E00895E091340344
:101B0000F0913503309729F0109237031092360385
:101B100019940895CF93DF93AC01E0913203F091D3
:101B200033033097F1F0909139038091380398177F
:101B3000C0F090E0292F30E02617370754F4D90180
:101B4000A35EBA4FEA01C20FD31F88818C939F5FB7
:101B5000F1CF1092390360933803CB01DF91CF911D
:101B60001994DF91CF9108950895E0913903809100
:101B70003803E81730F4F0E0E35EFA4F808190E03C
:101B800008958FEF9FEF0895909139038091380366
:101B9000981750F4E92FF0E0E35EFA4F208130E02F
:101BA0009F5F9093390302C02FEF3FEFC901089563
:101BB0008091380390E020913903821B91090895A8
:101BC000CF93DF931F921F92CDB7DEB7CB01642F67
:101BD00049835A836BDF4981842F5A81952F0F9057
:101BE0000F90DF91CF910895CF93DF931F92CDB7E0
:101BF000DEB7698361E0CE01019658DF81E090E0B5
:101C00000F90DF91CF910895CB0108957F928F922D
:101C10009F92AF92BF92CF92DF92EF92FF920F937B
:101C20001F93CF93DF93EC0149015A018B01C12C23
:101C3000D12C7601C814D904EA04FB0484F5F80118
:101C400071908F018F8580FF0BC0E881F98100843E
:101C5000F185E02D20E144E060E070E0CE011995CF
:101C6000EB85FC858D859E85E817F90738F4708231
:101C70008B859C8501969C878B870BC0E881F981B9
:101C8000672D70E0028CF38DE02DCE011995019641
:101C900049F02FEFC21AD20AE20AF20ACBCFB401FE
:101CA000C50102C0B601C701DF91CF911F910F910D
:101CB000FF90EF90DF90CF90BF90AF909F908F906C
:101CC0007F900895CF93DF93EC01E881F98102883A
:101CD000F389E02D19958F3F2FEF920731F02D8179
:101CE0003E812F5F3F4F3E832D83DF91CF9108953B
:101CF0008FEF9FEF089560E070E0CB01089580E0E2
:101D000090E00895CB010895CF93DF93EC0188898B
:101D10009989DC01ED91FC910480F581E02D199504
:101D2000892BA9F388899989DC01ED91FC910680C2
:101D3000F781E02DDF91CF911994CF93DF93EC01E0
:101D400088899989DC01ED91FC910480F581E02D71
:101D50001995892BA9F388899989DC01ED91FC916A
:101D60000084F185E02DDF91CF911994AF92BF925D
:101D7000CF92DF92EF92FF920F931F93CF93DF9357
:101D800000D01F92CDB7DEB78C015B01C12CD12CE6
:101D90007601F80180899189DC01ED91FC91068042
:101DA000F781E02D29833A834B835C831995298140
:101DB0003A814B815C818F3F71F0C216D306E406F5
:101DC000F5064CF4D5018D935D01BFEFCB1ADB0A0C
:101DD000EB0AFB0ADECFC701B6010F900F900F9000
:101DE0000F90DF91CF911F910F91FF90EF90DF90B7
:101DF000CF90BF90AF900895DC0150968D919C914B
:101E00005197DC01ED91FC910480F581E02D19944E
:101E100080E090E0089580E090E0089580E090E018
:101E2000089580E090E0089508950C94E31C0F93CA
:101E30001F93CF93DF938C01EB016F3F8FEF7807F8
:101E400019F480E090E00DC06A3029F46DE0F801EB
:101E500080899189ACDA6C2FF80180899189A7DAA1
:101E6000CE01DF91CF911F910F9108958F929F9294
:101E7000BF92CF92DF92EF92FF920F931F93CF9377
:101E8000DF9300D01F92CDB7DEB78C014B01C12C80
:101E9000D12C7601C216D306E406F50634F5F4011A
:101EA000B1904F01FAE0BF120DC06DE0F8018089DA
:101EB000918929833A834B835C8379DA5C814B81F6
:101EC0003A8129816B2DF8018089918929833A8390
:101ED0004B835C836CDAFFEFCF1ADF0AEF0AFF0A4D
:101EE0005C814B813A812981D5CFCA01B9010F901C
:101EF0000F900F900F90DF91CF911F910F91FF9056
:101F0000EF90DF90CF90BF909F908F90089520EE3C
:101F100032E0FC01318320832AEE32E0358B248BC2
:101F200060EF72E00C94A705DC01ED91FC9136970F
:101F300020813181820F931FEACFCF93DF93EC0191
:101F4000E6DFCE01DF91CF910C94E31CDC01ED9133
:101F5000FC91369720813181820F931FEECF28E6C6
:101F600032E0FC013183208322E732E0318F208F81
:101F700068E772E00C949305DC01ED91FC913697D3
:101F800020813181820F931FEACFCF93DF93EC0141
:101F9000E6DFCE01DF91CF910C94E31CDC01ED91E3
:101FA000FC91369720813181820F931FEECFDC01A7
:101FB000ED91FC91369720813181820F931F0C9413
:101FC000A301CF93DF93EC010E94A301CE01DF9127
:101FD000CF910C94E31CDC01ED91FC9136972081AC
:101FE0003181820F931FEDCF2FB7F8946091A80530
:101FF0007091A9058091AA059091AB052FBF089516
:102000001F920F920FB60F9211242F933F938F932D
:102010009F93AF93BF938091A8059091A905A0913C
:10202000AA05B091AB053091A70523E0230F2D370A
:1020300020F40196A11DB11D05C026E8230F0296CC
:10204000A11DB11D2093A7058093A8059093A90514
:10205000A093AA05B093AB0580912A0390912B031E
:10206000A0912C03B0912D030196A11DB11D809369
:102070002A0390932B03A0932C03B0932D03BF91BD
:10208000AF919F918F913F912F910F900FBE0F9025
:102090001F9018951F920F920FB60F9211240BB636
:1020A0000F922F933F934F935F936F937F938F93F1
:1020B0009F93AF93BF93EF93FF938091B900887F75
:1020C000803609F49CC068F5883209F45BC090F44E
:1020D000803109F454C038F4882309F4F6C08830FC
:1020E00009F44DC0F5C0883109F44CC0803209F4C0
:1020F0005DC0EEC0803409F468C048F4803309F450
:1021000055C0883309F0E4C080938005D8C080357D
:1021100009F44FC0883509F45DC0883409F0D8C08F
:10212000D6C0883909F4C7C0A8F4883709F467C055
:1021300038F4883609F463C0803709F460C0C8C039
:10214000883809F4B8C0803909F45FC0803809F0D4
:10215000BFC05BC0803B09F486C038F4803A09F404
:1021600066C0883A09F47FC0B3C0803C09F4A7C0B8
:10217000883C09F4A4C0883B09F48AC0A9C08091B6
:10218000A60510C09091A5058091A405981770F53B
:10219000E091A50581E08E0F8093A505F0E0EC5756
:1021A000FA4F80818093BB0085EC86C080938005C8
:1021B0008EC0E091A50581E08E0F8093A5058091EA
:1021C000BB00F0E0EC57FA4F80839091A505809119
:1021D000A4056EC0E091A50581E08E0F8093A50552
:1021E0008091BB00F0E0EC57FA4F8083809183052B
:1021F00081116DC081E08093820584EA61C083E033
:102200008093810510927F05CFCF80917F0580322A
:1022100008F051C0E0917F0581E08E0F80937F052B
:102220008091BB00F0E0E15AFA4F8083BDCF85EC8E
:102230008093BC001092810580917F05803230F43C
:10224000E0917F05F0E0E15AFA4F108260917F053E
:1022500070E0E0912E03F0912F038FE595E0199542
:1022600010927F0535C084E08093810510925E0551
:1022700010925D05E0913003F09131031995809142
:102280005D05811105C081E080935D0510923D05DB
:10229000E0915E0581E08E0F80935E05F0E0E35CE7
:1022A000FA4F80818093BB0090915E0580915D051F
:1022B000981708F479CF85E88093BC0009C085ECB5
:1022C0008093BC001092810503C010928005E4DB6E
:1022D000FF91EF91BF91AF919F918F917F916F91FE
:1022E0005F914F913F912F910F900BBE0F900FBEBA
:1022F0000F901F9018951092810581E080938305BF
:102300001092820561E084E1AFD961E085E1ACD94A
:10231000E9EBF0E080818E7F808380818D7F8083F8
:1023200088E48093B80085E48093BC000895CF9240
:10233000DF92EF92FF920F931F93CF93DF93CDB76E
:10234000DEB729970FB6F894DEBF0FBECDBF8C0164
:1023500044DAD8011E96CD90DD90ED90FC90519717
:10236000DC01CB018C199D09AE09BF098C3291406B
:10237000A105B10568F3F894D80114968D919C914C
:1023800015979A8389831896ED91FC9119977F018F
:10239000BFEFEB1AFB0A80818B83F80190810288E2
:1023A000F389E02DD80154968C91992309F430C01B
:1023B0009081982B9C839081809589238D838D813A
:1023C0008E8388E08F835C816D814B813F812E817C
:1023D00089819A81D701508347FD252F3A95208323
:1023E000262F39F0441F00C000006083000000C0A9
:1023F000F2CF38E04D9160830000019761F7D8017A
:102400005396FC93EE9352974B833F832E833AC0AF
:102410009081982B9C839081809589238D838D81D9
:10242000888788E089875C816D814B813985288523
:1024300089819A81D701508347FD252F00C000C0B4
:10244000208300C000C000C000C000C06083000046
:10245000262F3A9541F0441F000000C000C000C084
:1024600000C000C0E8CF38E04D9100C0608300C0DC
:10247000019709F7D8015396FC93EE9352974B833B
:10248000398728879A8389837894A7D9F801668742
:102490007787808B918B29960FB6F894DEBF0FBE9D
:1024A000CDBFDF91CF911F910F91FF90EF90DF9003
:1024B000CF900895CF93DF93EC018885998500979D
:1024C00011F00E94E31C8E8187FD04C060E0DF9163
:1024D000CF9147C9DF91CF9108950895789484B53D
:1024E000826084BD84B5816084BD85B5826085BD10
:1024F00085B5816085BD80916E00816080936E009E
:10250000109281008091810082608093810080918F
:102510008100816080938100809180008160809340
:1025200080008091B10084608093B1008091B00000
:1025300081608093B00080919100826080939100CF
:1025400080919100816080939100809190008160E2
:10255000809390008091A10082608093A10080917F
:10256000A10081608093A1008091A0008160809390
:10257000A00080912101826080932101809121013E
:1025800081608093210180912001816080932001EE
:1025900080917A00846080937A0080917A008260D2
:1025A00080937A0080917A00816080937A00809194
:1025B0007A00806880937A001092C10080917C0636
:1025C00087FD06C061E0CDD860E080917C064CD8E4
:1025D00081E08093770680917E0690917F06892B1B
:1025E00019F086E796E0A3DEC1E0C09315068AE005
:1025F000C82ED12CE12CF12CC0920706D0920806EF
:10260000E0920906F0920A0680910B0690910C0662
:10261000A0910D06B0910E060A96A11DB11D8093E2
:102620000F0690931006A0931106B09312068FE642
:1026300094E090931406809313068FEC96E0AFD944
:1026400084E794E0ACD987ED93E0A9D98AE393E0DD
:10265000A6D9C0930206C092F405D092F505E09287
:10266000F605F092F7058091F8059091F905A09193
:10267000FA05B091FB050A96A11DB11D8093FC05DA
:102680009093FD05A093FE05B093FF0580E794E0CD
:10269000909301068093000684E28093BA008EE74F
:1026A0009DE090933103809330038AE89DE09093FE
:1026B0002F0380932E031092390310923803109247
:1026C00037031092360317DE83E394E090933303CD
:1026D000809332038AE792E090933503809334032A
:1026E000C093EF05C092E105D092E205E092E305C8
:1026F000F092E4058091E5059091E605A091E7054B
:10270000B091E8050A96A11DB11D8093E90590934B
:10271000EA05A093EB05B093EC058DED95E0909361
:10272000EE058093ED0585E096E07FD982EF95E098
:102730007CD98FED95E079D98AE780938B068CE080
:1027400080938C0680E580938D066CD88CEA95E0AA
:102750000E94D8010E943908F9CFCF92DF92EF9200
:10276000FF920F931F93CF93DF93CDB7DEB765979B
:102770000FB6F894DEBF0FBECDBF10923D0310928E
:102780003C0388EE93E0A0E0B0E080933E0390939A
:102790003F03A0934003B093410322E332E0309320
:1027A0003B0320933A0345E351E0509347034093A2
:1027B000460344E351E0509349034093480340E308
:1027C00051E050934B0340934A0341E351E050934F
:1027D0004D0340934C0342E351E050934F03409329
:1027E0004E0346E351E0509351034093500310923F
:1027F00053031092540310925503109256031092F3
:10280000DA031092D9038093DB039093DC03A09347
:10281000DD03B093DE033093D8032093D70345ED57
:1028200050E05093E4034093E30344ED50E05093B1
:10283000E6034093E50340ED50E05093E8034093F6
:10284000E70341ED50E05093EA034093E90342ED82
:1028500050E05093EC034093EB0346ED50E050936F
:10286000EE034093ED031092F0031092F1031092E7
:10287000F2031092F303109277041092760480937F
:10288000780490937904A0937A04B0937B043093F6
:102890007504209374044DEC50E0509381044093F0
:1028A00080044CEC50E0509383044093820448EC45
:1028B00050E0509385044093840449EC50E05093D9
:1028C0008704409386044AEC50E050938904409377
:1028D00088044EEC50E050938B0440938A0410928D
:1028E0008D0410928E0410928F04109290044FEC7D
:1028F00056E01092D2061092D1068093D3069093A0
:10290000D406A093D506B093D6063093D006209374
:10291000CF0625EC30E03093DC062093DB0624EC78
:1029200030E03093DE062093DD0620EC30E030937B
:10293000E0062093DF0621EC30E03093E20620939E
:10294000E10622EC30E03093E4062093E30626EC27
:1029500030E03093E6062093E5061092E8061092E8
:10296000E9061092EA061092EB06109214051092F6
:1029700013058093150590931605A0931705B09342
:10298000180582E492E0909312058093110561E2AC
:1029900070E070938407609383071092850710920C
:1029A00086071092870726E0C22ED12CE12CF12C4D
:1029B000C0928807D0928907E0928A07F0928B072D
:1029C00010928C0710928D0710928E0710928F072D
:1029D00020E2209390071092920710929107109294
:1029E00095078EE697E0909394078093930780EE87
:1029F00092E090936D0780936C078AEE92E090933B
:102A000081078093800710927207109271071092CD
:102A10007407109273071092760710927507109240
:102A200078071092770710927A0710927907109220
:102A30007C0710927B078EEB92E090936F07809358
:102A40006E0750937F0740937E0730E130937D07F8
:102A50007093BD066093BC061092BE061092BF062E
:102A60001092C006C092C106D092C206E092C30680
:102A7000F092C4061092C5061092C6061092C706C0
:102A80001092C8062093C9061092CB061092CA066F
:102A90001092CE061092A3061092A4061092A506DC
:102AA0001092A60627EA36E03093CD062093CC0696
:102AB00028E632E03093A2062093A10622E732E016
:102AC0003093BA062093B9061092AB061092AA066C
:102AD0001092AD061092AC061092AF061092AE06A0
:102AE0001092B1061092B0061092B3061092B20680
:102AF0001092B5061092B4069093A8068093A7068C
:102B00005093B8064093B70688E08093B60650937A
:102B1000A00640939F0661E471E089E591E05AD6F2
:102B2000E1E9F6E08EE0DF011D928A95E9F708E021
:102B300010E0109394060093930680E390E0AED6E5
:102B4000909392068093910610939B0600939A06A9
:102B500080E390E0A3D6909399068093980681E055
:102B60008093760610927706109279061092780676
:102B700010927B0610927A069FEF90937C0610923B
:102B80007D0610927F0610927E068093800610923A
:102B9000810692E0909382068093830610928406C9
:102BA0001092850610928606109287061A82188661
:102BB0001F86188A198A1A8A8E878B871C869D879A
:102BC000898389E690E09E838D8368D69A8789877A
:102BD000009751F029E6FC0111922A95E9F783E26A
:102BE00090E09C838B8304C01E821D821C821B820A
:102BF00089E08F838A81882341F061E089E00E9427
:102C0000B10B60E089E00E94340BE1EDF1E0E4916A
:102C1000F0E0EE0FFF1FE255FE4F859194919C8BE3
:102C20008B8BE1E7F1E0E491ED8B85E1FE013196DC
:102C3000A6E7B6E001900D928A95E1F7CE010196E4
:102C400039DC8FEF80938B0680938C0680938D0602
:102C5000E8E1F6E08EE5DF011D928A95E9F708E0EC
:102C600010E010935D0600935C0680E390E016D6BA
:102C700090935B0680935A06109364060093630654
:102C800080E390E00BD690936206809361061093E8
:102C90006B0600936A0680E390E000D69093690685
:102CA0008093680667E173E08FE696E00E949C09D6
:102CB0001092750694E0E92E93E0F92EF092060644
:102CC000E092050611E0109315061092140610927A
:102CD000130610920F061092100610921106109211
:102CE000120682D960930B0670930C0680930D0632
:102CF00090930E0625E036E03093170620931606D3
:102D000010920706109208061092090610920A0601
:102D100060930F067093100680931106909312062D
:102D2000F092F305E092F20510930206109201066C
:102D3000109200061092FC051092FD051092FE05FF
:102D40001092FF0551D96093F8057093F9058093AF
:102D5000FA059093FB0522EF35E0309304062093AB
:102D600003061092F4051092F5051092F6051092E4
:102D7000F7056093FC057093FD058093FE05909325
:102D8000FF05F092E005E092DF051093EF05109249
:102D9000EE051092ED051092E9051092EA051092E9
:102DA000EB051092EC0520D96093E5057093E605DC
:102DB0008093E7059093E8052FED35E03093F1051A
:102DC0002093F0051092E1051092E2051092E305C0
:102DD0001092E4056093E9057093EA058093EB0592
:102DE0009093EC05F092AD05E092AC051093BC0514
:102DF0001092BB051092BA051092B6051092B70555
:102E00001092B8051092B905EFD86093B20570938F
:102E1000B3058093B4059093B5052CEA35E0309363
:102E2000BE052093BD051092AE051092AF0510921D
:102E3000B0051092B1056093B6057093B705809305
:102E4000B8059093B9058AEF92E09093AD05809311
:102E5000AC051092DE051092DD05EFEBF5E0119266
:102E60001192B5E0ED3DFB07D1F765960FB6F894EA
:102E7000DEBF0FBECDBFDF91CF911F910F91FF90AD
:102E8000EF90DF90CF9008958FE696E00E9458096A
:102E900088E696E00E94BB0581E696E00E94BB05AD
:102EA0008AE596E00E94BB0586E796E003DB88E9A9
:102EB00096E00E94BB0581E996E00E94BB0581EA8D
:102EC00096E04DD88CE697E022C8EE0FFF1F881FD2
:102ED0008BBF0790F691E02D19946F927F928F929D
:102EE0009F92AF92BF92CF92DF92EF92FF920F9399
:102EF0001F93CF93DF93EC01009781F4CB01DF9117
:102F0000CF911F910F91FF90EF90DF90CF90BF90E6
:102F1000AF909F908F907F906F90C0C4FC01E60FA0
:102F2000F71F9C0122503109E217F30708F4A8C0EB
:102F3000D9010D911C91119706171707A8F00530BC
:102F4000110508F49BC0C80104978617970708F479
:102F500095C002501109061B170B019311936D9335
:102F60007C93CF0130D58AC05B01A01AB10A4C0115
:102F7000800E911EA0919E07B0919F0740E050E007
:102F8000E12CF12C109709F44AC0A815B905D1F528
:102F90006D907C901197630182E0C80ED11CCA1419
:102FA000DB0480F1A3014A195B096A0182E0C80EC3
:102FB000D11C1296BC9012971396AC91B5E0CB162B
:102FC000D10440F0B282A38351834083D9016D9331
:102FD0007C930AC00E5F1F4FC301800F911FF90140
:102FE00091838083EB2DFA2FE114F10431F0D701A6
:102FF0001396FC93EE93129741C0F0939F07E093D2
:103000009E073CC08D919C9111974817590708F471
:10301000AC017D0112960D90BC91A02DB3CF809193
:103020009C0790919D0788159905E1F4461757076D
:10303000C8F48091000290910102009741F48DB78D
:103040009EB74091040250910502841B950BE8172E
:10305000F907B0F4F0939D07E0939C07F9017183A1
:1030600060830CC0CB011AD47C01009749F0A80101
:10307000BE011BD0CE01A7D4C70104C0CE0102C03F
:1030800080E090E0DF91CF911F910F91FF90EF9042
:10309000DF90CF90BF90AF909F908F907F906F9078
:1030A000089581E090E0F89448C5FB01DC0102C07E
:1030B00001900D9241505040D8F70895FB01DC017A
:1030C00001900D920020E1F70895FB01DC014150D1
:1030D000504030F08D910190801919F40020B9F71B
:1030E000881B990B0895CF93DF93CDB7DEB72E974A
:1030F0000FB6F894DEBF0FBECDBF85E08C838C8900
:103100009D899A838983AE01485E5F4F6E897F896E
:10311000CE010196B0D12E960FB6F894DEBF0FBE49
:10312000CDBFDF91CF91089520FD09C0FC0123FDA3
:1031300005C022FF02C073836283518340830895D8
:1031400044FD10C046FD10C0DB01FC01AA0FBB1FEF
:10315000EE1FFF1F1094D1F76A0F7B1F8E1F9F1F5A
:1031600031E003C033E001C034E0660F771F881FF1
:10317000991F3150D1F7620F711D811D911D089566
:103180000F931F93CF93DF938C01C8019FD2EC0163
:1031900097FD06C0B0D4892BC1F7B801CE01D4D2B7
:1031A000CE01DF91CF911F910F9108958F929F9241
:1031B000AF92BF92CF92DF92EF92FF920F931F9345
:1031C000CF93DF931F92CDB7DEB78C01C62E7A0165
:1031D00029837CD2AC01552729814B32510521F03E
:1031E0004D32510561F42068CA94C11002C080E0DC
:1031F0006FC0C80129836AD2298197FDF8CF322F89
:103200003D7FD32E322F307339F5803329F5BB241F
:10321000BA94BC0C09F449C0C801298357D229814A
:1032200097FD43C0382F3F7D383561F48D2D826482
:10323000D82ECA94CA94CC20C1F1C80147D297FFB6
:103240000BC033C026FF04C02D2D2260D22E03C038
:103250003D2D3261D32ECB2C812C912C540120EDAD
:10326000280F283078F0D4FE03C0B8016DD21AC000
:103270002A3040F0D6FEF9CF2F7D3FEE320F3630A8
:10328000A0F727504D2DC501B4015ADF4B015C0159
:103290008D2D8260D82ECA94CC2051F0C80116D250
:1032A00097FFDDCFD1FC04C0A2CF812C912C54011B
:1032B000D7FE08C0B094A09490948094811C911C77
:1032C000A11CB11C2D2DB501A401C7012DDF81E08A
:1032D0000F90DF91CF911F910F91FF90EF90DF90B2
:1032E000CF90BF90AF909F908F9008956F927F92F4
:1032F0008F929F92AF92BF92CF92DF92EF92FF9206
:103300000F931F93CF93DF93CDB7DEB7A1970FB67F
:10331000F894DEBF0FBECDBF5C017A01CE010196ED
:103320006C0180E2F60111928A95E9F7F50183803C
:1033300040E050E0912C712C70E0A1E0B0E0F90188
:1033400083FC859183FE81918F01982F9F018111CC
:1033500003C080E090E07AC08E3519F44115510524
:1033600049F1E72FF0E0E417F5073CF48D3559F10A
:103370008D3219F4772001F103C0711001C0982E2D
:10338000892F8695869586958601080F111D892FB0
:1033900087703D0101C0660C8A95EAF7F8018081CB
:1033A00086298083991559F0991510F49F5FE8CF0D
:1033B0009150E6CF71E004C07724739401C0712C62
:1033C0004F5F5F4FBCCF772019F08E8180628E8374
:1033D000711103C09924939416C0F6019E012F5DCC
:1033E0003F4F808180958193E217F307D1F7F2CFA9
:1033F000E114F10429F0F7018083C70101967C01F3
:103400006150912CE9F0C50169A360D169A197FDD4
:1034100015C0282F269526952695F601E20FF11D59
:10342000208130E0AC014770552702C035952795C3
:103430004A95E2F720FDDCCFB50186D1911089CF06
:10344000E114F10411F0F7011082C801A1960FB642
:10345000F894DEBF0FBECDBFDF91CF911F910F91CA
:10346000FF90EF90DF90CF90BF90AF909F908F90A4
:103470007F906F9008954F925F927F928F929F926C
:10348000AF92BF92CF92DF92EF92FF920F931F9372
:10349000CF93DF931F92CDB7DEB76C012B015A019A
:1034A000FC0117821682712CF601F380F201F3FC05
:1034B0008591F3FE8191382F2F01882309F4E5C00F
:1034C00090E0398318D33981892B19F0C60158DE71
:1034D000EBCF353241F4F201F3FC3591F3FE31913B
:1034E0002F01353259F4C6013983F0D0398197FD67
:1034F000CAC03817C9F2B60127D1C7C03A3239F469
:10350000F3FC3591F3FE31912F0151E001C050E001
:10351000420110E020ED230F2A3088F45260612F21
:1035200070E080E090E040E259830ADE162FF4015B
:10353000F3FC3591F3FE31914F015981EBCF052F0B
:10354000232F240151FF03C0111102C09EC01FEFA1
:10355000383619F03C3659F011C0F401F3FC2591CE
:10356000F3FE21912F01283649F4052F08600460ED
:10357000F201F3FC2591F3FE21912F01222309F49E
:1035800084C0622F70E08EE092E0298394D029817C
:10359000892B09F47AC000FD07C0F501E080F180B5
:1035A000C50102965C0102C0E12CF12C2E3649F4D3
:1035B000F6014681578160E070E0202FC701B4DD3D
:1035C00073CF233689F401FF11E0C6017FD097FD48
:1035D0005AC0E114F10429F0F7018083C701019674
:1035E0007C01115091F74BC02B3551F49201A7018A
:1035F000612FC6017BDE2C01892B09F040C03AC047
:10360000C6012983BDDD298197FD3DC02F3641F1DB
:1036100028F4243619F1293631F124C0233769F012
:103620002537E1F01FC0E114F10429F0F701808291
:10363000C70101967C01115059F0C60147D04C01D9
:1036400097FD06C058D2892B71F3B601C4017CD016
:10365000E114F104A1F0F701108211C0006203C06F
:10366000006101C00064202FA701612FC6019EDD0B
:10367000811105C0F6018381807329F406C000FD25
:1036800013CF739411CF772019F0872D90E002C0EB
:103690008FEF9FEF0F90DF91CF911F910F91FF90D0
:1036A000EF90DF90CF90BF90AF909F908F907F90E2
:1036B0005F904F900895FC010590061621F00020C0
:1036C000D9F7C00108953197CF010895CF93DF93C3
:1036D000EC012B8120FF33C026FF0AC02F7B2B83F8
:1036E0008E819F8101969F838E838A8190E029C07D
:1036F00022FF0FC0E881F9818081082E000C990B10
:10370000009719F420622B831AC03196F983E8835D
:103710000EC0EA85FB85199597FF09C02B8101969C
:1037200011F080E201C080E1822B8B8308C02E81E2
:103730003F812F5F3F4F3F832E83992702C08FEF3A
:103740009FEFDF91CF910895FB01238120FF12C0ED
:1037500026FD10C08F3F3FEF930761F082832F7DDE
:1037600020642383268137812150310937832683C2
:10377000992708958FEF9FEF08954532510518F46A
:10378000423008F004C0FB011082CB010895BB2732
:103790004A3031F4992322F4BDE2909581959F4FF0
:1037A00001C0BB27FB015527AA27880F991FAA1F15
:1037B000A41710F0A41B83955051B9F7A05DAA334C
:1037C00008F0A95DA193009779F7B111B193119217
:1037D000CB01A0C10F931F93CF93DF93009731F4D8
:1037E0006115710519F480E090E039C08B01EC019E
:1037F0006EE070E081E090E037D0FC01892B99F316
:1038000080E883830115110571F01387028781E831
:1038100083838091960790919707892B21F4F093E9
:103820009707E09396072097C9F0D187C0878381D7
:10383000826083838091980790919907892B71F416
:10384000F0939907E093980780919A0790919B07CE
:10385000892B21F4F0939B07E0939A07CF01DF9126
:10386000CF911F910F9108950F931F93CF93DF93E3
:10387000869F8001879F100D969F100D1124C8010F
:103880000DD0EC01009721F0A80160E070E03BD181
:10389000CE01DF91CF911F910F910895CF93DF93C8
:1038A0008230910510F482E090E0E0919E07F09163
:1038B0009F0720E030E0C0E0D0E0309711F1408178
:1038C000518148175907C0F04817590761F48281A0
:1038D0009381209719F09B838A832BC090939F0735
:1038E00080939E0726C02115310519F04217530712
:1038F00018F49A01BE01DF01EF010280F381E02D8F
:10390000DCCF2115310509F1281B390B2430310595
:1039100090F412968D919C9113976115710521F089
:10392000FB019383828304C090939F0780939E073B
:10393000FD01329644C0FD01E20FF31F8193919384
:10394000225031092D933C933AC020919C0730912D
:103950009D07232B41F42091020230910302309302
:103960009D0720939C0720910002309101022115B0
:10397000310541F42DB73EB7409104025091050244
:10398000241B350BE0919C07F0919D07E217F3078C
:10399000A0F42E1B3F0B2817390778F0AC014E5FBF
:1039A0005F4F2417350748F04E0F5F1F50939D0758
:1039B00040939C078193919302C0E0E0F0E0CF0137
:1039C000DF91CF9108950F931F93CF93DF930097CB
:1039D00009F48CC0FC0132971382128200919E0779
:1039E00010919F070115110581F420813181820F0B
:1039F000931F20919C0730919D072817390779F56F
:103A0000F0939D07E0939C0771C0D80140E050E01F
:103A1000AE17BF0750F412962D913C911397AD014C
:103A20002115310509F1D901F3CF9D01DA01338365
:103A3000228360817181860F971F8217930769F433
:103A4000EC0128813981260F371F2E5F3F4F3183CC
:103A500020838A819B8193838283452B29F4F09371
:103A60009F07E0939E0742C01396FC93EE93129734
:103A7000ED01499159919E01240F351FE217F3077B
:103A800071F480819181840F951F029611969C9309
:103A90008E938281938113969C938E931297E0E08C
:103AA000F0E0D80112968D919C911397009719F030
:103AB000F8018C01F6CF8D919C9198012E5F3F4FBC
:103AC000820F931F20919C0730919D07281739077B
:103AD00069F4309729F410929F0710929E0702C054
:103AE0001382128210939D0700939C07DF91CF9160
:103AF0001F910F91089591111DC0803219F08950C6
:103B00008550D0F70895DC0101C06D9341505040BD
:103B1000E0F70895DC01FC01672F71917723E1F74D
:103B2000329704C07C916D9370836291AE17BF078A
:103B3000C8F3089599278827089511E0CEE0D1E0D1
:103B400000E005C0802FFE01C0D92196011DCF30B5
:0C3B5000D10780E00807B1F7F894FFCF20
:103B5C000000A0078000180000000000000000001A
:103B6C00E8FFE8FF00000000000014000000000067
:103B7C0000000000ECFFECFF000000000000000063
:103B8C000000D2071B0781075F07730718080000A6
:103B9C000000F40DE00DD80DC40DB50DB40D0600EC
:103BAC0000000000A301E10FFAFFFAFF0000D70F9D
:103BBC00EB0F180000000000AF0FC50FE8FFE8FF87
:103BCC000000BC0FCE0F68020C021602720200003D
:103BDC0000006D12150F140F110F0E0F0B0F080FA5
:103BEC007F0E7B0E780E620E820E060E040E020005
:103BFC0000000000A601A801FEFFFEFF0000A701C7
:103C0C00AA0100000000BA05B30100000000A605DF
:103C1C00A401140F110F0E0F0B0F080FFC0EB60E94
:103C2C009D0E840E820E360F170F1400000000003C
:103C3C00870F9D0FECFFECFF0000940FA60FE00226
:103C4C0020022A02EA020000000091017E01D80144
:103C5C000000000091017E01B501454D5054590002
:103C6C004C4544004C4F4300434F4D004C45443AA7
:0A3C7C0025642C25642C256400004B
:00000001FF
