:100000000EC100003BC1000039C1000037C1000033
:1000100035C1000033C1000031C100002FC1000014
:100020002DC100002BC1000029C1000027C1000024
:1000300025C1000023C1000021C100001FC1000034
:100040001DC100001BC1000019C1000017C1000044
:1000500015C1000013C1000011C10000E9C4000077
:100060000DC100000BC1000009C1000007C1000064
:1000700005C1000003C1000001C10000FFC0000075
:10008000FDC00000FBC00000F9C00000F7C0000088
:10009000F5C00000F3C00000F1C0000013C500006F
:1000A000EDC00000EBC00000E9C00000E7C00000A8
:1000B000E5C00000E3C00000E1C00000DFC00000B8
:1000C000DDC00000DBC00000D9C00000D7C00000C8
:1000D000D5C00000D3C00000D1C00000CFC00000D8
:1000E000CDC00000CE01D101C001C401C801080289
:1000F000D501D901DF01E301E701ED01F101F501CE
:100100000802FB01FF010302000021002400270078
:100110002A002D0030003300010100000401070116
:100120000A0100000A0B02090C0D0E080703040166
:1001300000000000000000000000000000000000BF
:10014000000000000000000000000000000012118C
:10015000100000000000000000000000000000008F
:10016000000000000000000001021020200808101C
:100170002040102040800201020108040201010217
:1001800004081020408080402010080402018004F0
:10019000020180402010080402010804020101024B
:1001A0000408102040800102040810204080000054
:1001B0002200250028002B002E003100340002010F
:1001C0000000050108010B010505050507050808E4
:1001D0000808020202020A0A0808040404040101D1
:1001E00001010101010103030303030303030407E6
:1001F00007070C0C0C0C0C0C0C0C0202020206067D
:100200000606060606060B0B0B0B0B0B0B0B6364AB
:10021000696E6F70737578585B00930674081124CB
:100220001FBECFEFD1E2DEBFCDBF00E00CBF12E0BA
:10023000A0E0B2E0E2E3FCE100E00BBF02C0079007
:100240000D92A432B107D9F723E0A4E2B2E001C0D5
:100250001D92A230B207E1F711E0CEE0D1E000E05C
:1002600005C021970109802FFE0141D7CD30D1076C
:1002700080E00807B1F7F7D50C94080EC1CEE091E5
:10028000C302F091C402309729F01092BA02109282
:10029000B90219940895CF93DF93AC01E091C102A4
:1002A000F091C2023097F1F09091BC028091BB02B4
:1002B0009817C0F090E0292F30E02617370754F444
:1002C000D901AA5DBD4FEA01C20FD31F88818C936B
:1002D0009F5FF1CF1092BC026093BB02CB01DF9114
:1002E000CF911994DF91CF910895CF92DF92EF9241
:1002F000FF920F931F93CF93DF936C017A018B01D1
:10030000C0E0D0E0CE15DF0589F0D8016D918D01F8
:10031000D601ED91FC910190F081E02DC601199577
:10032000892B11F47E0102C02196ECCFC701DF9129
:10033000CF911F910F91FF90EF90DF90CF90089594
:10034000362F90E0FC01EE5DFE4F4491FC01E85930
:10035000FE4F2491FC01E853FE4F9491992309F438
:100360006AC0442309F454C050E0FA013197E231E5
:10037000F10508F04DC08827EE58FF4F8F4FB7C6E4
:10038000809180008F7707C0809180008F7D03C0AF
:1003900080918000877F809380003AC084B58F77FA
:1003A00002C084B58F7D84BD33C08091B0008F774B
:1003B00003C08091B0008F7D8093B00029C08091F0
:1003C00090008F7707C0809190008F7D03C080914F
:1003D0009000877F809390001BC08091A0008F7752
:1003E00007C08091A0008F7D03C08091A000877F0F
:1003F0008093A0000DC0809120018F7707C080916D
:1004000020018F7D03C080912001877F8093200190
:10041000E92FF0E0EE0FFF1FE255FE4FA591B491DA
:100420008FB7F894EC91311103C020952E2301C0B1
:100430002E2B2C938FBF0895CF93DF9390E0FC0178
:10044000E859FE4F2491FC01E853FE4F8491882324
:1004500061F190E0880F991FFC01E85FFE4FC591A4
:10046000D491FC01E255FE4FA591B491611109C0F0
:100470009FB7F8948881209582238883EC912E235E
:100480000BC0623061F49FB7F8943881822F809559
:1004900083238883EC912E2B2C939FBF06C08FB7AC
:1004A000F894E8812E2B28838FBFDF91CF91089598
:1004B0003FB7F8948091B2029091B302A091B40238
:1004C000B091B50226B5A89B05C02F3F19F0019643
:1004D000A11DB11D3FBFBA2FA92F982F8827820FCA
:1004E000911DA11DB11DBC01CD0142E0660F771F1A
:1004F000881F991F4A95D1F708950F931F93CF93A3
:10050000DF93CDB7DEB729970FB6F894DEBF0FBEE5
:10051000CDBFCEDF0091F1021091F2022091F302E3
:100520003091F402DC01CB01801B910BA20BB30BC9
:100530008C329140A105B10560F3F8948091E702F7
:100540009091E8029A838983E091EB02F091EC02AA
:10055000DF011196808189879091E302E091F50295
:10056000F091F6028091F702992309F42EC0908150
:10057000982B98879081809589238F838F818C8396
:1005800088E08B8358856F8149853B812C818981E7
:100590009A81508347FD252F3A952083262F39F0E5
:1005A000441F00C000006083000000C0F2CF38E0AC
:1005B0004D9160830000019761F7F093F602E0939C
:1005C000F50249873B832C8338C09081982B98870C
:1005D0009081809589238F838F818E8388E08D839E
:1005E00058856F8149853D812E8189819A8150830B
:1005F00047FD252F00C000C0208300C000C000C000
:1006000000C000C060830000262F3A9541F0441FCF
:10061000000000C000C000C000C000C0E8CF38E04B
:100620004D9100C0608300C0019709F7F093F60276
:10063000E093F50249873D832E839A8389837894DA
:1006400037DF6093F1027093F2028093F30290938C
:10065000F40229960FB6F894DEBF0FBECDBFDF912E
:10066000CF911F910F9108954F925F926F927F9259
:100670008F929F92AF92BF92EF92FF920F931F9330
:10068000CF93DF939091F8028091FB0298130DC0F5
:100690009091F9028091FC02981307C09091FA02A0
:1006A0008091FD02981709F47BC0E12CF12C00E049
:1006B00010E0C0E0D0E08091E5029091E602C8171A
:1006C000D90708F061C02091F8028091FA0290E009
:1006D000A0E0B0E0BA2FA92F982F8827A22B209155
:1006E000F902822B2D0166247724892E9A2EAB2EB7
:1006F000BB24482D382F2091EA02222391F0622F4B
:1007000070E0649DA001659D500D749D500D1124F5
:10071000452E829E40011124492D829FC001112443
:10072000392F2091F0025091ED028091EB029091CF
:10073000EC02251303C0800F911F06C08E0D9F1D74
:10074000FC01E20FF11D10822091ED02FC01E20F8D
:10075000F11D40822091EE02FC01E20FF11D408369
:100760002091EF02FC01E20FF11D30838091EB023A
:100770009091EC02892B09F0C0DE21960D5F1F4F8E
:1007800084E0E80EF11C97CF8091F8029091F90275
:10079000A091FA028093FB029093FC02A093FD02C9
:1007A000DF91CF911F910F91FF90EF90BF90AF908D
:1007B0009F908F907F906F905F904F9008958F9251
:1007C0009F92AF92BF92CF92DF92EF92FF9270DE34
:1007D0004B015C0188EEC82E83E0D82EE12CF12C71
:1007E00067DEDC01CB0188199909AA09BB09883E9B
:1007F0009340A105B10558F021E0C21AD108E108E3
:10080000F10888EE880E83E0981EA11CB11CC1146B
:10081000D104E104F10421F7FF90EF90DF90CF9035
:10082000BF90AF909F908F90089585ED8093BC000E
:100830008091BC0084FDFCCF1092B80208954091D5
:100840006602262F30E0240F311D21323105DCF401
:100850002091B8022430C9F4FC0180E090E08617B2
:1008600058F4309166022191DC01AA5BBD4FA30FC1
:10087000B11D2C930196F3CF80916602680F6093AF
:10088000660280E0089581E0089582E00895089569
:10089000E091BC028091BB02E81730F4F0E0EA5D21
:1008A000FD4F808190E008958FEF9FEF0895909124
:1008B000BC028091BB02981750F4E92FF0E0EA5D8A
:1008C000FD4F208130E09F5F9093BC0202C02FEF6C
:1008D0003FEFC90108958091BB0290E02091BC02D6
:1008E000821B91090895CF93DF931F921F92CDB77A
:1008F000DEB7CB01642F49835A83A1DF4981842F5E
:100900005A81952F0F900F90DF91CF910895CF933B
:10091000DF931F92CDB7DEB7698361E0CE01019608
:100920008EDF81E090E00F90DF91CF910895DF920C
:10093000EF92FF920F931F93CF93DF937C01C0E060
:10094000D0E000E514E68CE0D82ECE15DF0594F457
:100950000093F8021093F902D092FA0285DE2FDF9D
:100960001092F8021092F9021093FA027DDE27DF4E
:100970002196EBCF109225021092240280E1E5EC43
:10098000F2E0DF011D928A95E9F781E090E0909313
:10099000D6028093D5029091BB028091BC02981739
:1009A000B9F0C0912402D0912502C031D10584F460
:1009B00087ED92E07CDFCB53DD4F8883809124026A
:1009C0009091250201969093250280932402E3CF13
:1009D000DF91CF911F910F91FF90EF90DF900895DD
:1009E000CF93DF93EC0188859985009709F01CD49B
:1009F0008E8187FD04C060E0DF91CF911DCDDF9136
:100A0000CF910895E5ECF2E001900020E9F73197ED
:100A1000AF01455C5240E091D702F091D8020280CC
:100A2000F381E02D65EC72E087ED92E0199478D5C2
:100A30001F920F920FB60F9211242F933F938F9313
:100A40009F93AF93BF938091AE029091AF02A0911C
:100A5000B002B091B1023091AD0223E0230F2D37E7
:100A600020F40196A11DB11D05C026E8230F0296B2
:100A7000A11DB11D2093AD028093AE029093AF02F1
:100A8000A093B002B093B1028091B2029091B302F0
:100A9000A091B402B091B5020196A11DB11D809341
:100AA000B2029093B302A093B402B093B502BF9187
:100AB000AF919F918F913F912F910F900FBE0F900B
:100AC0001F9018951F920F920FB60F9211240BB61C
:100AD0000F922F933F934F935F936F937F938F93D7
:100AE0009F93AF93BF93EF93FF938091B900887F5B
:100AF000803609F49CC068F5883209F45BC090F434
:100B0000803109F454C038F4882309F4F6C08830E1
:100B100009F44DC0F5C0883109F44CC0803209F4A5
:100B20005DC0EEC0803409F468C048F4803309F435
:100B300055C0883309F0E4C080938902D8C080355D
:100B400009F44FC0883509F45DC0883409F0D8C075
:100B5000D6C0883909F4C7C0A8F4883709F467C03B
:100B600038F4883609F463C0803709F460C0C8C01F
:100B7000883809F4B8C0803909F45FC0803809F0BA
:100B8000BFC05BC0803B09F486C038F4803A09F4EA
:100B900066C0883A09F47FC0B3C0803C09F4A7C09E
:100BA000883C09F4A4C0883B09F48AC0A9C080919C
:100BB000AC0210C09091AB028091AA02981770F518
:100BC000E091AB0281E08E0F8093AB02F0E0E6573C
:100BD000FD4F80818093BB0085EC86C080938902A5
:100BE0008EC0E091AB0281E08E0F8093AB028091CA
:100BF000BB00F0E0E657FD4F80839091AB028091FF
:100C0000AA026EC0E091AB0281E08E0F8093AB022E
:100C10008091BB00F0E0E657FD4F80838091B702E2
:100C200081116DC081E08093B60284EA61C083E0E7
:100C30008093B80210928802CFCF809188028032D0
:100C400008F051C0E091880281E08E0F8093880205
:100C50008091BB00F0E0E859FD4F8083BDCF85EC6B
:100C60008093BC001092B80280918802803230F4E8
:100C7000E0918802F0E0E859FD4F1082609188020F
:100C800070E0E091BD02F091BE0288E692E0199515
:100C90001092880235C084E08093B80210926702F7
:100CA00010926602E091BF02F091C0021995809106
:100CB0006602811105C081E08093660210924602AF
:100CC000E091670281E08E0F80936702F0E0EA5BBB
:100CD000FD4F80818093BB009091670280916602F6
:100CE000981708F479CF85E88093BC0009C085EC9B
:100CF0008093BC001092B80203C01092890295DD67
:100D0000FF91EF91BF91AF919F918F917F916F91E3
:100D10005F914F913F912F910F900BBE0F900FBE9F
:100D20000F901F901895CF93DF93CDB7DEB76597DF
:100D30000FB6F894DEBF0FBECDBF1092DA0210924C
:100D4000D90288EE93E0A0E0B0E08093DB029093BC
:100D5000DC02A093DD02B093DE028AE092E0909381
:100D6000D8028093D70281E08093E3021092E402DC
:100D70001092E6021092E5021092E8021092E70249
:100D80009FEF9093E9021092EA021092EC02109207
:100D9000EB028093ED021092EE0292E09093EF024C
:100DA0008093F0021092F1021092F2021092F3027C
:100DB0001092F4021A8218861F86188A198A1A8AD3
:100DC0008E878B871C869D87898389E690E09E832A
:100DD0008D8395D19A878987009751F029E6FC0188
:100DE00011922A95E9F783E290E09C838B8304C0FB
:100DF0001E821D821C821B8289E08F838A81882348
:100E000031F061E089E018DB60E089E099DAE1ED3A
:100E1000F1E0E491F0E0EE0FFF1FE255FE4F859107
:100E200094919C8B8B8BE1E7F1E0E491ED8B85E174
:100E3000FE013196A3EEB2E001900D928A95E1F7A2
:100E4000CE010196CDDD8FEF8093F8028093F902F9
:100E50008093FA0265960FB6F894DEBF0FBECDBF41
:100E6000DF91CF910895CF93DF93CDB7DEB766972B
:100E70000FB6F894DEBF0FBECDBF789484B5826004
:100E800084BD84B5816084BD85B5826085BD85B52E
:100E9000816085BD80916E00816080936E001092AC
:100EA0008100809181008260809381008091810027
:100EB00081608093810080918000816080938000B8
:100EC0008091B10084608093B1008091B000816016
:100ED0008093B00080919100826080939100809116
:100EE0009100816080939100809190008160809357
:100EF00090008091A10082608093A1008091A10068
:100F000081608093A1008091A00081608093A00007
:100F10008091210182608093210180912101816073
:100F20008093210180912001816080932001809134
:100F30007A00846080937A0080917A008260809346
:100F40007A0080917A00816080937A0080917A00A3
:100F5000806880937A001092C10084E28093BA0086
:100F60008FE391E09093C0028093BF028BE491E005
:100F70009093BE028093BD021092BC021092BB02FD
:100F80001092BA021092B9021092B80281E08093D6
:100F9000B7021092B60261E084E1D2D961E085E146
:100FA000CFD98091B9008E7F8093B9008091B9002C
:100FB0008D7F8093B90088E48093B80085E48093A6
:100FC000BC0087E994E09093C2028093C10282E062
:100FD00095E09093C4028093C3028091E90287FD5B
:100FE00006C061E029DA60E08091E902A9D981E0D8
:100FF0008093E4028091EB029091EC02892B09F03E
:101000007CDA1092F8028FEF8093F9021092FA02C4
:101010002BDB9E012F5F3F4F79011E0131E1230E33
:10102000311C2E0183E1480E511C6E0195E1C90E61
:10103000D11C86E1A82E82E0B82E90E0892E90E0A7
:10104000992E8091D5029091D602892B09F442C045
:10105000E5ECF2E001900020E9F731978F01055CA3
:101060001240B8016F5F7F4F80E090E075D13C0186
:101070000097B9F1FC01108265EC72E05ED200319C
:10108000110508F14FE050E0B301C7015DD2188AA5
:101090003F922F925F924F92DF92CF92BF92AF9288
:1010A000FF92EF9260D20FB6F894DEBF0FBECDBFB5
:1010B000039749F489899B892D892093F80290939D
:1010C000F9028093FA02C301AFD0CEDA1092D602B1
:1010D0001092D5028114910409F4B3CF0E9400004C
:1010E000B0CF80E090E0F0CF83EE92E079CCEE0FCD
:1010F000FF1F881F8BBF0790F691E02D1994CF93A7
:10110000DF938230910510F482E090E0E0910003DB
:10111000F091010320E030E0C0E0D0E0309711F121
:101120004081518148175907C0F04817590761F4A9
:1011300082819381209719F09B838A832BC090939F
:1011400001038093000326C02115310519F04217D1
:10115000530718F49A01BE01DF01EF010280F38109
:10116000E02DDCCF2115310509F1281B390B243086
:10117000310590F412968D919C911397611571052C
:1011800021F0FB019383828304C090930103809339
:101190000003FD01329644C0FD01E20FF31F81936D
:1011A0009193225031092D933C933AC02091FE0235
:1011B0003091FF02232B41F420910202309103026F
:1011C0003093FF022093FE02209100023091010231
:1011D0002115310541F42DB73EB7409104025091DD
:1011E0000502241B350BE091FE02F091FF02E2178D
:1011F000F307A0F42E1B3F0B2817390778F0AC013A
:101200004E5F5F4F2417350748F04E0F5F1F509316
:10121000FF024093FE028193919302C0E0E0F0E070
:10122000CF01DF91CF9108950F931F93CF93DF9359
:10123000009709F48CC0FC0132971382128200914E
:101240000003109101030115110581F42081318102
:10125000820F931F2091FE023091FF022817390759
:1012600079F5F093FF02E093FE0271C0D80140E0EF
:1012700050E0AE17BF0750F412962D913C91139792
:10128000AD012115310509F1D901F3CF9D01DA0135
:101290003383228360817181860F971F82179307A2
:1012A00069F4EC0128813981260F371F2E5F3F4FEB
:1012B000318320838A819B8193838283452B29F408
:1012C000F0930103E093000342C01396FC93EE9366
:1012D0001297ED01499159919E01240F351FE21794
:1012E000F30771F480819181840F951F0296119606
:1012F0009C938E938281938113969C938E931297E5
:10130000E0E0F0E0D80112968D919C911397009740
:1013100019F0F8018C01F6CF8D919C9198012E5F08
:101320003F4F820F931F2091FE023091FF0228173A
:10133000390769F4309729F41092010310920003E1
:1013400002C0138212821093FF020093FE02DF910B
:10135000CF911F910F9108956F927F928F929F92DC
:10136000AF92BF92CF92DF92EF92FF920F931F93B3
:10137000CF93DF93EC01009781F4CB01DF91CF9104
:101380001F910F91FF90EF90DF90CF90BF90AF90A3
:101390009F908F907F906F90B2CEFC01E60FF71F69
:1013A0009C0122503109E217F30708F4A8C0D901C3
:1013B0000D911C91119706171707A8F0053011051C
:1013C00008F49BC0C80104978617970708F495C0D6
:1013D00002501109061B170B019311936D937C9317
:1013E000CF0122DF8AC05B01A01AB10A4C01800E36
:1013F000911EA0910003B091010340E050E0E12C68
:10140000F12C109709F44AC0A815B905D1F56D90D3
:101410007C901197630182E0C80ED11CCA14DB04D2
:1014200080F1A3014A195B096A0182E0C80ED11C50
:101430001296BC9012971396AC91B5E0CB16D104DE
:1014400040F0B282A38351834083D9016D937C9392
:101450000AC00E5F1F4FC301800F911FF9019183D6
:101460008083EB2DFA2FE114F10431F0D7011396AC
:10147000FC93EE93129741C0F0930103E0930003B5
:101480003CC08D919C9111974817590708F4AC0105
:101490007D0112960D90BC91A02DB3CF8091FE02DC
:1014A0009091FF0288159905E1F446175707C8F493
:1014B0008091000290910102009741F48DB79EB790
:1014C0004091040250910502841B950BE817F9071F
:1014D000B0F4F093FF02E093FE02F90171836083A0
:1014E0000CC0CB010CDE7C01009749F0A801BE01C5
:1014F0001BD0CE0199DEC70104C0CE0102C080E03E
:1015000090E0DF91CF911F910F91FF90EF90DF90CE
:10151000CF90BF90AF909F908F907F906F900895E5
:1015200081E090E0F89474C3FB01DC0102C00190FB
:101530000D9241505040D8F70895FB01DC01019015
:101540000D920020E1F70895FB01DC01415050406D
:1015500048F001900D920020C9F701C01D92415042
:101560005040E0F70895CF93DF93CDB7DEB72E97C5
:101570000FB6F894DEBF0FBECDBF85E08C838C899B
:101580009D899A838983AE01485E5F4F6E897F890A
:10159000CE010196B0D12E960FB6F894DEBF0FBEE5
:1015A000CDBFDF91CF91089520FD09C0FC0123FD3F
:1015B00005C022FF02C07383628351834083089574
:1015C00044FD10C046FD10C0DB01FC01AA0FBB1F8B
:1015D000EE1FFF1F1094D1F76A0F7B1F8E1F9F1FF6
:1015E00031E003C033E001C034E0660F771F881F8D
:1015F000991F3150D1F7620F711D811D911D089502
:101600000F931F93CF93DF938C01C8019FD2EC01FE
:1016100097FD06C0F2D2892BC1F7B801CE01D4D212
:10162000CE01DF91CF911F910F9108958F929F92DC
:10163000AF92BF92CF92DF92EF92FF920F931F93E0
:10164000CF93DF931F92CDB7DEB78C01C62E7A0100
:1016500029837CD2AC01552729814B32510521F0D9
:101660004D32510561F42068CA94C11002C080E077
:101670006FC0C80129836AD2298197FDF8CF322F24
:101680003D7FD32E322F307339F5803329F5BB24BB
:10169000BA94BC0C09F449C0C801298357D22981E6
:1016A00097FD43C0382F3F7D383561F48D2D82641E
:1016B000D82ECA94CA94CC20C1F1C80147D297FF52
:1016C0000BC033C026FF04C02D2D2260D22E03C0D4
:1016D0003D2D3261D32ECB2C812C912C540120ED49
:1016E000280F283078F0D4FE03C0B8016DD21AC09C
:1016F0002A3040F0D6FEF9CF2F7D3FEE320F363044
:10170000A0F727504D2DC501B4015ADF4B015C01F4
:101710008D2D8260D82ECA94CC2051F0C80116D2EB
:1017200097FFDDCFD1FC04C0A2CF812C912C5401B6
:10173000D7FE08C0B094A09490948094811C911C12
:10174000A11CB11C2D2DB501A401C7012DDF81E025
:101750000F90DF91CF911F910F91FF90EF90DF904D
:10176000CF90BF90AF909F908F9008956F927F928F
:101770008F929F92AF92BF92CF92DF92EF92FF92A1
:101780000F931F93CF93DF93CDB7DEB7A1970FB61B
:10179000F894DEBF0FBECDBF5C017A01CE01019689
:1017A0006C0180E2F60111928A95E9F7F5018380D8
:1017B00040E050E0912C712C70E0A1E0B0E0F90124
:1017C00083FC859183FE81918F01982F9F01811168
:1017D00003C080E090E07AC08E3519F441155105C0
:1017E00049F1E72FF0E0E417F5073CF48D3559F1A6
:1017F0008D3219F4772001F103C0711001C0982EC9
:10180000892F8695869586958601080F111D892F4B
:1018100087703D0101C0660C8A95EAF7F801808166
:1018200086298083991559F0991510F49F5FE8CFA8
:101830009150E6CF71E004C07724739401C0712CFD
:101840004F5F5F4FBCCF772019F08E8180628E830F
:10185000711103C09924939416C0F6019E012F5D67
:101860003F4F808180958193E217F307D1F7F2CF44
:10187000E114F10429F0F7018083C70101967C018E
:101880006150912CE9F0C50169A360D169A197FD70
:1018900015C0282F269526952695F601E20FF11DF5
:1018A000208130E0AC014770552702C0359527955F
:1018B0004A95E2F720FDDCCFB50186D1911089CFA2
:1018C000E114F10411F0F7011082C801A1960FB6DE
:1018D000F894DEBF0FBECDBFDF91CF911F910F9166
:1018E000FF90EF90DF90CF90BF90AF909F908F9040
:1018F0007F906F9008954F925F927F928F929F9208
:10190000AF92BF92CF92DF92EF92FF920F931F930D
:10191000CF93DF931F92CDB7DEB76C012B015A0135
:10192000FC0117821682712CF601F380F201F3FCA0
:101930008591F3FE8191382F2F01882309F4E5C0AA
:1019400090E039835AD13981892B19F0C60158DECC
:10195000EBCF353241F4F201F3FC3591F3FE3191D6
:101960002F01353259F4C6013983F0D0398197FD02
:10197000CAC03817C9F2B60127D1C7C03A3239F404
:10198000F3FC3591F3FE31912F0151E001C050E09D
:10199000420110E020ED230F2A3088F45260612FBD
:1019A00070E080E090E040E259830ADE162FF401F7
:1019B000F3FC3591F3FE31914F015981EBCF052FA7
:1019C000232F240151FF03C0111102C09EC01FEF3D
:1019D000383619F03C3659F011C0F401F3FC25916A
:1019E000F3FE21912F01283649F4052F0860046089
:1019F000F201F3FC2591F3FE21912F01222309F43A
:101A000084C0622F70E08EE092E0298394D0298117
:101A1000892B09F47AC000FD07C0F501E080F18050
:101A2000C50102965C0102C0E12CF12C2E3649F46E
:101A3000F6014681578160E070E0202FC701B4DDD8
:101A400073CF233689F401FF11E0C6017FD097FDE3
:101A50005AC0E114F10429F0F7018083C70101960F
:101A60007C01115091F74BC02B3551F49201A70125
:101A7000612FC6017BDE2C01892B09F040C03AC0E2
:101A8000C6012983BDDD298197FD3DC02F3641F177
:101A900028F4243619F1293631F124C0233769F0AE
:101AA0002537E1F01FC0E114F10429F0F70180822D
:101AB000C70101967C01115059F0C60147D04C0175
:101AC00097FD06C09AD0892B71F3B601C4017CD072
:101AD000E114F104A1F0F701108211C0006203C00B
:101AE000006101C00064202FA701612FC6019EDDA7
:101AF000811105C0F6018381807329F406C000FDC1
:101B000013CF739411CF772019F0872D90E002C086
:101B10008FEF9FEF0F90DF91CF911F910F91FF906B
:101B2000EF90DF90CF90BF90AF909F908F907F907D
:101B30005F904F900895FC010590061621F000205B
:101B4000D9F7C00108953197CF010895CF93DF935E
:101B5000EC012B8120FF33C026FF0AC02F7B2B8393
:101B60008E819F8101969F838E838A8190E029C018
:101B700022FF0FC0E881F9818081082E000C990BAB
:101B8000009719F420622B831AC03196F983E883F9
:101B90000EC0EA85FB85199597FF09C02B81019638
:101BA00011F080E201C080E1822B8B8308C02E817E
:101BB0003F812F5F3F4F3F832E83992702C08FEFD6
:101BC0009FEFDF91CF910895FB01238120FF12C089
:101BD00026FD10C08F3F3FEF930761F082832F7D7A
:101BE000206423832681378121503109378326835E
:101BF000992708958FEF9FEF0895911106C08032C5
:101C000019F089508550D0F70895992788270895AD
:101C100011E0CEE0D1E000E005C0802FFE0167DAE0
:101C20002196011DCF30D10780E00807B1F7F89465
:021C3000FFCFE4
:101C320000000203800000000000870473046B04AC
:101C42005704480447044C45443A25642C25642C27
:041C52002564000005
:00000001FF
