:1000000007C1000033C1000031C100002FC1000052
:100010002DC100002BC1000029C1000027C1000034
:1000200025C1000023C1000021C100001FC1000044
:100030001DC100001BC1000019C1000017C1000054
:1000400015C1000013C1000011C100000FC1000064
:100050000DC100000BC1000009C100006AC400000E
:1000600005C1000030C4000005C40000FFC000004E
:10007000FDC00000FBC00000F9C00000F7C0000098
:10008000F5C00000F3C00000F1C00000EFC00000A8
:10009000EDC00000EBC00000E9C0000094C4000007
:1000A000E5C00000E3C00000E1C00000DFC00000C8
:1000B000DDC00000DBC00000D9C00000D7C00000D8
:1000C000D5C00000D3C00000D1C00000CFC00000E8
:1000D000CDC00000CBC00000C9C00000C7C00000F8
:1000E000C5C00000DD02E002CF02D302D702170331
:1000F000E402E802EE02F202F602FC02000304034C
:1001000017030A030E03120300000A0B02090C0D69
:100110000E080703040100000000000000000000BA
:1001200000000000000000000000000000000000CF
:10013000000000001211100000000000000000008C
:1001400000000000000000000000000000000000AF
:100150002200250028002B002E003100340002016F
:100160000000050108010B01000021002400270008
:100170002A002D00300033000101000004010701B6
:100180000A0105050505070508080808020202021C
:100190000A0A080804040404010101010101010123
:1001A0000303030303030303040707070C0C0C0CEE
:1001B0000C0C0C0C020202020606060606060606D7
:1001C0000B0B0B0B0B0B0B0B010210202008081064
:1001D00020401020408002010201080402010102B7
:1001E0000408102040808040201008040201800490
:1001F00002018040201008040201080402010102EB
:1002000004081020408001020408102040801406D9
:1002100011241FBECFEFD1E2DEBFCDBF00E00CBF87
:1002200012E0A0E0B2E0E8E9FEE000E00BBF02C0AF
:1002300007900D92A433B107D9F723E0A4E3B2E00D
:1002400001C01D92AE37B207E1F711E0C8E0D1E07E
:1002500000E005C021970109802FFE010FD6C730AD
:10026000D10780E00807B1F718D514C6C9CE90E0D1
:10027000FC01E853FE4F2491FC01EE57FE4F8491A0
:10028000882399F090E0880F991FFC01E859FE4FF0
:10029000A591B491FC01E25BFE4F859194918FB7DB
:1002A000F894EC91E22BEC938FBF08950895E091C0
:1002B000D302F091D402309729F01092CA02109222
:1002C000C90219940895CF93DF93AC01E091D10254
:1002D000F091D2023097F1F09091CC028091CB0254
:1002E0009817C0F090E0292F30E02617370754F414
:1002F000D901AA5CBD4FEA01C20FD31F88818C933C
:100300009F5FF1CF1092CC026093CB02CB01DF91C3
:10031000CF911994DF91CF910895CF92DF92EF9210
:10032000FF920F931F93CF93DF936C017A018B01A0
:10033000C0E0D0E0CE15DF0589F0D8016D918D01C8
:10034000D601ED91FC910190F081E02DC601199547
:10035000892B11F47E0102C02196ECCFC701DF91F9
:10036000CF911F910F91FF90EF90DF90CF90089564
:10037000FC01918D828D981761F0828DDF01A80FAD
:10038000B11D5D968C91928D9F5F9F73928F90E0CF
:1003900008958FEF9FEF0895FC01918D828D98173E
:1003A00031F0828DE80FF11D858D90E008958FEF7B
:1003B0009FEF0895FC01918D228D892F90E0805C44
:1003C0009F4F821B91098F739927089585ED92E0C5
:1003D000F1DF21E0892B09F420E0822F0895FC0150
:1003E000848DDF01A80FB11DA35ABF4F2C91848DBE
:1003F00090E001968F739927848FA689B7892C93F3
:10040000A089B1898C9180648C93938D848D98138D
:1004100006C00288F389E02D80818F7D8083089556
:10042000EF92FF920F931F93CF93DF93EC0181E044
:10043000888F9B8D8C8D981305C0E889F989808100
:1004400085FD23C0F62E0B8D10E00F5F1F4F0F733D
:100450001127E02E8C8DE8120BC00FB607FCFACFE7
:10046000E889F989808185FFF5CFCE01B8DFF2CF29
:100470008B8DFE01E80FF11DE35AFF4FF0820B8FC9
:10048000EA89FB898081806207C0EE89FF896083E9
:10049000E889F98980818064808381E090E0DF9140
:1004A000CF911F910F91FF90EF900895CF93DF931D
:1004B000EC01888D8823C1F0EA89FB89808185FD64
:1004C00005C0A889B9898C9186FD0EC00FB607FCBE
:1004D000F5CF808185FFF2CFA889B9898C9185FFFE
:1004E000EDCFCE017CDFE8CFDF91CF91089580E0A2
:1004F00090E0892B19F06ADF811125C080E090E03F
:10050000892B41F080E090E0892B21F00E940000CF
:1005100081111CC080E090E0892B41F080E090E0E8
:10052000892B21F00E940000811113C080E090E02F
:10053000892BA1F080E090E0892B81F00E940000DF
:1005400081110AC008950E940000D8CF0E940000C7
:10055000E1CF0E940000EACF0C9400000895362FEE
:1005600090E0FC01E85FFE4F4491FC01E853FE4F30
:100570002491FC01EE57FE4F9491992309F46AC02F
:10058000442309F454C050E0FA013197E231F105F7
:1005900008F04DC08827EE58FF4F8F4F6FC48091F1
:1005A00080008F7707C0809180008F7D03C080918D
:1005B0008000877F809380003AC084B58F7702C027
:1005C00084B58F7D84BD33C08091B0008F7703C028
:1005D0008091B0008F7D8093B00029C08091900001
:1005E0008F7707C0809190008F7D03C0809190002D
:1005F000877F809390001BC08091A0008F7707C0F9
:100600008091A0008F7D03C08091A000877F8093A0
:10061000A0000DC0809120018F7707C0809120013C
:100620008F7D03C080912001877F80932001E92F77
:10063000F0E0EE0FFF1FE25BFE4FA591B4918FB784
:10064000F894EC91311103C020952E2301C02E2B7C
:100650002C938FBF08953FB7F8948091C202909178
:10066000C302A091C402B091C50226B5A89B05C0E3
:100670002F3F19F00196A11DB11D3FBFBA2FA92F21
:10068000982F8827820F911DA11DB11DBC01CD019E
:1006900042E0660F771F881F991F4A95D1F708958A
:1006A0008F929F92AF92BF92CF92DF92EF92FF9282
:1006B000D2DF4B015C0188EEC82E83E0D82EE12CFE
:1006C000F12CC9DFDC01CB0188199909AA09BB0902
:1006D000883E9340A105B10558F021E0C21AD10827
:1006E000E108F10888EE880E83E0981EA11CB11C79
:1006F000C114D104E104F10421F7FF90EF90DF90E1
:10070000CF90BF90AF909F908F90089585ED80938C
:10071000BC008091BC0084FDFCCF1092C8020895FB
:1007200040917602262F30E0240F311D2132310511
:10073000DCF42091C8022430C9F4FC0180E090E090
:10074000861758F4309176022191DC01AA5ABD4FE8
:10075000A30FB11D2C930196F3CF80917602680F01
:100760006093760280E0089581E0089582E0089524
:100770000895E091CC028091CB02E81730F4F0E0CC
:10078000EA5CFD4F808190E008958FEF9FEF089520
:100790009091CC028091CB02981750F4E92FF0E0B1
:1007A000EA5CFD4F208130E09F5F9093CC0202C055
:1007B0002FEF3FEFC90108958091CB0290E0209187
:1007C000CC02821B91090895CF93DF931F921F9251
:1007D000CDB7DEB7CB01642F49835A83A1DF4981AE
:1007E000842F5A81952F0F900F90DF91CF9108950C
:1007F000CF93DF931F92CDB7DEB7698361E0CE015F
:1008000001968EDF81E090E00F90DF91CF91089507
:10081000BC01009791F0FC0101900020E9F73197AD
:10082000AF01481B590BE0917203F09173030280F2
:10083000F381E02D82E793E0199480E090E0089541
:100840008091340290913502029721F480E292E087
:10085000DFDF26DF8091340290913502019721F489
:100860008AE292E0D5DF1CDF10923502109234024A
:1008700008950CD31F920F920FB60F9211240BB64E
:100880000F922F933F934F935F936F937F938F9329
:100890009F93AF93BF93EF93FF9385ED92E09FDD1E
:1008A000FF91EF91BF91AF919F918F917F916F9148
:1008B0005F914F913F912F910F900BBE0F900FBE04
:1008C0000F901F9018951F920F920FB60F92112440
:1008D0000BB60F922F938F939F93EF93FF93E0911B
:1008E000E502F091E6028081E091EB02F091EC02EA
:1008F00082FD12C090818091EE028F5F8F732091F4
:10090000EF02821751F0E091EE02F0E0EB52FD4F62
:10091000958F8093EE0201C08081FF91EF919F91AE
:100920008F912F910F900BBE0F900FBE0F901F90C5
:1009300018951F920F920FB60F9211242F933F9389
:100940008F939F93AF93BF938091BE029091BF020C
:10095000A091C002B091C1023091BD0223E0230FEB
:100960002D3720F40196A11DB11D05C026E8230FE7
:100970000296A11DB11D2093BD028093BE029093EB
:10098000BF02A093C002B093C1028091C2029091B5
:10099000C302A091C402B091C5020196A11DB11D70
:1009A0008093C2029093C302A093C402B093C50285
:1009B000BF91AF919F918F913F912F910F900FBE5B
:1009C0000F901F9018951F920F920FB60F9211243F
:1009D0000BB60F922F933F934F935F936F937F9339
:1009E0008F939F93AF93BF93EF93FF938091B90041
:1009F000887F803609F49CC068F5883209F45BC0B2
:100A000090F4803109F454C038F4882309F4F6C016
:100A1000883009F44DC0F5C0883109F44CC08032EB
:100A200009F45DC0EEC0803409F468C048F4803336
:100A300009F455C0883309F0E4C080939902D8C006
:100A4000803509F44FC0883509F45DC0883409F059
:100A5000D8C0D6C0883909F4C7C0A8F4883709F4CB
:100A600067C038F4883609F463C0803709F460C081
:100A7000C8C0883809F4B8C0803909F45FC080382C
:100A800009F0BFC05BC0803B09F486C038F4803AEF
:100A900009F466C0883A09F47FC0B3C0803C09F409
:100AA000A7C0883C09F4A4C0883B09F48AC0A9C047
:100AB0008091BC0210C09091BB028091BA0298173D
:100AC00070F5E091BB0281E08E0F8093BB02F0E0F5
:100AD000E656FD4F80818093BB0085EC86C08093F5
:100AE00099028EC0E091BB0281E08E0F8093BB0221
:100AF0008091BB00F0E0E656FD4F80839091BB02F1
:100B00008091BA026EC0E091BB0281E08E0F8093AB
:100B1000BB028091BB00F0E0E656FD4F80838091E0
:100B2000C70281116DC081E08093C60284EA61C072
:100B300083E08093C80210929802CFCF80919802F0
:100B4000803208F051C0E091980281E08E0F8093CE
:100B500098028091BB00F0E0E858FD4F8083BDCF44
:100B600085EC8093BC001092C8028091980280327C
:100B700030F4E0919802F0E0E858FD4F1082609167
:100B8000980270E0E091CD02F091CE0288E792E009
:100B900019951092980235C084E08093C802109293
:100BA000770210927602E091CF02F091D00219956F
:100BB00080917602811105C081E0809376021092C7
:100BC0005602E091770281E08E0F80937702F0E089
:100BD000EA5AFD4F80818093BB009091770280910B
:100BE0007602981708F479CF85E88093BC0009C095
:100BF00085EC8093BC001092C80203C01092990249
:100C000085DDFF91EF91BF91AF919F918F917F9182
:100C10006F915F914F913F912F910F900BBE0F906D
:100C20000FBE0F901F901895E5EDF2E0138212822F
:100C300088EE93E0A0E0B0E084839583A683B78339
:100C400024E032E03183208325EC30E035872487AF
:100C500024EC30E03787268720EC30E0318B208B86
:100C600021EC30E0338B228B22EC30E0358B248B6F
:100C700026EC30E0378B268B118E128E138E148E5D
:100C8000E2E7F3E01382128284839583A683B7831D
:100C900084E192E0918380830895789484B58260A2
:100CA00084BD84B5816084BD85B5826085BD85B510
:100CB000816085BD80916E00816080936E0010928E
:100CC0008100809181008260809381008091810009
:100CD000816080938100809180008160809380009A
:100CE0008091B10084608093B1008091B0008160F8
:100CF0008093B000809191008260809391008091F8
:100D00009100816080939100809190008160809338
:100D100090008091A10082608093A1008091A10049
:100D200081608093A1008091A00081608093A000E9
:100D30008091210182608093210180912101816055
:100D40008093210180912001816080932001809116
:100D50007A00846080937A0080917A008260809328
:100D60007A0080917A00816080937A0080917A0085
:100D7000806880937A001092C10087E378DA86E376
:100D800076DAE091E502F091E60282E08083E0917C
:100D9000E102F091E2021082E091E302F091E402BC
:100DA0008FEC80831092ED02E091E902F091EA026B
:100DB00086E08083E091E702F091E8028081806123
:100DC0008083E091E702F091E8028081886080836F
:100DD000E091E702F091E802808180688083E091F1
:100DE000E702F091E80280818F7D808384E2809326
:100DF000BA0087E591E09093D0028093CF0283E61A
:100E000091E09093CE028093CD021092CC0210928A
:100E1000CB021092CA021092C9021092C80281E05D
:100E20008093C7021092C60261E084E198DB61E022
:100E300085E195DB8091B9008E7F8093B900809128
:100E4000B9008D7F8093B90088E48093B80085E471
:100E50008093BC0086E591E09093D2028093D1020A
:100E600080E294E09093D4028093D30260E087E321
:100E700076DB60E086E373DB3ADBFECFEE0FFF1F2D
:100E8000881F8BBF0790F691E02D199481E090E0C8
:080E9000F89400C0F894FFCFB4
:100E98000000000010028D01DA01B801CC015602F1
:100EA80000000000F803E403DC03C803B903B80337
:100EB80048656C6C6F20666F6F0048656C6C6F20BE
:040EC80062617200F1
:00000001FF
