:100000000EC100003BC1000039C1000037C1000033
:1000100035C1000033C1000031C100002FC1000014
:100020002DC100002BC1000029C1000027C1000024
:1000300025C1000023C1000021C100001FC1000034
:100040001DC100001BC1000019C1000017C1000044
:1000500015C1000013C1000011C10000A9C30000B8
:100060000DC100000BC1000009C1000007C1000064
:1000700005C1000003C1000001C10000FFC0000075
:10008000FDC00000FBC00000F9C00000F7C0000088
:10009000F5C00000F3C00000F1C00000D3C30000B1
:1000A000EDC00000EBC00000E9C00000E7C00000A8
:1000B000E5C00000E3C00000E1C00000DFC00000B8
:1000C000DDC00000DBC00000D9C00000D7C00000C8
:1000D000D5C00000D3C00000D1C00000CFC00000D8
:1000E000CDC00000CE01D101C001C401C801080289
:1000F000D501D901DF01E301E701ED01F101F501CE
:100100000802FB01FF010302000021002400270078
:100110002A002D0030003300010100000401070116
:100120000A0100000A0B02090C0D0E080703040166
:1001300000000000000000000000000000000000BF
:10014000000000000000000000000000000012118C
:10015000100000000000000000000000000000008F
:10016000000000000000000001021020200808101C
:100170002040102040800201020108040201010217
:1001800004081020408080402010080402018004F0
:10019000020180402010080402010804020101024B
:1001A0000408102040800102040810204080000054
:1001B0002200250028002B002E003100340002010F
:1001C0000000050108010B010505050507050808E4
:1001D0000808020202020A0A0808040404040101D1
:1001E00001010101010103030303030303030407E6
:1001F00007070C0C0C0C0C0C0C0C0202020206067D
:100200000606060606060B0B0B0B0B0B0B0B6364AB
:10021000696E6F70737578585B005305AA061124D8
:100220001FBECFEFD1E2DEBFCDBF00E00CBF12E0BA
:10023000A0E0B2E0EEE9F8E100E00BBF02C00790F9
:100240000D92A432B107D9F723E0A4E2B2E001C0D5
:100250001D92A030B207E1F711E0CEE0D1E000E05E
:1002600005C021970109802FFE0177D5CD30D10738
:1002700080E00807B1F7B7D40C943E0CC1CEE091F2
:10028000D302F091D402309729F01092CA02109252
:10029000C90219940895CF93DF93AC01E091D10284
:1002A000F091D2023097F1F09091CC028091CB0284
:1002B0009817C0F090E0292F30E02617370754F444
:1002C000D901AA5CBD4FEA01C20FD31F88818C936C
:1002D0009F5FF1CF1092CC026093CB02CB01DF91F4
:1002E000CF911994DF91CF910895CF92DF92EF9241
:1002F000FF920F931F93CF93DF936C017A018B01D1
:10030000C0E0D0E0CE15DF0589F0D8016D918D01F8
:10031000D601ED91FC910190F081E02DC601199577
:10032000892B11F47E0102C02196ECCFC701DF9129
:10033000CF911F910F91FF90EF90DF90CF90089594
:10034000362F90E0FC01EE5DFE4F4491FC01E85930
:10035000FE4F2491FC01E853FE4F9491992309F438
:100360006AC0442309F454C050E0FA013197E231E5
:10037000F10508F04DC08827EE58FF4F8F4FEDC4B0
:10038000809180008F7707C0809180008F7D03C0AF
:1003900080918000877F809380003AC084B58F77FA
:1003A00002C084B58F7D84BD33C08091B0008F774B
:1003B00003C08091B0008F7D8093B00029C08091F0
:1003C00090008F7707C0809190008F7D03C080914F
:1003D0009000877F809390001BC08091A0008F7752
:1003E00007C08091A0008F7D03C08091A000877F0F
:1003F0008093A0000DC0809120018F7707C080916D
:1004000020018F7D03C080912001877F8093200190
:10041000E92FF0E0EE0FFF1FE255FE4FA591B491DA
:100420008FB7F894EC91311103C020952E2301C0B1
:100430002E2B2C938FBF0895CF93DF9390E0FC0178
:10044000E859FE4F2491FC01E853FE4F8491882324
:1004500061F190E0880F991FFC01E85FFE4FC591A4
:10046000D491FC01E255FE4FA591B491611109C0F0
:100470009FB7F8948881209582238883EC912E235E
:100480000BC0623061F49FB7F8943881822F809559
:1004900083238883EC912E2B2C939FBF06C08FB7AC
:1004A000F894E8812E2B28838FBFDF91CF91089598
:1004B00085ED8093BC008091BC0084FDFCCF109240
:1004C000C802089540917602262F30E0240F311D96
:1004D00021323105DCF42091C8022430C9F4FC013A
:1004E00080E090E0861758F4309176022191DC018B
:1004F000AA5ABD4FA30FB11D2C930196F3CF809143
:100500007602680F6093760280E0089581E0089596
:1005100082E008950895E091CC028091CB02E81723
:1005200030F4F0E0EA5CFD4F808190E008958FEFB9
:100530009FEF08959091CC028091CB02981750F4D0
:10054000E92FF0E0EA5CFD4F208130E09F5F90935F
:10055000CC0202C02FEF3FEFC90108958091CB027A
:1005600090E02091CC02821B91090895CF93DF93F4
:100570001F921F92CDB7DEB7CB01642F49835A83F8
:10058000A1DF4981842F5A81952F0F900F90DF9121
:10059000CF910895CF93DF931F92CDB7DEB76983D4
:1005A00061E0CE0101968EDF81E090E00F90DF9157
:1005B000CF910895CF93DF93EC01888599850097BB
:1005C00009F068D48E8187FD04C060E0DF91CF918F
:1005D00033CFDF91CF910895D9D5EF92FF920F934A
:1005E0001F93CF93DF93EC017B018A01888199816E
:1005F000009729F02A813B8124173507E8F4B801D8
:100600006F5F7F4FDFD4009759F0998388831B83F6
:100610000A832C813D81232B79F4FC0110820CC0CC
:1006200088819981009709F035D4198218821D823A
:100630001C821B821A8206C01D830C83B70188812D
:100640009981B1D5CE01DF91CF911F910F91FF908C
:10065000EF900895E6E2F2E001900020E9F731978B
:10066000AF0146525240E091D502F091D60202808D
:10067000F381E02D66E272E085ED92E019940F932C
:100680001F93CF93DF93CDB7DEB7A2970FB6F89441
:10069000DEBF0FBECDBF9091CB028091CC029817E8
:1006A000F9F000912402109125020031110574F433
:1006B00085ED92E03FDFF801EA5DFD4F80830F5F3B
:1006C0001F4F1093250200932402E5CF10922502BC
:1006D0001092240285ED92E02DDF80932602DBCF7D
:1006E0001092250210922402188E1F8A1A8E198EDB
:1006F0001C8E1B8EE6E2F2E001900020E9F73197B4
:10070000AF014652524066E272E0CE01479665DF85
:100710001A8A198A1C8A1B8A1E8A1D8A6F89788DFB
:100720006115710529F04B8D5C8DCE01419655DF29
:100730008D899E89409758F169897A894FE050E008
:100740008E010F5F1F4FC80135D5188ACE014D9617
:100750009F938F9302969F938F9302969F938F936D
:1007600086E192E09F938F931F930F9332D50FB63C
:10077000F894DEBF0FBECDBF039749F48D8D9F8DDA
:1007800029A12093F6029093F7028093F8028989B9
:100790009A8980D38F89988D7DD3A2960FB6F894CD
:1007A000DEBF0FBECDBFDF91CF911F910F91089596
:1007B0001F920F920FB60F9211242F933F938F9396
:1007C0009F93AF93BF938091C2029091C302A09177
:1007D000C402B091C5023091C10223E0230F2D372E
:1007E00020F40196A11DB11D05C026E8230F029635
:1007F000A11DB11D2093C1028093C2029093C30238
:10080000A093C402B093C5028091BD029091BE0234
:10081000A091BF02B091C0020196A11DB11D8093AD
:10082000BD029093BE02A093BF02B093C002BF91DD
:10083000AF919F918F913F912F910F900FBE0F908D
:100840001F9018951F920F920FB60F9211240BB69E
:100850000F922F933F934F935F936F937F938F9359
:100860009F93AF93BF93EF93FF938091B900887FDD
:10087000803609F49CC068F5883209F45BC090F4B6
:10088000803109F454C038F4882309F4F6C0883064
:1008900009F44DC0F5C0883109F44CC0803209F428
:1008A0005DC0EEC0803409F468C048F4803309F4B8
:1008B00055C0883309F0E4C080939902D8C08035D0
:1008C00009F44FC0883509F45DC0883409F0D8C0F8
:1008D000D6C0883909F4C7C0A8F4883709F467C0BE
:1008E00038F4883609F463C0803709F460C0C8C0A2
:1008F000883809F4B8C0803909F45FC0803809F03D
:10090000BFC05BC0803B09F486C038F4803A09F46C
:1009100066C0883A09F47FC0B3C0803C09F4A7C020
:10092000883C09F4A4C0883B09F48AC0A9C080911E
:10093000BC0210C09091BB028091BA02981770F56A
:10094000E091BB0281E08E0F8093BB02F0E0E6569F
:10095000FD4F80818093BB0085EC86C08093990217
:100960008EC0E091BB0281E08E0F8093BB0280912C
:10097000BB00F0E0E656FD4F80839091BB02809172
:10098000BA026EC0E091BB0281E08E0F8093BB0281
:100990008091BB00F0E0E656FD4F80838091C70256
:1009A00081116DC081E08093C60284EA61C083E05A
:1009B0008093C80210929802CFCF80919802803223
:1009C00008F051C0E091980281E08E0F8093980268
:1009D0008091BB00F0E0E858FD4F8083BDCF85ECEF
:1009E0008093BC001092C80280919802803230F44B
:1009F000E0919802F0E0E858FD4F10826091980273
:100A000070E0E091CD02F091CE0288E792E0199576
:100A10001092980235C084E08093C8021092770249
:100A200010927602E091CF02F091D0021995809158
:100A30007602811105C081E0809376021092560201
:100A4000E091770281E08E0F80937702F0E0EA5A1E
:100A5000FD4F80818093BB00909177028091760258
:100A6000981708F479CF85E88093BC0009C085EC1D
:100A70008093BC001092C80203C01092990218DD46
:100A8000FF91EF91BF91AF919F918F917F916F9166
:100A90005F914F913F912F910F900BBE0F900FBE22
:100AA0000F901F901895CF93DF93CDB7DEB7659762
:100AB0000FB6F894DEBF0FBECDBF1092D8021092D1
:100AC000D70288EE93E0A0E0B0E08093D902909343
:100AD000DA02A093DB02B093DC028AE092E090930A
:100AE000D6028093D50281E08093E1021092E20267
:100AF0001092E4021092E3021092E6021092E502D4
:100B00009FEF9093E7021092E8021092EA0210928F
:100B1000E9028093EB021092EC0292E09093ED02D6
:100B20008093EE021092EF021092F0021092F10206
:100B30001092F2021A8218861F86188A198A1A8A57
:100B40008E878B871C869D87898389E690E09E83AC
:100B50008D830BD19A878987009751F029E6FC0194
:100B600011922A95E9F783E290E09C838B8304C07D
:100B70001E821D821C821B8289E08F838A818823CA
:100B800031F061E089E058DC60E089E0D9DBE1ED3B
:100B9000F1E0E491F0E0EE0FFF1FE255FE4F85918A
:100BA00094919C8B8B8BE1E7F1E0E491ED8B85E1F7
:100BB000FE013196A1EEB2E001900D928A95E1F727
:100BC000CE010196F7DC8FEF8093F6028093F70257
:100BD0008093F80265960FB6F894DEBF0FBECDBFC6
:100BE000DF91CF910895789484B5826084BD84B5F7
:100BF000816084BD85B5826085BD85B5816085BD18
:100C000080916E00816080936E00109281008091CF
:100C10008100826080938100809181008160809357
:100C20008100809180008160809380008091B1007C
:100C300084608093B1008091B00081608093B000A7
:100C400080919100826080939100809191008160F9
:100C500080939100809190008160809390008091BA
:100C6000A10082608093A1008091A10081608093A7
:100C7000A1008091A00081608093A000809121015B
:100C80008260809321018091210181608093210104
:100C90008091200181608093200180917A0084609E
:100CA00080937A0080917A00826080937A008091AC
:100CB0007A00816080937A0080917A0080688093C6
:100CC0007A001092C10084E28093BA008FE391E031
:100CD0009093D0028093CF028BE491E09093CE0268
:100CE0008093CD021092CC021092CB021092CA02D5
:100CF0001092C9021092C80281E08093C70210923C
:100D0000C60261E084E11CDB61E085E119DB8091D2
:100D1000B9008E7F8093B9008091B9008D7F809358
:100D2000B90088E48093B80085E48093BC008FE329
:100D300093E09093D2028093D1028AE293E0909361
:100D4000D4028093D302C0E0D0E02097F1F30E9458
:100D50000000FBCF81EE92E02DCCEE0FFF1F881F2D
:100D60008BBF0790F691E02D1994CF93DF938230DB
:100D7000910510F482E090E0E091FE02F091FF0214
:100D800020E030E0C0E0D0E0309711F140815181A7
:100D900048175907C0F04817590761F482819381B9
:100DA000209719F09B838A832BC09093FF02809336
:100DB000FE0226C02115310519F04217530718F419
:100DC0009A01BE01DF01EF010280F381E02DDCCF4B
:100DD0002115310509F1281B390B2430310590F418
:100DE00012968D919C9113976115710521F0FB016D
:100DF0009383828304C09093FF028093FE02FD01DF
:100E0000329644C0FD01E20FF31F8193919322506B
:100E100031092D933C933AC02091FC023091FD02A0
:100E2000232B41F420910202309103023093FD0202
:100E30002093FC022091000230910102211531051E
:100E400041F42DB73EB74091040250910502241B96
:100E5000350BE091FC02F091FD02E217F307A0F4DC
:100E60002E1B3F0B2817390778F0AC014E5F5F4F00
:100E70002417350748F04E0F5F1F5093FD02409333
:100E8000FC028193919302C0E0E0F0E0CF01DF919A
:100E9000CF9108950F931F93CF93DF93009709F499
:100EA0008CC0FC013297138212820091FE021091D5
:100EB000FF020115110581F420813181820F931FFA
:100EC0002091FC023091FD022817390779F5F09343
:100ED000FD02E093FC0271C0D80140E050E0AE1783
:100EE000BF0750F412962D913C911397AD01211537
:100EF000310509F1D901F3CF9D01DA013383228352
:100F000060817181860F971F8217930769F4EC0146
:100F100028813981260F371F2E5F3F4F3183208371
:100F20008A819B8193838283452B29F4F093FF026E
:100F3000E093FE0242C01396FC93EE931297ED01EC
:100F4000499159919E01240F351FE217F30771F45F
:100F500080819181840F951F029611969C938E93A8
:100F60008281938113969C938E931297E0E0F0E038
:100F7000D80112968D919C911397009719F0F80162
:100F80008C01F6CF8D919C9198012E5F3F4F820F7F
:100F9000931F2091FC023091FD022817390769F454
:100FA000309729F41092FF021092FE0202C01382C1
:100FB00012821093FD020093FC02DF91CF911F91EA
:100FC0000F9108956F927F928F929F92AF92BF92EE
:100FD000CF92DF92EF92FF920F931F93CF93DF9305
:100FE000EC01009781F4CB01DF91CF911F910F911C
:100FF000FF90EF90DF90CF90BF90AF909F908F9039
:101000007F906F90B2CEFC01E60FF71F9C0122503B
:101010003109E217F30708F4A8C0D9010D911C911A
:10102000119706171707A8F00530110508F49BC0A3
:10103000C80104978617970708F495C00250110954
:10104000061B170B019311936D937C93CF0122DF45
:101050008AC05B01A01AB10A4C01800E911EA091BA
:10106000FE02B091FF0240E050E0E12CF12C10971D
:1010700009F44AC0A815B905D1F56D907C90119777
:10108000630182E0C80ED11CCA14DB0480F1A30105
:101090004A195B096A0182E0C80ED11C1296BC9005
:1010A00012971396AC91B5E0CB16D10440F0B28202
:1010B000A38351834083D9016D937C930AC00E5F53
:1010C0001F4FC301800F911FF90191838083EB2D86
:1010D000FA2FE114F10431F0D7011396FC93EE934B
:1010E000129741C0F093FF02E093FE023CC08D9145
:1010F0009C9111974817590708F4AC017D0112968D
:101100000D90BC91A02DB3CF8091FC029091FD0277
:1011100088159905E1F446175707C8F48091000235
:1011200090910102009741F48DB79EB7409104025F
:1011300050910502841B950BE817F907B0F4F09362
:10114000FD02E093FC02F901718360830CC0CB01C6
:101150000CDE7C01009749F0A801BE011BD0CE0136
:1011600099DEC70104C0CE0102C080E090E0DF91AB
:10117000CF911F910F91FF90EF90DF90CF90BF9094
:10118000AF909F908F907F906F90089581E090E056
:10119000F89474C3FB01DC0102C001900D92415030
:1011A0005040D8F70895FB01DC0101900D9200201A
:1011B000E1F70895FB01DC014150504048F00190F7
:1011C0000D920020C9F701C01D9241505040E0F738
:1011D0000895CF93DF93CDB7DEB72E970FB6F8946F
:1011E000DEBF0FBECDBF85E08C838C899D899A833D
:1011F0008983AE01485E5F4F6E897F89CE0101967B
:10120000B0D12E960FB6F894DEBF0FBECDBFDF91E2
:10121000CF91089520FD09C0FC0123FD05C022FFE8
:1012200002C07383628351834083089544FD10C0DC
:1012300046FD10C0DB01FC01AA0FBB1FEE1FFF1F04
:101240001094D1F76A0F7B1F8E1F9F1F31E003C0E0
:1012500033E001C034E0660F771F881F991F3150BB
:10126000D1F7620F711D811D911D08950F931F937A
:10127000CF93DF938C01C8019FD2EC0197FD06C08C
:10128000F2D2892BC1F7B801CE01D4D2CE01DF91C1
:10129000CF911F910F9108958F929F92AF92BF921D
:1012A000CF92DF92EF92FF920F931F93CF93DF9332
:1012B0001F92CDB7DEB78C01C62E7A0129837CD26E
:1012C000AC01552729814B32510521F04D32510592
:1012D00061F42068CA94C11002C080E06FC0C801E8
:1012E00029836AD2298197FDF8CF322F3D7FD32EF3
:1012F000322F307339F5803329F5BB24BA94BC0CF6
:1013000009F449C0C801298357D2298197FD43C0F8
:10131000382F3F7D383561F48D2D8264D82ECA94E4
:10132000CA94CC20C1F1C80147D297FF0BC033C08B
:1013300026FF04C02D2D2260D22E03C03D2D326128
:10134000D32ECB2C812C912C540120ED280F28304A
:1013500078F0D4FE03C0B8016DD21AC02A3040F034
:10136000D6FEF9CF2F7D3FEE320F3630A0F7275053
:101370004D2DC501B4015ADF4B015C018D2D8260FA
:10138000D82ECA94CC2051F0C80116D297FFDDCFD9
:10139000D1FC04C0A2CF812C912C5401D7FE08C0EF
:1013A000B094A09490948094811C911CA11CB11CB9
:1013B0002D2DB501A401C7012DDF81E00F90DF9134
:1013C000CF911F910F91FF90EF90DF90CF90BF9042
:1013D000AF909F908F9008956F927F928F929F927F
:1013E000AF92BF92CF92DF92EF92FF920F931F9333
:1013F000CF93DF93CDB7DEB7A1970FB6F894DEBFDA
:101400000FBECDBF5C017A01CE0101966C0180E276
:10141000F60111928A95E9F7F501838040E050E0EA
:10142000912C712C70E0A1E0B0E0F90183FC859172
:1014300083FE81918F01982F9F01811103C080E06D
:1014400090E07AC08E3519F44115510549F1E72F26
:10145000F0E0E417F5073CF48D3559F18D3219F4BD
:10146000772001F103C0711001C0982E892F869555
:10147000869586958601080F111D892F87703D017D
:1014800001C0660C8A95EAF7F8018081862980837D
:10149000991559F0991510F49F5FE8CF9150E6CF58
:1014A00071E004C07724739401C0712C4F5F5F4FCB
:1014B000BCCF772019F08E8180628E83711103C0BA
:1014C0009924939416C0F6019E012F5D3F4F8081B1
:1014D00080958193E217F307D1F7F2CFE114F1047D
:1014E00029F0F7018083C70101967C016150912C9E
:1014F000E9F0C50169A360D169A197FD15C0282F46
:10150000269526952695F601E20FF11D208130E003
:10151000AC014770552702C0359527954A95E2F7EB
:1015200020FDDCCFB50186D1911089CFE114F10403
:1015300011F0F7011082C801A1960FB6F894DEBF32
:101540000FBECDBFDF91CF911F910F91FF90EF9014
:10155000DF90CF90BF90AF909F908F907F906F90D3
:1015600008954F925F927F928F929F92AF92BF9217
:10157000CF92DF92EF92FF920F931F93CF93DF935F
:101580001F92CDB7DEB76C012B015A01FC01178207
:101590001682712CF601F380F201F3FC8591F3FEC3
:1015A0008191382F2F01882309F4E5C090E0398319
:1015B0005AD13981892B19F0C60158DEEBCF35326B
:1015C00041F4F201F3FC3591F3FE31912F013532F4
:1015D00059F4C6013983F0D0398197FDCAC0381754
:1015E000C9F2B60127D1C7C03A3239F4F3FC3591BC
:1015F000F3FE31912F0151E001C050E0420110E0B3
:1016000020ED230F2A3088F45260612F70E080E0D3
:1016100090E040E259830ADE162FF401F3FC359185
:10162000F3FE31914F015981EBCF052F232F240178
:1016300051FF03C0111102C09EC01FEF383619F0D0
:101640003C3659F011C0F401F3FC2591F3FE2191D1
:101650002F01283649F4052F08600460F201F3FCDD
:101660002591F3FE21912F01222309F484C0622FDA
:1016700070E08EE092E0298394D02981892B09F4CF
:101680007AC000FD07C0F501E080F180C501029637
:101690005C0102C0E12CF12C2E3649F4F6014681A2
:1016A000578160E070E0202FC701B4DD73CF23368F
:1016B00089F401FF11E0C6017FD097FD5AC0E11403
:1016C000F10429F0F7018083C70101967C011150D4
:1016D00091F74BC02B3551F49201A701612FC60140
:1016E0007BDE2C01892B09F040C03AC0C60129835A
:1016F000BDDD298197FD3DC02F3641F128F4243608
:1017000019F1293631F124C0233769F02537E1F08A
:101710001FC0E114F10429F0F7018082C70101968E
:101720007C01115059F0C60147D04C0197FD06C00D
:101730009AD0892B71F3B601C4017CD0E114F10475
:10174000A1F0F701108211C0006203C0006101C066
:101750000064202FA701612FC6019EDD811105C005
:10176000F6018381807329F406C000FD13CF7394C2
:1017700011CF772019F0872D90E002C08FEF9FEFF7
:101780000F90DF91CF911F910F91FF90EF90DF901D
:10179000CF90BF90AF909F908F907F905F904F9031
:1017A0000895FC010590061621F00020D9F7C0012C
:1017B00008953197CF010895CF93DF93EC012B81EA
:1017C00020FF33C026FF0AC02F7B2B838E819F8191
:1017D00001969F838E838A8190E029C022FF0FC0EB
:1017E000E881F9818081082E000C990B009719F48B
:1017F00020622B831AC03196F983E8830EC0EA85F4
:10180000FB85199597FF09C02B81019611F080E2A5
:1018100001C080E1822B8B8308C02E813F812F5F26
:101820003F4F3F832E83992702C08FEF9FEFDF91B9
:10183000CF910895FB01238120FF12C026FD10C027
:101840008F3F3FEF930761F082832F7D20642383D6
:1018500026813781215031093783268399270895BE
:101860008FEF9FEF0895911106C0803219F08950D3
:101870008550D0F7089599278827089511E0CEE084
:10188000D1E000E005C0802FFE0167DA2196011D3E
:0E189000CF30D10780E00807B1F7F894FFCF02
:10189E0000000003800000000000CA02B602AE0283
:1018AE009A028B028A024C45443A25642C25642CFC
:0418BE00256400009D
:00000001FF
