:100000000EC100003BC1000039C1000037C1000033
:1000100035C1000033C1000031C100002FC1000014
:100020002DC100002BC1000029C1000027C1000024
:1000300025C1000023C1000021C100001FC1000034
:100040001DC100001BC1000019C1000017C1000044
:1000500015C1000013C1000011C100009DC40000C3
:100060000DC100000BC1000009C1000007C1000064
:1000700005C1000003C1000001C10000FFC0000075
:10008000FDC00000FBC00000F9C00000F7C0000088
:10009000F5C00000F3C00000F1C00000C7C40000BC
:1000A000EDC00000EBC00000E9C00000E7C00000A8
:1000B000E5C00000E3C00000E1C00000DFC00000B8
:1000C000DDC00000DBC00000D9C00000D7C00000C8
:1000D000D5C00000D3C00000D1C00000CFC00000D8
:1000E000CDC00000CE01D101C001C401C801080289
:1000F000D501D901DF01E301E701ED01F101F501CE
:100100000802FB01FF010302000021002400270078
:100110002A002D0030003300010100000401070116
:100120000A0100000A0B02090C0D0E080703040166
:1001300000000000000000000000000000000000BF
:10014000000000000000000000000000000012118C
:10015000100000000000000000000000000000008F
:10016000000000000000000001021020200808101C
:100170002040102040800201020108040201010217
:1001800004081020408080402010080402018004F0
:10019000020180402010080402010804020101024B
:1001A0000408102040800102040810204080000054
:1001B0002200250028002B002E003100340002010F
:1001C0000000050108010B010505050507050808E4
:1001D0000808020202020A0A0808040404040101D1
:1001E00001010101010103030303030303030407E6
:1001F00007070C0C0C0C0C0C0C0C0202020206067D
:100200000606060606060B0B0B0B0B0B0B0B6364AB
:10021000696E6F70737578585B0047061E0811246D
:100220001FBECFEFD1E2DEBFCDBF00E00CBF12E0BA
:10023000A0E0B2E0E0E8F9E100E00BBF02C0079007
:100240000D92A432B107D9F723E0A4E2B2E001C0D5
:100250001D92A233B207E1F711E0CEE0D1E000E059
:1002600005C021970109802FFE01EBD6CD30D107C3
:1002700080E00807B1F7ABD50C94AF0CC1CEE0918C
:10028000C302F091C402309729F01092BA02109282
:10029000B90219940895CF93DF93AC01E091C102A4
:1002A000F091C2023097F1F09091BC028091BB02B4
:1002B0009817C0F090E0292F30E02617370754F444
:1002C000D901AA5DBD4FEA01C20FD31F88818C936B
:1002D0009F5FF1CF1092BC026093BB02CB01DF9114
:1002E000CF911994DF91CF910895CF92DF92EF9241
:1002F000FF920F931F93CF93DF936C017A018B01D1
:10030000C0E0D0E0CE15DF0589F0D8016D918D01F8
:10031000D601ED91FC910190F081E02DC601199577
:10032000892B11F47E0102C02196ECCFC701DF9129
:10033000CF911F910F91FF90EF90DF90CF90089594
:10034000362F90E0FC01EE5DFE4F4491FC01E85930
:10035000FE4F2491FC01E853FE4F9491992309F438
:100360006AC0442309F454C050E0FA013197E231E5
:10037000F10508F04DC08827EE58FF4F8F4F61C63A
:10038000809180008F7707C0809180008F7D03C0AF
:1003900080918000877F809380003AC084B58F77FA
:1003A00002C084B58F7D84BD33C08091B0008F774B
:1003B00003C08091B0008F7D8093B00029C08091F0
:1003C00090008F7707C0809190008F7D03C080914F
:1003D0009000877F809390001BC08091A0008F7752
:1003E00007C08091A0008F7D03C08091A000877F0F
:1003F0008093A0000DC0809120018F7707C080916D
:1004000020018F7D03C080912001877F8093200190
:10041000E92FF0E0EE0FFF1FE255FE4FA591B491DA
:100420008FB7F894EC91311103C020952E2301C0B1
:100430002E2B2C938FBF0895CF93DF9390E0FC0178
:10044000E859FE4F2491FC01E853FE4F8491882324
:1004500061F190E0880F991FFC01E85FFE4FC591A4
:10046000D491FC01E255FE4FA591B491611109C0F0
:100470009FB7F8948881209582238883EC912E235E
:100480000BC0623061F49FB7F8943881822F809559
:1004900083238883EC912E2B2C939FBF06C08FB7AC
:1004A000F894E8812E2B28838FBFDF91CF91089598
:1004B0003FB7F8948091B2029091B302A091B40238
:1004C000B091B50226B5A89B05C02F3F19F0019643
:1004D000A11DB11D3FBFBA2FA92F982F8827820FCA
:1004E000911DA11DB11DBC01CD0142E0660F771F1A
:1004F000881F991F4A95D1F7089585ED8093BC0018
:100500008091BC0084FDFCCF1092B8020895409108
:100510006602262F30E0240F311D21323105DCF434
:100520002091B8022430C9F4FC0180E090E08617E5
:1005300058F4309166022191DC01AA5BBD4FA30FF4
:10054000B11D2C930196F3CF80916602680F6093E2
:10055000660280E0089581E0089582E0089508959C
:10056000E091BC028091BB02E81730F4F0E0EA5D54
:10057000FD4F808190E008958FEF9FEF0895909157
:10058000BC028091BB02981750F4E92FF0E0EA5DBD
:10059000FD4F208130E09F5F9093BC0202C02FEF9F
:1005A0003FEFC90108958091BB0290E02091BC0209
:1005B000821B91090895CF93DF931F921F92CDB7AD
:1005C000DEB7CB01642F49835A83A1DF4981842F91
:1005D0005A81952F0F900F90DF91CF910895CF936F
:1005E000DF931F92CDB7DEB7698361E0CE0101963C
:1005F0008EDF81E090E00F90DF91CF910895CF9250
:10060000DF92EF92FF920F931F93CF93DF93CDB7BB
:10061000DEB729970FB6F894DEBF0FBECDBF8C01B1
:1006200047DFD8011E96CD90DD90ED90FC9051975C
:10063000DC01CB018C199D09AE09BF098C329140B8
:10064000A105B10568F3F894D80114968D919C9199
:1006500015979A8389831896ED91FC9119977F01DC
:10066000BFEFEB1AFB0A80818B83F801908102882F
:10067000F389E02DD80154968C91992309F430C068
:100680009081982B9C839081809589238D838D8187
:100690008E8388E08F835C816D814B813F812E81C9
:1006A00089819A81D701508347FD252F3A95208370
:1006B000262F39F0441F00C000006083000000C0F6
:1006C000F2CF38E04D9160830000019761F7D801C7
:1006D0005396FC93EE9352974B833F832E833AC0FD
:1006E0009081982B9C839081809589238D838D8127
:1006F000888788E089875C816D814B813985288571
:1007000089819A81D701508347FD252F00C000C001
:10071000208300C000C000C000C000C06083000093
:10072000262F3A9541F0441F000000C000C000C0D1
:1007300000C000C0E8CF38E04D9100C0608300C029
:10074000019709F7D8015396FC93EE9352974B8388
:10075000398728879A8389837894AADEF801668787
:100760007787808B918B29960FB6F894DEBF0FBEEA
:10077000CDBFDF91CF911F910F91FF90EF90DF9050
:10078000CF9008954F925F926F927F92BF92CF92D7
:10079000DF92EF92FF920F931F93CF93DF9390918D
:1007A000280380912B0398130DC090912903809109
:1007B0002C03981307C090912A0380912D0398175A
:1007C00009F47EC060E070E040E050E020E030E0FE
:1007D0008091150390911603E0911B03F0911C0387
:1007E0002817390708F05BC0C091280380912A03BD
:1007F00090E0A0E0B0E0BA2FA92F982F8827AC2B6B
:10080000C09129038C2B6D01EE24FF24492E5A2E12
:100810006B2E7724D42DC82FB0901A03BB2091F0F3
:100820000B2D10E00C9DE0010D9DD00D1C9DD00DF9
:100830001124CD2E4B9C20011124D52D8B9DC00160
:100840001124C92FA091200380911D03A81304C077
:10085000CF01840F951F07C0CF01860F971FFC01A2
:10086000EA0FF11D1082E0911D03DC01AE0FB11DF6
:10087000FD01C082E0911E03DC01AE0FB11DFD0140
:10088000D083E0911F03DC01AE0FB11DFD01C083D9
:100890002F5F3F4F4D5F5F4F6C5F7F4F99CFEF2BC7
:1008A00019F083E193E0ABDE809128039091290356
:1008B000A0912A0380932B0390932C03A0932D03E4
:1008C000DF91CF911F910F91FF90EF90DF90CF902C
:1008D000BF907F906F905F904F9008959091BB0272
:1008E0008091BC02981779F187E093E048DE20916F
:1008F0002402309125028430910579F4F901EB53FB
:10090000FD4F1082109225021092240281E090E0A7
:1009100090930603809305030895109206031092A6
:100920000503F901EB53FD4F80832F5F3F4F309359
:100930002502209324022034310581F610922502ED
:1009400010922402CBCF0895CF93DF93EC018885DA
:100950009985009709F012D48E8187FD04C060E06C
:10096000DF91CF9169CDDF91CF910895E5ECF2E071
:1009700001900020E9F73197AF01455C5240E091CA
:100980000703F09108030280F381E02D65EC72E02B
:1009900087E093E019948AD41F920F920FB60F92BA
:1009A00011242F933F938F939F93AF93BF93809185
:1009B000AE029091AF02A091B002B091B10230911D
:1009C000AD0223E0230F2D3720F40196A11DB11DA8
:1009D00005C026E8230F0296A11DB11D2093AD028C
:1009E0008093AE029093AF02A093B002B093B10295
:1009F0008091B2029091B302A091B402B091B5027D
:100A00000196A11DB11D8093B2029093B302A093F1
:100A1000B402B093B502BF91AF919F918F913F9176
:100A20002F910F900FBE0F901F9018951F920F924D
:100A30000FB60F9211240BB60F922F933F934F9343
:100A40005F936F937F938F939F93AF93BF93EF9336
:100A5000FF938091B900887F803609F49CC068F5C7
:100A6000883209F45BC090F4803109F454C038F442
:100A7000882309F4F6C0883009F44DC0F5C08831E8
:100A800009F44CC0803209F45DC0EEC0803409F432
:100A900068C048F4803309F455C0883309F0E4C0D5
:100AA00080938902D8C0803509F44FC0883509F495
:100AB0005DC0883409F0D8C0D6C0883909F4C7C0F1
:100AC000A8F4883709F467C038F4883609F463C09D
:100AD000803709F460C0C8C0883809F4B8C08039CC
:100AE00009F45FC0803809F0BFC05BC0803B09F4E7
:100AF00086C038F4803A09F466C0883A09F47FC0A9
:100B0000B3C0803C09F4A7C0883C09F4A4C0883B6A
:100B100009F48AC0A9C08091AC0210C09091AB02C8
:100B20008091AA02981770F5E091AB0281E08E0FD8
:100B30008093AB02F0E0E657FD4F80818093BB00CD
:100B400085EC86C0809389028EC0E091AB0281E083
:100B50008E0F8093AB028091BB00F0E0E657FD4F13
:100B600080839091AB028091AA026EC0E091AB02AB
:100B700081E08E0F8093AB028091BB00F0E0E657DE
:100B8000FD4F80838091B70281116DC081E0809319
:100B9000B60284EA61C083E08093B80210928802B2
:100BA000CFCF80918802803208F051C0E091880256
:100BB00081E08E0F809388028091BB00F0E0E859BD
:100BC000FD4F8083BDCF85EC8093BC001092B802AE
:100BD00080918802803230F4E0918802F0E0E85998
:100BE000FD4F10826091880270E0E091BD02F091AB
:100BF000BE0288E692E019951092880235C084E022
:100C00008093B8021092670210926602E091BF02D0
:100C1000F091C002199580916602811105C081E0B2
:100C20008093660210924602E091670281E08E0F87
:100C300080936702F0E0EA5BFD4F80818093BB0008
:100C40009091670280916602981708F479CF85E841
:100C50008093BC0009C085EC8093BC001092B80260
:100C600003C01092890249DCFF91EF91BF91AF91CF
:100C70009F918F917F916F915F914F913F912F91B4
:100C80000F900BBE0F900FBE0F901F901895CF9333
:100C9000DF93CDB7DEB765970FB6F894DEBF0FBE12
:100CA000CDBF10920A031092090388EE93E0A0E0F2
:100CB000B0E080930B0390930C03A0930D03B093CB
:100CC0000E038AE092E0909308038093070381E08B
:100CD00080931303109214031092160310921503BD
:100CE00010921803109217039FEF9093190310921C
:100CF0001A0310921C0310921B0380931D03109281
:100D00001E0392E090931F0380932003109221030F
:100D10001092220310922303109224031A82188641
:100D20001F86188A198A1A8A8E878B871C869D8748
:100D3000898389E690E09E838D838BD19A8789870A
:100D4000009751F029E6FC0111922A95E9F783E218
:100D500090E09C838B8304C01E821D821C821B82B8
:100D600089E08F838A81882331F061E089E064DB48
:100D700060E089E0E5DAE1EDF1E0E491F0E0EE0F2A
:100D8000FF1FE255FE4F859194919C8B8B8BE1E781
:100D9000F1E0E491ED8B85E1FE013196A3E1B3E052
:100DA00001900D928A95E1F7CE010196CDDD8FEF8E
:100DB000809328038093290380932A0365960FB6B6
:100DC000F894DEBF0FBECDBFDF91CF910895CF93D2
:100DD000DF9300D000D0CDB7DEB7789484B58260C1
:100DE00084BD84B5816084BD85B5826085BD85B5CF
:100DF000816085BD80916E00816080936E0010924D
:100E000081008091810082608093810080918100C7
:100E10008160809381008091800081608093800058
:100E20008091B10084608093B1008091B0008160B6
:100E30008093B000809191008260809391008091B6
:100E400091008160809391008091900081608093F7
:100E500090008091A10082608093A1008091A10008
:100E600081608093A1008091A00081608093A000A8
:100E70008091210182608093210180912101816014
:100E800080932101809120018160809320018091D5
:100E90007A00846080937A0080917A0082608093E7
:100EA0007A0080917A00816080937A0080917A0044
:100EB000806880937A001092C10080E4E5ECF2E053
:100EC000DF011D928A95E9F784E28093BA008FE3EF
:100ED00091E09093C0028093BF028BE491E09093E5
:100EE000BE028093BD021092BC021092BB0210920F
:100EF000BA021092B9021092B80281E08093B70250
:100F00001092B60261E084E11BDA61E085E118DA53
:100F10008091B9008E7F8093B9008091B9008D7F58
:100F20008093B90088E48093B80085E48093BC0086
:100F30008EE694E09093C2028093C10286EB94E027
:100F40009093C4028093C3028091190387FD06C069
:100F500061E072DA60E080911903F2D981E0809358
:100F6000140380911B0390911C03892B19F083E1DA
:100F700093E045DB80E88093280380932903109257
:100F80002A0300DC05EC12E09E012F5F3F4F390180
:100F90007E0133E0E30EF11C6E0185E0C80ED11C2A
:100FA00086E1A82E82E0B82E55245A9490E0892E2E
:100FB00090E0992E8091050390910603892BB9F159
:100FC000F80101900020E9F73197E55CF240709755
:100FD00038F0509228031092290310922A0322C05D
:100FE0007F926F92FF92EF92DF92CF92BF92AF9279
:100FF0001F930F935FD10FB6F894DEBF0FBECDBF26
:10100000039739F0109228031092290350922A0373
:1010100009C089819B812D81209328039093290306
:1010200080932A03AFDB109206031092050381140C
:10103000910409F4BFCF0E940000BCCF83E193E08C
:1010400083CCEE0FFF1F881F8BBF0790F691E02D1A
:101050001994CF93DF938230910510F482E090E0F1
:10106000E0913003F091310320E030E0C0E0D0E0C7
:10107000309711F14081518148175907C0F0481746
:10108000590761F482819381209719F09B838A83A9
:101090002BC0909331038093300326C02115310576
:1010A00019F04217530718F49A01BE01DF01EF014E
:1010B0000280F381E02DDCCF2115310509F1281BD9
:1010C000390B2430310590F412968D919C91139731
:1010D0006115710521F0FB019383828304C0909315
:1010E000310380933003FD01329644C0FD01E20FCD
:1010F000F31F81939193225031092D933C933AC071
:1011000020912E0330912F03232B41F420910202D2
:101110003091030230932F0320932E03209100027D
:10112000309101022115310541F42DB73EB74091B0
:10113000040250910502241B350BE0912E03F0911F
:101140002F03E217F307A0F42E1B3F0B28173907D4
:1011500078F0AC014E5F5F4F2417350748F04E0F13
:101160005F1F50932F0340932E038193919302C0EE
:10117000E0E0F0E0CF01DF91CF9108950F931F934E
:10118000CF93DF93009709F48CC0FC013297138250
:10119000128200913003109131030115110581F481
:1011A00020813181820F931F20912E0330912F03D4
:1011B0002817390779F5F0932F03E0932E0371C0B8
:1011C000D80140E050E0AE17BF0750F412962D91C1
:1011D0003C911397AD012115310509F1D901F3CFE8
:1011E0009D01DA013383228360817181860F971F0D
:1011F0008217930769F4EC0128813981260F371F84
:101200002E5F3F4F318320838A819B81938382832A
:10121000452B29F4F0933103E093300342C0139639
:10122000FC93EE931297ED01499159919E01240F81
:10123000351FE217F30771F480819181840F951FA8
:10124000029611969C938E938281938113969C9320
:101250008E931297E0E0F0E0D80112968D919C9168
:101260001397009719F0F8018C01F6CF8D919C919E
:1012700098012E5F3F4F820F931F20912E033091D4
:101280002F032817390769F4309729F41092310396
:101290001092300302C01382128210932F03009326
:1012A0002E03DF91CF911F910F91089581E090E07F
:1012B000F89455C3CF93DF93CDB7DEB72E970FB613
:1012C000F894DEBF0FBECDBF85E08C838C899D89ED
:1012D0009A838983AE01485E5F4F6E897F89CE0114
:1012E0000196B0D12E960FB6F894DEBF0FBECDBFDB
:1012F000DF91CF91089520FD09C0FC0123FD05C0B9
:1013000022FF02C07383628351834083089544FDAA
:1013100010C046FD10C0DB01FC01AA0FBB1FEE1F71
:10132000FF1F1094D1F76A0F7B1F8E1F9F1F31E0A4
:1013300003C033E001C034E0660F771F881F991F98
:101340003150D1F7620F711D811D911D08950F93CA
:101350001F93CF93DF938C01C801A7D2EC0197FDB7
:1013600006C090D2892BC1F7B801CE01DCD2CE01E4
:10137000DF91CF911F910F9108958F929F92AF921D
:10138000BF92CF92DF92EF92FF920F931F93CF9372
:10139000DF931F92CDB7DEB78C01C62E7A01298369
:1013A00084D2AC01552729814B32510521F04D32B1
:1013B000510561F42068CA94C11002C080E06FC07A
:1013C000C801298372D2298197FDF8CF322F3D7F42
:1013D000D32E322F307339F5803329F5BB24BA94DC
:1013E000BC0C09F449C0C80129835FD2298197FD4B
:1013F00043C0382F3F7D383561F48D2D8264D82E5F
:10140000CA94CA94CC20C1F1C8014FD297FF0BC037
:1014100033C026FF04C02D2D2260D22E03C03D2DE7
:101420003261D32ECB2C812C912C540120ED280F2E
:10143000283078F0D4FE03C0B80175D21AC02A3023
:1014400040F0D6FEF9CF2F7D3FEE320F3630A0F7B9
:1014500027504D2DC501B4015ADF4B015C018D2D84
:101460008260D82ECA94CC2051F0C8011ED297FFBA
:10147000DDCFD1FC04C0A2CF812C912C5401D7FE2A
:1014800008C0B094A09490948094811C911CA11CDD
:10149000B11C2D2DB501A401C7012DDF81E00F90F6
:1014A000DF91CF911F910F91FF90EF90DF90CF9040
:1014B000BF90AF909F908F9008956F927F928F9280
:1014C0009F92AF92BF92CF92DF92EF92FF920F93D3
:1014D0001F93CF93DF93CDB7DEB7A1970FB6F894E4
:1014E000DEBF0FBECDBF5C017A01CE0101966C015B
:1014F00080E2F60111928A95E9F7F501838040E0D8
:1015000050E0912C712C70E0A1E0B0E0F90183FC77
:10151000859183FE81918F01982F9F01811103C0D6
:1015200080E090E07AC08E3519F44115510549F1FB
:10153000E72FF0E0E417F5073CF48D3559F18D32D3
:1015400019F4772001F103C0711001C0982E892F82
:101550008695869586958601080F111D892F8770BF
:101560003D0101C0660C8A95EAF7F8018081862961
:101570008083991559F0991510F49F5FE8CF915029
:10158000E6CF71E004C07724739401C0712C4F5FE3
:101590005F4FBCCF772019F08E8180628E837111EE
:1015A00003C09924939416C0F6019E012F5D3F4F0E
:1015B000808180958193E217F307D1F7F2CFE11490
:1015C000F10429F0F7018083C70101967C01615085
:1015D000912CE9F0C50169A368D169A197FD15C0F7
:1015E000282F269526952695F601E20FF11D2081DC
:1015F00030E0AC014770552702C0359527954A95D4
:10160000E2F720FDDCCFB5018ED1911089CFE11436
:10161000F10411F0F7011082C801A1960FB6F894F9
:10162000DEBF0FBECDBFDF91CF911F910F91FF9015
:10163000EF90DF90CF90BF90AF909F908F907F9072
:101640006F9008954F925F927F928F929F92AF9288
:10165000BF92CF92DF92EF92FF920F931F93CF939F
:10166000DF931F92CDB7DEB76C012B015A01FC014D
:1016700017821682712CF601F380F201F3FC85913A
:10168000F3FE8191382F2F01882309F4E5C090E003
:101690003983F8D03981892B19F0C60158DEEBCF98
:1016A000353241F4F201F3FC3591F3FE31912F0113
:1016B000353259F4C6013983F8D0398197FDCAC053
:1016C0003817C9F2B6012FD1C7C03A3239F4F3FC4A
:1016D0003591F3FE31912F0151E001C050E04201FC
:1016E00010E020ED230F2A3088F45260612F70E063
:1016F00080E090E040E259830ADE162FF401F3FC0B
:101700003591F3FE31914F015981EBCF052F232FF6
:10171000240151FF03C0111102C09EC01FEF3836D3
:1017200019F03C3659F011C0F401F3FC2591F3FE99
:1017300021912F01283649F4052F08600460F20139
:10174000F3FC2591F3FE21912F01222309F484C09B
:10175000622F70E08EE092E029839CD02981892B52
:1017600009F47AC000FD07C0F501E080F180C501F1
:1017700002965C0102C0E12CF12C2E3649F4F601F0
:101780004681578160E070E0202FC701B4DD73CF40
:10179000233689F401FF11E0C60187D097FD5AC0B6
:1017A000E114F10429F0F7018083C70101967C015F
:1017B000115091F74BC02B3551F49201A701612FC5
:1017C000C6017BDE2C01892B09F040C03AC0C6015E
:1017D0002983BDDD298197FD3DC02F3641F128F4D5
:1017E000243619F1293631F124C0233769F0253721
:1017F000E1F01FC0E114F10429F0F7018082C70174
:1018000001967C01115059F0C6014FD04C0197FD53
:1018100006C038D0892B71F3B601C40184D0E1141D
:10182000F104A1F0F701108211C0006203C0006151
:1018300001C00064202FA701612FC6019EDD811128
:1018400005C0F6018381807329F406C000FD13CF23
:10185000739411CF772019F0872D90E002C08FEF9D
:101860009FEF0F90DF91CF911F910F91FF90EF901D
:10187000DF90CF90BF90AF909F908F907F905F90C0
:101880004F900895911168C0803219F089508550A9
:10189000D0F70895FC010590061621F00020D9F735
:1018A000C00108953197CF010895CF93DF93EC01E4
:1018B0002B8120FF33C026FF0AC02F7B2B838E8114
:1018C0009F8101969F838E838A8190E029C022FFA9
:1018D0000FC0E881F9818081082E000C990B0097D8
:1018E00019F420622B831AC03196F983E8830EC065
:1018F000EA85FB85199597FF09C02B81019611F0A8
:1019000080E201C080E1822B8B8308C02E813F8161
:101910002F5F3F4F3F832E83992702C08FEF9FEFAA
:10192000DF91CF910895FB01238120FF12C026FD96
:1019300010C08F3F3FEF930761F082832F7D2064BB
:1019400023832681378121503109378326839927C4
:1019500008958FEF9FEF089599278827089511E044
:10196000CEE0D1E000E005C0802FFE016ADB2196C9
:10197000011DCF30D10780E00807B1F7F894FFCF01
:1019800000003203800000000000EF02DB02D302FF
:10199000BF02B002AF024C45443A25642C25642CAA
:0419A00025640000BA
:00000001FF
