:1000000008C1000034C1000032C1000030C100004E
:100010002EC100002CC100002AC1000028C1000030
:1000200026C1000024C1000022C1000020C1000040
:100030001EC100001CC100001AC1000018C1000050
:1000400016C1000014C1000012C1000010C1000060
:100050000EC100000CC100000AC10000ABC20000CC
:1000600006C1000004C1000002C1000000C1000080
:10007000FEC00000FCC00000FAC00000F8C0000094
:10008000F6C00000F4C00000F2C00000F0C00000A4
:10009000EEC00000ECC00000EAC00000D5C20000C5
:1000A000E6C00000E4C00000E2C00000E0C00000C4
:1000B000DEC00000DCC00000DAC00000D8C00000D4
:1000C000D6C00000D4C00000D2C00000D0C00000E4
:1000D000CEC00000CCC00000CAC00000C8C00000F4
:1000E000C6C000006501680157015B015F019F0107
:1000F0006C01700176017A017E01840188018C0116
:100100009F01920196019A0100002100240027001E
:100110002A002D0030003300010100000401070116
:100120000A0100002200250028002B002E003100CB
:10013000340002010000050108010B010505050559
:10014000070508080808020202020A0A080804044F
:10015000040401010101010101010303030303037D
:100160000303040707070C0C0C0C0C0C0C0C02020C
:10017000020206060606060606060B0B0B0B0B0B09
:100180000B0B010210202008081020401020408096
:10019000020102010804020101020408102040804B
:1001A00080402010080402018004020180402010D9
:1001B0000804020108040201010204081020408022
:1001C000010204081020408000000A0B02090C0DF7
:1001D0000E080703040100000000000000000000FA
:1001E000000000000000000000000000000000000F
:1001F00000000000121110000000000000000000CC
:100200000000000000000000000000000000550495
:100210007A0511241FBECFEFD1E2DEBFCDBF00E0D3
:100220000CBF12E0A0E0B2E0EAE7FFE000E00BBFA5
:1002300002C007900D92A831B107D9F722E0A8E1DA
:10024000B2E001C01D92A73DB207E1F711E0C8E09E
:10025000D1E000E005C021970109802FFE014FD4B5
:10026000C730D10780E00807B1F774D375C6C8CE90
:1002700090E0FC01E853FE4F4491FC01EE57FE4F25
:100280002491FC01E45CFE4F9491992309F465C02C
:10029000442309F454C050E0FA013197E231F105EA
:1002A00008F04DC08827EE58FF4F8F4F28C480912B
:1002B00080008F7707C0809180008F7D03C0809180
:1002C0008000877F809380003AC084B58F7702C01A
:1002D00084B58F7D84BD33C08091B0008F7703C01B
:1002E0008091B0008F7D8093B00029C080919000F4
:1002F0008F7707C0809190008F7D03C08091900020
:10030000877F809390001BC08091A0008F7707C0EB
:100310008091A0008F7D03C08091A000877F809393
:10032000A0000DC0809120018F7707C0809120012F
:100330008F7D03C080912001877F80932001E92F6A
:10034000F0E0EE0FFF1FEE5DFE4FA591B4918FB769
:10035000F894EC912E2B2C938FBF0895E091B60268
:10036000F091B702309729F01092AD021092AC02D2
:1003700019940895CF93DF93AC01E091B402F0910A
:10038000B5023097F1F09091AF028091AE029817CC
:10039000C0F090E0292F30E02617370754F4D90138
:1003A000AE5DBD4FEA01C20FD31F88818C939F5F62
:1003B000F1CF1092AF026093AE02CB01DF91CF91EB
:1003C0001994DF91CF910895CF92DF92EF92FF922F
:1003D0000F931F93CF93DF936C017A018B01C0E0E1
:1003E000D0E0CE15DF0589F0D8016D918D01D601E1
:1003F000ED91FC910190F081E02DC6011995892BBA
:1004000011F47E0102C02196ECCFC701DF91CF919C
:100410001F910F91FF90EF90DF90CF90089585EDA1
:100420008093BC008091BC0084FDFCCF1092AB0295
:10043000089540916202262F30E0240F311D2132B1
:100440003105DCF42091AB022430C9F4FC0180E0DA
:1004500090E0861758F4309162022191DC01AE5B86
:10046000BD4FA30FB11D2C930196F3CF8091620273
:10047000680F6093620280E0089581E0089582E051
:1004800008950895E091AF028091AE02E81730F42C
:10049000F0E0EE5DFD4F808190E008958FEF9FEFDB
:1004A00008959091AF028091AE02981750F4E92F11
:1004B000F0E0EE5DFD4F208130E09F5F9093AF0252
:1004C00002C02FEF3FEFC90108958091AE0290E086
:1004D0002091AF02821B91090895CF93DF931F9261
:1004E0001F92CDB7DEB7CB01642F49835A83A1DFBA
:1004F0004981842F5A81952F0F900F90DF91CF91D2
:100500000895CF93DF931F92CDB7DEB7698361E083
:10051000CE0101968EDF81E090E00F90DF91CF91C8
:100520000895CF93DF939091AE028091AF02981718
:1005300019F1C0912002D0912102C430D10584F478
:1005400081EC92E0AEDFFE01EE0FFF1FE85EFD4F93
:10055000918380832196D0932102C0932002E3CF20
:10056000109221021092200281EC92E09ADF909387
:10057000190280931802D7CFDF91CF91089560912F
:10058000CD027091CE026115710591F0FB010190D1
:100590000020E9F73197AF01461B570BE091C102EC
:1005A000F091C2020280F381E02D81EC92E0199477
:1005B0000895BED41F920F920FB60F9211242F935D
:1005C0003F938F939F93AF93BF938091BD02909180
:1005D000BE02A091BF02B091C0023091BC0223E0E4
:1005E000230F2D3720F40196A11DB11D05C026E86B
:1005F000230F0296A11DB11D2093BC028093BD0262
:100600009093BE02A093BF02B093C0028091B80243
:100610009091B902A091BA02B091BB020196A11DBE
:10062000B11D8093B8029093B902A093BA02B0931F
:10063000BB02BF91AF919F918F913F912F910F90EE
:100640000FBE0F901F9018951F920F920FB60F922A
:1006500011240BB60F922F933F934F935F936F9399
:100660007F938F939F93AF93BF93EF93FF9380916B
:10067000B900887F803609F49CC068F5883209F497
:100680005BC090F4803109F454C038F4882309F435
:10069000F6C0883009F44DC0F5C0883109F44CC06B
:1006A000803209F45DC0EEC0803409F468C048F4BB
:1006B000803309F455C0883309F0E4C08093850283
:1006C000D8C0803509F44FC0883509F45DC088343E
:1006D00009F0D8C0D6C0883909F4C7C0A8F4883753
:1006E00009F467C038F4883609F463C0803709F428
:1006F00060C0C8C0883809F4B8C0803909F45FC048
:10070000803809F0BFC05BC0803B09F486C038F474
:10071000803A09F466C0883A09F47FC0B3C0803CCF
:1007200009F4A7C0883C09F4A4C0883B09F48AC036
:10073000A9C08091A80210C09091A7028091A60242
:10074000981770F5E091A70281E08E0F8093A702C1
:10075000F0E0EA57FD4F80818093BB0085EC86C0B6
:10076000809385028EC0E091A70281E08E0F809376
:10077000A7028091BB00F0E0EA57FD4F8083909183
:10078000A7028091A6026EC0E091A70281E08E0FC1
:100790008093A7028091BB00F0E0EA57FD4F808371
:1007A0008091AA0281116DC081E08093A90284EA40
:1007B00061C083E08093AB0210928402CFCF80911E
:1007C0008402803208F051C0E091840281E08E0FF3
:1007D000809384028091BB00F0E0EC59FD4F808350
:1007E000BDCF85EC8093BC001092AB028091840257
:1007F000803230F4E0918402F0E0EC59FD4F108239
:100800006091840270E0E091B002F091B10284E660
:1008100092E019951092840235C084E08093AB0277
:100820001092630210926202E091B202F091B30260
:10083000199580916202811105C081E08093620266
:1008400010924202E091630281E08E0F8093630276
:10085000F0E0EE5BFD4F80818093BB0090916302DE
:1008600080916202981708F479CF85E88093BC00E4
:1008700009C085EC8093BC001092AB0203C01092BB
:100880008502CDDDFF91EF91BF91AF919F918F9147
:100890007F916F915F914F913F912F910F900BBE80
:1008A0000F900FBE0F901F9018951092C4021092D7
:1008B000C30288EE93E0A0E0B0E08093C50290937D
:1008C000C602A093C702B093C8028AE092E0909358
:1008D000C2028093C1021092CE021092CD021092F9
:1008E000D0021092CF021092D2021092D10261E097
:1008F00070E080E090E038D2009789F09093CE02CB
:100900008093CD021092D0021092CF022091D1029A
:100910003091D202232BB9F4FC01108214C08091D3
:10092000CD029091CE02009709F086D11092CE02AE
:100930001092CD021092D2021092D1021092D002E7
:100940001092CF0208951092D2021092D10266E165
:1009500072E0FBC2789484B5826084BD84B5816006
:1009600084BD85B5826085BD85B5816085BD80917A
:100970006E00816080936E001092810080918100F2
:1009800082608093810080918100816080938100EA
:10099000809180008160809380008091B1008460AC
:1009A0008093B1008091B00081608093B00080910D
:1009B000910082608093910080919100816080938A
:1009C0009100809190008160809390008091A100BF
:1009D00082608093A1008091A10081608093A1003A
:1009E0008091A00081608093A000809121018260AD
:1009F0008093210180912101816080932101809168
:100A0000200181608093200180917A00846080932E
:100A10007A0080917A00826080937A0080917A00D7
:100A2000816080937A0080917A00806880937A0058
:100A30001092C10084E28093BA008EEA91E0909314
:100A4000B3028093B2028AEB91E09093B10280935B
:100A5000B0021092AF021092AE021092AD0210924C
:100A6000AC021092AB0281E08093AA021092A9021C
:100A700084E1FEDB85E1FCDB8091B9008E7F809311
:100A8000B9008091B9008D7F8093B90088E480938C
:100A9000B80085E48093BC0081E992E09093B502B0
:100AA0008093B4028FEB92E09093B7028093B602EA
:100AB000EFE8F1E02491E9E4F1E08491882399F0F2
:100AC00090E0880F991FFC01E85FFE4FA591B4915B
:100AD000FC01EE5DFE4F859194918FB7F894EC91F7
:100AE000E22BEC938FBFC0E0D0E02097F1F30E949F
:100AF0000000FBCF8091CD029091CE029DC0EE0F01
:100B0000FF1F881F8BBF0790F691E02D1994CF939C
:100B1000DF938230910510F482E090E0E091D502FD
:100B2000F091D60220E030E0C0E0D0E0309711F143
:100B30004081518148175907C0F04817590761F49F
:100B400082819381209719F09B838A832BC0909395
:100B5000D6028093D50226C02115310519F042171F
:100B6000530718F49A01BE01DF01EF010280F381FF
:100B7000E02DDCCF2115310509F1281B390B24307C
:100B8000310590F412968D919C9113976115710522
:100B900021F0FB019383828304C09093D60280935B
:100BA000D502FD01329644C0FD01E20FF31F81938F
:100BB0009193225031092D933C933AC02091D30256
:100BC0003091D402232B41F4209102023091030290
:100BD0003093D4022093D30220910002309101027D
:100BE0002115310541F42DB73EB7409104025091D3
:100BF0000502241B350BE091D302F091D402E217D9
:100C0000F307A0F42E1B3F0B2817390778F0AC012F
:100C10004E5F5F4F2417350748F04E0F5F1F50930C
:100C2000D4024093D3028193919302C0E0E0F0E0BC
:100C3000CF01DF91CF9108950F931F93CF93DF934F
:100C4000009709F48CC0FC01329713821282009144
:100C5000D5021091D6020115110581F42081318150
:100C6000820F931F2091D3023091D40228173907A5
:100C700079F5F093D402E093D30271C0D80140E03B
:100C800050E0AE17BF0750F412962D913C91139788
:100C9000AD012115310509F1D901F3CF9D01DA012B
:100CA0003383228360817181860F971F8217930798
:100CB00069F4EC0128813981260F371F2E5F3F4FE1
:100CC000318320838A819B8193838283452B29F4FE
:100CD000F093D602E093D50242C01396FC93EE93B4
:100CE0001297ED01499159919E01240F351FE2178A
:100CF000F30771F480819181840F951F02961196FC
:100D00009C938E938281938113969C938E931297DA
:100D1000E0E0F0E0D80112968D919C911397009736
:100D200019F0F8018C01F6CF8D919C9198012E5FFE
:100D30003F4F820F931F2091D3023091D402281786
:100D4000390769F4309729F41092D6021092D5022F
:100D500002C0138212821093D4020093D302DF9157
:100D6000CF911F910F9108956F927F928F929F92D2
:100D7000AF92BF92CF92DF92EF92FF920F931F93A9
:100D8000CF93DF93EC01009781F4CB01DF91CF91FA
:100D90001F910F91FF90EF90DF90CF90BF90AF9099
:100DA0009F908F907F906F90B2CEFC01E60FF71F5F
:100DB0009C0122503109E217F30708F4A8C0D901B9
:100DC0000D911C91119706171707A8F00530110512
:100DD00008F49BC0C80104978617970708F495C0CC
:100DE00002501109061B170B019311936D937C930D
:100DF000CF0122DF8AC05B01A01AB10A4C01800E2C
:100E0000911EA091D502B091D60240E050E0E12CB5
:100E1000F12C109709F44AC0A815B905D1F56D90C9
:100E20007C901197630182E0C80ED11CCA14DB04C8
:100E300080F1A3014A195B096A0182E0C80ED11C46
:100E40001296BC9012971396AC91B5E0CB16D104D4
:100E500040F0B282A38351834083D9016D937C9388
:100E60000AC00E5F1F4FC301800F911FF9019183CC
:100E70008083EB2DFA2FE114F10431F0D7011396A2
:100E8000FC93EE93129741C0F093D602E093D50203
:100E90003CC08D919C9111974817590708F4AC01FB
:100EA0007D0112960D90BC91A02DB3CF8091D302FD
:100EB0009091D40288159905E1F446175707C8F4B4
:100EC0008091000290910102009741F48DB79EB786
:100ED0004091040250910502841B950BE817F90715
:100EE000B0F4F093D402E093D302F90171836083EC
:100EF0000CC0CB010CDE7C01009749F0A801BE01BB
:100F00001BD0CE0199DEC70104C0CE0102C080E033
:100F100090E0DF91CF911F910F91FF90EF90DF90C4
:100F2000CF90BF90AF909F908F907F906F900895DB
:100F300081E090E0F89410C0FB01DC0102C0019058
:100F40000D9241505040D8F70895FB01DC0101900B
:100F50000D920020E1F7089511E0C8E0D1E000E033
:100F600005C0802FFE01CBDD2196011DC930D107C0
:0A0F700080E00807B1F7F894FFCF06
:100F7A000000D70280000000000081026D026502B5
:080F8A00510242024102000085
:00000001FF
