:1000000008C1000034C1000032C1000030C100004E
:100010002EC100002CC100002AC1000028C1000030
:1000200026C1000024C1000022C1000020C1000040
:100030001EC100001CC100001AC1000018C1000050
:1000400016C1000014C1000012C1000010C1000060
:100050000EC100000CC100000AC10000A1C20000D6
:1000600006C1000004C1000002C1000000C1000080
:10007000FEC00000FCC00000FAC00000F8C0000094
:10008000F6C00000F4C00000F2C00000F0C00000A4
:10009000EEC00000ECC00000EAC00000CBC20000CF
:1000A000E6C00000E4C00000E2C00000E0C00000C4
:1000B000DEC00000DCC00000DAC00000D8C00000D4
:1000C000D6C00000D4C00000D2C00000D0C00000E4
:1000D000CEC00000CCC00000CAC00000C8C00000F4
:1000E000C6C000006501680157015B015F019F0107
:1000F0006C01700176017A017E01840188018C0116
:100100009F01920196019A0100002100240027001E
:100110002A002D0030003300010100000401070116
:100120000A0100002200250028002B002E003100CB
:10013000340002010000050108010B010505050559
:10014000070508080808020202020A0A080804044F
:10015000040401010101010101010303030303037D
:100160000303040707070C0C0C0C0C0C0C0C02020C
:10017000020206060606060606060B0B0B0B0B0B09
:100180000B0B010210202008081020401020408096
:10019000020102010804020101020408102040804B
:1001A00080402010080402018004020180402010D9
:1001B0000804020108040201010204081020408022
:1001C000010204081020408000000A0B02090C0DF7
:1001D0000E080703040100000000000000000000FA
:1001E000000000000000000000000000000000000F
:1001F00000000000121110000000000000000000CC
:1002000000000000000000000000000000004B049F
:10021000700511241FBECFEFD1E2DEBFCDBF00E0DD
:100220000CBF12E0A0E0B2E0E6E6FFE000E00BBFAA
:1002300002C007900D92A831B107D9F722E0A8E1DA
:10024000B2E001C01D92AF3DB207E1F711E0C8E096
:10025000D1E000E005C021970109802FFE0145D4BF
:10026000C730D10780E00807B1F76AD36BC6C8CEA4
:1002700090E0FC01E853FE4F4491FC01EE57FE4F25
:100280002491FC01E45CFE4F9491992309F465C02C
:10029000442309F454C050E0FA013197E231F105EA
:1002A00008F04DC08827EE58FF4F8F4F1EC4809135
:1002B00080008F7707C0809180008F7D03C0809180
:1002C0008000877F809380003AC084B58F7702C01A
:1002D00084B58F7D84BD33C08091B0008F7703C01B
:1002E0008091B0008F7D8093B00029C080919000F4
:1002F0008F7707C0809190008F7D03C08091900020
:10030000877F809390001BC08091A0008F7707C0EB
:100310008091A0008F7D03C08091A000877F809393
:10032000A0000DC0809120018F7707C0809120012F
:100330008F7D03C080912001877F80932001E92F6A
:10034000F0E0EE0FFF1FEE5DFE4FA591B4918FB769
:10035000F894EC912E2B2C938FBF0895E091BE0260
:10036000F091BF02309729F01092B5021092B402BA
:1003700019940895CF93DF93AC01E091BC02F09102
:10038000BD023097F1F09091B7028091B6029817B4
:10039000C0F090E0292F30E02617370754F4D90138
:1003A000A65DBD4FEA01C20FD31F88818C939F5F6A
:1003B000F1CF1092B7026093B602CB01DF91CF91DB
:1003C0001994DF91CF910895CF92DF92EF92FF922F
:1003D0000F931F93CF93DF936C017A018B01C0E0E1
:1003E000D0E0CE15DF0589F0D8016D918D01D601E1
:1003F000ED91FC910190F081E02DC6011995892BBA
:1004000011F47E0102C02196ECCFC701DF91CF919C
:100410001F910F91FF90EF90DF90CF90089585EDA1
:100420008093BC008091BC0084FDFCCF1092B3028D
:10043000089540916A02262F30E0240F311D2132A9
:100440003105DCF42091B3022430C9F4FC0180E0D2
:1004500090E0861758F430916A022191DC01A65B86
:10046000BD4FA30FB11D2C930196F3CF80916A026B
:10047000680F60936A0280E0089581E0089582E049
:1004800008950895E091B7028091B602E81730F41C
:10049000F0E0E65DFD4F808190E008958FEF9FEFE3
:1004A00008959091B7028091B602981750F4E92F01
:1004B000F0E0E65DFD4F208130E09F5F9093B70252
:1004C00002C02FEF3FEFC90108958091B60290E07E
:1004D0002091B702821B91090895CF93DF931F9259
:1004E0001F92CDB7DEB7CB01642F49835A83A1DFBA
:1004F0004981842F5A81952F0F900F90DF91CF91D2
:100500000895CF93DF931F92CDB7DEB7698361E083
:10051000CE0101968EDF81E090E00F90DF91CF91C8
:100520000895CF93DF939091B6028091B702981708
:10053000F1F0C0911802D0911902C031D1056CF4CC
:1005400089EC92E0AEDFFE01E65EFD4F80832196EE
:10055000D0931902C0931802E6CF1092190210929C
:10056000180289EC92E09DDF80931A02DCCFDF91C4
:10057000CF910895EAE1F2E001900020E9F7319788
:10058000AF014A515240E091C902F091CA02028083
:10059000F381E02D6AE172E089EC92E01994BED417
:1005A0001F920F920FB60F9211242F933F938F93A8
:1005B0009F93AF93BF938091C5029091C602A09183
:1005C000C702B091C8023091C40223E0230F2D3737
:1005D00020F40196A11DB11D05C026E8230F029647
:1005E000A11DB11D2093C4028093C5029093C60241
:1005F000A093C702B093C8028091C0029091C1023B
:10060000A091C202B091C3020196A11DB11D8093B9
:10061000C0029093C102A093C202B093C302BF91E3
:10062000AF919F918F913F912F910F900FBE0F909F
:100630001F9018951F920F920FB60F9211240BB6B0
:100640000F922F933F934F935F936F937F938F936B
:100650009F93AF93BF93EF93FF938091B900887FEF
:10066000803609F49CC068F5883209F45BC090F4C8
:10067000803109F454C038F4882309F4F6C0883076
:1006800009F44DC0F5C0883109F44CC0803209F43A
:100690005DC0EEC0803409F468C048F4803309F4CA
:1006A00055C0883309F0E4C080938D02D8C08035EE
:1006B00009F44FC0883509F45DC0883409F0D8C00A
:1006C000D6C0883909F4C7C0A8F4883709F467C0D0
:1006D00038F4883609F463C0803709F460C0C8C0B4
:1006E000883809F4B8C0803909F45FC0803809F04F
:1006F000BFC05BC0803B09F486C038F4803A09F47F
:1007000066C0883A09F47FC0B3C0803C09F4A7C032
:10071000883C09F4A4C0883B09F48AC0A9C0809130
:10072000B00210C09091AF028091AE02981770F5A0
:10073000E091AF0281E08E0F8093AF02F0E0E257CC
:10074000FD4F80818093BB0085EC86C080938D0235
:100750008EC0E091AF0281E08E0F8093AF02809156
:10076000BB00F0E0E257FD4F80839091AF02809193
:10077000AE026EC0E091AF0281E08E0F8093AF02B7
:100780008091BB00F0E0E257FD4F80838091B20280
:1007900081116DC081E08093B10284EA61C083E081
:1007A0008093B30210928C02CFCF80918C02803262
:1007B00008F051C0E0918C0281E08E0F80938C0292
:1007C0008091BB00F0E0E459FD4F8083BDCF85EC04
:1007D0008093BC001092B30280918C02803230F47E
:1007E000E0918C02F0E0E459FD4F108260918C02A0
:1007F00070E0E091B802F091B9028CE692E01995B0
:1008000010928C0235C084E08093B30210926B0288
:1008100010926A02E091BA02F091BB0219958091A0
:100820006A02811105C081E080936A0210924A0237
:10083000E0916B0281E08E0F80936B02F0E0E65B4B
:10084000FD4F80818093BB0090916B0280916A0282
:10085000981708F479CF85E88093BC0009C085EC2F
:100860008093BC001092B30203C010928D02D7DDBA
:10087000FF91EF91BF91AF919F918F917F916F9178
:100880005F914F913F912F910F900BBE0F900FBE34
:100890000F901F9018951092CC021092CB0288EE08
:1008A00093E0A0E0B0E08093CD029093CE02A093BD
:1008B000CF02B093D0028AE092E09093CA02809374
:1008C000C9021092D6021092D5021092D80210924C
:1008D000D7021092DA021092D90261E070E080E053
:1008E00090E038D2009789F09093D6028093D50299
:1008F0001092D8021092D7022091D9023091DA02D8
:10090000232BB9F4FC01108214C08091D502909180
:10091000D602009709F086D11092D6021092D50225
:100920001092DA021092D9021092D8021092D702D5
:1009300008951092DA021092D90266E172E0FBC2C9
:10094000789484B5826084BD84B5816084BD85B5AA
:10095000826085BD85B5816085BD80916E008160B6
:1009600080936E001092810080918100826080935C
:10097000810080918100816080938100809180005E
:100980008160809380008091B10084608093B10089
:100990008091B00081608093B0008091910082606E
:1009A000809391008091910081608093910080916B
:1009B00090008160809390008091A100826080937C
:1009C000A1008091A10081608093A1008091A0008E
:1009D00081608093A0008091210182608093210139
:1009E00080912101816080932101809120018160AB
:1009F0008093200180917A00846080937A008091B6
:100A00007A00826080937A0080917A00816080937E
:100A10007A0080917A00806880937A001092C100F9
:100A200084E28093BA008EEA91E09093BB028093B7
:100A3000BA028AEB91E09093B9028093B8021092C7
:100A4000B7021092B6021092B5021092B402109240
:100A5000B30281E08093B2021092B10284E108DC1B
:100A600085E106DC8091B9008E7F8093B90080918A
:100A7000B9008D7F8093B90088E48093B80085E445
:100A80008093BC0081E992E09093BD028093BC0208
:100A90008AEB92E09093BF028093BE02EFE8F1E010
:100AA0002491E9E4F1E08491882399F090E0880FA3
:100AB000991FFC01E85FFE4FA591B491FC01EE5D2A
:100AC000FE4F859194918FB7F894EC91E22BEC93C3
:100AD0008FBFC0E0D0E02097F1F30E940000FBCF71
:100AE0008091D5029091D6029DC0EE0FFF1F881F06
:100AF0008BBF0790F691E02D1994CF93DF9382304E
:100B0000910510F482E090E0E091DD02F091DE02C8
:100B100020E030E0C0E0D0E0309711F14081518119
:100B200048175907C0F04817590761F4828193812B
:100B3000209719F09B838A832BC09093DE028093C9
:100B4000DD0226C02115310519F04217530718F4AC
:100B50009A01BE01DF01EF010280F381E02DDCCFBD
:100B60002115310509F1281B390B2430310590F48A
:100B700012968D919C9113976115710521F0FB01DF
:100B80009383828304C09093DE028093DD02FD0193
:100B9000329644C0FD01E20FF31F819391932250DE
:100BA00031092D933C933AC02091DB023091DC0255
:100BB000232B41F420910202309103023093DC0296
:100BC0002093DB02209100023091010221153105B2
:100BD00041F42DB73EB74091040250910502241B09
:100BE000350BE091DB02F091DC02E217F307A0F491
:100BF0002E1B3F0B2817390778F0AC014E5F5F4F73
:100C00002417350748F04E0F5F1F5093DC024093C6
:100C1000DB028193919302C0E0E0F0E0CF01DF912D
:100C2000CF9108950F931F93CF93DF93009709F40B
:100C30008CC0FC013297138212820091DD02109168
:100C4000DE020115110581F420813181820F931F8D
:100C50002091DB023091DC022817390779F5F093F7
:100C6000DC02E093DB0271C0D80140E050E0AE1737
:100C7000BF0750F412962D913C911397AD012115A9
:100C8000310509F1D901F3CF9D01DA0133832283C4
:100C900060817181860F971F8217930769F4EC01B9
:100CA00028813981260F371F2E5F3F4F31832083E4
:100CB0008A819B8193838283452B29F4F093DE0202
:100CC000E093DD0242C01396FC93EE931297ED0180
:100CD000499159919E01240F351FE217F30771F4D2
:100CE00080819181840F951F029611969C938E931B
:100CF0008281938113969C938E931297E0E0F0E0AB
:100D0000D80112968D919C911397009719F0F801D4
:100D10008C01F6CF8D919C9198012E5F3F4F820FF1
:100D2000931F2091DB023091DC022817390769F408
:100D3000309729F41092DE021092DD0202C0138275
:100D400012821093DC020093DB02DF91CF911F919E
:100D50000F9108956F927F928F929F92AF92BF9260
:100D6000CF92DF92EF92FF920F931F93CF93DF9377
:100D7000EC01009781F4CB01DF91CF911F910F918E
:100D8000FF90EF90DF90CF90BF90AF909F908F90AB
:100D90007F906F90B2CEFC01E60FF71F9C012250AE
:100DA0003109E217F30708F4A8C0D9010D911C918D
:100DB000119706171707A8F00530110508F49BC016
:100DC000C80104978617970708F495C002501109C7
:100DD000061B170B019311936D937C93CF0122DFB8
:100DE0008AC05B01A01AB10A4C01800E911EA0912D
:100DF000DD02B091DE0240E050E0E12CF12C1097D2
:100E000009F44AC0A815B905D1F56D907C901197E9
:100E1000630182E0C80ED11CCA14DB0480F1A30177
:100E20004A195B096A0182E0C80ED11C1296BC9077
:100E300012971396AC91B5E0CB16D10440F0B28274
:100E4000A38351834083D9016D937C930AC00E5FC5
:100E50001F4FC301800F911FF90191838083EB2DF8
:100E6000FA2FE114F10431F0D7011396FC93EE93BD
:100E7000129741C0F093DE02E093DD023CC08D91F9
:100E80009C9111974817590708F4AC017D011296FF
:100E90000D90BC91A02DB3CF8091DB029091DC022C
:100EA00088159905E1F446175707C8F480910002A8
:100EB00090910102009741F48DB79EB740910402D2
:100EC00050910502841B950BE817F907B0F4F093D5
:100ED000DC02E093DB02F901718360830CC0CB017B
:100EE0000CDE7C01009749F0A801BE011BD0CE01A9
:100EF00099DEC70104C0CE0102C080E090E0DF911E
:100F0000CF911F910F91FF90EF90DF90CF90BF9006
:100F1000AF909F908F907F906F90089581E090E0C8
:100F2000F89410C0FB01DC0102C001900D92415009
:100F30005040D8F70895FB01DC0101900D9200208C
:100F4000E1F7089511E0C8E0D1E000E005C0802F8E
:100F5000FE01CBDD2196011DC930D10780E00807D5
:060F6000B1F7F894FFCF89
:100F66000000DF0280000000000081026D026502C1
:080F7600510242024102000099
:00000001FF
