:1000000008C1000037C1000035C1000033C1000045
:1000100031C100002FC100002DC100002BC1000024
:1000200029C1000027C1000025C1000023C1000034
:1000300021C100001FC100001DC100001BC1000044
:1000400019C1000017C1000015C1000013C1000054
:1000500011C100000FC100000DC100000C940A0C7A
:1000600009C10000BCC4000091C4000003C100002D
:1000700001C10000FFC00000FDC00000FBC0000087
:10008000F9C00000F7C00000F5C00000F3C0000098
:1000900054C4000029C40000EDC00000EBC0000003
:1000A000E9C00000E7C00000E5C00000E3C00000B8
:1000B000E1C00000DFC00000DDC00000DBC00000C8
:1000C000D9C00000D7C00000D5C00000E4C30000C4
:1000D000B9C30000CFC000008CC3000061C30000A2
:1000E000C9C00000CE05D105C005C405C805080675
:1000F000D505D905DF05E305E705ED05F105F505AE
:100100000806FB05FF050306000021002400270068
:100110002A002D0030003300010100000401070116
:100120000A0100000A0B02090C0D0E080703040166
:1001300000000000000000000000000000000000BF
:10014000000000000000000000000000000012118C
:10015000100000000000000000000000000000008F
:10016000000000000000000001021020200808101C
:100170002040102040800201020108040201010217
:1001800004081020408080402010080402018004F0
:10019000020180402010080402010804020101024B
:1001A0000408102040800102040810204080000054
:1001B0002200250028002B002E003100340002010F
:1001C0000000050108010B010505050507050808E4
:1001D0000808020202020A0A0808040404040101D1
:1001E00001010101010103030303030303030407E6
:1001F00007070C0C0C0C0C0C0C0C0202020206067D
:100200000606060606060B0B0B0B0B0B0B0B630E01
:10021000A51111241FBECFEFD1E2DEBFCDBF00E09C
:100220000CBF13E0A0E0B2E0EEE4F9E200E00BBFA7
:1002300002C007900D92AC30B107D9F726E0ACE0D0
:10024000B3E001C01D92A837B207E1F711E0C8E0A2
:10025000D1E000E006C021970109802FFE010E9435
:10026000B311C730D10780E00807A9F70E948B0CB3
:100270000C949614C5CECF92DF92EF92FF920F931B
:100280001F93CF93DF936C017A018B01C0E0D0E024
:10029000CE15DF0589F0D8016D918D01D601ED9164
:1002A000FC910190F081E02DC6011995892B11F484
:1002B0007E0102C02196ECCFC701DF91CF911F9143
:1002C0000F91FF90EF90DF90CF900895FC01A089EF
:1002D000B1898C91A689B78982FD0FC09C91818DCF
:1002E0008F5F8F73228D821749F0218DDF01A20F5E
:1002F000B11D5D969C93818F08958C910895FC01AA
:10030000918D828D981761F0828DDF01A80FB11D4C
:100310005D968C91928D9F5F9F73928F90E0089570
:100320008FEF9FEF0895FC01918D828D981731F02A
:10033000828DE80FF11D858D90E008958FEF9FEF7E
:100340000895FC01918D228D892F90E0805C9F4F54
:10035000821B91098F739927089580E193E0F1DF63
:1003600021E0892B09F420E0822F08958DEA93E0A3
:10037000E8DF21E0892B09F420E0822F08958AE448
:1003800094E0DFDF21E0892B09F420E0822F08953B
:1003900087EA95E0D6DF21E0892B09F420E0822F5F
:1003A0000895FC01848DDF01A80FB11DA35ABF4F32
:1003B0002C91848D90E001968F739927848FA68964
:1003C000B7892C93A089B1898C9180648C93938D8B
:1003D000848D981306C00288F389E02D80818F7D7B
:1003E00080830895EF92FF920F931F93CF93DF9333
:1003F000EC0181E0888F9B8D8C8D981305C0E88976
:10040000F989808185FD23C0F62E0B8D10E00F5FEA
:100410001F4F0F731127E02E8C8DE8120BC00FB603
:1004200007FCFACFE889F989808185FFF5CFCE01F5
:10043000B8DFF2CF8B8DFE01E80FF11DE35AFF4FBD
:10044000F0820B8FEA89FB898081806207C0EE8988
:10045000FF896083E889F98980818064808381E0F5
:1004600090E0DF91CF911F910F91FF90EF90089551
:10047000CF93DF93EC01888D8823C1F0EA89FB8953
:10048000808185FD05C0A889B9898C9186FD0EC043
:100490000FB607FCF5CF808185FFF2CFA889B98917
:1004A0008C9185FFEDCFCE017CDFE8CFDF91CF913E
:1004B000089580E090E0892B19F06ADF811116C061
:1004C00080E090E0892B19F05ADF811112C080E0A2
:1004D00090E0892B19F04ADF81110EC080E090E096
:1004E000892B79F03ADF81110AC008950E9400003B
:1004F000E7CF0E940000EBCF0E940000EFCF0C94EA
:10050000000008950E949F120F931F93CF93DF93D3
:10051000EC0188819981009729F02A813B81261777
:10052000370788F48B016F5F7F4F0E94BB110097E4
:1005300061F0998388831B830A832C813D81232B5F
:1005400011F4FC01108281E001C080E0DF91CF91C5
:100550001F910F9108950F931F93CF93DF93EC0199
:100560000E94770B688779878A879B87E881F98162
:100570000680F781E02DCE01199597FF17C00E94E4
:10058000770B088519852A853B85DC01CB01801B0B
:10059000910BA20BB30B0C811D812E813F81801723
:1005A0009107A207B30710F38FEF9FEFDF91CF9171
:1005B0001F910F910895EF92FF920F931F93CF9386
:1005C000DF93FC01248135816115710511F480E010
:1005D00018C041155105A1F07B01EC018A01020F01
:1005E000131FB80191DF882391F3288139818C8111
:1005F0009D81B701820F931F0E94AC121D830C8353
:1006000081E0DF91CF911F910F91FF90EF900895BE
:10061000CF93DF93EC0188819981009711F00E94BC
:10062000E713198218821D821C821B821A82DF91B5
:10063000CF910895EF92FF920F931F93CF93DF9383
:10064000EC017B018A01BA015FDF811103C0CE0199
:10065000DFDF07C01D830C83B701888199810E9469
:10066000AC12CE01DF91CF911F910F91FF90EF90CF
:100670000895FC0111821082138212821582148265
:100680006115710549F0FB0101900020E9F73197F0
:10069000AF01461B570BCECF0895FC01808191819D
:1006A0000C94E713EF92FF920F931F93CF93DF9376
:1006B000CDB7DEB762970FB6F894DEBF0FBECDBFE1
:1006C0008C01CB01F80111821082138212821582F3
:1006D000148250E09E012F5F3F4F7901B9010E94C3
:1006E000C112F70101900020E9F73197AF014E19CF
:1006F0005F09B701C8019EDF62960FB6F894DEBFAE
:100700000FBECDBFDF91CF911F910F91FF90EF9062
:100710000895FB01DC0111961C921E9213961C9207
:100720001E92129715961C921E9214978617970781
:1007300041F0608171816115710519F04481558125
:1007400079CF0895EF92FF920F931F93CF93DF938A
:100750001F921F92CDB7DEB78C017B0165E073E07D
:1007600088DFC701F8DE97FD0AC089831A8241E05D
:1007700050E0BE016F5F7F4FC8011DDFF2CFC8019F
:100780000F900F90DF91CF911F910F91FF90EF90FD
:100790000895DC01ED91FC910190F081E02D199418
:1007A0001F920F920FB60F9211240BB60F922F9338
:1007B0003F934F935F936F937F938F939F93AF93E9
:1007C000BF93EF93FF9380E193E0EBDDFF91EF9117
:1007D000BF91AF919F918F917F916F915F914F9159
:1007E0003F912F910F900BBE0F900FBE0F901F9057
:1007F00018951F920F920FB60F9211240BB60F92FD
:100800002F933F934F935F936F937F938F939F9318
:10081000AF93BF93EF93FF9380E193E057DDFF9198
:10082000EF91BF91AF919F918F917F916F915F9168
:100830004F913F912F910F900BBE0F900FBE0F90D5
:100840001F9018951F920F920FB60F9211240BB69E
:100850000F922F933F934F935F936F937F938F9359
:100860009F93AF93BF93EF93FF938DEA93E099DD4E
:10087000FF91EF91BF91AF919F918F917F916F9178
:100880005F914F913F912F910F900BBE0F900FBE34
:100890000F901F9018951F920F920FB60F92112470
:1008A0000BB60F922F933F934F935F936F937F936A
:1008B0008F939F93AF93BF93EF93FF938DEA93E052
:1008C00005DDFF91EF91BF91AF919F918F917F9146
:1008D0006F915F914F913F912F910F900BBE0F90B1
:1008E0000FBE0F901F9018951F920F920FB60F9288
:1008F00011240BB60F922F933F934F935F936F93F7
:100900007F938F939F93AF93BF93EF93FF938AE46B
:1009100094E047DDFF91EF91BF91AF919F918F914F
:100920007F916F915F914F913F912F910F900BBEEF
:100930000F900FBE0F901F9018951F920F920FB639
:100940000F9211240BB60F922F933F934F935F9307
:100950006F937F938F939F93AF93BF93EF93FF9387
:100960008AE494E0B3DCFF91EF91BF91AF919F9146
:100970008F917F916F915F914F913F912F910F9048
:100980000BBE0F900FBE0F901F9018951F920F92E5
:100990000FB60F9211240BB60F922F933F934F93E4
:1009A0005F936F937F938F939F93AF93BF93EF93D7
:1009B000FF9387EA95E0F5DCFF91EF91BF91AF914E
:1009C0009F918F917F916F915F914F913F912F9167
:1009D0000F900BBE0F900FBE0F901F9018951F9297
:1009E0000F920FB60F9211240BB60F922F933F93D5
:1009F0004F935F936F937F938F939F93AF93BF9327
:100A0000EF93FF9387EA95E061DCFF91EF91BF914F
:100A1000AF919F918F917F916F915F914F913F9196
:100A20002F910F900BBE0F900FBE0F901F90189537
:100A3000CF93DF9390E0FC01E859FE4F2491FC0135
:100A4000E853FE4F8491882361F190E0880F991F4D
:100A5000FC01E85FFE4FC591D491FC01E255FE4FC9
:100A6000A591B491611109C09FB7F8948881209530
:100A700082238883EC912E230BC0623061F49FB7F0
:100A8000F8943881822F809583238883EC912E2BD4
:100A90002C939FBF06C08FB7F894E8812E2B288334
:100AA0008FBFDF91CF9108953FB7F89480910C03E9
:100AB00090910D03A0910E03B0910F0326B5A89B52
:100AC00005C02F3F19F00196A11DB11D3FBFBA2FE0
:100AD000A92F982F8827820F911DA11DB11DBC0140
:100AE000CD0142E0660F771F881F991F4A95D1F705
:100AF0000895FC01A089B18982E08C93A485B58515
:100B00001C92A685B7858FEC8C93108EA489B5892D
:100B100086E08C93A289B3898C9180618C93A289A1
:100B2000B3898C9188608C93A289B3898C918068F9
:100B30008C930288F389E02D80818F7D80830895D6
:100B400090E0FC01EE5DFE4F4491FC01E859FE4F40
:100B50002491FC01E853FE4F9491992309F467C056
:100B6000442309F455C050E0FA013197E231F10510
:100B700008F04EC08827EE58FF4F8F4F0C94B311EA
:100B8000809180008F7707C0809180008F7D03C0A7
:100B900080918000877F809380003AC084B58F77F2
:100BA00002C084B58F7D84BD33C08091B0008F7743
:100BB00003C08091B0008F7D8093B00029C08091E8
:100BC00090008F7707C0809190008F7D03C0809147
:100BD0009000877F809390001BC08091A0008F774A
:100BE00007C08091A0008F7D03C08091A000877F07
:100BF0008093A0000DC0809120018F7707C0809165
:100C000020018F7D03C080912001877F8093200188
:100C1000E92FF0E0EE0FFF1FE255FE4FA591B491D2
:100C20008FB7F894EC9120952E232C938FBF0895C5
:100C30000F931F93CF93DF93CDB7DEB729970FB6EE
:100C4000F894DEBF0FBECDBF2FDF00916605109177
:100C500067052091680530916905DC01CB01801B97
:100C6000910BA20BB30B8C329140A105B10560F33F
:100C7000F89480915C0590915D059A838983E09159
:100C80006005F0916105DF0111968081898790915F
:100C90005805E0916A05F0916B0580916C059923E8
:100CA00009F42EC09081982B988790818095892394
:100CB0008F838F818C8388E08B8358856F814985F2
:100CC0003B812C8189819A81508347FD252F3A955C
:100CD0002083262F39F0441F00C0000060830000ED
:100CE00000C0F2CF38E04D9160830000019761F7BA
:100CF000F0936B05E0936A0549873B832C8338C0EA
:100D00009081982B98879081809589238F838F81FC
:100D10008E8388E08D8358856F8149853D812E8142
:100D200089819A81508347FD252F00C000C0208310
:100D300000C000C000C000C000C060830000262FBB
:100D40003A9541F0441F000000C000C000C000C040
:100D500000C0E8CF38E04D9100C0608300C001972B
:100D600009F7F0936B05E0936A0549873D832E836D
:100D70009A838983789498DE6093660570936705FB
:100D8000809368059093690529960FB6F894DEBFA5
:100D90000FBECDBFDF91CF911F910F9108958F921C
:100DA0009F92AF92BF92CF92DF92EF92FF920F93FA
:100DB0001F93CF93DF93EC017B0180917405909199
:100DC00075058C179D0708F06DC020917205309154
:100DD00073052C173D0708F03EC0CE010896281772
:100DE0003907C8F5A0907005B09071059093730510
:100DF0008093720526E0AC01249FC001259F900DD1
:100E000011240E945213909371058093700500E0A5
:100E100010E0C12CD12C8091740590917505C816F5
:100E2000D906B0F44501800E911E209170053091D5
:100E30007105C901800F911F009711F0B40169DCA1
:100E4000C4012BDC5FEFC51AD50A0A5F1F4FE3CF41
:100E5000C5010E94E713009174051091750586E0A5
:100E6000809F6001819FD00C1124A12CB12C0C1704
:100E70001D0798F42091700530917105C5018C0D06
:100E80009D1D820F931F009711F0B70142DC0F5F89
:100E90001F4F86E0A80EB11CEACFD0937505C09312
:100EA000740523C0C817D90700F586E08C9F600140
:100EB0008D9FD00C11248E01E12CF12C80917405B2
:100EC000909175050817190740F7C7018C0D9D1DF6
:100ED0002091700530917105820F931FDEDB0F5F4B
:100EE0001F4F46E0E40EF11CE9CFDF91CF911F9137
:100EF0000F91FF90EF90DF90CF90BF90AF909F90B9
:100F00008F900895CF93DF93AFEFB4E0FD01C191CF
:100F1000D191209741F049895A89EC0129893A8970
:100F20004217530711F1D5E0ED31FD0781F720E0BD
:100F300030E04D915D91452B89F4220F331FF9016B
:100F4000E451FB4F948B838B80911D0590911E057E
:100F5000019690931E0580931D0507C02F5F3F4F9C
:100F60002F30310531F780E001C081E0DF91CF9172
:100F70000895CB0108957F928F929F92AF92BF9276
:100F8000CF92DF92EF92FF920F931F93CF93DF9355
:100F9000EC0149015A018B01C12CD12C7601C814F6
:100FA000D904EA04FB0484F5F80171908F018F8560
:100FB00080FF0BC0E881F9810084F185E02D20E1FC
:100FC00044E060E070E0CE011995EB85FC858D85ED
:100FD0009E85E817F90738F470828B859C85019609
:100FE0009C878B870BC0E881F981672D70E0028CAC
:100FF000F38DE02DCE011995019649F02FEFC21A1D
:10100000D20AE20AF20ACBCFB401C50102C0B6018E
:10101000C701DF91CF911F910F91FF90EF90DF906B
:10102000CF90BF90AF909F908F907F900895CF9377
:10103000DF93EC01E881F9810288F389E02D1995AD
:101040008F3F2FEF920731F02D813E812F5F3F4F71
:101050003E832D83DF91CF9108958FEF9FEF089509
:1010600060E070E0CB01089580E090E00895CB014E
:101070000895CF93DF93EC0188899989DC01ED9184
:10108000FC910480F581E02D1995892BA9F38889BD
:101090009989DC01ED91FC910680F781E02DDF91CB
:1010A000CF911994CF93DF93EC0188899989DC0162
:1010B000ED91FC910480F581E02D1995892BA9F320
:1010C00088899989DC01ED91FC910084F185E02DFE
:1010D000DF91CF911994AF92BF92CF92DF92EF92AE
:1010E000FF920F931F93CF93DF9300D01F92CDB742
:1010F000DEB78C015B01C12CD12C7601F80180890F
:101100009189DC01ED91FC910680F781E02D298326
:101110003A834B835C83199529813A814B815C81A9
:101120008F3F71F0C216D306E406F5064CF4D501E4
:101130008D935D01BFEFCB1ADB0AEB0AFB0ADECF12
:10114000C701B6010F900F900F900F90DF91CF91D4
:101150001F910F91FF90EF90DF90CF90BF90AF90D5
:101160000895DC0150968D919C915197DC01ED9191
:10117000FC910480F581E02D199480E090E00895C1
:1011800080E090E0089580E090E0089580E090E0B5
:1011900008950895CF93DF93C0917705D091780596
:1011A000E881F9810480F581E02DCE011995892B24
:1011B000B9F3E881F9810680F781E02DCE01DF9156
:1011C000CF9119941F93CF93DF93182FC091770578
:1011D000D09178058A3041F4E881F9810190F0815D
:1011E000E02D6DE0CE011995E881F9810190F08143
:1011F000E02D612FCE01199521E030E0019711F427
:1012000020E030E0C901DF91CF911F9108950F9345
:101210001F93FC010285138524853585401B510BE6
:10122000620B730B77FD02C0808901C080E01F91C3
:101230000F910895FC0142835383648375838681F3
:101240009781A085B185480F591F6A1F7B1F428770
:1012500053876487758708950C94E713089508955C
:101260000C94E713DC01ED91FC91369720813181DC
:10127000820F931FF5CFFB0120813181FC01318367
:101280002083FB0142815381F9013697208131810E
:10129000FC01E20FF31F51834083089528E532E0FB
:1012A000FC013183208322E632E0318F208F68E613
:1012B00072E0E1CFDC01ED91FC9136972081318124
:1012C000820F931FEBCFCF93DF93EC01E7DFCE01CB
:1012D000DF91CF910C94E713DC01ED91FC913697EF
:1012E00020813181820F931FEECF0C94E713089574
:1012F00008950C94E713DC01ED91FC913697208161
:101300003181820F931FF5CFFB0120813181FC01D8
:1013100031832083FB0142815381F901369720817B
:101320003181FC01E20FF31F51834083089520EDCA
:1013300032E0FC01318320832AED32E0358B248BAF
:1013400060EE72E0E1CFDC01ED91FC9136972081F7
:101350003181820F931FEBCFCF93DF93EC01E7DF57
:10136000CE01DF91CF910C94E713DC01ED91FC915C
:10137000369720813181820F931FEECF0C94E713B3
:101380000F931F93CF93DF938C01EB016F3F8FEF90
:10139000780719F480E090E00DC06A3029F46DE020
:1013A000F80180899189F5D96C2FF801808991899C
:1013B000F0D9CE01DF91CF911F910F9108958F92B7
:1013C0009F92BF92CF92DF92EF92FF920F931F9363
:1013D000CF93DF9300D01F92CDB7DEB78C014B01C6
:1013E000C12CD12C7601C216D306E406F50634F5DD
:1013F000F401B1904F01FAE0BF120DC06DE0F801A9
:101400008089918929833A834B835C83C2D95C812B
:101410004B813A8129816B2DF8018089918929833B
:101420003A834B835C83B5D9FFEFCF1ADF0AEF0A0B
:10143000FF0A5C814B813A812981D5CFCA01B9016C
:101440000F900F900F900F90DF91CF911F910F9100
:10145000FF90EF90DF90CF90BF909F908F90089576
:101460004F925F926F927F928F929F92AF92BF92B4
:10147000EF92FF920F931F93CF93DF9300E010E062
:10148000E12CF12CC0E0D0E080915A0590915B05F1
:10149000C817D90708F061C020916D0580916F05CC
:1014A00090E0A0E0B0E0BA2FA92F982F8827A22BB8
:1014B00020916E05822B2D0166247724892E9A2E89
:1014C000AB2EBB24482D382F20915F05222391F0AD
:1014D000622F70E0649DA001659D500D749D500DBC
:1014E0001124452E829E40011124492D829FC00166
:1014F0001124392F20916505509162058091600576
:1015000090916105251303C08E0D9F1D06C0800FAD
:10151000911FFC01E20FF11D108220916205FC0178
:10152000E20FF11D408220916305FC01E20FF11DE5
:10153000408320916405FC01E20FF11D308380910E
:10154000600590916105892B09F072DB219683E09B
:10155000E80EF11C0C5F1F4F97CFDF91CF911F91C9
:101560000F91FF90EF90BF90AF909F908F907F90E2
:101570006F905F904F900895CF93DF93CDB7DEB714
:1015800068970FB6F894DEBF0FBECDBF8DEA93E02B
:101590000E94A101892B09F44AC06AE474E0CE01DB
:1015A0000196D0D84AE062E070E0CE010D967AD87C
:1015B000BE016F5F7F4FCE010796ABD88BE38B8B5D
:1015C0001C8A41E050E0BE016D5E7F4FCE01079660
:1015D0000E94DB02811103C0CE01079619D8498908
:1015E0005A896D857E85CE0107960E94DB028111A6
:1015F00003C0CE0107960CD8BE01695F7F4FCE01B4
:10160000439687D88091740590917505BE016D5EF3
:101610007F4F0196C4DBCE0143963FD8CE0107969B
:101620003CD8CE010D9639D8CE01019636D880E14E
:1016300093E00E94A101892B09F450C06DEA73E088
:10164000CE0101967FD84AE063E070E0CE010D96AE
:1016500029D8BE016F5F7F4FCE0107965AD88BE322
:101660008B8B1C8A41E050E0BE016D5E7F4FCE0146
:1016700007960E94DB02811104C0CE0107960E94EA
:10168000080349895A896D857E85CE0107960E9497
:10169000DB02811104C0CE0107960E940803BE013F
:1016A000695F7F4FCE01439634D880917405909145
:1016B0007505BE016D5E7F4F019671DBCE014396CD
:1016C0000E944D03CE0107960E944D03CE010D9658
:1016D0000E944D03CE0101960E944D0368960FB6FD
:1016E000F894DEBF0FBECDBFDF91CF9108952FB725
:1016F000F8946091E8047091E9048091EA04909173
:10170000EB042FBF08950F931F93CF93DF93EC014A
:10171000EE85FF85309709F01995E9DF6E837F83A9
:10172000888799870A811B812C813D81DC01CB014F
:10173000800F911FA21FB31F8A879B87AC87BD872D
:10174000DF91CF911F910F9108958F929F92AF9249
:10175000BF92CF92DF92EF92FF920F931F93CF939E
:10176000DF93EC01EE85FF85309709F01995BFDF17
:101770004B015C018E016E012EE1C20ED11CE12CE9
:10178000F12C89A99AA98E159F0524F1D8015396A9
:101790008D919C9154970097C1F0BFEFEB1AFB0A13
:1017A000DC01ED91FC910280F381E02DB501A401F3
:1017B0001995882351F0F80183899489DC01ED9112
:1017C000FC910480F581E02D19950E5F1F4F0C15DB
:1017D0001D05B9F68CDF6E837F83888799870A8120
:1017E0001B812C813D81DC01CB01800F911FA21F49
:1017F000B31F8A879B87AC87BD87DF91CF911F91ED
:101800000F91FF90EF90DF90CF90BF90AF909F909F
:101810008F9008951F920F920FB60F9211242F935D
:101820003F938F939F93AF93BF938091E8049091E0
:10183000E904A091EA04B091EB043091E70423E0BD
:10184000230F2D3720F40196A11DB11D05C026E8F8
:10185000230F0296A11DB11D2093E7048093E80495
:101860009093E904A093EA04B093EB0480910C03F5
:1018700090910D03A0910E03B0910F030196A11D4D
:10188000B11D80930C0390930D03A0930E03B093AE
:101890000F03BF91AF919F918F913F912F910F9027
:1018A0000FBE0F901F901895CF93DF93EC018885A2
:1018B0009985009709F08BD78E8187FD04C060E081
:1018C000DF91CF91B5C8DF91CF9108950895089524
:1018D0000895EF92FF920F931F93CF93DF937C01B4
:1018E00000E010E0C0E0D0E0F70124813581808184
:1018F0009181C217D30740F4800F911F0E944D03BE
:1019000021960A5F1F4FF0CFDF91CF911F910F916A
:10191000FF90EF905CC7CF93DF93CDB7DEB72D97E5
:101920000FB6F894DEBF0FBECDBF789484B5826049
:1019300084BD84B5816084BD85B5826085BD85B573
:10194000816085BD80916E00816080936E001092F1
:10195000810080918100826080938100809181006C
:1019600081608093810080918000816080938000FD
:101970008091B10084608093B1008091B00081605B
:101980008093B0008091910082608093910080915B
:10199000910081608093910080919000816080939C
:1019A00090008091A10082608093A1008091A100AD
:1019B00081608093A1008091A00081608093A0004D
:1019C00080912101826080932101809121018160B9
:1019D000809321018091200181608093200180917A
:1019E0007A00846080937A0080917A00826080938C
:1019F0007A0080917A00816080937A0080917A00E9
:101A0000806880937A001092C10080915E0587FD06
:101A100005C061E00DD880915E0592D881E0809389
:101A200059058091600590916105892B09F000D9D5
:101A300011E0109355058AE0C82ED12CE12CF12C31
:101A4000C0924705D0924805E0924905F0924A05B8
:101A500080914B0590914C05A0914D05B0914E059C
:101A60000A96A11DB11D80934F0590935005A09338
:101A70005105B093520580E39AE09093540580930A
:101A800053058DEA93E035D880E193E032D8109386
:101A90004205C0923405D0923505E0923605F092A9
:101AA00037058091380590913905A0913A05B0919C
:101AB0003B050A96A11DB11D80933C0590933D0501
:101AC000A0933E05B0933F058CEB9AE090934105BF
:101AD0008093400585E495E015DA82E395E012DA1B
:101AE0008FE195E00FDA10926D058FEF80936E0510
:101AF00010926F0587EA95E00E94790548E050E072
:101B00006AEF72E087EA95E00E943B0142E050E014
:101B100063E073E087EA95E00E943B0106E0BB24A6
:101B2000BA948CEE94E011DE66E073E0CE01089684
:101B30000E943903BE01685F7F4FCE0101960E946B
:101B400089034D815E8169817A818DEA93E00E94EB
:101B50003B014D815E8169817A8180E193E00E9441
:101B60003B01CE0101960E944D03CE0108960E94D2
:101B70004D0380917405909175059E838D83089621
:101B80009C838B839C01029FC001039F900D1124B5
:101B900089D59A838983E12CF12CC12CD12C8D819C
:101BA0009E81C816D906A8F46091700570917105E0
:101BB0006E0D7F1D89819A818E0D9F1D009711F0FA
:101BC0000E9489033FEFC31AD30A86E0E80EF11C96
:101BD000E6CF8091740590917505892BF1F0C12CA9
:101BE000D12CE12CF12C8091740590917505E816AB
:101BF000F90678F480917005909171058C0D9D1D0A
:101C00000E944D032FEFE21AF20A36E0C30ED11CF8
:101C1000EACF1092750510927405E12CF12CC12CBD
:101C2000D12C8D819E81C816D90608F046C0E98165
:101C3000FA81EE0DFF1D448155816081718187EA33
:101C400095E00E943B0142E050E063E073E087EAE8
:101C500095E00E943B0166E073E0CE0108960E9489
:101C60003903E981FA81EE0DFF1D4C855D85848184
:101C700095818417950768F080819181009749F0DC
:101C8000688579856115710521F06DD411E0892B86
:101C900009F010E0CE0108960E944D03112331F0A7
:101CA00010926D0510926E05B0926F058FEFC81AF5
:101CB000D80A26E0E20EF11CB4CFCE01019609DE6F
:101CC0000E9459022ECFCF92DF92EF92FF921F9384
:101CD000CF93DF93CDB7DEB765970FB6F894DEBF2D
:101CE0000FBECDBF109213031092120348EE53E0C3
:101CF00060E070E040931403509315036093160363
:101D00007093170382E392E0909311038093100382
:101D100025E331E030931D0320931C0324E331E0DD
:101D200030931F0320931E0320E331E030932103FF
:101D30002093200321E331E03093230320932203F7
:101D400022E331E0309325032093240326E331E09E
:101D500030932703209326031092290310922A031D
:101D600010922B0310922C031092B0031092AF0329
:101D70004093B1035093B2036093B3037093B403E1
:101D80009093AE038093AD0325ED30E03093BA031A
:101D90002093B90324ED30E03093BC032093BB03C0
:101DA00020ED30E03093BE032093BD0321ED30E001
:101DB0003093C0032093BF0322ED30E03093C20381
:101DC0002093C10326ED30E03093C4032093C30376
:101DD0001092C6031092C7031092C8031092C90351
:101DE00010924D0410924C0440934E0450934F04B3
:101DF000609350047093510490934B0480934A0471
:101E00002DEC30E030935704209356042CEC30E056
:101E1000309359042093580428EC30E030935B044D
:101E200020935A0429EC30E030935D0420935C0445
:101E30002AEC30E030935F0420935E042EEC30E017
:101E40003093610420936004109263041092640440
:101E5000109265041092660427EA35E01092AA05F4
:101E60001092A9054093AB055093AC056093AD0566
:101E70007093AE059093A8058093A70585EC90E03C
:101E80009093B4058093B30584EC90E09093B605ED
:101E90008093B50580EC90E09093B8058093B705EA
:101EA00081EC90E09093BA058093B90582EC90E0C4
:101EB0009093BC058093BB0586EC90E09093BE05A3
:101EC0008093BD051092C0051092C1051092C20505
:101ED0001092C30561E270E070935C0660935B064C
:101EE00010925D0610925E0610925F0646E0C42EC8
:101EF000D12CE12CF12CC0926006D0926106E092C8
:101F00006206F092630610926406109265061092C3
:101F100066061092670640E24093680610926A06D1
:101F20001092690610926D0686E496E090936C0616
:101F300080936B0680ED92E0909345068093440673
:101F40008AED92E0909359068093580610924A06C3
:101F50001092490610924C0610924B0610924E06B3
:101F600010924D061092500610924F061092520693
:101F70001092510610925406109253068EEA92E087
:101F80009093470680934606309357062093560653
:101F900050E1509355067093950560939405109207
:101FA00096051092970510929805C0929905D092C7
:101FB0009A05E0929B05F0929C0510929D05109267
:101FC0009E0510929F051092A0054093A1051092C6
:101FD000A3051092A2051092A60510927B051092FF
:101FE0007C0510927D0510927E054FE755E05093D9
:101FF000A5054093A40548E552E050937A05409327
:10200000790542E652E05093920540939105109273
:102010008305109282051092850510928405109216
:1020200087051092860510928905109288051092F6
:102030008B0510928A0510928D0510928C05909355
:10204000800580937F053093900520938F0588E06D
:1020500080938E0530937805209377056AEC78E0BD
:1020600082EE98E0BBD2109275051092740588E05C
:1020700090E0909373058093720580E390E012D313
:10208000909371058093700581E0809358051092BC
:10209000590510925B0510925A0510925D05109239
:1020A0005C059FEF90935E0510925F0510926105AD
:1020B00010926005809362051092630592E0909300
:1020C000640580936505109266051092670510926D
:1020D0006805109269051A8218861F86188A198A5F
:1020E0001A8A8E878B871C869D87898389E690E074
:1020F0009E838D83D7D29A878987009751F029E6EE
:10210000FC0111922A95E9F783E290E09C838B838E
:1021100004C01E821D821C821B8289E08F838A81FB
:10212000882339F061E089E00E94180589E00E9467
:10213000A005E1EDF1E0E491F0E0EE0FFF1FE255C4
:10214000FE4F859194919C8B8B8BE1E7F1E0E491BC
:10215000ED8B85E1FE013196A8E5B5E001900D9289
:102160008A95E1F7CE0101969FDB8FEF80936D0595
:1021700080936E0580936F0594EFE92E92E0F92E1F
:10218000F0924605E092450511E010935505109236
:1021900054051092530510924F051092500510925D
:1021A000510510925205A3DA60934B0570934C05CC
:1021B00080934D0590934E0525E435E03093570507
:1021C0002093560510924705109248051092490534
:1021D00010924A0560934F05709350058093510506
:1021E00090935205F0923305E09232051093420528
:1021F000109241051092400510923C0510923D0549
:1022000010923E0510923F0572DA60933805709384
:10221000390580933A0590933B0522E335E03093EE
:102220004405209343051092340510923505109211
:1022300036051092370560933C0570933D058093F9
:102240003E0590933F05F0922005E0921F05109304
:102250002F0510922E0510922D051092290510922F
:102260002A0510922B0510922C0541DA6093250562
:102270007093260580932705909328052FE135E07C
:1022800030933105209330051092210510922205DC
:1022900010922305109224056093290570932A0556
:1022A00080932B0590932C05F092ED04E092EC04C2
:1022B0001093FC041092FB041092FA041092F6049E
:1022C0001092F7041092F8041092F90410DA609357
:1022D000F2047093F3048093F4049093F5042CEECD
:1022E00034E03093FE042093FD041092EE0410922B
:1022F000EF041092F0041092F1046093F6047093CE
:10230000F7048093F8049093F9048AEE92E0909396
:10231000ED048093EC0410921E0510921D05EFEF62
:10232000F4E01192119285E0ED31F807D1F765964E
:102330000FB6F894DEBF0FBECDBFDF91CF911F91D6
:10234000FF90EF90DF90CF90089588E595E0ACDAAC
:1023500080E795E0BEDA89E795E00E944E0984E4C3
:1023600096E00C949709EE0FFF1F881F8BBF079014
:10237000F691E02D19946F927F928F929F92AF9277
:10238000BF92CF92DF92EF92FF920F931F93CF9362
:10239000DF93EC01009781F4CB01DF91CF911F9186
:1023A0000F91FF90EF90DF90CF90BF90AF909F90F4
:1023B0008F907F906F9076C1FC01E60FF71F9C0114
:1023C00022503109E217F30708F4A8C0D9010D9192
:1023D0001C91119706171707A8F00530110508F48E
:1023E0009BC0C80104978617970708F495C0025050
:1023F0001109061B170B019311936D937C93CF0169
:10240000E6D18AC05B01A01AB10A4C01800E911E70
:10241000A0917606B091770640E050E0E12CF12CD7
:10242000109709F44AC0A815B905D1F56D907C90B4
:102430001197630182E0C80ED11CCA14DB0480F13D
:10244000A3014A195B096A0182E0C80ED11C1296E9
:10245000BC9012971396AC91B5E0CB16D10440F026
:10246000B282A38351834083D9016D937C930AC0C8
:102470000E5F1F4FC301800F911FF901918380836D
:10248000EB2DFA2FE114F10431F0D7011396FC93F0
:10249000EE93129741C0F0937706E09376063CC026
:1024A0008D919C9111974817590708F4AC017D0153
:1024B00012960D90BC91A02DB3CF8091740690918F
:1024C000750688159905E1F446175707C8F48091F9
:1024D000000290910102009741F48DB79EB74091A0
:1024E000040250910502841B950BE817F907B0F41C
:1024F000F0937506E0937406F901718360830CC054
:10250000CB01D0D07C01009749F0A801BE011BD0BF
:10251000CE015DD1C70104C0CE0102C080E090E0D1
:10252000DF91CF911F910F91FF90EF90DF90CF90AF
:10253000BF90AF909F908F907F906F90089581E0B3
:1025400090E0F894F3C1FB01DC0102C001900D9210
:1025500041505040D8F70895FB01DC0101900D92E5
:102560000020E1F70895FB01DC014150504030F0BC
:102570008D910190801919F40020B9F7881B990BEF
:1025800008954532510518F4423008F004C0FB01AB
:102590001082CB010895BB274A3031F4992322F4ED
:1025A000BDE2909581959F4F01C0BB27FB01552748
:1025B000AA27880F991FAA1FA41710F0A41B8395A0
:1025C0005051B9F7A05DAA3308F0A95DA193009717
:1025D00079F7B111B1931192CB0198C10F931F9369
:1025E000CF93DF93009731F46115710519F480E002
:1025F00090E039C08B01EC016EE070E081E090E08A
:1026000037D0FC01892B99F380E8838301151105EC
:1026100071F01387028781E8838380916E06909121
:102620006F06892B21F4F0936F06E0936E062097D6
:10263000C9F0D187C08783818260838380917006CF
:1026400090917106892B71F4F0937106E0937006F6
:102650008091720690917306892B21F4F093730692
:10266000E0937206CF01DF91CF911F910F910895F2
:102670000F931F93CF93DF93869F8001879F100D49
:10268000969F100D1124C8010DD0EC01009721F088
:10269000A80160E070E033D1CE01DF91CF911F91AE
:1026A0000F910895CF93DF938230910510F482E06B
:1026B00090E0E0917606F091770620E030E0C0E00F
:1026C000D0E0309711F14081518148175907C0F08F
:1026D0004817590761F482819381209719F09B83F1
:1026E0008A832BC0909377068093760626C02115A7
:1026F000310519F04217530718F49A01BE01DF01A2
:10270000EF010280F381E02DDCCF2115310509F1C5
:10271000281B390B2430310590F412968D919C9131
:1027200013976115710521F0FB019383828304C027
:102730009093770680937606FD01329644C0FD01A2
:10274000E20FF31F81939193225031092D933C9313
:102750003AC02091740630917506232B41F42091E4
:102760000202309103023093750620937406209183
:102770000002309101022115310541F42DB73EB719
:102780004091040250910502241B350BE091740620
:10279000F0917506E217F307A0F42E1B3F0B2817E4
:1027A000390778F0AC014E5F5F4F2417350748F0CA
:1027B0004E0F5F1F5093750640937406819391935B
:1027C00002C0E0E0F0E0CF01DF91CF9108950F93D8
:1027D0001F93CF93DF93009709F48CC0FC013297CD
:1027E0001382128200917606109177060115110569
:1027F00081F420813181820F931F209174063091E2
:1028000075062817390779F5F0937506E093740675
:1028100071C0D80140E050E0AE17BF0750F41296E7
:102820002D913C911397AD012115310509F1D90185
:10283000F3CF9D01DA013383228360817181860F9A
:10284000971F8217930769F4EC0128813981260FBD
:10285000371F2E5F3F4F318320838A819B81938373
:102860008283452B29F4F0937706E093760642C0E5
:102870001396FC93EE931297ED01499159919E01A5
:10288000240F351FE217F30771F480819181840FC3
:10289000951F029611969C938E9382819381139635
:1028A0009C938E931297E0E0F0E0D80112968D9100
:1028B0009C911397009719F0F8018C01F6CF8D9138
:1028C0009C9198012E5F3F4F820F931F20917406B9
:1028D000309175062817390769F4309729F410925A
:1028E00077061092760602C0138212821093750644
:1028F00000937406DF91CF911F910F910895DC0131
:1029000001C06D9341505040E0F70895DC01FC0197
:10291000672F71917723E1F7329704C07C916D9313
:1029200070836291AE17BF07C8F3089511E0C8E045
:10293000D1E000E005C0802FFE0115DD2196011DCC
:0E294000C930D10780E00807B1F7F894FFCF47
:10294E000000780680001800000000000000000063
:10295E00E8FFE8FF00000000000014000000000087
:10296E0000000000ECFFECFF000000000000000083
:10297E000000F2013B01A1017F0193013802060024
:10298E00000000002E093009FAFFFAFF00002F099F
:10299E0032091800000000004E096309E8FFE8FF45
:1029AE0000005A096C0958020C021602620200005D
:1029BE000000660C2C09C908C608C308C008BD086B
:1029CE00340830082D0817083708BB07B90702006E
:1029DE000000000077097909FEFFFEFF000078096C
:1029EE007B0900000000680CBE0900000000670CA7
:1029FE007509C908C608C308C008BD08B1086B0828
:102A0E00520839083708DF09C00914000000000019
:102A1E009709AC09ECFFECFF0000A309B509D00241
:102A2E0020022A02DA02000000001A090709A50B8B
:102A3E00000000001A090709830B535441525449F0
:0C2A4E004E47000D0A00424C55450000A8
:00000001FF
