:1000000008C1000037C1000035C1000033C1000045
:1000100031C100002FC100002DC100002BC1000024
:1000200029C1000027C1000025C1000023C1000034
:1000300021C100001FC100001DC100001BC1000044
:1000400019C1000017C1000015C1000013C1000054
:1000500011C100000FC100000DC1000093C70000D6
:1000600009C100000C94EA0B0C94C10B03C1000001
:1000700001C10000FFC00000FDC00000FBC0000087
:10008000F9C00000F7C00000F5C00000F3C0000098
:100090000C94980B0C946F0BEDC00000EBC00000AB
:1000A000E9C00000E7C00000E5C00000E3C00000B8
:1000B000E1C00000DFC00000DDC00000DBC00000C8
:1000C000D9C00000D7C00000D5C000000C94460B7A
:1000D0000C941D0BCFC000000C94F40A0C94CB0AB6
:1000E000C9C0000090019301820186018A01CA0102
:1000F00097019B01A101A501A901AF01B301B701BE
:10010000CA01BD01C101C50100000A0B02090C0DA5
:100110000E080703040100000000000000000000BA
:1001200000000000000000000000000000000000CF
:10013000000000001211100000000000000000008C
:1001400000000000000000000000000000000102AC
:1001500010202008081020401020408002010201D9
:100160000804020101020408102040808040201091
:1001700008040201800402018040201008040201EA
:100180000804020101020408102040800102040852
:100190001020408000002200250028002B002E00A7
:1001A0003100340002010000050108010B010505C2
:1001B0000505070508080808020202020A0A0808DD
:1001C000040404040101010101010101030303030B
:1001D00003030303040707070C0C0C0C0C0C0C0C9A
:1001E0000202020206060606060606060B0B0B0BAB
:1001F0000B0B0B0B00002100240027002A002D0010
:100200003000330001010000040107010A01740CF1
:10021000621111241FBECFEFD1E2DEBFCDBF00E0DF
:100220000CBF13E0A0E0B2E0ECECF8E200E00BBFA2
:1002300002C007900D92A230B107D9F726E0A2E0E4
:10024000B3E001C01D92AE36B207E1F711E0C8E09D
:10025000D1E000E006C021970109802FFE010E9435
:100260007211C730D10780E00807A9F70E94B70FC5
:100270000C945514C5CEFC01A089B18982E08C9301
:10028000A485B5851C92A685B7858FEC8C93108EBE
:10029000A489B58986E08C93A289B3898C91806109
:1002A0008C93A289B3898C9188608C93A289B3893D
:1002B0008C9180688C930288F389E02D80818F7DFA
:1002C0008083089590E0FC01E85FFE4F4491FC01BB
:1002D000E25BFE4F2491FC01E255FE4F949199237D
:1002E00009F467C0442309F455C050E0FA0131977E
:1002F000E231F10508F04EC08827EE58FF4F8F4FCE
:100300000C947211809180008F7707C080918000DB
:100310008F7D03C080918000877F809380003AC0EA
:1003200084B58F7702C084B58F7D84BD33C0809142
:10033000B0008F7703C08091B0008F7D8093B000B4
:1003400029C0809190008F7707C0809190008F7DA9
:1003500003C080919000877F809390001BC08091A4
:10036000A0008F7707C08091A0008F7D03C080918F
:10037000A000877F8093A0000DC0809120018F771F
:1003800007C0809120018F7D03C080912001877F6D
:1003900080932001E92FF0E0EE0FFF1FEC56FE4F97
:1003A000A591B4918FB7F894EC9120952E232C93BE
:1003B0008FBF08950F931F93CF93DF93CDB7DEB711
:1003C00029970FB6F894DEBF0FBECDBF0E944F0C29
:1003D00000915C0510915D0520915E0530915F05EF
:1003E000DC01CB01801B910BA20BB30B8C32914033
:1003F000A105B10558F3F8948091520590915305E9
:100400009A838983E0915605F0915705DF01119693
:100410008081898790914E05E0916005F09161059A
:1004200080916205992309F42EC09081982B9887BA
:100430009081809589238F838F818C8388E08B8343
:1004400058856F8149853B812C8189819A815083B0
:1004500047FD252F3A952083262F39F0441F00C0F1
:1004600000006083000000C0F2CF38E04D9160834F
:100470000000019761F7F0936105E09360054987FB
:100480003B832C8338C09081982B988790818095EE
:1004900089238F838F818E8388E08D8358856F8138
:1004A00049853D812E8189819A81508347FD252F81
:1004B00000C000C0208300C000C000C000C000C059
:1004C00060830000262F3A9541F0441F000000C0D1
:1004D00000C000C000C000C0E8CF38E04D9100C0AF
:1004E000608300C0019709F7F0936105E093600510
:1004F00049873D832E839A83898378940E944F0C89
:1005000060935C0570935D0580935E0590935F0535
:1005100029960FB6F894DEBF0FBECDBFDF91CF9105
:100520001F910F9108958F929F92AF92BF92CF9299
:10053000DF92EF92FF920F931F93CF93DF93EC0123
:100540007B0180916A0590916B058C179D0708F0DF
:100550006DC020916805309169052C173D0708F0A2
:100560003EC0CE01089628173907C8F5A090660549
:10057000B0906705909369058093680526E0AC010B
:10058000249FC001259F900D11240E941113909368
:1005900067058093660500E010E0C12CD12C8091A6
:1005A0006A0590916B05C816D906B0F44501800E16
:1005B000911E2091660530916705C901800F911F3A
:1005C000009711F0B40197D7C40159D75FEFC51A4E
:1005D000D50A0A5F1F4FE3CFC5010E94A613009101
:1005E0006A0510916B0586E0809F6001819FD00CA9
:1005F0001124A12CB12C0C171D0798F4209166052D
:1006000030916705C5018C0D9D1D820F931F0097CA
:1006100011F0B70170D70F5F1F4F86E0A80EB11C15
:10062000EACFD0936B05C0936A0523C0C817D907DA
:1006300000F586E08C9F60018D9FD00C11248E0107
:10064000E12CF12C80916A0590916B050817190730
:1006500040F7C7018C0D9D1D2091660530916705FF
:10066000820F931F0CD70F5F1F4F46E0E40EF11C63
:10067000E9CFDF91CF911F910F91FF90EF90DF9025
:10068000CF90BF90AF909F908F900895CF93DF93BE
:10069000A5EFB4E0FD01C191D191209741F04989C6
:1006A0005A89EC0129893A894217530711F1D5E09B
:1006B000E331FD0781F720E030E04D915D91452B5E
:1006C00089F4220F331FF901EE51FB4F948B838B7A
:1006D00080911305909114050196909314058093D1
:1006E000130507C02F5F3F4F2F30310531F780E0F2
:1006F00001C081E0DF91CF910895CB0108957F92F1
:100700008F929F92AF92BF92CF92DF92EF92FF9221
:100710000F931F93CF93DF93EC0149015A018B0193
:10072000C12CD12C7601C814D904EA04FB0484F549
:10073000F80171908F018F8580FF0BC0E881F981EE
:100740000084F185E02D20E144E060E070E0CE011E
:100750001995EB85FC858D859E85E817F90738F49A
:1007600070828B859C8501969C878B870BC0E88166
:10077000F981672D70E0028CF38DE02DCE01199583
:10078000019649F02FEFC21AD20AE20AF20ACBCF41
:10079000B401C50102C0B601C701DF91CF911F911D
:1007A0000F91FF90EF90DF90CF90BF90AF909F9010
:1007B0008F907F900895CF93DF93EC01E881F981CA
:1007C0000288F389E02D19958F3F2FEF920731F0C2
:1007D0002D813E812F5F3F4F3E832D83DF91CF914F
:1007E00008958FEF9FEF089560E070E0CB010895CA
:1007F00080E090E00895CB010895CF93DF93EC0162
:1008000088899989DC01ED91FC910480F581E02DC6
:100810001995892BA9F388899989DC01ED91FC91BF
:100820000680F781E02DDF91CF911994CF93DF936C
:10083000EC0188899989DC01ED91FC910480F581B6
:10084000E02D1995892BA9F388899989DC01ED910F
:10085000FC910084F185E02DDF91CF911994AF9246
:10086000BF92CF92DF92EF92FF920F931F93CF939D
:10087000DF9300D01F92CDB7DEB78C015B01C12C96
:10088000D12C7601F80180899189DC01ED91FC91F0
:100890000680F781E02D29833A834B835C83199589
:1008A00029813A814B815C818F3F71F0C216D3065A
:1008B000E406F5064CF4D5018D935D01BFEFCB1A2C
:1008C000DB0AEB0AFB0ADECFC701B6010F900F90DF
:1008D0000F900F90DF91CF911F910F91FF90EF90AC
:1008E000DF90CF90BF90AF900895DC0150968D912E
:1008F0009C915197DC01ED91FC910480F581E02DF4
:10090000199480E090E0089580E090E0089580E000
:1009100090E0089580E090E008950895CF93DF93EC
:10092000C0916D05D0916E05E881F9810480F58153
:10093000E02DCE011995892BB9F3E881F981068064
:10094000F781E02DCE01DF91CF9119941F93CF93C2
:10095000DF93182FC0916D05D0916E058A3041F458
:10096000E881F9810190F081E02D6DE0CE011995CB
:10097000E881F9810190F081E02D612FCE01199578
:1009800021E030E0019711F420E030E0C901DF916F
:10099000CF911F9108950F931F93FC01028513853A
:1009A00024853585401B510B620B730B77FD02C00C
:1009B000808901C080E01F910F910895FC0142835E
:1009C00053836483758386819781A085B185480FA1
:1009D000591F6A1F7B1F4287538764877587089555
:1009E0000C94A613089508950C94A613DC01ED91C0
:1009F000FC91369720813181820F931FF5CFFB0147
:100A000020813181FC0131832083FB0142815381AC
:100A1000F901369720813181FC01E20FF31F5183E8
:100A20004083089528E532E0FC013183208322E6EB
:100A300032E0318F208F68E672E0E1CFDC01ED918A
:100A4000FC91369720813181820F931FEBCFCF939A
:100A5000DF93EC01E7DFCE01DF91CF910C94A61379
:100A6000DC01ED91FC91369720813181820F931F3B
:100A7000EECF0C94A613089508950C94A613DC01F0
:100A8000ED91FC91369720813181820F931FF5CF34
:100A9000FB0120813181FC0131832083FB014281F4
:100AA0005381F901369720813181FC01E20FF31F58
:100AB00051834083089520ED32E0FC01318320838F
:100AC0002AED32E0358B248B60EE72E0E1CFDC0161
:100AD000ED91FC91369720813181820F931FEBCFEE
:100AE000CF93DF93EC01E7DFCE01DF91CF910C9440
:100AF000A613DC01ED91FC91369720813181820FA4
:100B0000931FEECF0C94A6130F931F93CF93DF93F5
:100B10008C01EB016F3F8FEF780719F480E090E0D4
:100B20000DC06A3029F46DE0F801808991892CD5D7
:100B30006C2FF8018089918927D5CE01DF91CF9163
:100B40001F910F9108958F929F92BF92CF92DF9243
:100B5000EF92FF920F931F93CF93DF9300D01F92DA
:100B6000CDB7DEB78C014B01C12CD12C7601C2165A
:100B7000D306E406F50634F5F401B1904F01FAE02E
:100B8000BF120DC06DE0F8018089918929833A83F5
:100B90004B835C83F9D45C814B813A8129816B2D35
:100BA000F8018089918929833A834B835C83ECD453
:100BB000FFEFCF1ADF0AEF0AFF0A5C814B813A810F
:100BC0002981D5CFCA01B9010F900F900F900F90D6
:100BD000DF91CF911F910F91FF90EF90DF90CF9019
:100BE000BF909F908F9008954F925F926F927F92E7
:100BF0008F929F92AF92BF92EF92FF920F931F93AB
:100C0000CF93DF9300E010E0E12CF12CC0E0D0E0C6
:100C10008091500590915105C817D90708F061C01F
:100C2000209163058091650590E0A0E0B0E0BA2FC7
:100C3000A92F982F8827A22B20916405822B2D01A4
:100C400066247724892E9A2EAB2EBB24482D382F6C
:100C500020915505222391F0622F70E0649DA00140
:100C6000659D500D749D500D1124452E829E4001AE
:100C70001124492D829FC0011124392F20915B0539
:100C8000509158058091560590915705251303C042
:100C90008E0D9F1D06C0800F911FFC01E20FF11DFC
:100CA000108220915805FC01E20FF11D4082209135
:100CB0005905FC01E20FF11D408320915A05FC010A
:100CC000E20FF11D30838091560590915705892BD5
:100CD00009F070DB219683E0E80EF11C0C5F1F4FDA
:100CE00097CFDF91CF911F910F91FF90EF90BF9021
:100CF000AF909F908F907F906F905F904F900895EE
:100D0000CF93DF93CDB7DEB768970FB6F894DEBF09
:100D10000FBECDBF8FE993E01DD2892B09F448C0E7
:100D20006CE374E0CE010196FFD34AE061E070E02D
:100D3000CE010D96A9D3BE016F5F7F4FCE010796FE
:100D4000DAD38BE38B8B1C8A41E050E0BE016D5EF1
:100D50007F4FCE01079635D3811103C0CE01079690
:100D60005DD349895A896D857E85CE01079629D341
:100D7000811103C0CE01079651D3BE01695F7F4F39
:100D8000CE014396B8D380916A0590916B05BE0160
:100D90006D5E7F4F0196C7DBCE01439670D3CE01C7
:100DA00007966DD3CE010D966AD3CE01019667D317
:100DB00082E093E0CFD1892B09F448C06FE973E05A
:100DC000CE010196B1D34AE062E070E0CE010D960B
:100DD0005BD3BE016F5F7F4FCE0107968CD38BE351
:100DE0008B8B1C8A41E050E0BE016D5E7F4FCE01CF
:100DF0000796E7D2811103C0CE0107960FD3498928
:100E00005A896D857E85CE010796DBD2811103C09C
:100E1000CE01079603D3BE01695F7F4FCE01439693
:100E20006AD380916A0590916B05BE016D5E7F4F1C
:100E3000019679DBCE01439622D3CE0107961FD3CC
:100E4000CE010D961CD3CE01019619D368960FB62C
:100E5000F894DEBF0FBECDBFDF91CF9108952FB7BD
:100E6000F8946091DA047091DB048091DC04909135
:100E7000DD042FBF08950F931F93CF93DF93EC01F1
:100E8000EE85FF85309709F01995E9DF6E837F8342
:100E9000888799870A811B812C813D81DC01CB01E8
:100EA000800F911FA21FB31F8A879B87AC87BD87C6
:100EB000DF91CF911F910F9108958F929F92AF92E2
:100EC000BF92CF92DF92EF92FF920F931F93CF9337
:100ED000DF93EC01EE85FF85309709F01995BFDFB0
:100EE0004B015C018E016E012EE1C20ED11CE12C82
:100EF000F12C89A99AA98E159F0524F1D801539642
:100F00008D919C9154970097C1F0BFEFEB1AFB0AAB
:100F1000DC01ED91FC910280F381E02DB501A4018B
:100F20001995882351F0F80183899489DC01ED91AA
:100F3000FC910480F581E02D19950E5F1F4F0C1573
:100F40001D05B9F68CDF6E837F83888799870A81B8
:100F50001B812C813D81DC01CB01800F911FA21FE1
:100F6000B31F8A879B87AC87BD87DF91CF911F9185
:100F70000F91FF90EF90DF90CF90BF90AF909F9038
:100F80008F9008951F920F920FB60F9211242F93F6
:100F90003F938F939F93AF93BF938091DA04909187
:100FA000DB04A091DC04B091DD043091D90423E08E
:100FB000230F2D3720F40196A11DB11D05C026E891
:100FC000230F0296A11DB11D2093D9048093DA044A
:100FD0009093DB04A093DC04B093DD048091DE04E5
:100FE0009091DF04A091E004B091E1040196A11D6D
:100FF000B11D8093DE049093DF04A093E004B093CE
:10100000E104BF91AF919F918F913F912F910F90EC
:101010000FBE0F901F901895CF93DF93EC0188853A
:101020009985009711F00E94A6138E8187FD04C058
:1010300060E0DF91CF91F7C3DF91CF9108950895DC
:1010400008950895EF92FF920F931F93CF93DF932C
:101050007C0100E010E0C0E0D0E0F70124813581A0
:1010600080819181C217D30738F4800F911F07D276
:1010700021960A5F1F4FF1CFDF91CF911F910F9102
:10108000FF90EF900C94A613CF92DF92EF92FF9215
:101090000F931F93CF93DF936C017A018B01C0E014
:1010A000D0E0CE15DF0589F0D8016D918D01D60114
:1010B000ED91FC910190F081E02DC6011995892BED
:1010C00011F47E0102C02196ECCFC701DF91CF91D0
:1010D0001F910F91FF90EF90DF90CF900895FC014A
:1010E000A089B1898C91A689B78982FD0FC09C9196
:1010F000818D8F5F8F73228D821749F0218DDF01E3
:10110000A20FB11D5D969C93818F08958C910895D7
:10111000FC01918D828D981761F0828DDF01A80FFF
:10112000B11D5D968C91928D9F5F9F73928F90E021
:1011300008958FEF9FEF0895FC01918D828D981790
:1011400031F0828DE80FF11D858D90E008958FEFCD
:101150009FEF0895FC01918D228D892F90E0805C96
:101160009F4F821B91098F739927089582E093E026
:10117000F1DF21E0892B09F420E0822F08958FE927
:1011800093E0E8DF21E0892B09F420E0822F089525
:101190008CE394E0DFDF21E0892B09F420E0822F4B
:1011A00008958DE995E0D6DF21E0892B09F420E050
:1011B000822F0895FC01848DDF01A80FB11DA35A71
:1011C000BF4F2C91848D90E001968F739927848F67
:1011D000A689B7892C93A089B1898C9180648C935E
:1011E000938D848D981306C00288F389E02D808149
:1011F0008F7D80830895EF92FF920F931F93CF937B
:10120000DF93EC0181E0888F9B8D8C8D981305C056
:10121000E889F989808185FD23C0F62E0B8D10E0C9
:101220000F5F1F4F0F731127E02E8C8DE8120BC03C
:101230000FB607FCFACFE889F989808185FFF5CFE1
:10124000CE01B8DFF2CF8B8DFE01E80FF11DE35A1E
:10125000FF4FF0820B8FEA89FB898081806207C093
:10126000EE89FF896083E889F989808180648083C1
:1012700081E090E0DF91CF911F910F91FF90EF906F
:101280000895CF93DF93EC01888D8823C1F0EA891C
:10129000FB89808185FD05C0A889B9898C9186FD6F
:1012A0000EC00FB607FCF5CF808185FFF2CFA8896D
:1012B000B9898C9185FFEDCFCE017CDFE8CFDF913E
:1012C000CF91089580E090E0892B19F06ADF8111B9
:1012D00016C080E090E0892B19F05ADF811112C00E
:1012E00080E090E0892B19F04ADF81110EC080E088
:1012F00090E0892B79F03ADF81110AC008950E94AD
:101300000000E7CF0E940000EBCF0E940000EFCF6B
:101310000C94000008950E945E120F931F93CF93C8
:10132000DF93EC0188819981009729F02A813B8124
:101330002617370780F48B016F5F7F4FDBD700974D
:1013400061F0998388831B830A832C813D81232B41
:1013500011F4FC01108281E001C080E0DF91CF91A7
:101360001F910F9108950F931F93CF93DF93EC017B
:1013700076DD688779878A879B87E881F98106808F
:10138000F781E02DCE01199597FF16C068DD08851D
:1013900019852A853B85DC01CB01801B910BA20BB3
:1013A000B30B0C811D812E813F8180179107A2070D
:1013B000B30718F38FEF9FEFDF91CF911F910F913C
:1013C0000895EF92FF920F931F93CF93DF93FC0149
:1013D000248135816115710511F480E018C0411533
:1013E0005105A1F07B01EC018A01020F131FB80126
:1013F00094DF882391F3288139818C819D81B70105
:10140000820F931F0E946B121D830C8381E0DF917A
:10141000CF911F910F91FF90EF900895CF93DF939D
:10142000EC0188819981009711F00E94A61319821E
:1014300018821D821C821B821A82DF91CF9108952F
:10144000EF92FF920F931F93CF93DF93EC017B01F9
:101450008A01BA0162DF811103C0CE01DFDF07C05C
:101460001D830C83B701888199810E946B12CE0184
:10147000DF91CF911F910F91FF90EF900895FC01A4
:10148000808191810C94A613EF92FF920F931F938A
:10149000CF93DF93CDB7DEB762970FB6F894DEBF78
:1014A0000FBECDBF8C01CB01F801118210821382D7
:1014B00012821582148250E09E012F5F3F4F790106
:1014C000B9010E948012F70101900020E9F73197DD
:1014D000AF014E195F09B701C801B2DF62960FB6BE
:1014E000F894DEBF0FBECDBFDF91CF911F910F915A
:1014F000FF90EF900895FB01DC0111961C921E9263
:1015000013961C921E92129715961C921E92149777
:101510008617970741F0608171816115710519F097
:10152000448155818DCF0895EF92FF920F931F93C1
:10153000CF93DF931F921F92CDB7DEB78C017B0153
:10154000FC0111821082138212821582148240E003
:1015500050E06CEF72E074DFC70105DF97FD0AC051
:1015600089831A8241E050E0BE016F5F7F4FC8015E
:1015700028DFF2CFC8010F900F90DF91CF911F911C
:101580000F91FF90EF900895DC01ED91FC91019097
:10159000F081E02D19941F920F920FB60F92112433
:1015A0000BB60F922F933F934F935F936F937F935D
:1015B0008F939F93AF93BF93EF93FF9382E093E05A
:1015C000F9DDFF91EF91BF91AF919F918F917F9145
:1015D0006F915F914F913F912F910F900BBE0F90A4
:1015E0000FBE0F901F9018951F920F920FB60F927B
:1015F00011240BB60F922F933F934F935F936F93EA
:101600007F938F939F93AF93BF93EF93FF9382E06A
:1016100093E065DDFF91EF91BF91AF919F918F9125
:101620007F916F915F914F913F912F910F900BBEE2
:101630000F900FBE0F901F9018951F920F920FB62C
:101640000F9211240BB60F922F933F934F935F93FA
:101650006F937F938F939F93AF93BF93EF93FF937A
:101660008FE993E0A7DDFF91EF91BF91AF919F913B
:101670008F917F916F915F914F913F912F910F903B
:101680000BBE0F900FBE0F901F9018951F920F92D8
:101690000FB60F9211240BB60F922F933F934F93D7
:1016A0005F936F937F938F939F93AF93BF93EF93CA
:1016B000FF938FE993E013DDFF91EF91BF91AF911D
:1016C0009F918F917F916F915F914F913F912F915A
:1016D0000F900BBE0F900FBE0F901F9018951F928A
:1016E0000F920FB60F9211240BB60F922F933F93C8
:1016F0004F935F936F937F938F939F93AF93BF931A
:10170000EF93FF938CE394E055DDFF91EF91BF9150
:10171000AF919F918F917F916F915F914F913F9189
:101720002F910F900BBE0F900FBE0F901F9018952A
:101730001F920F920FB60F9211240BB60F922F9398
:101740003F934F935F936F937F938F939F93AF9349
:10175000BF93EF93FF938CE394E0C1DCFF91EF9193
:10176000BF91AF919F918F917F916F915F914F91B9
:101770003F912F910F900BBE0F900FBE0F901F90B7
:1017800018951F920F920FB60F9211240BB60F925D
:101790002F933F934F935F936F937F938F939F9379
:1017A000AF93BF93EF93FF938DE995E003DDFF9136
:1017B000EF91BF91AF919F918F917F916F915F91C9
:1017C0004F913F912F910F900BBE0F900FBE0F9036
:1017D0001F9018951F920F920FB60F9211240BB6FF
:1017E0000F922F933F934F935F936F937F938F93BA
:1017F0009F93AF93BF93EF93FF938DE995E06FDCD9
:10180000FF91EF91BF91AF919F918F917F916F91D8
:101810005F914F913F912F910F900BBE0F900FBE94
:101820000F901F901895CF93DF9390E0FC01E25B3F
:10183000FE4F2491FC01E255FE4F8491882361F113
:1018400090E0880F991FFC01EC50FE4FC591D49198
:10185000FC01EC56FE4FA591B491611109C09FB7F0
:10186000F8948881209582238883EC912E230BC0E5
:10187000623061F49FB7F8943881822F809583237A
:101880008883EC912E2B2C939FBF06C08FB7F894C2
:10189000E8812E2B28838FBFDF91CF9108953FB72A
:1018A000F8948091DE049091DF04A091E004B0915F
:1018B000E10426B5A89B05C02F3F19F00196A11D94
:1018C000B11D3FBFBA2FA92F982F8827820F911DD6
:1018D000A11DB11DBC01CD0142E0660F771F881F1D
:1018E000991F4A95D1F70895CF92DF92EF92FF9218
:1018F0001F93CF93DF93CDB7DEB765970FB6F894FC
:10190000DEBF0FBECDBF109205031092040348EE58
:1019100053E060E070E04093060350930703609348
:1019200008037093090382E392E09093030380938A
:10193000020325E331E030930F0320930E0324E3E9
:1019400031E0309311032093100320E331E0309312
:1019500013032093120321E331E030931503209306
:10196000140322E331E0309317032093160326E398
:1019700031E0309319032093180310921B03109247
:101980001C0310921D0310921E031092A2031092CA
:10199000A1034093A3035093A4036093A503709302
:1019A000A6039093A00380939F0325ED30E030932E
:1019B000AC032093AB0324ED30E03093AE032093CF
:1019C000AD0320ED30E03093B0032093AF0321ED61
:1019D00030E03093B2032093B10322ED30E0309336
:1019E000B4032093B30326ED30E03093B603209385
:1019F000B5031092B8031092B9031092BA03109273
:101A0000BB0310923F0410923E0440934004509355
:101A10004104609342047093430490933D04809387
:101A20003C042DEC30E030934904209348042CEC26
:101A300030E030934B0420934A0428EC30E030939C
:101A40004D0420934C0429EC30E030934F04209354
:101A50004E042AEC30E030935104209350042EECD5
:101A600030E03093530420935204109255041092A6
:101A7000560410925704109258042DE935E0109244
:101A8000A00510929F054093A1055093A205609375
:101A9000A3057093A40590939E0580939D0585EC06
:101AA00090E09093AA058093A90584EC90E0909330
:101AB000AC058093AB0580EC90E09093AE058093ED
:101AC000AD0581EC90E09093B0058093AF0582EC7A
:101AD00090E09093B2058093B10586EC90E09093EE
:101AE000B4058093B3051092B6051092B705109215
:101AF000B8051092B90561E270E0709352066093E8
:101B0000510610925306109254061092550646E064
:101B1000C42ED12CE12CF12CC0925606D09257063F
:101B2000E0925806F092590610925A0610925B06FF
:101B300010925C0610925D0640E240935E061092A1
:101B4000600610925F06109263068CE396E0909315
:101B500062068093610680ED92E090933B0680934D
:101B60003A068AED92E090934F0680934E061092CB
:101B7000400610923F0610924206109241061092C3
:101B800044061092430610924606109245061092A3
:101B900048061092470610924A06109249068EEAAD
:101BA00092E090933D0680933C0630934D0620933F
:101BB0004C0650E150934B0670938B0560938A0559
:101BC00010928C0510928D0510928E05C0928F0593
:101BD000D0929005E0929105F092920510929305B3
:101BE00010929405109295051092960540939705D2
:101BF000109299051092980510929C05109271050B
:101C000010927205109273051092740545E755E025
:101C100050939B0540939A0548E552E05093700518
:101C200040936F0542E652E0509388054093870544
:101C3000109279051092780510927B0510927A0522
:101C400010927D0510927C0510927F0510927E0502
:101C500010928105109280051092830510928205E2
:101C600090937605809375053093860520938505BE
:101C700088E08093840530936E0520936D056EE8AF
:101C800074E086EA94E069D410926B0510926A05BC
:101C900088E090E0909369058093680580E390E088
:101CA000C0D4909367058093660581E080934E05CC
:101CB00010924F0510925105109250051092530545
:101CC000109252059FEF9093540510925505109273
:101CD000570510925605809358051092590592E0C9
:101CE00090935A0580935B0510925C0510925D05F8
:101CF00010925E0510925F051A8218861F86188A58
:101D0000198A1A8A8E878B871C869D87898389E624
:101D100090E09E838D8385D49A878987009751F0C0
:101D200029E6FC0111922A95E9F783E290E09C8371
:101D30008B8304C01E821D821C821B8289E08F83DC
:101D40008A81882331F061E089E06DDD89E00E94BD
:101D50006201E7EBF1E0E491F0E0EE0FFF1FEC56DB
:101D6000FE4F859194919C8B8B8BE7E5F1E0E4919C
:101D7000ED8B85E1FE013196AEE4B5E001900D9268
:101D80008A95E1F7CE01019647D98FEF80936305DD
:101D9000809364058093650594EFE92E92E0F92E17
:101DA000F0923C05E0923B0511E010934B05109238
:101DB0004A05109249051092450510924605109269
:101DC0004705109248054BD8609341057093420532
:101DD00080934305909344052BE335E030934D0504
:101DE00020934C0510923D0510923E0510923F0540
:101DF0001092400560934505709346058093470512
:101E000090934805F0922905E09228051093380533
:101E10001092370510923605109232051092330554
:101E200010923405109235051AD860932E057093E0
:101E30002F05809330059093310528E235E03093EB
:101E40003A052093390510922A0510922B0510921D
:101E50002C0510922D056093320570933305809305
:101E6000340590933505F0921605E0921505109310
:101E70002505109224051092230510921F0510923B
:101E8000200510922105109222050E942F076093D1
:101E90001B0570931C0580931D0590931E0525E17D
:101EA00035E03093270520932605109217051092F0
:101EB00018051092190510921A0560931F0570936A
:101EC00020058093210590932205F092E304E0928F
:101ED000E2041093F2041092F1041092F0041092B4
:101EE000EC041092ED041092EE041092EF040E94A4
:101EF0002F076093E8047093E9048093EA049093B9
:101F0000EB0422EE34E03093F4042093F3041092B7
:101F1000E4041092E5041092E6041092E704609342
:101F2000EC047093ED048093EE049093EF048AEE3A
:101F300092E09093E3048093E204109214051092CF
:101F40001305E5EFF4E01192119285E0E331F80713
:101F5000D1F765960FB6F894DEBF0FBECDBFDF9107
:101F6000CF911F91FF90EF90DF90CF900895CF9386
:101F7000DF93CDB7DEB72D970FB6F894DEBF0FBE57
:101F8000CDBF789484B5826084BD84B5816084BD02
:101F900085B5826085BD85B5816085BD80916E0007
:101FA000816080936E001092810080918100826038
:101FB0008093810080918100816080938100809175
:101FC00080008160809380008091B1008460809364
:101FD000B1008091B00081608093B0008091910049
:101FE0008260809391008091910081608093910044
:101FF000809190008160809390008091A100826028
:102000008093A1008091A10081608093A1008091C4
:10201000A00081608093A000809121018260809364
:102020002101809121018160809321018091200113
:1020300081608093200180917A00846080937A008F
:1020400080917A00826080937A0080917A0081602A
:1020500080937A0080917A00806880937A00109251
:10206000C1008091540587FD06C061E0DCDB8091F2
:1020700054050E94620181E080934F0580915605CE
:1020800090915705892B11F00E94DA0111E010930D
:102090004B058AE0C82ED12CE12CF12CC0923D05D5
:1020A000D0923E05E0923F05F092400580914105B7
:1020B00090914205A0914305B09144050A96A11D57
:1020C000B11D8093450590934605A0934705B093B5
:1020D000480584EF95E090934A05809349058FE980
:1020E00093E00E943B0182E093E00E943B01109349
:1020F0003805C0922A05D0922B05E0922C05F0926B
:102100002D0580912E0590912F05A0913005B0915D
:1021100031050A96A11DB11D8093320590933305B8
:10212000A0933405B093350580E896E09093370589
:10213000809336058BE395E00E94460388E295E0A4
:102140000E94460385E195E00E94460310926305D4
:102150008FEF809364051092650506E0BB24BA9466
:1021600082EE94E00E945D0780916A0590916B0574
:102170009E838D8308969C838B839C01029FC00164
:10218000039F900D11244DD29A838983E12CF12C69
:10219000C12CD12C8D819E81C816D906A0F46091E6
:1021A0006605709167056E0D7F1D89819A818E0D80
:1021B0009F1D009709F09FD93FEFC31AD30A86E00D
:1021C000E80EF11CE7CF80916A0590916B05892B91
:1021D000E9F0C12CD12CE12CF12C80916A05909171
:1021E0006B05E816F90670F4809166059091670515
:1021F0008C0D9D1D44D92FEFE21AF20A36E0C30E72
:10220000D11CEBCF10926B0510926A05E12CF12CDA
:10221000C12CD12C8D819E81C816D90608F04CC0E6
:10222000E981FA81EE0DFF1D448155816081718144
:102230008DE995E00E94440842E050E06AEF72E0C8
:102240008DE995E00E944408198618861B861A8637
:102250001D861C8644E050E06DEF72E0CE010896CA
:10226000EFD8E981FA81EE0DFF1D4C855D858481F3
:1022700095818417950768F080819181009749F0D6
:10228000688579856115710521F02CD111E0892BC4
:1022900009F010E0CE010896F2D8112331F0109227
:1022A000630510926405B09265058FEFC81AD80ACD
:1022B00026E0E20EF11CAECFCE0101960E9422086C
:1022C00001D84ECF8EE495E00E940C0886E695E09A
:1022D0000E9422088FE695E00E9412058AE396E0AC
:1022E0000C945B05EE0FFF1F881F8BBF0790F691C4
:1022F000E02D19946F927F928F929F92AF92BF922E
:10230000CF92DF92EF92FF920F931F93CF93DF93C1
:10231000EC01009781F4CB01DF91CF911F910F91D8
:10232000FF90EF90DF90CF90BF90AF909F908F90F5
:102330007F906F9076C1FC01E60FF71F9C01225041
:102340003109E217F30708F4A8C0D9010D911C91D7
:10235000119706171707A8F00530110508F49BC060
:10236000C80104978617970708F495C00250110911
:10237000061B170B019311936D937C93CF01E6D14C
:102380008AC05B01A01AB10A4C01800E911EA09177
:102390006C06B0916D0640E050E0E12CF12C1097F6
:1023A00009F44AC0A815B905D1F56D907C90119734
:1023B000630182E0C80ED11CCA14DB0480F1A301C2
:1023C0004A195B096A0182E0C80ED11C1296BC90C2
:1023D00012971396AC91B5E0CB16D10440F0B282BF
:1023E000A38351834083D9016D937C930AC00E5F10
:1023F0001F4FC301800F911FF90191838083EB2D43
:10240000FA2FE114F10431F0D7011396FC93EE9307
:10241000129741C0F0936D06E0936C063CC08D911D
:102420009C9111974817590708F4AC017D01129649
:102430000D90BC91A02DB3CF80916A0690916B0650
:1024400088159905E1F446175707C8F480910002F2
:1024500090910102009741F48DB79EB7409104021C
:1024600050910502841B950BE817F907B0F4F0931F
:102470006B06E0936A06F901718360830CC0CB019F
:10248000D0D07C01009749F0A801BE011BD0CE013D
:102490005DD1C70104C0CE0102C080E090E0DF91B1
:1024A000CF911F910F91FF90EF90DF90CF90BF9051
:1024B000AF909F908F907F906F90089581E090E013
:1024C000F894F3C1FB01DC0102C001900D92415070
:1024D0005040D8F70895FB01DC0101900D920020D7
:1024E000E1F70895FB01DC014150504030F08D913F
:1024F0000190801919F40020B9F7881B990B0895F1
:102500004532510518F4423008F004C0FB01108236
:10251000CB010895BB274A3031F4992322F4BDE260
:10252000909581959F4F01C0BB27FB015527AA2796
:10253000880F991FAA1FA41710F0A41B8395505150
:10254000B9F7A05DAA3308F0A95DA193009779F7C8
:10255000B111B1931192CB0198C10F931F93CF93F7
:10256000DF93009731F46115710519F480E090E074
:1025700039C08B01EC016EE070E081E090E037D073
:10258000FC01892B99F380E883830115110571F013
:102590001387028781E883838091640690916506A2
:1025A000892B21F4F0936506E09364062097C9F027
:1025B000D187C087838182608383809166069091F2
:1025C0006706892B71F4F0936706E09366068091A5
:1025D000680690916906892B21F4F0936906E093CF
:1025E0006806CF01DF91CF911F910F9108950F934E
:1025F0001F93CF93DF93869F8001879F100D969F37
:10260000100D1124C8010DD0EC01009721F0A80194
:1026100060E070E033D1CE01DF91CF911F910F9137
:102620000895CF93DF938230910510F482E090E01B
:10263000E0916C06F0916D0620E030E0C0E0D0E063
:10264000309711F14081518148175907C0F0481760
:10265000590761F482819381209719F09B838A83C3
:102660002BC090936D0680936C0626C02115310512
:1026700019F04217530718F49A01BE01DF01EF0168
:102680000280F381E02DDCCF2115310509F1281BF3
:10269000390B2430310590F412968D919C9113974B
:1026A0006115710521F0FB019383828304C090932F
:1026B0006D0680936C06FD01329644C0FD01E20F69
:1026C000F31F81939193225031092D933C933AC08B
:1026D00020916A0630916B06232B41F4209102026F
:1026E0003091030230936B0620936A06209100021A
:1026F000309101022115310541F42DB73EB74091CB
:10270000040250910502241B350BE0916A06F091FA
:102710006B06E217F307A0F42E1B3F0B28173907AF
:1027200078F0AC014E5F5F4F2417350748F04E0F2D
:102730005F1F50936B0640936A068193919302C08A
:10274000E0E0F0E0CF01DF91CF9108950F931F9368
:10275000CF93DF93009709F48CC0FC01329713826A
:10276000128200916C0610916D060115110581F41D
:1027700020813181820F931F20916A0630916B0670
:102780002817390779F5F0936B06E0936A0671C054
:10279000D80140E050E0AE17BF0750F412962D91DB
:1027A0003C911397AD012115310509F1D901F3CF02
:1027B0009D01DA013383228360817181860F971F27
:1027C0008217930769F4EC0128813981260F371F9E
:1027D0002E5F3F4F318320838A819B819383828345
:1027E000452B29F4F0936D06E0936C0642C01396D6
:1027F000FC93EE931297ED01499159919E01240F9C
:10280000351FE217F30771F480819181840F951FC2
:10281000029611969C938E938281938113969C933A
:102820008E931297E0E0F0E0D80112968D919C9182
:102830001397009719F0F8018C01F6CF8D919C91B8
:1028400098012E5F3F4F820F931F20916A063091AF
:102850006B062817390769F4309729F410926D0632
:1028600010926C0602C01382128210936B060093C2
:102870006A06DF91CF911F910F910895DC0101C08D
:102880006D9341505040E0F70895DC01FC01672F43
:1028900071917723E1F7329704C07C916D93708337
:1028A0006291AE17BF07C8F3089511E0C8E0D1E008
:1028B00000E005C0802FFE0115DD2196011DC93005
:0C28C000D10780E00807B1F7F894FFCFC3
:1028CC0000006E06800018000000000000000000F0
:1028DC00E8FFE8FF0000000000001400000000000A
:1028EC0000000000ECFFECFF000000000000000006
:1028FC000000FB084408AA0888089C084109060047
:10290C0000000000F204F404FAFFFAFF0000F304E4
:10291C00F60418000000000012052705E8FFE8FF88
:10292C0000001E05300558020C021602620200005F
:10293C0000001F08F0048D048A04870484048104B9
:10294C00F803F403F103DB03FB037F037D030200B5
:10295C00000000003B053D05FEFFFEFF00003C05AE
:10296C003F0500000000210882050000000020083F
:10297C0039058D048A0487048404810475042F04AA
:10298C001604FD03FB03A3058405140000000000DE
:10299C005B057005ECFFECFF000067057905D002C4
:1029AC0020022A02DA0200000000DE04CB045D07DC
:1029BC0000000000DE04CB043B070D0A00424C551E
:0229CC004500C4
:00000001FF
